{
  "contractName": "Census",
  "abi": [
    {
      "inputs": [],
      "payable": false,
      "stateMutability": "nonpayable",
      "type": "constructor"
    },
    {
      "anonymous": false,
      "inputs": [
        {
          "indexed": true,
          "internalType": "uint256",
          "name": "_maxResidents",
          "type": "uint256"
        },
        {
          "indexed": true,
          "internalType": "uint256",
          "name": "_extraResidents",
          "type": "uint256"
        }
      ],
      "name": "houseAddedEvent",
      "type": "event"
    },
    {
      "constant": true,
      "inputs": [],
      "name": "houseCount",
      "outputs": [
        {
          "internalType": "uint256",
          "name": "",
          "type": "uint256"
        }
      ],
      "payable": false,
      "stateMutability": "view",
      "type": "function"
    },
    {
      "constant": true,
      "inputs": [
        {
          "internalType": "address",
          "name": "",
          "type": "address"
        }
      ],
      "name": "houses",
      "outputs": [
        {
          "internalType": "bool",
          "name": "registered",
          "type": "bool"
        },
        {
          "internalType": "uint256",
          "name": "maxResidents",
          "type": "uint256"
        },
        {
          "internalType": "uint256",
          "name": "extraResidents",
          "type": "uint256"
        },
        {
          "internalType": "string",
          "name": "houseType",
          "type": "string"
        }
      ],
      "payable": false,
      "stateMutability": "view",
      "type": "function"
    },
    {
      "constant": true,
      "inputs": [],
      "name": "owner",
      "outputs": [
        {
          "internalType": "address",
          "name": "",
          "type": "address"
        }
      ],
      "payable": false,
      "stateMutability": "view",
      "type": "function"
    },
    {
      "constant": true,
      "inputs": [
        {
          "internalType": "uint256",
          "name": "",
          "type": "uint256"
        }
      ],
      "name": "people",
      "outputs": [
        {
          "internalType": "bool",
          "name": "registered",
          "type": "bool"
        },
        {
          "internalType": "uint256",
          "name": "id",
          "type": "uint256"
        },
        {
          "internalType": "address",
          "name": "home",
          "type": "address"
        },
        {
          "internalType": "bool",
          "name": "isMale",
          "type": "bool"
        },
        {
          "internalType": "bool",
          "name": "isHispanic",
          "type": "bool"
        },
        {
          "internalType": "uint32",
          "name": "age",
          "type": "uint32"
        },
        {
          "internalType": "uint32",
          "name": "birthDate",
          "type": "uint32"
        },
        {
          "internalType": "string",
          "name": "race",
          "type": "string"
        }
      ],
      "payable": false,
      "stateMutability": "view",
      "type": "function"
    },
    {
      "constant": true,
      "inputs": [],
      "name": "personCount",
      "outputs": [
        {
          "internalType": "uint256",
          "name": "",
          "type": "uint256"
        }
      ],
      "payable": false,
      "stateMutability": "view",
      "type": "function"
    },
    {
      "constant": false,
      "inputs": [
        {
          "internalType": "uint256",
          "name": "_maxResidents",
          "type": "uint256"
        },
        {
          "internalType": "uint256",
          "name": "_extraResidents",
          "type": "uint256"
        },
        {
          "internalType": "string",
          "name": "_housetype",
          "type": "string"
        }
      ],
      "name": "addHouse",
      "outputs": [],
      "payable": false,
      "stateMutability": "nonpayable",
      "type": "function"
    },
    {
      "constant": false,
      "inputs": [
        {
          "internalType": "bool",
          "name": "_ismale",
          "type": "bool"
        },
        {
          "internalType": "bool",
          "name": "_ishispanic",
          "type": "bool"
        },
        {
          "internalType": "uint32",
          "name": "_age",
          "type": "uint32"
        },
        {
          "internalType": "uint32",
          "name": "_birthdate",
          "type": "uint32"
        },
        {
          "internalType": "string",
          "name": "_race",
          "type": "string"
        }
      ],
      "name": "addPerson",
      "outputs": [],
      "payable": false,
      "stateMutability": "nonpayable",
      "type": "function"
    },
    {
      "constant": true,
      "inputs": [],
      "name": "getHouse",
      "outputs": [
        {
          "internalType": "bool",
          "name": "",
          "type": "bool"
        },
        {
          "internalType": "uint256",
          "name": "",
          "type": "uint256"
        },
        {
          "internalType": "uint256",
          "name": "",
          "type": "uint256"
        },
        {
          "internalType": "string",
          "name": "",
          "type": "string"
        },
        {
          "internalType": "uint256[]",
          "name": "",
          "type": "uint256[]"
        }
      ],
      "payable": false,
      "stateMutability": "view",
      "type": "function"
    },
    {
      "constant": true,
      "inputs": [
        {
          "internalType": "uint256",
          "name": "index",
          "type": "uint256"
        }
      ],
      "name": "getPerson",
      "outputs": [
        {
          "internalType": "bool",
          "name": "",
          "type": "bool"
        },
        {
          "internalType": "address",
          "name": "",
          "type": "address"
        },
        {
          "internalType": "bool",
          "name": "",
          "type": "bool"
        },
        {
          "internalType": "bool",
          "name": "",
          "type": "bool"
        },
        {
          "internalType": "uint32",
          "name": "",
          "type": "uint32"
        },
        {
          "internalType": "uint32",
          "name": "",
          "type": "uint32"
        },
        {
          "internalType": "string",
          "name": "",
          "type": "string"
        }
      ],
      "payable": false,
      "stateMutability": "view",
      "type": "function"
    },
    {
      "constant": true,
      "inputs": [
        {
          "internalType": "uint256[]",
          "name": "resiNums",
          "type": "uint256[]"
        }
      ],
      "name": "getPeople",
      "outputs": [
        {
          "internalType": "bool[]",
          "name": "",
          "type": "bool[]"
        },
        {
          "internalType": "bool[]",
          "name": "",
          "type": "bool[]"
        },
        {
          "internalType": "bool[]",
          "name": "",
          "type": "bool[]"
        },
        {
          "internalType": "uint256[]",
          "name": "",
          "type": "uint256[]"
        },
        {
          "internalType": "uint256[]",
          "name": "",
          "type": "uint256[]"
        },
        {
          "internalType": "string[]",
          "name": "",
          "type": "string[]"
        }
      ],
      "payable": false,
      "stateMutability": "view",
      "type": "function"
    }
  ],
  "bytecode": "0x608060405234801561001057600080fd5b50336000806101000a81548173ffffffffffffffffffffffffffffffffffffffff021916908373ffffffffffffffffffffffffffffffffffffffff16021790555060006001819055506000600281905550611f0a806100706000396000f3fe608060405234801561001057600080fd5b506004361061009e5760003560e01c80637abb3d1b116100665780637abb3d1b1461016a5780638da5cb5b1461019d5780639e7a13ad146101bb578063bd74f8b1146101f2578063e2b0966c146102105761009e565b806304e2064f146100a3578063246982c4146100c5578063499f1b74146100fb5780636159330f1461011757806378495bf81461014c575b600080fd5b6100ab61022c565b6040516100bc959493929190611b60565b60405180910390f35b6100df60048036036100da91908101906114f7565b6103b6565b6040516100f29796959493929190611a19565b60405180910390f35b61011560048036036101109190810190611468565b61053e565b005b610131600480360361012c9190810190611427565b610853565b6040516101439695949392919061198e565b60405180910390f35b610154610cff565b6040516101619190611c41565b60405180910390f35b610184600480360361017f91908101906113fe565b610d05565b6040516101949493929190611b14565b60405180910390f35b6101a5610dda565b6040516101b29190611973565b60405180910390f35b6101d560048036036101d091908101906114f7565b610dff565b6040516101e9989796959493929190611a8f565b60405180910390f35b6101fa610f46565b6040516102079190611c41565b60405180910390f35b61022a60048036036102259190810190611520565b610f4c565b005b60008060006060806000600360003373ffffffffffffffffffffffffffffffffffffffff1673ffffffffffffffffffffffffffffffffffffffff168152602001908152602001600020905060008160000160009054906101000a900460ff16905060008260010154905060008360010154905060008460030190506060856004018054806020026020016040519081016040528092919081815260200182805480156102f757602002820191906000526020600020905b8154815260200190600101908083116102e3575b505050505090508484848484818054600181600116156101000203166002900480601f0160208091040260200160405190810160405280929190818152602001828054600181600116156101000203166002900480156103985780601f1061036d57610100808354040283529160200191610398565b820191906000526020600020905b81548152906001019060200180831161037b57829003601f168201915b505050505091509a509a509a509a509a505050505050509091929394565b60008060008060008060606000600460008a8152602001908152602001600020905060008160000160009054906101000a900460ff16905060008260020160009054906101000a900473ffffffffffffffffffffffffffffffffffffffff16905060008360020160149054906101000a900460ff16905060008460020160159054906101000a900460ff16905060008560020160169054906101000a900463ffffffff169050600086600201601a9054906101000a900463ffffffff1690506060876003018054600181600116156101000203166002900480601f01602080910402602001604051908101604052809291908181526020018280546001816001161561010002031660029004801561050f5780601f106104e45761010080835404028352916020019161050f565b820191906000526020600020905b8154815290600101906020018083116104f257829003601f168201915b50505050509050868686868686869e509e509e509e509e509e509e505050505050505050919395979092949650565b6000600360003373ffffffffffffffffffffffffffffffffffffffff1673ffffffffffffffffffffffffffffffffffffffff1681526020019081526020016000209050600115158160000160009054906101000a900460ff161515146105d9576040517f08c379a00000000000000000000000000000000000000000000000000000000081526004016105d090611be1565b60405180910390fd5b8060010154816004018054905010610626576040517f08c379a000000000000000000000000000000000000000000000000000000000815260040161061d90611bc1565b60405180910390fd5b61062e611143565b60405180610100016040528060011515815260200160015481526020013373ffffffffffffffffffffffffffffffffffffffff168152602001881515815260200187151581526020018663ffffffff1681526020018563ffffffff1681526020018481525090508060046000600154815260200190815260200160002060008201518160000160006101000a81548160ff0219169083151502179055506020820151816001015560408201518160020160006101000a81548173ffffffffffffffffffffffffffffffffffffffff021916908373ffffffffffffffffffffffffffffffffffffffff16021790555060608201518160020160146101000a81548160ff02191690831515021790555060808201518160020160156101000a81548160ff02191690831515021790555060a08201518160020160166101000a81548163ffffffff021916908363ffffffff16021790555060c082015181600201601a6101000a81548163ffffffff021916908363ffffffff16021790555060e08201518160030190805190602001906107c69291906111b0565b50905050600360003373ffffffffffffffffffffffffffffffffffffffff1673ffffffffffffffffffffffffffffffffffffffff168152602001908152602001600020600401600154908060018154018082558091505090600182039060005260206000200160009091929091909150555060016000815480929190600101919050555050505050505050565b60608060608060608060008090505b87518110156108f55760011515600460008a848151811061087f57fe5b6020026020010151815260200190815260200160002060000160009054906101000a900460ff161515146108e8576040517f08c379a00000000000000000000000000000000000000000000000000000000081526004016108df90611c21565b60405180910390fd5b8080600101915050610862565b50606087516040519080825280602002602001820160405280156109285781602001602082028038833980820191505090505b5090506060885160405190808252806020026020018201604052801561095d5781602001602082028038833980820191505090505b509050606089516040519080825280602002602001820160405280156109925781602001602082028038833980820191505090505b50905060608a516040519080825280602002602001820160405280156109c75781602001602082028038833980820191505090505b50905060608b516040519080825280602002602001820160405280156109fc5781602001602082028038833980820191505090505b50905060608c51604051908082528060200260200182016040528015610a3657816020015b6060815260200190600190039081610a215790505b50905060008090505b8d51811015610cdd57600460008f8381518110610a5857fe5b6020026020010151815260200190815260200160002060000160009054906101000a900460ff16878281518110610a8b57fe5b602002602001019015159081151581525050600460008f8381518110610aad57fe5b6020026020010151815260200190815260200160002060020160149054906101000a900460ff16868281518110610ae057fe5b602002602001019015159081151581525050600460008f8381518110610b0257fe5b6020026020010151815260200190815260200160002060020160159054906101000a900460ff16858281518110610b3557fe5b602002602001019015159081151581525050600460008f8381518110610b5757fe5b6020026020010151815260200190815260200160002060020160169054906101000a900463ffffffff1663ffffffff16848281518110610b9357fe5b602002602001018181525050600460008f8381518110610baf57fe5b60200260200101518152602001908152602001600020600201601a9054906101000a900463ffffffff1663ffffffff16838281518110610beb57fe5b602002602001018181525050600460008f8381518110610c0757fe5b602002602001015181526020019081526020016000206003018054600181600116156101000203166002900480601f016020809104026020016040519081016040528092919081815260200182805460018160011615610100020316600290048015610cb45780601f10610c8957610100808354040283529160200191610cb4565b820191906000526020600020905b815481529060010190602001808311610c9757829003601f168201915b5050505050828281518110610cc557fe5b60200260200101819052508080600101915050610a3f565b508585858585859b509b509b509b509b509b5050505050505091939550919395565b60015481565b60036020528060005260406000206000915090508060000160009054906101000a900460ff1690806001015490806002015490806003018054600181600116156101000203166002900480601f016020809104026020016040519081016040528092919081815260200182805460018160011615610100020316600290048015610dd05780601f10610da557610100808354040283529160200191610dd0565b820191906000526020600020905b815481529060010190602001808311610db357829003601f168201915b5050505050905084565b6000809054906101000a900473ffffffffffffffffffffffffffffffffffffffff1681565b60046020528060005260406000206000915090508060000160009054906101000a900460ff16908060010154908060020160009054906101000a900473ffffffffffffffffffffffffffffffffffffffff16908060020160149054906101000a900460ff16908060020160159054906101000a900460ff16908060020160169054906101000a900463ffffffff169080600201601a9054906101000a900463ffffffff1690806003018054600181600116156101000203166002900480601f016020809104026020016040519081016040528092919081815260200182805460018160011615610100020316600290048015610f3c5780601f10610f1157610100808354040283529160200191610f3c565b820191906000526020600020905b815481529060010190602001808311610f1f57829003601f168201915b5050505050905088565b60025481565b60001515600360003373ffffffffffffffffffffffffffffffffffffffff1673ffffffffffffffffffffffffffffffffffffffff16815260200190815260200160002060000160009054906101000a900460ff16151514610fe2576040517f08c379a0000000000000000000000000000000000000000000000000000000008152600401610fd990611c01565b60405180910390fd5b606060006040519080825280602002602001820160405280156110145781602001602082028038833980820191505090505b50905061101f611230565b6040518060a0016040528060011515815260200186815260200185815260200184815260200183815250905080600360003373ffffffffffffffffffffffffffffffffffffffff1673ffffffffffffffffffffffffffffffffffffffff16815260200190815260200160002060008201518160000160006101000a81548160ff021916908315150217905550602082015181600101556040820151816002015560608201518160030190805190602001906110db9291906111b0565b5060808201518160040190805190602001906110f8929190611261565b5090505060026000815480929190600101919050555083857feafa008c7b375315bec76e1ba9016f5147021cdf64820f3034a07feecd10751660405160405180910390a35050505050565b60405180610100016040528060001515815260200160008152602001600073ffffffffffffffffffffffffffffffffffffffff168152602001600015158152602001600015158152602001600063ffffffff168152602001600063ffffffff168152602001606081525090565b828054600181600116156101000203166002900490600052602060002090601f016020900481019282601f106111f157805160ff191683800117855561121f565b8280016001018555821561121f579182015b8281111561121e578251825591602001919060010190611203565b5b50905061122c91906112ae565b5090565b6040518060a00160405280600015158152602001600081526020016000815260200160608152602001606081525090565b82805482825590600052602060002090810192821561129d579160200282015b8281111561129c578251825591602001919060010190611281565b5b5090506112aa91906112ae565b5090565b6112d091905b808211156112cc5760008160009055506001016112b4565b5090565b90565b6000813590506112e281611e6b565b92915050565b600082601f8301126112f957600080fd5b813561130c61130782611c89565b611c5c565b9150818183526020840193506020810190508385602084028201111561133157600080fd5b60005b83811015611361578161134788826113d4565b845260208401935060208301925050600181019050611334565b5050505092915050565b60008135905061137a81611e82565b92915050565b600082601f83011261139157600080fd5b81356113a461139f82611cb1565b611c5c565b915080825260208301602083018583830111156113c057600080fd5b6113cb838284611e18565b50505092915050565b6000813590506113e381611e99565b92915050565b6000813590506113f881611eb0565b92915050565b60006020828403121561141057600080fd5b600061141e848285016112d3565b91505092915050565b60006020828403121561143957600080fd5b600082013567ffffffffffffffff81111561145357600080fd5b61145f848285016112e8565b91505092915050565b600080600080600060a0868803121561148057600080fd5b600061148e8882890161136b565b955050602061149f8882890161136b565b94505060406114b0888289016113e9565b93505060606114c1888289016113e9565b925050608086013567ffffffffffffffff8111156114de57600080fd5b6114ea88828901611380565b9150509295509295909350565b60006020828403121561150957600080fd5b6000611517848285016113d4565b91505092915050565b60008060006060848603121561153557600080fd5b6000611543868287016113d4565b9350506020611554868287016113d4565b925050604084013567ffffffffffffffff81111561157157600080fd5b61157d86828701611380565b9150509250925092565b6000611593838361170b565b60208301905092915050565b60006115ab8383611762565b905092915050565b60006115bf8383611946565b60208301905092915050565b6115d481611dc0565b82525050565b60006115e582611d0d565b6115ef8185611d6b565b93506115fa83611cdd565b8060005b8381101561162b5781516116128882611587565b975061161d83611d44565b9250506001810190506115fe565b5085935050505092915050565b600061164382611d18565b61164d8185611d7c565b93508360208202850161165f85611ced565b8060005b8581101561169b578484038952815161167c858261159f565b945061168783611d51565b925060208a01995050600181019050611663565b50829750879550505050505092915050565b60006116b882611d23565b6116c28185611d8d565b93506116cd83611cfd565b8060005b838110156116fe5781516116e588826115b3565b97506116f083611d5e565b9250506001810190506116d1565b5085935050505092915050565b61171481611dd2565b82525050565b61172381611dd2565b82525050565b600061173482611d39565b61173e8185611daf565b935061174e818560208601611e27565b61175781611e5a565b840191505092915050565b600061176d82611d2e565b6117778185611d9e565b9350611787818560208601611e27565b61179081611e5a565b840191505092915050565b60006117a682611d2e565b6117b08185611daf565b93506117c0818560208601611e27565b6117c981611e5a565b840191505092915050565b60006117e1602583611daf565b91507f4d617820726567697374657265642070656f706c6520666f722074686973204860008301527f6f7573652e0000000000000000000000000000000000000000000000000000006020830152604082019050919050565b6000611847602e83611daf565b91507f5468657265206973206e6f20686f757365207265676973746572656420666f7260008301527f207468697320616464726573732e0000000000000000000000000000000000006020830152604082019050919050565b60006118ad602c83611daf565b91507f5468697320616464726573732068617320616c7265616479207265676973746560008301527f726564206120686f7573652e00000000000000000000000000000000000000006020830152604082019050919050565b6000611913601c83611daf565b91507f496e76616c696420706572736f6e204944207265717565737465642e000000006000830152602082019050919050565b61194f81611dfe565b82525050565b61195e81611dfe565b82525050565b61196d81611e08565b82525050565b600060208201905061198860008301846115cb565b92915050565b600060c08201905081810360008301526119a881896115da565b905081810360208301526119bc81886115da565b905081810360408301526119d081876115da565b905081810360608301526119e481866116ad565b905081810360808301526119f881856116ad565b905081810360a0830152611a0c8184611638565b9050979650505050505050565b600060e082019050611a2e600083018a61171a565b611a3b60208301896115cb565b611a48604083018861171a565b611a55606083018761171a565b611a626080830186611964565b611a6f60a0830185611964565b81810360c0830152611a818184611729565b905098975050505050505050565b600061010082019050611aa5600083018b61171a565b611ab2602083018a611955565b611abf60408301896115cb565b611acc606083018861171a565b611ad9608083018761171a565b611ae660a0830186611964565b611af360c0830185611964565b81810360e0830152611b05818461179b565b90509998505050505050505050565b6000608082019050611b29600083018761171a565b611b366020830186611955565b611b436040830185611955565b8181036060830152611b55818461179b565b905095945050505050565b600060a082019050611b75600083018861171a565b611b826020830187611955565b611b8f6040830186611955565b8181036060830152611ba18185611729565b90508181036080830152611bb581846116ad565b90509695505050505050565b60006020820190508181036000830152611bda816117d4565b9050919050565b60006020820190508181036000830152611bfa8161183a565b9050919050565b60006020820190508181036000830152611c1a816118a0565b9050919050565b60006020820190508181036000830152611c3a81611906565b9050919050565b6000602082019050611c566000830184611955565b92915050565b6000604051905081810181811067ffffffffffffffff82111715611c7f57600080fd5b8060405250919050565b600067ffffffffffffffff821115611ca057600080fd5b602082029050602081019050919050565b600067ffffffffffffffff821115611cc857600080fd5b601f19601f8301169050602081019050919050565b6000819050602082019050919050565b6000819050602082019050919050565b6000819050602082019050919050565b600081519050919050565b600081519050919050565b600081519050919050565b600081519050919050565b600081519050919050565b6000602082019050919050565b6000602082019050919050565b6000602082019050919050565b600082825260208201905092915050565b600082825260208201905092915050565b600082825260208201905092915050565b600082825260208201905092915050565b600082825260208201905092915050565b6000611dcb82611dde565b9050919050565b60008115159050919050565b600073ffffffffffffffffffffffffffffffffffffffff82169050919050565b6000819050919050565b600063ffffffff82169050919050565b82818337600083830152505050565b60005b83811015611e45578082015181840152602081019050611e2a565b83811115611e54576000848401525b50505050565b6000601f19601f8301169050919050565b611e7481611dc0565b8114611e7f57600080fd5b50565b611e8b81611dd2565b8114611e9657600080fd5b50565b611ea281611dfe565b8114611ead57600080fd5b50565b611eb981611e08565b8114611ec457600080fd5b5056fea365627a7a72315820c258ba5bd9c6d60c4a30bb77bcdee989b50c4c5a9d6e45dd0705a6e9fa2e2a3a6c6578706572696d656e74616cf564736f6c63430005100040",
  "source": "pragma solidity ^0.5.0;\r\npragma experimental ABIEncoderV2;\r\n\r\ncontract Census {\r\n    \r\n    // ORACLE: MASTER ADDRESS FILE\r\n    // a token is created for every address on file\r\n    // this token is used as a one-time verification\r\n    // verifyToken function will verify token is valid\r\n    // once verified, will grant address permission to\r\n    // complete Census.\r\n    // Number of tokens generated will coincide with total\r\n    // verified address and token cannot be traced to address\r\n    \r\n    \r\n    // Initialize contract owner\r\n    address public owner;\r\n\r\n    // Global counter for Person struct ID\r\n    uint public personCount;\r\n    // Global counter for House count\r\n    uint public houseCount;\r\n\r\n    // House struct\r\n    struct House {\r\n        bool registered;\r\n        uint maxResidents;\r\n        uint extraResidents;\r\n        string houseType; // House, Apartment, Mobile Home\r\n        uint[] residentList;\r\n    }\r\n\r\n    // Person struct\r\n    struct Person {\r\n        bool registered;\r\n        uint id; // peopleCount\r\n        address home; // msg.sender NECESSARY? (home can be assumed from address of transaction)\r\n        bool isMale;\r\n        bool isHispanic;\r\n        uint32 age;\r\n        uint32 birthDate; // MMDDYYYY\r\n        string race;\r\n    }\r\n    \r\n\r\n    // stores index of 'Houses' struct by address\r\n    mapping(address => House) public houses;\r\n\r\n    // stores a 'Person' struct as index id\r\n    mapping(uint => Person) public people;\r\n\r\n    event houseAddedEvent (\r\n    uint indexed _maxResidents,\r\n    uint indexed _extraResidents\r\n    );\r\n\r\n    // Initialized at contract creation\r\n    constructor() public {\r\n        // Contract owner\r\n        owner = msg.sender;\r\n        personCount = 0;\r\n        houseCount = 0;\r\n    }\r\n\r\n    // function verifyTokenOracle(bytes32 _key) private returns (bool) {\r\n        \r\n    // }\r\n\r\n    function addHouse(uint _maxResidents, uint _extraResidents, string memory _housetype) public {\r\n        \r\n        // Ensure house is not already registered for address\r\n        require(houses[msg.sender].registered == false, \"This address has already registered a house.\");\r\n\r\n        // Initialize empty residentList array\r\n        uint[] memory emptyList = new uint[](0);\r\n        \r\n        // Create new house struct\r\n        House memory newhouse = House(true, _maxResidents, _extraResidents, _housetype, emptyList);\r\n\r\n        houses[msg.sender] = newhouse;\r\n\r\n        // Increase global house count\r\n        houseCount++;\r\n\r\n        emit houseAddedEvent(_maxResidents, _extraResidents);\r\n    }\r\n\r\n\r\n    function addPerson(bool _ismale, bool _ishispanic, uint32 _age, uint32 _birthdate, string memory _race) public {\r\n\r\n        House storage currentHouse = houses[msg.sender];\r\n\r\n        // Ensure house for address exists before adding\r\n        require(currentHouse.registered == true, \"There is no house registered for this address.\");\r\n        \r\n        // Require house of address to have resident count within range\r\n        require(currentHouse.residentList.length < currentHouse.maxResidents, \"Max registered people for this House.\");\r\n\r\n        Person memory newPerson =  Person(true, personCount, msg.sender, _ismale, _ishispanic, _age, _birthdate, _race);\r\n        people[personCount] = newPerson;\r\n\r\n        // Add person ID to house residentList\r\n        houses[msg.sender].residentList.push(personCount);\r\n        \r\n        // Increase global person count (iD)\r\n        personCount++;\r\n    }\r\n\r\n    // Return House struct params\r\n    function getHouse() public view returns (bool, uint, uint, string memory, uint[] memory) {\r\n        \r\n        House storage thisHouse = houses[msg.sender];\r\n\r\n        bool resiValid = thisHouse.registered;\r\n        uint resiNum = thisHouse.maxResidents;\r\n        uint resiAdd = thisHouse.maxResidents;\r\n        string storage houseType = thisHouse.houseType;\r\n        uint[] memory resiList = thisHouse.residentList;\r\n\r\n        return (resiValid, resiNum, resiAdd, houseType, resiList);\r\n    }\r\n\r\n    // Return Person struct params\r\n    function getPerson(uint index) public view returns (bool,\r\n                                                         address,\r\n                                                         bool,\r\n                                                         bool,\r\n                                                         uint32,\r\n                                                         uint32,\r\n                                                         string memory) {\r\n        Person storage thisPerson = people[index];\r\n\r\n        bool registered = thisPerson.registered;\r\n        address home = thisPerson.home;\r\n        bool isMale = thisPerson.isMale;\r\n        bool isHispanic = thisPerson.isHispanic;\r\n        uint32 age = thisPerson.age;\r\n        uint32 birthDate = thisPerson.birthDate;\r\n        string memory race = thisPerson.race;\r\n\r\n        return (registered, home, isMale, isHispanic, age, birthDate, race);\r\n    }\r\n\r\n        // TEST FUNCTION\r\n      function getPeople(uint[] memory resiNums) public view returns (bool[] memory, bool[] memory, bool[] memory, uint[] memory, uint[] memory, string[] memory){\r\n\r\n          for (uint i = 0; i < resiNums.length; i++) {\r\n            require(people[resiNums[i]].registered == true, \"Invalid person ID requested.\");\r\n          }\r\n          \r\n          bool[] memory registered = new bool[](resiNums.length);\r\n          bool[] memory isMale = new bool[](resiNums.length);\r\n          bool[] memory isHispanic = new bool[](resiNums.length);\r\n          uint[] memory age = new uint[](resiNums.length);\r\n          uint[] memory birthDate = new uint[](resiNums.length);\r\n          string[] memory race = new string[](resiNums.length);\r\n\r\n          for (uint i = 0; i < resiNums.length; i++) {\r\n            \r\n            registered[i] = people[resiNums[i]].registered;\r\n            isMale[i] = people[resiNums[i]].isMale;\r\n            isHispanic[i] = people[resiNums[i]].isHispanic;\r\n            age[i] = people[resiNums[i]].age;\r\n            birthDate[i] = people[resiNums[i]].birthDate;\r\n            race[i] = people[resiNums[i]].race;\r\n          }\r\n\r\n          return (registered, isMale, isHispanic, age, birthDate, race);\r\n\r\n    }\r\n}",
  "sourcePath": "C:\\Users\\Jerrbear\\Desktop\\solidity\\census\\contracts\\Census.sol",
  "compiler": {
    "name": "solc",
    "version": "0.5.16+commit.9c3226ce.Emscripten.clang"
  },
  "schemaVersion": "3.0.23",
  "updatedAt": "2020-03-20T15:07:22.687Z",
  "networkType": "ethereum",
  "devdoc": {
    "methods": {}
  },
  "userdoc": {
    "methods": {}
  }
}