{
  "contractName": "Census",
  "abi": [
    {
      "inputs": [],
      "payable": false,
      "stateMutability": "nonpayable",
      "type": "constructor"
    },
    {
      "anonymous": false,
      "inputs": [
        {
          "indexed": true,
          "internalType": "uint256",
          "name": "_maxResidents",
          "type": "uint256"
        },
        {
          "indexed": true,
          "internalType": "uint256",
          "name": "_extraResidents",
          "type": "uint256"
        },
        {
          "indexed": true,
          "internalType": "string",
          "name": "_housetype",
          "type": "string"
        }
      ],
      "name": "houseAddedEvent",
      "type": "event"
    },
    {
      "constant": true,
      "inputs": [],
      "name": "houseCount",
      "outputs": [
        {
          "internalType": "uint256",
          "name": "",
          "type": "uint256"
        }
      ],
      "payable": false,
      "stateMutability": "view",
      "type": "function"
    },
    {
      "constant": true,
      "inputs": [
        {
          "internalType": "address",
          "name": "",
          "type": "address"
        }
      ],
      "name": "houses",
      "outputs": [
        {
          "internalType": "bool",
          "name": "registered",
          "type": "bool"
        },
        {
          "internalType": "uint256",
          "name": "maxResidents",
          "type": "uint256"
        },
        {
          "internalType": "uint256",
          "name": "extraResidents",
          "type": "uint256"
        },
        {
          "internalType": "string",
          "name": "houseType",
          "type": "string"
        }
      ],
      "payable": false,
      "stateMutability": "view",
      "type": "function"
    },
    {
      "constant": true,
      "inputs": [],
      "name": "owner",
      "outputs": [
        {
          "internalType": "address",
          "name": "",
          "type": "address"
        }
      ],
      "payable": false,
      "stateMutability": "view",
      "type": "function"
    },
    {
      "constant": true,
      "inputs": [
        {
          "internalType": "uint256",
          "name": "",
          "type": "uint256"
        }
      ],
      "name": "people",
      "outputs": [
        {
          "internalType": "bool",
          "name": "registered",
          "type": "bool"
        },
        {
          "internalType": "uint256",
          "name": "id",
          "type": "uint256"
        },
        {
          "internalType": "address",
          "name": "home",
          "type": "address"
        },
        {
          "internalType": "bool",
          "name": "isMale",
          "type": "bool"
        },
        {
          "internalType": "bool",
          "name": "isHispanic",
          "type": "bool"
        },
        {
          "internalType": "uint256",
          "name": "age",
          "type": "uint256"
        },
        {
          "internalType": "uint256",
          "name": "birthDate",
          "type": "uint256"
        },
        {
          "internalType": "string",
          "name": "race",
          "type": "string"
        }
      ],
      "payable": false,
      "stateMutability": "view",
      "type": "function"
    },
    {
      "constant": true,
      "inputs": [],
      "name": "personCount",
      "outputs": [
        {
          "internalType": "uint256",
          "name": "",
          "type": "uint256"
        }
      ],
      "payable": false,
      "stateMutability": "view",
      "type": "function"
    },
    {
      "constant": false,
      "inputs": [
        {
          "internalType": "uint256",
          "name": "_maxResidents",
          "type": "uint256"
        },
        {
          "internalType": "uint256",
          "name": "_extraResidents",
          "type": "uint256"
        },
        {
          "internalType": "string",
          "name": "_housetype",
          "type": "string"
        }
      ],
      "name": "addHouse",
      "outputs": [],
      "payable": false,
      "stateMutability": "nonpayable",
      "type": "function"
    },
    {
      "constant": false,
      "inputs": [
        {
          "internalType": "bool",
          "name": "_ismale",
          "type": "bool"
        },
        {
          "internalType": "bool",
          "name": "_ishispanic",
          "type": "bool"
        },
        {
          "internalType": "uint256",
          "name": "_age",
          "type": "uint256"
        },
        {
          "internalType": "uint256",
          "name": "_birthdate",
          "type": "uint256"
        },
        {
          "internalType": "string",
          "name": "_race",
          "type": "string"
        }
      ],
      "name": "addPerson",
      "outputs": [],
      "payable": false,
      "stateMutability": "nonpayable",
      "type": "function"
    },
    {
      "constant": true,
      "inputs": [
        {
          "internalType": "uint256",
          "name": "_index",
          "type": "uint256"
        }
      ],
      "name": "getResident",
      "outputs": [
        {
          "components": [
            {
              "internalType": "bool",
              "name": "registered",
              "type": "bool"
            },
            {
              "internalType": "uint256",
              "name": "id",
              "type": "uint256"
            },
            {
              "internalType": "address",
              "name": "home",
              "type": "address"
            },
            {
              "internalType": "bool",
              "name": "isMale",
              "type": "bool"
            },
            {
              "internalType": "bool",
              "name": "isHispanic",
              "type": "bool"
            },
            {
              "internalType": "uint256",
              "name": "age",
              "type": "uint256"
            },
            {
              "internalType": "uint256",
              "name": "birthDate",
              "type": "uint256"
            },
            {
              "internalType": "string",
              "name": "race",
              "type": "string"
            }
          ],
          "internalType": "struct Census.Person",
          "name": "ppls",
          "type": "tuple"
        }
      ],
      "payable": false,
      "stateMutability": "view",
      "type": "function"
    },
    {
      "constant": true,
      "inputs": [],
      "name": "getResidentList",
      "outputs": [
        {
          "internalType": "uint256[]",
          "name": "resList",
          "type": "uint256[]"
        }
      ],
      "payable": false,
      "stateMutability": "view",
      "type": "function"
    }
  ],
  "bytecode": "0x608060405234801561001057600080fd5b50336000806101000a81548173ffffffffffffffffffffffffffffffffffffffff021916908373ffffffffffffffffffffffffffffffffffffffff16021790555060006001819055506000600281905550611586806100706000396000f3fe608060405234801561001057600080fd5b50600436106100935760003560e01c80639e7a13ad116100665780639e7a13ad14610125578063bd74f8b11461015c578063dd82ce031461017a578063e2b0966c146101aa578063f885fe4f146101c657610093565b80636e5ddf581461009857806378495bf8146100b65780637abb3d1b146100d45780638da5cb5b14610107575b600080fd5b6100a06101e2565b6040516100ad91906111fe565b60405180910390f35b6100be61027a565b6040516100cb9190611373565b60405180910390f35b6100ee60048036036100e99190810190610d2f565b610280565b6040516100fe94939291906112a5565b60405180910390f35b61010f610355565b60405161011c91906111e3565b60405180910390f35b61013f600480360361013a9190810190610de7565b61037a565b604051610153989796959493929190611220565b60405180910390f35b6101646104a1565b6040516101719190611373565b60405180910390f35b610194600480360361018f9190810190610de7565b6104a7565b6040516101a19190611351565b60405180910390f35b6101c460048036036101bf9190810190610e10565b61063c565b005b6101e060048036036101db9190810190610d58565b610849565b005b6060600360003373ffffffffffffffffffffffffffffffffffffffff1673ffffffffffffffffffffffffffffffffffffffff16815260200190815260200160002060040180548060200260200160405190810160405280929190818152602001828054801561027057602002820191906000526020600020905b81548152602001906001019080831161025c575b5050505050905090565b60015481565b60036020528060005260406000206000915090508060000160009054906101000a900460ff1690806001015490806002015490806003018054600181600116156101000203166002900480601f01602080910402602001604051908101604052809291908181526020018280546001816001161561010002031660029004801561034b5780601f106103205761010080835404028352916020019161034b565b820191906000526020600020905b81548152906001019060200180831161032e57829003601f168201915b5050505050905084565b6000809054906101000a900473ffffffffffffffffffffffffffffffffffffffff1681565b60046020528060005260406000206000915090508060000160009054906101000a900460ff16908060010154908060020160009054906101000a900473ffffffffffffffffffffffffffffffffffffffff16908060020160149054906101000a900460ff16908060020160159054906101000a900460ff1690806003015490806004015490806005018054600181600116156101000203166002900480601f0160208091040260200160405190810160405280929190818152602001828054600181600116156101000203166002900480156104975780601f1061046c57610100808354040283529160200191610497565b820191906000526020600020905b81548152906001019060200180831161047a57829003601f168201915b5050505050905088565b60025481565b6104af610b18565b60046000838152602001908152602001600020604051806101000160405290816000820160009054906101000a900460ff16151515158152602001600182015481526020016002820160009054906101000a900473ffffffffffffffffffffffffffffffffffffffff1673ffffffffffffffffffffffffffffffffffffffff1673ffffffffffffffffffffffffffffffffffffffff1681526020016002820160149054906101000a900460ff161515151581526020016002820160159054906101000a900460ff161515151581526020016003820154815260200160048201548152602001600582018054600181600116156101000203166002900480601f01602080910402602001604051908101604052809291908181526020018280546001816001161561010002031660029004801561062c5780601f106106015761010080835404028352916020019161062c565b820191906000526020600020905b81548152906001019060200180831161060f57829003601f168201915b5050505050815250509050919050565b60001515600360003373ffffffffffffffffffffffffffffffffffffffff1673ffffffffffffffffffffffffffffffffffffffff16815260200190815260200160002060000160009054906101000a900460ff161515146106d2576040517f08c379a00000000000000000000000000000000000000000000000000000000081526004016106c990611331565b60405180910390fd5b606060006040519080825280602002602001820160405280156107045781602001602082028038833980820191505090505b50905061070f610b79565b6040518060a0016040528060011515815260200186815260200185815260200184815260200183815250905080600360003373ffffffffffffffffffffffffffffffffffffffff1673ffffffffffffffffffffffffffffffffffffffff16815260200190815260200160002060008201518160000160006101000a81548160ff021916908315150217905550602082015181600101556040820151816002015560608201518160030190805190602001906107cb929190610baa565b5060808201518160040190805190602001906107e8929190610c2a565b509050506002600081548092919060010191905055508260405161080c91906111cc565b604051809103902084867fa5c5b3c988959385ca81b0d504f29a0dd245b898621b0a53b037e1d8cf36607f60405160405180910390a45050505050565b6000600360003373ffffffffffffffffffffffffffffffffffffffff1673ffffffffffffffffffffffffffffffffffffffff1681526020019081526020016000209050600115158160000160009054906101000a900460ff161515146108e4576040517f08c379a00000000000000000000000000000000000000000000000000000000081526004016108db90611311565b60405180910390fd5b8060010154816004018054905010610931576040517f08c379a0000000000000000000000000000000000000000000000000000000008152600401610928906112f1565b60405180910390fd5b610939610b18565b60405180610100016040528060011515815260200160015481526020013373ffffffffffffffffffffffffffffffffffffffff168152602001881515815260200187151581526020018681526020018581526020018481525090508060046000600154815260200190815260200160002060008201518160000160006101000a81548160ff0219169083151502179055506020820151816001015560408201518160020160006101000a81548173ffffffffffffffffffffffffffffffffffffffff021916908373ffffffffffffffffffffffffffffffffffffffff16021790555060608201518160020160146101000a81548160ff02191690831515021790555060808201518160020160156101000a81548160ff02191690831515021790555060a0820151816003015560c0820151816004015560e0820151816005019080519060200190610a8b929190610baa565b50905050600360003373ffffffffffffffffffffffffffffffffffffffff1673ffffffffffffffffffffffffffffffffffffffff168152602001908152602001600020600401600154908060018154018082558091505090600182039060005260206000200160009091929091909150555060016000815480929190600101919050555050505050505050565b60405180610100016040528060001515815260200160008152602001600073ffffffffffffffffffffffffffffffffffffffff1681526020016000151581526020016000151581526020016000815260200160008152602001606081525090565b6040518060a00160405280600015158152602001600081526020016000815260200160608152602001606081525090565b828054600181600116156101000203166002900490600052602060002090601f016020900481019282601f10610beb57805160ff1916838001178555610c19565b82800160010185558215610c19579182015b82811115610c18578251825591602001919060010190610bfd565b5b509050610c269190610c77565b5090565b828054828255906000526020600020908101928215610c66579160200282015b82811115610c65578251825591602001919060010190610c4a565b5b509050610c739190610c77565b5090565b610c9991905b80821115610c95576000816000905550600101610c7d565b5090565b90565b600081359050610cab816114fe565b92915050565b600081359050610cc081611515565b92915050565b600082601f830112610cd757600080fd5b8135610cea610ce5826113bb565b61138e565b91508082526020830160208301858383011115610d0657600080fd5b610d118382846114ab565b50505092915050565b600081359050610d298161152c565b92915050565b600060208284031215610d4157600080fd5b6000610d4f84828501610c9c565b91505092915050565b600080600080600060a08688031215610d7057600080fd5b6000610d7e88828901610cb1565b9550506020610d8f88828901610cb1565b9450506040610da088828901610d1a565b9350506060610db188828901610d1a565b925050608086013567ffffffffffffffff811115610dce57600080fd5b610dda88828901610cc6565b9150509295509295909350565b600060208284031215610df957600080fd5b6000610e0784828501610d1a565b91505092915050565b600080600060608486031215610e2557600080fd5b6000610e3386828701610d1a565b9350506020610e4486828701610d1a565b925050604084013567ffffffffffffffff811115610e6157600080fd5b610e6d86828701610cc6565b9150509250925092565b6000610e8383836111ae565b60208301905092915050565b610e9881611463565b82525050565b610ea781611463565b82525050565b6000610eb8826113f7565b610ec28185611425565b9350610ecd836113e7565b8060005b83811015610efe578151610ee58882610e77565b9750610ef083611418565b925050600181019050610ed1565b5085935050505092915050565b610f1481611475565b82525050565b610f2381611475565b82525050565b6000610f348261140d565b610f3e8185611458565b9350610f4e8185602086016114ba565b80840191505092915050565b6000610f6582611402565b610f6f8185611436565b9350610f7f8185602086016114ba565b610f88816114ed565b840191505092915050565b6000610f9e82611402565b610fa88185611447565b9350610fb88185602086016114ba565b610fc1816114ed565b840191505092915050565b6000610fd9602583611447565b91507f4d617820726567697374657265642070656f706c6520666f722074686973204860008301527f6f7573652e0000000000000000000000000000000000000000000000000000006020830152604082019050919050565b600061103f602e83611447565b91507f5468657265206973206e6f20686f757365207265676973746572656420666f7260008301527f207468697320616464726573732e0000000000000000000000000000000000006020830152604082019050919050565b60006110a5602c83611447565b91507f5468697320616464726573732068617320616c7265616479207265676973746560008301527f726564206120686f7573652e00000000000000000000000000000000000000006020830152604082019050919050565b6000610100830160008301516111176000860182610f0b565b50602083015161112a60208601826111ae565b50604083015161113d6040860182610e8f565b5060608301516111506060860182610f0b565b5060808301516111636080860182610f0b565b5060a083015161117660a08601826111ae565b5060c083015161118960c08601826111ae565b5060e083015184820360e08601526111a18282610f5a565b9150508091505092915050565b6111b7816114a1565b82525050565b6111c6816114a1565b82525050565b60006111d88284610f29565b915081905092915050565b60006020820190506111f86000830184610e9e565b92915050565b600060208201905081810360008301526112188184610ead565b905092915050565b600061010082019050611236600083018b610f1a565b611243602083018a6111bd565b6112506040830189610e9e565b61125d6060830188610f1a565b61126a6080830187610f1a565b61127760a08301866111bd565b61128460c08301856111bd565b81810360e08301526112968184610f93565b90509998505050505050505050565b60006080820190506112ba6000830187610f1a565b6112c760208301866111bd565b6112d460408301856111bd565b81810360608301526112e68184610f93565b905095945050505050565b6000602082019050818103600083015261130a81610fcc565b9050919050565b6000602082019050818103600083015261132a81611032565b9050919050565b6000602082019050818103600083015261134a81611098565b9050919050565b6000602082019050818103600083015261136b81846110fe565b905092915050565b600060208201905061138860008301846111bd565b92915050565b6000604051905081810181811067ffffffffffffffff821117156113b157600080fd5b8060405250919050565b600067ffffffffffffffff8211156113d257600080fd5b601f19601f8301169050602081019050919050565b6000819050602082019050919050565b600081519050919050565b600081519050919050565b600081519050919050565b6000602082019050919050565b600082825260208201905092915050565b600082825260208201905092915050565b600082825260208201905092915050565b600081905092915050565b600061146e82611481565b9050919050565b60008115159050919050565b600073ffffffffffffffffffffffffffffffffffffffff82169050919050565b6000819050919050565b82818337600083830152505050565b60005b838110156114d85780820151818401526020810190506114bd565b838111156114e7576000848401525b50505050565b6000601f19601f8301169050919050565b61150781611463565b811461151257600080fd5b50565b61151e81611475565b811461152957600080fd5b50565b611535816114a1565b811461154057600080fd5b5056fea365627a7a7231582026ebcec214e0b2d8bbaaad248f432a3bdd85b946b911793b77d34763d0efa2526c6578706572696d656e74616cf564736f6c63430005100040",
  "source": "pragma solidity ^0.5.0;\r\npragma experimental ABIEncoderV2;\r\n\r\ncontract Census {\r\n    \r\n    // ORACLE: MASTER ADDRESS FILE\r\n    // a token is created for every address on file\r\n    // this token is used as a one-time verification\r\n    // verifyToken function will verify token is valid\r\n    // once verified, will grant address permission to\r\n    // complete Census.\r\n    // Number of tokens generated will coincide with total\r\n    // verified address and token cannot be traced to address\r\n    \r\n    \r\n    // Initialize contract owner\r\n    address public owner;\r\n\r\n    // Global counter for Person struct ID\r\n    uint public personCount;\r\n    // Global counter for House count\r\n    uint public houseCount;\r\n\r\n\r\n    // House struct\r\n    struct House {\r\n        bool registered;\r\n        uint maxResidents;\r\n        uint extraResidents;\r\n        string houseType; // House, Apartment, Mobile Home\r\n        uint[] residentList;\r\n    }\r\n\r\n    // Person struct\r\n    struct Person {\r\n        bool registered;\r\n        uint id; // peopleCount\r\n        address home; // msg.sender NECESSARY? (home can be assumed from address of transaction)\r\n        bool isMale;\r\n        bool isHispanic;\r\n        uint age;\r\n        uint birthDate; // MMDDYYYY\r\n        string race;\r\n    }\r\n    \r\n\r\n    // stores index of 'Houses' struct by address\r\n    mapping(address => House) public houses;\r\n\r\n    // stores a 'Person' struct as index id\r\n    mapping(uint => Person) public people;\r\n\r\n    event houseAddedEvent (\r\n    uint indexed _maxResidents,\r\n    uint indexed _extraResidents,\r\n    string indexed _housetype\r\n    );\r\n\r\n    // Initialized at contract creation\r\n    constructor() public {\r\n        // Contract owner\r\n        owner = msg.sender;\r\n        personCount = 0;\r\n        houseCount = 0;\r\n    }\r\n\r\n    function verifyTokenOracle(bytes32 _key) private returns (bool) {\r\n        \r\n    }\r\n\r\n    function addHouse(uint _maxResidents, uint _extraResidents, string memory _housetype) public {\r\n        \r\n        // Ensure house is not already registered for address\r\n        require(houses[msg.sender].registered == false, \"This address has already registered a house.\");\r\n\r\n        // Initialize empty residentList array\r\n        uint[] memory emptyList = new uint[](0);\r\n        \r\n        // Create new house struct\r\n        House memory newhouse = House(true, _maxResidents, _extraResidents, _housetype, emptyList);\r\n\r\n        houses[msg.sender] = newhouse;\r\n\r\n        // Increase global house count\r\n        houseCount++;\r\n\r\n        emit houseAddedEvent(_maxResidents, _extraResidents, _housetype);\r\n    }\r\n\r\n\r\n    function addPerson(bool _ismale, bool _ishispanic, uint _age, uint _birthdate, string memory _race) public {\r\n\r\n        House storage currentHouse = houses[msg.sender];\r\n\r\n        // Ensure house for address exists before adding\r\n        require(currentHouse.registered == true, \"There is no house registered for this address.\");\r\n        \r\n        // Require house of address to have resident count within range\r\n        require(currentHouse.residentList.length < currentHouse.maxResidents, \"Max registered people for this House.\");\r\n\r\n        Person memory newPerson =  Person(true, personCount, msg.sender, _ismale, _ishispanic, _age, _birthdate, _race);\r\n        people[personCount] = newPerson;\r\n\r\n        // Add person ID to house residentList\r\n        houses[msg.sender].residentList.push(personCount);\r\n        \r\n        // Increase global person count (iD)\r\n        personCount++;\r\n    }\r\n    \r\n    function getResident(uint _index) public view returns (Person memory ppls) {\r\n        return people[_index];\r\n    }\r\n\r\n    function getResidentList() public view returns (uint[] memory resList) {\r\n        \r\n        return houses[msg.sender].residentList;\r\n    }\r\n\r\n    // / / DEBUG TEST STUFF\r\n    // function returnBool(uint number) public view returns (bool) {\r\n    //     if (number > 9000) {\r\n    //         return true;\r\n    //     }\r\n    //     else {\r\n    //         return false;\r\n    //     }\r\n    // }\r\n\r\n    // function returnOver9000(uint number) public view returns (bool) {\r\n    //     if (returnBool(number) == true) {\r\n    //         return true;\r\n    //     }\r\n    //     else {\r\n    //         return false;\r\n    //     }\r\n    // }\r\n}",
  "sourcePath": "C:\\Users\\Jerrbear\\Desktop\\solidity\\census\\contracts\\Census.sol",
  "compiler": {
    "name": "solc",
    "version": "0.5.16+commit.9c3226ce.Emscripten.clang"
  },
  "schemaVersion": "3.0.23",
  "updatedAt": "2020-03-18T01:12:24.295Z",
  "devdoc": {
    "methods": {}
  },
  "userdoc": {
    "methods": {}
  }
}