{
  "contractName": "Census",
  "abi": [
    {
      "inputs": [],
      "payable": false,
      "stateMutability": "nonpayable",
      "type": "constructor"
    },
    {
      "anonymous": false,
      "inputs": [
        {
          "indexed": true,
          "internalType": "uint256",
          "name": "_maxResidents",
          "type": "uint256"
        },
        {
          "indexed": true,
          "internalType": "uint256",
          "name": "_extraResidents",
          "type": "uint256"
        }
      ],
      "name": "houseAddedEvent",
      "type": "event"
    },
    {
      "constant": true,
      "inputs": [],
      "name": "houseCount",
      "outputs": [
        {
          "internalType": "uint256",
          "name": "",
          "type": "uint256"
        }
      ],
      "payable": false,
      "stateMutability": "view",
      "type": "function"
    },
    {
      "constant": true,
      "inputs": [
        {
          "internalType": "address",
          "name": "",
          "type": "address"
        }
      ],
      "name": "houses",
      "outputs": [
        {
          "internalType": "bool",
          "name": "registered",
          "type": "bool"
        },
        {
          "internalType": "uint256",
          "name": "maxResidents",
          "type": "uint256"
        },
        {
          "internalType": "uint256",
          "name": "extraResidents",
          "type": "uint256"
        },
        {
          "internalType": "string",
          "name": "houseType",
          "type": "string"
        }
      ],
      "payable": false,
      "stateMutability": "view",
      "type": "function"
    },
    {
      "constant": true,
      "inputs": [],
      "name": "owner",
      "outputs": [
        {
          "internalType": "address",
          "name": "",
          "type": "address"
        }
      ],
      "payable": false,
      "stateMutability": "view",
      "type": "function"
    },
    {
      "constant": true,
      "inputs": [
        {
          "internalType": "uint256",
          "name": "",
          "type": "uint256"
        }
      ],
      "name": "people",
      "outputs": [
        {
          "internalType": "bool",
          "name": "registered",
          "type": "bool"
        },
        {
          "internalType": "uint256",
          "name": "id",
          "type": "uint256"
        },
        {
          "internalType": "address",
          "name": "home",
          "type": "address"
        },
        {
          "internalType": "bool",
          "name": "isMale",
          "type": "bool"
        },
        {
          "internalType": "bool",
          "name": "isHispanic",
          "type": "bool"
        },
        {
          "internalType": "uint32",
          "name": "age",
          "type": "uint32"
        },
        {
          "internalType": "uint32",
          "name": "birthDate",
          "type": "uint32"
        },
        {
          "internalType": "bytes32",
          "name": "race",
          "type": "bytes32"
        }
      ],
      "payable": false,
      "stateMutability": "view",
      "type": "function"
    },
    {
      "constant": true,
      "inputs": [],
      "name": "personCount",
      "outputs": [
        {
          "internalType": "uint256",
          "name": "",
          "type": "uint256"
        }
      ],
      "payable": false,
      "stateMutability": "view",
      "type": "function"
    },
    {
      "constant": false,
      "inputs": [
        {
          "internalType": "uint256",
          "name": "_maxResidents",
          "type": "uint256"
        },
        {
          "internalType": "uint256",
          "name": "_extraResidents",
          "type": "uint256"
        },
        {
          "internalType": "string",
          "name": "_housetype",
          "type": "string"
        }
      ],
      "name": "addHouse",
      "outputs": [],
      "payable": false,
      "stateMutability": "nonpayable",
      "type": "function"
    },
    {
      "constant": false,
      "inputs": [
        {
          "internalType": "bool",
          "name": "_ismale",
          "type": "bool"
        },
        {
          "internalType": "bool",
          "name": "_ishispanic",
          "type": "bool"
        },
        {
          "internalType": "uint32",
          "name": "_age",
          "type": "uint32"
        },
        {
          "internalType": "uint32",
          "name": "_birthdate",
          "type": "uint32"
        },
        {
          "internalType": "bytes32",
          "name": "_race",
          "type": "bytes32"
        }
      ],
      "name": "addPerson",
      "outputs": [],
      "payable": false,
      "stateMutability": "nonpayable",
      "type": "function"
    },
    {
      "constant": true,
      "inputs": [],
      "name": "getHouse",
      "outputs": [
        {
          "internalType": "bool",
          "name": "",
          "type": "bool"
        },
        {
          "internalType": "uint256",
          "name": "",
          "type": "uint256"
        },
        {
          "internalType": "uint256",
          "name": "",
          "type": "uint256"
        },
        {
          "internalType": "string",
          "name": "",
          "type": "string"
        },
        {
          "internalType": "uint256[]",
          "name": "",
          "type": "uint256[]"
        }
      ],
      "payable": false,
      "stateMutability": "view",
      "type": "function"
    },
    {
      "constant": true,
      "inputs": [
        {
          "internalType": "uint256",
          "name": "index",
          "type": "uint256"
        }
      ],
      "name": "getPerson",
      "outputs": [
        {
          "internalType": "bool",
          "name": "",
          "type": "bool"
        },
        {
          "internalType": "address",
          "name": "",
          "type": "address"
        },
        {
          "internalType": "bool",
          "name": "",
          "type": "bool"
        },
        {
          "internalType": "bool",
          "name": "",
          "type": "bool"
        },
        {
          "internalType": "uint32",
          "name": "",
          "type": "uint32"
        },
        {
          "internalType": "uint32",
          "name": "",
          "type": "uint32"
        },
        {
          "internalType": "bytes32",
          "name": "",
          "type": "bytes32"
        }
      ],
      "payable": false,
      "stateMutability": "view",
      "type": "function"
    },
    {
      "constant": true,
      "inputs": [
        {
          "internalType": "uint256[]",
          "name": "resiNums",
          "type": "uint256[]"
        }
      ],
      "name": "getPeople",
      "outputs": [
        {
          "internalType": "bool[]",
          "name": "",
          "type": "bool[]"
        },
        {
          "internalType": "bool[]",
          "name": "",
          "type": "bool[]"
        },
        {
          "internalType": "bool[]",
          "name": "",
          "type": "bool[]"
        },
        {
          "internalType": "uint256[]",
          "name": "",
          "type": "uint256[]"
        },
        {
          "internalType": "uint256[]",
          "name": "",
          "type": "uint256[]"
        },
        {
          "internalType": "bytes32[]",
          "name": "",
          "type": "bytes32[]"
        }
      ],
      "payable": false,
      "stateMutability": "view",
      "type": "function"
    }
  ],
  "bytecode": "0x608060405234801561001057600080fd5b50336000806101000a81548173ffffffffffffffffffffffffffffffffffffffff021916908373ffffffffffffffffffffffffffffffffffffffff16021790555060006001819055506000600281905550611cfe806100706000396000f3fe608060405234801561001057600080fd5b506004361061009e5760003560e01c80638da5cb5b116100665780638da5cb5b14610181578063926503141461019f5780639e7a13ad146101bb578063bd74f8b1146101f2578063e2b0966c146102105761009e565b806304e2064f146100a3578063246982c4146100c55780636159330f146100fb57806378495bf8146101305780637abb3d1b1461014e575b600080fd5b6100ab61022c565b6040516100bc959493929190611944565b60405180910390f35b6100df60048036036100da9190810190611317565b6103b6565b6040516100f2979695949392919061180b565b60405180910390f35b6101156004803603610110919081019061125f565b6104a5565b60405161012796959493929190611780565b60405180910390f35b6101386108b5565b6040516101459190611a25565b60405180910390f35b61016860048036036101639190810190611236565b6108bb565b60405161017894939291906118f8565b60405180910390f35b610189610990565b6040516101969190611765565b60405180910390f35b6101b960048036036101b491908101906112a0565b6109b5565b005b6101d560048036036101d09190810190611317565b610cb7565b6040516101e998979695949392919061187a565b60405180910390f35b6101fa610d66565b6040516102079190611a25565b60405180910390f35b61022a60048036036102259190810190611340565b610d6c565b005b60008060006060806000600360003373ffffffffffffffffffffffffffffffffffffffff1673ffffffffffffffffffffffffffffffffffffffff168152602001908152602001600020905060008160000160009054906101000a900460ff16905060008260010154905060008360020154905060008460030190506060856004018054806020026020016040519081016040528092919081815260200182805480156102f757602002820191906000526020600020905b8154815260200190600101908083116102e3575b505050505090508484848484818054600181600116156101000203166002900480601f0160208091040260200160405190810160405280929190818152602001828054600181600116156101000203166002900480156103985780601f1061036d57610100808354040283529160200191610398565b820191906000526020600020905b81548152906001019060200180831161037b57829003601f168201915b505050505091509a509a509a509a509a505050505050509091929394565b600080600080600080600080600460008a8152602001908152602001600020905060008160000160009054906101000a900460ff16905060008260020160009054906101000a900473ffffffffffffffffffffffffffffffffffffffff16905060008360020160149054906101000a900460ff16905060008460020160159054906101000a900460ff16905060008560020160169054906101000a900463ffffffff169050600086600201601a9054906101000a900463ffffffff169050600087600301549050868686868686869e509e509e509e509e509e509e505050505050505050919395979092949650565b60608060608060608060008090505b87518110156105475760011515600460008a84815181106104d157fe5b6020026020010151815260200190815260200160002060000160009054906101000a900460ff1615151461053a576040517f08c379a000000000000000000000000000000000000000000000000000000000815260040161053190611a05565b60405180910390fd5b80806001019150506104b4565b506060875160405190808252806020026020018201604052801561057a5781602001602082028038833980820191505090505b509050606088516040519080825280602002602001820160405280156105af5781602001602082028038833980820191505090505b509050606089516040519080825280602002602001820160405280156105e45781602001602082028038833980820191505090505b50905060608a516040519080825280602002602001820160405280156106195781602001602082028038833980820191505090505b50905060608b5160405190808252806020026020018201604052801561064e5781602001602082028038833980820191505090505b50905060608c516040519080825280602002602001820160405280156106835781602001602082028038833980820191505090505b50905060008090505b8d5181101561089357600460008f83815181106106a557fe5b6020026020010151815260200190815260200160002060000160009054906101000a900460ff168782815181106106d857fe5b602002602001019015159081151581525050600460008f83815181106106fa57fe5b6020026020010151815260200190815260200160002060020160149054906101000a900460ff1686828151811061072d57fe5b602002602001019015159081151581525050600460008f838151811061074f57fe5b6020026020010151815260200190815260200160002060020160159054906101000a900460ff1685828151811061078257fe5b602002602001019015159081151581525050600460008f83815181106107a457fe5b6020026020010151815260200190815260200160002060020160169054906101000a900463ffffffff1663ffffffff168482815181106107e057fe5b602002602001018181525050600460008f83815181106107fc57fe5b60200260200101518152602001908152602001600020600201601a9054906101000a900463ffffffff1663ffffffff1683828151811061083857fe5b602002602001018181525050600460008f838151811061085457fe5b602002602001015181526020019081526020016000206003015482828151811061087a57fe5b602002602001018181525050808060010191505061068c565b508585858585859b509b509b509b509b509b5050505050505091939550919395565b60015481565b60036020528060005260406000206000915090508060000160009054906101000a900460ff1690806001015490806002015490806003018054600181600116156101000203166002900480601f0160208091040260200160405190810160405280929190818152602001828054600181600116156101000203166002900480156109865780601f1061095b57610100808354040283529160200191610986565b820191906000526020600020905b81548152906001019060200180831161096957829003601f168201915b5050505050905084565b6000809054906101000a900473ffffffffffffffffffffffffffffffffffffffff1681565b6000600360003373ffffffffffffffffffffffffffffffffffffffff1673ffffffffffffffffffffffffffffffffffffffff1681526020019081526020016000209050600115158160000160009054906101000a900460ff16151514610a50576040517f08c379a0000000000000000000000000000000000000000000000000000000008152600401610a47906119c5565b60405180910390fd5b8060010154816004018054905010610a9d576040517f08c379a0000000000000000000000000000000000000000000000000000000008152600401610a94906119a5565b60405180910390fd5b610aa5610f63565b60405180610100016040528060011515815260200160015481526020013373ffffffffffffffffffffffffffffffffffffffff168152602001881515815260200187151581526020018663ffffffff1681526020018563ffffffff1681526020018481525090508060046000600154815260200190815260200160002060008201518160000160006101000a81548160ff0219169083151502179055506020820151816001015560408201518160020160006101000a81548173ffffffffffffffffffffffffffffffffffffffff021916908373ffffffffffffffffffffffffffffffffffffffff16021790555060608201518160020160146101000a81548160ff02191690831515021790555060808201518160020160156101000a81548160ff02191690831515021790555060a08201518160020160166101000a81548163ffffffff021916908363ffffffff16021790555060c082015181600201601a6101000a81548163ffffffff021916908363ffffffff16021790555060e08201518160030155905050600360003373ffffffffffffffffffffffffffffffffffffffff1673ffffffffffffffffffffffffffffffffffffffff168152602001908152602001600020600401600154908060018154018082558091505090600182039060005260206000200160009091929091909150555060016000815480929190600101919050555050505050505050565b60046020528060005260406000206000915090508060000160009054906101000a900460ff16908060010154908060020160009054906101000a900473ffffffffffffffffffffffffffffffffffffffff16908060020160149054906101000a900460ff16908060020160159054906101000a900460ff16908060020160169054906101000a900463ffffffff169080600201601a9054906101000a900463ffffffff16908060030154905088565b60025481565b60001515600360003373ffffffffffffffffffffffffffffffffffffffff1673ffffffffffffffffffffffffffffffffffffffff16815260200190815260200160002060000160009054906101000a900460ff16151514610e02576040517f08c379a0000000000000000000000000000000000000000000000000000000008152600401610df9906119e5565b60405180910390fd5b60606000604051908082528060200260200182016040528015610e345781602001602082028038833980820191505090505b509050610e3f610fd3565b6040518060a0016040528060011515815260200186815260200185815260200184815260200183815250905080600360003373ffffffffffffffffffffffffffffffffffffffff1673ffffffffffffffffffffffffffffffffffffffff16815260200190815260200160002060008201518160000160006101000a81548160ff02191690831515021790555060208201518160010155604082015181600201556060820151816003019080519060200190610efb929190611004565b506080820151816004019080519060200190610f18929190611084565b5090505060026000815480929190600101919050555083857feafa008c7b375315bec76e1ba9016f5147021cdf64820f3034a07feecd10751660405160405180910390a35050505050565b60405180610100016040528060001515815260200160008152602001600073ffffffffffffffffffffffffffffffffffffffff168152602001600015158152602001600015158152602001600063ffffffff168152602001600063ffffffff168152602001600080191681525090565b6040518060a00160405280600015158152602001600081526020016000815260200160608152602001606081525090565b828054600181600116156101000203166002900490600052602060002090601f016020900481019282601f1061104557805160ff1916838001178555611073565b82800160010185558215611073579182015b82811115611072578251825591602001919060010190611057565b5b50905061108091906110d1565b5090565b8280548282559060005260206000209081019282156110c0579160200282015b828111156110bf5782518255916020019190600101906110a4565b5b5090506110cd91906110d1565b5090565b6110f391905b808211156110ef5760008160009055506001016110d7565b5090565b90565b60008135905061110581611c48565b92915050565b600082601f83011261111c57600080fd5b813561112f61112a82611a6d565b611a40565b9150818183526020840193506020810190508385602084028201111561115457600080fd5b60005b83811015611184578161116a888261120c565b845260208401935060208301925050600181019050611157565b5050505092915050565b60008135905061119d81611c5f565b92915050565b6000813590506111b281611c76565b92915050565b600082601f8301126111c957600080fd5b81356111dc6111d782611a95565b611a40565b915080825260208301602083018583830111156111f857600080fd5b611203838284611bf5565b50505092915050565b60008135905061121b81611c8d565b92915050565b60008135905061123081611ca4565b92915050565b60006020828403121561124857600080fd5b6000611256848285016110f6565b91505092915050565b60006020828403121561127157600080fd5b600082013567ffffffffffffffff81111561128b57600080fd5b6112978482850161110b565b91505092915050565b600080600080600060a086880312156112b857600080fd5b60006112c68882890161118e565b95505060206112d78882890161118e565b94505060406112e888828901611221565b93505060606112f988828901611221565b925050608061130a888289016111a3565b9150509295509295909350565b60006020828403121561132957600080fd5b60006113378482850161120c565b91505092915050565b60008060006060848603121561135557600080fd5b60006113638682870161120c565b93505060206113748682870161120c565b925050604084013567ffffffffffffffff81111561139157600080fd5b61139d868287016111b8565b9150509250925092565b60006113b38383611518565b60208301905092915050565b60006113cb8383611536565b60208301905092915050565b60006113e38383611738565b60208301905092915050565b6113f881611b93565b82525050565b600061140982611af1565b6114138185611b4f565b935061141e83611ac1565b8060005b8381101561144f57815161143688826113a7565b975061144183611b28565b925050600181019050611422565b5085935050505092915050565b600061146782611afc565b6114718185611b60565b935061147c83611ad1565b8060005b838110156114ad57815161149488826113bf565b975061149f83611b35565b925050600181019050611480565b5085935050505092915050565b60006114c582611b07565b6114cf8185611b71565b93506114da83611ae1565b8060005b8381101561150b5781516114f288826113d7565b97506114fd83611b42565b9250506001810190506114de565b5085935050505092915050565b61152181611ba5565b82525050565b61153081611ba5565b82525050565b61153f81611bb1565b82525050565b61154e81611bb1565b82525050565b600061155f82611b1d565b6115698185611b82565b9350611579818560208601611c04565b61158281611c37565b840191505092915050565b600061159882611b12565b6115a28185611b82565b93506115b2818560208601611c04565b6115bb81611c37565b840191505092915050565b60006115d3602583611b82565b91507f4d617820726567697374657265642070656f706c6520666f722074686973204860008301527f6f7573652e0000000000000000000000000000000000000000000000000000006020830152604082019050919050565b6000611639602e83611b82565b91507f5468657265206973206e6f20686f757365207265676973746572656420666f7260008301527f207468697320616464726573732e0000000000000000000000000000000000006020830152604082019050919050565b600061169f602c83611b82565b91507f5468697320616464726573732068617320616c7265616479207265676973746560008301527f726564206120686f7573652e00000000000000000000000000000000000000006020830152604082019050919050565b6000611705601c83611b82565b91507f496e76616c696420706572736f6e204944207265717565737465642e000000006000830152602082019050919050565b61174181611bdb565b82525050565b61175081611bdb565b82525050565b61175f81611be5565b82525050565b600060208201905061177a60008301846113ef565b92915050565b600060c082019050818103600083015261179a81896113fe565b905081810360208301526117ae81886113fe565b905081810360408301526117c281876113fe565b905081810360608301526117d681866114ba565b905081810360808301526117ea81856114ba565b905081810360a08301526117fe818461145c565b9050979650505050505050565b600060e082019050611820600083018a611527565b61182d60208301896113ef565b61183a6040830188611527565b6118476060830187611527565b6118546080830186611756565b61186160a0830185611756565b61186e60c0830184611545565b98975050505050505050565b600061010082019050611890600083018b611527565b61189d602083018a611747565b6118aa60408301896113ef565b6118b76060830188611527565b6118c46080830187611527565b6118d160a0830186611756565b6118de60c0830185611756565b6118eb60e0830184611545565b9998505050505050505050565b600060808201905061190d6000830187611527565b61191a6020830186611747565b6119276040830185611747565b8181036060830152611939818461158d565b905095945050505050565b600060a0820190506119596000830188611527565b6119666020830187611747565b6119736040830186611747565b81810360608301526119858185611554565b9050818103608083015261199981846114ba565b90509695505050505050565b600060208201905081810360008301526119be816115c6565b9050919050565b600060208201905081810360008301526119de8161162c565b9050919050565b600060208201905081810360008301526119fe81611692565b9050919050565b60006020820190508181036000830152611a1e816116f8565b9050919050565b6000602082019050611a3a6000830184611747565b92915050565b6000604051905081810181811067ffffffffffffffff82111715611a6357600080fd5b8060405250919050565b600067ffffffffffffffff821115611a8457600080fd5b602082029050602081019050919050565b600067ffffffffffffffff821115611aac57600080fd5b601f19601f8301169050602081019050919050565b6000819050602082019050919050565b6000819050602082019050919050565b6000819050602082019050919050565b600081519050919050565b600081519050919050565b600081519050919050565b600081519050919050565b600081519050919050565b6000602082019050919050565b6000602082019050919050565b6000602082019050919050565b600082825260208201905092915050565b600082825260208201905092915050565b600082825260208201905092915050565b600082825260208201905092915050565b6000611b9e82611bbb565b9050919050565b60008115159050919050565b6000819050919050565b600073ffffffffffffffffffffffffffffffffffffffff82169050919050565b6000819050919050565b600063ffffffff82169050919050565b82818337600083830152505050565b60005b83811015611c22578082015181840152602081019050611c07565b83811115611c31576000848401525b50505050565b6000601f19601f8301169050919050565b611c5181611b93565b8114611c5c57600080fd5b50565b611c6881611ba5565b8114611c7357600080fd5b50565b611c7f81611bb1565b8114611c8a57600080fd5b50565b611c9681611bdb565b8114611ca157600080fd5b50565b611cad81611be5565b8114611cb857600080fd5b5056fea365627a7a7231582075bee53881451fe8204ff5d6a927549abc614e71aa1ea4b2717fd64e467e59186c6578706572696d656e74616cf564736f6c63430005100040",
  "source": "pragma solidity ^0.5.0;\r\npragma experimental ABIEncoderV2;\r\n\r\ncontract Census {\r\n    \r\n    // ORACLE: MASTER ADDRESS FILE\r\n    // a token is created for every address on file\r\n    // this token is used as a one-time verification\r\n    // verifyToken function will verify token is valid\r\n    // once verified, will grant address permission to\r\n    // complete Census.\r\n    // Number of tokens generated will coincide with total\r\n    // verified address and token cannot be traced to address\r\n    \r\n    \r\n    // Initialize contract owner\r\n    address public owner;\r\n\r\n    // Global counter for Person struct ID\r\n    uint public personCount;\r\n    // Global counter for House count\r\n    uint public houseCount;\r\n\r\n    // House struct\r\n    struct House {\r\n        bool registered;\r\n        uint maxResidents;\r\n        uint extraResidents;\r\n        string houseType; // House, Apartment, Mobile Home\r\n        uint[] residentList;\r\n    }\r\n\r\n    // Person struct\r\n    struct Person {\r\n        bool registered;\r\n        uint id; // peopleCount\r\n        address home; // msg.sender NECESSARY? (home can be assumed from address of transaction)\r\n        bool isMale;\r\n        bool isHispanic;\r\n        uint32 age;\r\n        uint32 birthDate; // MMDDYYYY\r\n        bytes32 race;\r\n    }\r\n    \r\n\r\n    // stores index of 'Houses' struct by address\r\n    mapping(address => House) public houses;\r\n\r\n    // stores a 'Person' struct as index id\r\n    mapping(uint => Person) public people;\r\n\r\n    event houseAddedEvent (\r\n    uint indexed _maxResidents,\r\n    uint indexed _extraResidents\r\n    );\r\n\r\n    // Initialized at contract creation\r\n    constructor() public {\r\n        // Contract owner\r\n        owner = msg.sender;\r\n        personCount = 0;\r\n        houseCount = 0;\r\n    }\r\n\r\n    // function verifyTokenOracle(bytes32 _key) private returns (bool) {\r\n        \r\n    // }\r\n\r\n    function addHouse(uint _maxResidents, uint _extraResidents, string memory _housetype) public {\r\n        \r\n        // Ensure house is not already registered for address\r\n        require(houses[msg.sender].registered == false, \"This address has already registered a house.\");\r\n\r\n        // Initialize empty residentList array\r\n        uint[] memory emptyList = new uint[](0);\r\n        \r\n        // Create new house struct\r\n        House memory newhouse = House(true, _maxResidents, _extraResidents, _housetype, emptyList);\r\n\r\n        houses[msg.sender] = newhouse;\r\n\r\n        // Increase global house count\r\n        houseCount++;\r\n\r\n        emit houseAddedEvent(_maxResidents, _extraResidents);\r\n    }\r\n\r\n\r\n    function addPerson(bool _ismale, bool _ishispanic, uint32 _age, uint32 _birthdate, bytes32 _race) public {\r\n\r\n        House storage currentHouse = houses[msg.sender];\r\n\r\n        // Ensure house for address exists before adding\r\n        require(currentHouse.registered == true, \"There is no house registered for this address.\");\r\n        \r\n        // Require house of address to have resident count within range\r\n        require(currentHouse.residentList.length < currentHouse.maxResidents, \"Max registered people for this House.\");\r\n\r\n        Person memory newPerson =  Person(true, personCount, msg.sender, _ismale, _ishispanic, _age, _birthdate, _race);\r\n        people[personCount] = newPerson;\r\n\r\n        // Add person ID to house residentList\r\n        houses[msg.sender].residentList.push(personCount);\r\n        \r\n        // Increase global person count (iD)\r\n        personCount++;\r\n    }\r\n\r\n    // Return House struct params\r\n    function getHouse() public view returns (bool, uint, uint, string memory, uint[] memory) {\r\n        \r\n        House storage thisHouse = houses[msg.sender];\r\n\r\n        bool resiValid = thisHouse.registered;\r\n        uint resiNum = thisHouse.maxResidents;\r\n        uint resiAdd = thisHouse.extraResidents;\r\n        string storage houseType = thisHouse.houseType;\r\n        uint[] memory resiList = thisHouse.residentList;\r\n\r\n        return (resiValid, resiNum, resiAdd, houseType, resiList);\r\n    }\r\n\r\n    // Return Person struct params\r\n    function getPerson(uint index) public view returns (bool,\r\n                                                         address,\r\n                                                         bool,\r\n                                                         bool,\r\n                                                         uint32,\r\n                                                         uint32,\r\n                                                         bytes32) {\r\n        Person storage thisPerson = people[index];\r\n\r\n        bool registered = thisPerson.registered;\r\n        address home = thisPerson.home;\r\n        bool isMale = thisPerson.isMale;\r\n        bool isHispanic = thisPerson.isHispanic;\r\n        uint32 age = thisPerson.age;\r\n        uint32 birthDate = thisPerson.birthDate;\r\n        bytes32 race = thisPerson.race;\r\n\r\n        return (registered, home, isMale, isHispanic, age, birthDate, race);\r\n    }\r\n\r\n        // TEST FUNCTION\r\n      function getPeople(uint[] memory resiNums) public view returns (bool[] memory, bool[] memory, bool[] memory, uint[] memory, uint[] memory, bytes32[] memory){\r\n\r\n          for (uint i = 0; i < resiNums.length; i++) {\r\n            require(people[resiNums[i]].registered == true, \"Invalid person ID requested.\");\r\n          }\r\n          \r\n          bool[] memory registered = new bool[](resiNums.length);\r\n          bool[] memory isMale = new bool[](resiNums.length);\r\n          bool[] memory isHispanic = new bool[](resiNums.length);\r\n          uint[] memory age = new uint[](resiNums.length);\r\n          uint[] memory birthDate = new uint[](resiNums.length);\r\n          bytes32[] memory race = new bytes32[](resiNums.length);\r\n\r\n          for (uint i = 0; i < resiNums.length; i++) {\r\n            \r\n            registered[i] = people[resiNums[i]].registered;\r\n            isMale[i] = people[resiNums[i]].isMale;\r\n            isHispanic[i] = people[resiNums[i]].isHispanic;\r\n            age[i] = people[resiNums[i]].age;\r\n            birthDate[i] = people[resiNums[i]].birthDate;\r\n            race[i] = people[resiNums[i]].race;\r\n          }\r\n\r\n          return (registered, isMale, isHispanic, age, birthDate, race);\r\n\r\n    }\r\n}",
  "sourcePath": "C:\\Users\\Jerrbear\\Desktop\\solidity\\census\\contracts\\Census.sol",
  "compiler": {
    "name": "solc",
    "version": "0.5.16+commit.9c3226ce.Emscripten.clang"
  },
  "schemaVersion": "3.0.23",
  "updatedAt": "2020-03-27T15:37:44.130Z",
  "networkType": "ethereum",
  "devdoc": {
    "methods": {}
  },
  "userdoc": {
    "methods": {}
  }
}