{
  "contractName": "Census",
  "abi": [
    {
      "inputs": [],
      "payable": false,
      "stateMutability": "nonpayable",
      "type": "constructor"
    },
    {
      "anonymous": false,
      "inputs": [
        {
          "indexed": true,
          "internalType": "uint256",
          "name": "_maxResidents",
          "type": "uint256"
        },
        {
          "indexed": true,
          "internalType": "uint256",
          "name": "_extraResidents",
          "type": "uint256"
        },
        {
          "indexed": true,
          "internalType": "uint8",
          "name": "_stateCode",
          "type": "uint8"
        }
      ],
      "name": "houseAddedEvent",
      "type": "event"
    },
    {
      "constant": true,
      "inputs": [
        {
          "internalType": "uint256",
          "name": "",
          "type": "uint256"
        }
      ],
      "name": "houseById",
      "outputs": [
        {
          "internalType": "address",
          "name": "",
          "type": "address"
        }
      ],
      "payable": false,
      "stateMutability": "view",
      "type": "function"
    },
    {
      "constant": true,
      "inputs": [],
      "name": "houseCount",
      "outputs": [
        {
          "internalType": "uint256",
          "name": "",
          "type": "uint256"
        }
      ],
      "payable": false,
      "stateMutability": "view",
      "type": "function"
    },
    {
      "constant": true,
      "inputs": [
        {
          "internalType": "address",
          "name": "",
          "type": "address"
        }
      ],
      "name": "houses",
      "outputs": [
        {
          "internalType": "bool",
          "name": "registered",
          "type": "bool"
        },
        {
          "internalType": "uint256",
          "name": "id",
          "type": "uint256"
        },
        {
          "internalType": "uint256",
          "name": "maxResidents",
          "type": "uint256"
        },
        {
          "internalType": "uint256",
          "name": "extraResidents",
          "type": "uint256"
        },
        {
          "internalType": "string",
          "name": "houseType",
          "type": "string"
        },
        {
          "internalType": "uint8",
          "name": "stateCode",
          "type": "uint8"
        }
      ],
      "payable": false,
      "stateMutability": "view",
      "type": "function"
    },
    {
      "constant": true,
      "inputs": [],
      "name": "owner",
      "outputs": [
        {
          "internalType": "address",
          "name": "",
          "type": "address"
        }
      ],
      "payable": false,
      "stateMutability": "view",
      "type": "function"
    },
    {
      "constant": true,
      "inputs": [
        {
          "internalType": "uint256",
          "name": "",
          "type": "uint256"
        }
      ],
      "name": "people",
      "outputs": [
        {
          "internalType": "bool",
          "name": "registered",
          "type": "bool"
        },
        {
          "internalType": "uint256",
          "name": "id",
          "type": "uint256"
        },
        {
          "internalType": "address",
          "name": "home",
          "type": "address"
        },
        {
          "internalType": "bool",
          "name": "isMale",
          "type": "bool"
        },
        {
          "internalType": "bool",
          "name": "isHispanic",
          "type": "bool"
        },
        {
          "internalType": "uint32",
          "name": "age",
          "type": "uint32"
        },
        {
          "internalType": "uint32",
          "name": "birthDate",
          "type": "uint32"
        },
        {
          "internalType": "bytes32",
          "name": "race",
          "type": "bytes32"
        },
        {
          "internalType": "bytes32",
          "name": "liveReason",
          "type": "bytes32"
        },
        {
          "internalType": "bytes32",
          "name": "relation",
          "type": "bytes32"
        }
      ],
      "payable": false,
      "stateMutability": "view",
      "type": "function"
    },
    {
      "constant": true,
      "inputs": [],
      "name": "personCount",
      "outputs": [
        {
          "internalType": "uint256",
          "name": "",
          "type": "uint256"
        }
      ],
      "payable": false,
      "stateMutability": "view",
      "type": "function"
    },
    {
      "constant": false,
      "inputs": [
        {
          "internalType": "uint256",
          "name": "_maxResidents",
          "type": "uint256"
        },
        {
          "internalType": "uint256",
          "name": "_extraResidents",
          "type": "uint256"
        },
        {
          "internalType": "uint8",
          "name": "_stateCode",
          "type": "uint8"
        },
        {
          "internalType": "string",
          "name": "_housetype",
          "type": "string"
        }
      ],
      "name": "addHouse",
      "outputs": [],
      "payable": false,
      "stateMutability": "nonpayable",
      "type": "function"
    },
    {
      "constant": false,
      "inputs": [
        {
          "internalType": "bool",
          "name": "_ismale",
          "type": "bool"
        },
        {
          "internalType": "bool",
          "name": "_ishispanic",
          "type": "bool"
        },
        {
          "internalType": "uint32",
          "name": "_age",
          "type": "uint32"
        },
        {
          "internalType": "uint32",
          "name": "_birthdate",
          "type": "uint32"
        },
        {
          "internalType": "bytes32",
          "name": "_race",
          "type": "bytes32"
        },
        {
          "internalType": "bytes32",
          "name": "_liveReason",
          "type": "bytes32"
        },
        {
          "internalType": "bytes32",
          "name": "_relation",
          "type": "bytes32"
        }
      ],
      "name": "addPerson",
      "outputs": [],
      "payable": false,
      "stateMutability": "nonpayable",
      "type": "function"
    },
    {
      "constant": true,
      "inputs": [],
      "name": "getHouse",
      "outputs": [
        {
          "internalType": "bool",
          "name": "",
          "type": "bool"
        },
        {
          "internalType": "uint256",
          "name": "",
          "type": "uint256"
        },
        {
          "internalType": "uint256",
          "name": "",
          "type": "uint256"
        },
        {
          "internalType": "uint256",
          "name": "",
          "type": "uint256"
        },
        {
          "internalType": "string",
          "name": "",
          "type": "string"
        },
        {
          "internalType": "uint8",
          "name": "",
          "type": "uint8"
        },
        {
          "internalType": "uint256[]",
          "name": "",
          "type": "uint256[]"
        }
      ],
      "payable": false,
      "stateMutability": "view",
      "type": "function"
    },
    {
      "constant": true,
      "inputs": [
        {
          "internalType": "uint256",
          "name": "index",
          "type": "uint256"
        }
      ],
      "name": "getPerson",
      "outputs": [
        {
          "internalType": "bool",
          "name": "",
          "type": "bool"
        },
        {
          "internalType": "address",
          "name": "",
          "type": "address"
        },
        {
          "internalType": "bool",
          "name": "",
          "type": "bool"
        },
        {
          "internalType": "bool",
          "name": "",
          "type": "bool"
        },
        {
          "internalType": "uint32",
          "name": "",
          "type": "uint32"
        },
        {
          "internalType": "uint32",
          "name": "",
          "type": "uint32"
        },
        {
          "internalType": "bytes32",
          "name": "",
          "type": "bytes32"
        }
      ],
      "payable": false,
      "stateMutability": "view",
      "type": "function"
    },
    {
      "constant": true,
      "inputs": [
        {
          "internalType": "uint256",
          "name": "index",
          "type": "uint256"
        }
      ],
      "name": "getPersonMore",
      "outputs": [
        {
          "internalType": "bytes32",
          "name": "",
          "type": "bytes32"
        },
        {
          "internalType": "bytes32",
          "name": "",
          "type": "bytes32"
        }
      ],
      "payable": false,
      "stateMutability": "view",
      "type": "function"
    },
    {
      "constant": true,
      "inputs": [
        {
          "internalType": "uint256[]",
          "name": "resiNums",
          "type": "uint256[]"
        }
      ],
      "name": "getPeople",
      "outputs": [
        {
          "internalType": "uint256[]",
          "name": "",
          "type": "uint256[]"
        },
        {
          "internalType": "bool[]",
          "name": "",
          "type": "bool[]"
        },
        {
          "internalType": "bool[]",
          "name": "",
          "type": "bool[]"
        },
        {
          "internalType": "uint256[]",
          "name": "",
          "type": "uint256[]"
        },
        {
          "internalType": "uint256[]",
          "name": "",
          "type": "uint256[]"
        },
        {
          "internalType": "bytes32[]",
          "name": "",
          "type": "bytes32[]"
        }
      ],
      "payable": false,
      "stateMutability": "view",
      "type": "function"
    },
    {
      "constant": true,
      "inputs": [
        {
          "internalType": "uint256[]",
          "name": "resiNums",
          "type": "uint256[]"
        }
      ],
      "name": "getPeopleMore",
      "outputs": [
        {
          "internalType": "bytes32[]",
          "name": "",
          "type": "bytes32[]"
        },
        {
          "internalType": "bytes32[]",
          "name": "",
          "type": "bytes32[]"
        }
      ],
      "payable": false,
      "stateMutability": "view",
      "type": "function"
    },
    {
      "constant": true,
      "inputs": [
        {
          "internalType": "uint256",
          "name": "stateId",
          "type": "uint256"
        }
      ],
      "name": "getStateHouses",
      "outputs": [
        {
          "internalType": "address[]",
          "name": "",
          "type": "address[]"
        }
      ],
      "payable": false,
      "stateMutability": "view",
      "type": "function"
    }
  ],
  "bytecode": "0x608060405234801561001057600080fd5b50336000806101000a81548173ffffffffffffffffffffffffffffffffffffffff021916908373ffffffffffffffffffffffffffffffffffffffff16021790555060006001819055506000600281905550612642806100706000396000f3fe608060405234801561001057600080fd5b50600436106100ea5760003560e01c80637abb3d1b1161008c5780639e7a13ad116100665780639e7a13ad14610288578063bd74f8b1146102c1578063dc10fb3e146102df578063e84f798b14610310576100ea565b80637abb3d1b146102195780638da5cb5b1461024e5780639101ce8b1461026c576100ea565b80632c3fe927116100c85780632c3fe927146101795780636159330f146101aa5780636c7a256f146101df57806378495bf8146101fb576100ea565b806302b5a1c0146100ef57806304e2064f1461011f578063246982c414610143575b600080fd5b61010960048036036101049190810190611a1e565b610340565b6040516101169190611f6f565b60405180910390f35b6101276105b8565b60405161013a979695949392919061215e565b60405180910390f35b61015d60048036036101589190810190611a1e565b61076f565b6040516101709796959493929190612053565b60405180910390f35b610193600480360361018e919081019061193f565b61085e565b6040516101a1929190611f91565b60405180910390f35b6101c460048036036101bf919081019061193f565b610a13565b6040516101d696959493929190611fc8565b60405180910390f35b6101f960048036036101f49190810190611a47565b610e10565b005b61020361109c565b604051610210919061230c565b60405180910390f35b610233600480360361022e9190810190611916565b6110a2565b604051610245969594939291906121db565b60405180910390f35b610256611190565b6040516102639190611f54565b60405180910390f35b61028660048036036102819190810190611980565b6111b5565b005b6102a2600480360361029d9190810190611a1e565b6114db565b6040516102b89a999897969594939291906120c2565b60405180910390f35b6102c9611596565b6040516102d6919061230c565b60405180910390f35b6102f960048036036102f49190810190611a1e565b61159c565b604051610307929190612243565b60405180910390f35b61032a60048036036103259190810190611a1e565b6115d6565b6040516103379190611f54565b60405180910390f35b60606000821180156103525750603482105b610391576040517f08c379a0000000000000000000000000000000000000000000000000000000008152600401610388906122ec565b60405180910390fd5b600080905060008090505b60025481101561044f5760006004600083815260200190815260200160002060009054906101000a900473ffffffffffffffffffffffffffffffffffffffff16905084600360008373ffffffffffffffffffffffffffffffffffffffff1673ffffffffffffffffffffffffffffffffffffffff16815260200190815260200160002060050160009054906101000a900460ff1660ff1614156104415782806001019350505b50808060010191505061039c565b506060816040519080825280602002602001820160405280156104815781602001602082028038833980820191505090505b50905060008090505b828110156105ad5760006004600083815260200190815260200160002060009054906101000a900473ffffffffffffffffffffffffffffffffffffffff16905085600360008373ffffffffffffffffffffffffffffffffffffffff1673ffffffffffffffffffffffffffffffffffffffff16815260200190815260200160002060050160009054906101000a900460ff1660ff16141561059f576004600083815260200190815260200160002060009054906101000a900473ffffffffffffffffffffffffffffffffffffffff1683838151811061056457fe5b602002602001019073ffffffffffffffffffffffffffffffffffffffff16908173ffffffffffffffffffffffffffffffffffffffff16815250505b50808060010191505061048a565b508092505050919050565b6000806000806060600060606000600360003373ffffffffffffffffffffffffffffffffffffffff1673ffffffffffffffffffffffffffffffffffffffff168152602001908152602001600020905060008160000160009054906101000a900460ff169050600082600101549050600083600201549050600084600301549050600085600401905060008660050160009054906101000a900460ff1690506060876006018054806020026020016040519081016040528092919081815260200182805480156106a657602002820191906000526020600020905b815481526020019060010190808311610692575b5050505050905086868686868686828054600181600116156101000203166002900480601f0160208091040260200160405190810160405280929190818152602001828054600181600116156101000203166002900480156107495780601f1061071e57610100808354040283529160200191610749565b820191906000526020600020905b81548152906001019060200180831161072c57829003601f168201915b505050505092509e509e509e509e509e509e509e50505050505050505090919293949596565b600080600080600080600080600560008a8152602001908152602001600020905060008160000160009054906101000a900460ff16905060008260020160009054906101000a900473ffffffffffffffffffffffffffffffffffffffff16905060008360020160149054906101000a900460ff16905060008460020160159054906101000a900460ff16905060008560020160169054906101000a900463ffffffff169050600086600201601a9054906101000a900463ffffffff169050600087600301549050868686868686869e509e509e509e509e509e509e505050505050505050919395979092949650565b60608060008090505b83518110156108fa57600115156005600086848151811061088457fe5b6020026020010151815260200190815260200160002060000160009054906101000a900460ff161515146108ed576040517f08c379a00000000000000000000000000000000000000000000000000000000081526004016108e4906122cc565b60405180910390fd5b8080600101915050610867565b506060835160405190808252806020026020018201604052801561092d5781602001602082028038833980820191505090505b509050606084516040519080825280602002602001820160405280156109625781602001602082028038833980820191505090505b50905060008090505b8551811015610a05576005600087838151811061098457fe5b60200260200101518152602001908152602001600020600401548382815181106109aa57fe5b602002602001018181525050600560008783815181106109c657fe5b60200260200101518152602001908152602001600020600501548282815181106109ec57fe5b602002602001018181525050808060010191505061096b565b508181935093505050915091565b60608060608060608060008090505b8751811015610ab55760011515600560008a8481518110610a3f57fe5b6020026020010151815260200190815260200160002060000160009054906101000a900460ff16151514610aa8576040517f08c379a0000000000000000000000000000000000000000000000000000000008152600401610a9f906122cc565b60405180910390fd5b8080600101915050610a22565b5060608751604051908082528060200260200182016040528015610ae85781602001602082028038833980820191505090505b50905060608851604051908082528060200260200182016040528015610b1d5781602001602082028038833980820191505090505b50905060608951604051908082528060200260200182016040528015610b525781602001602082028038833980820191505090505b50905060608a51604051908082528060200260200182016040528015610b875781602001602082028038833980820191505090505b50905060608b51604051908082528060200260200182016040528015610bbc5781602001602082028038833980820191505090505b50905060608c51604051908082528060200260200182016040528015610bf15781602001602082028038833980820191505090505b50905060008090505b8d51811015610dee57600560008f8381518110610c1357fe5b6020026020010151815260200190815260200160002060010154878281518110610c3957fe5b602002602001018181525050600560008f8381518110610c5557fe5b6020026020010151815260200190815260200160002060020160149054906101000a900460ff16868281518110610c8857fe5b602002602001019015159081151581525050600560008f8381518110610caa57fe5b6020026020010151815260200190815260200160002060020160159054906101000a900460ff16858281518110610cdd57fe5b602002602001019015159081151581525050600560008f8381518110610cff57fe5b6020026020010151815260200190815260200160002060020160169054906101000a900463ffffffff1663ffffffff16848281518110610d3b57fe5b602002602001018181525050600560008f8381518110610d5757fe5b60200260200101518152602001908152602001600020600201601a9054906101000a900463ffffffff1663ffffffff16838281518110610d9357fe5b602002602001018181525050600560008f8381518110610daf57fe5b6020026020010151815260200190815260200160002060030154828281518110610dd557fe5b6020026020010181815250508080600101915050610bfa565b508585858585859b509b509b509b509b509b5050505050505091939550919395565b60001515600360003373ffffffffffffffffffffffffffffffffffffffff1673ffffffffffffffffffffffffffffffffffffffff16815260200190815260200160002060000160009054906101000a900460ff16151514610ea6576040517f08c379a0000000000000000000000000000000000000000000000000000000008152600401610e9d906122ac565b60405180910390fd5b3360046000600254815260200190815260200160002060006101000a81548173ffffffffffffffffffffffffffffffffffffffff021916908373ffffffffffffffffffffffffffffffffffffffff16021790555060606000604051908082528060200260200182016040528015610f2c5781602001602082028038833980820191505090505b509050610f37611609565b6040518060e0016040528060011515815260200160025481526020018781526020018681526020018481526020018560ff16815260200183815250905080600360003373ffffffffffffffffffffffffffffffffffffffff1673ffffffffffffffffffffffffffffffffffffffff16815260200190815260200160002060008201518160000160006101000a81548160ff021916908315150217905550602082015181600101556040820151816002015560608201518160030155608082015181600401908051906020019061100e92919061164b565b5060a08201518160050160006101000a81548160ff021916908360ff16021790555060c082015181600601908051906020019061104c9291906116cb565b509050506002600081548092919060010191905055508360ff1685877f4187beb212ffea2bb85d98e1038711507ac5fd01fcbcade08a07b5f894bb87bb60405160405180910390a4505050505050565b60015481565b60036020528060005260406000206000915090508060000160009054906101000a900460ff1690806001015490806002015490806003015490806004018054600181600116156101000203166002900480601f0160208091040260200160405190810160405280929190818152602001828054600181600116156101000203166002900480156111735780601f1061114857610100808354040283529160200191611173565b820191906000526020600020905b81548152906001019060200180831161115657829003601f168201915b5050505050908060050160009054906101000a900460ff16905086565b6000809054906101000a900473ffffffffffffffffffffffffffffffffffffffff1681565b6000600360003373ffffffffffffffffffffffffffffffffffffffff1673ffffffffffffffffffffffffffffffffffffffff1681526020019081526020016000209050600115158160000160009054906101000a900460ff16151514611250576040517f08c379a00000000000000000000000000000000000000000000000000000000081526004016112479061228c565b60405180910390fd5b806002015481600601805490501061129d576040517f08c379a00000000000000000000000000000000000000000000000000000000081526004016112949061226c565b60405180910390fd5b6112a5611718565b60405180610140016040528060011515815260200160015481526020013373ffffffffffffffffffffffffffffffffffffffff1681526020018a1515815260200189151581526020018863ffffffff1681526020018763ffffffff1681526020018681526020018581526020018481525090508060056000600154815260200190815260200160002060008201518160000160006101000a81548160ff0219169083151502179055506020820151816001015560408201518160020160006101000a81548173ffffffffffffffffffffffffffffffffffffffff021916908373ffffffffffffffffffffffffffffffffffffffff16021790555060608201518160020160146101000a81548160ff02191690831515021790555060808201518160020160156101000a81548160ff02191690831515021790555060a08201518160020160166101000a81548163ffffffff021916908363ffffffff16021790555060c082015181600201601a6101000a81548163ffffffff021916908363ffffffff16021790555060e0820151816003015561010082015181600401556101208201518160050155905050600360003373ffffffffffffffffffffffffffffffffffffffff1673ffffffffffffffffffffffffffffffffffffffff1681526020019081526020016000206006016001549080600181540180825580915050906001820390600052602060002001600090919290919091505550600160008154809291906001019190505550505050505050505050565b60056020528060005260406000206000915090508060000160009054906101000a900460ff16908060010154908060020160009054906101000a900473ffffffffffffffffffffffffffffffffffffffff16908060020160149054906101000a900460ff16908060020160159054906101000a900460ff16908060020160169054906101000a900463ffffffff169080600201601a9054906101000a900463ffffffff1690806003015490806004015490806005015490508a565b60025481565b6000806000600560008581526020019081526020016000209050600081600401549050600082600501549050818194509450505050915091565b60046020528060005260406000206000915054906101000a900473ffffffffffffffffffffffffffffffffffffffff1681565b6040518060e0016040528060001515815260200160008152602001600081526020016000815260200160608152602001600060ff168152602001606081525090565b828054600181600116156101000203166002900490600052602060002090601f016020900481019282601f1061168c57805160ff19168380011785556116ba565b828001600101855582156116ba579182015b828111156116b957825182559160200191906001019061169e565b5b5090506116c7919061179c565b5090565b828054828255906000526020600020908101928215611707579160200282015b828111156117065782518255916020019190600101906116eb565b5b509050611714919061179c565b5090565b60405180610140016040528060001515815260200160008152602001600073ffffffffffffffffffffffffffffffffffffffff168152602001600015158152602001600015158152602001600063ffffffff168152602001600063ffffffff1681526020016000801916815260200160008019168152602001600080191681525090565b6117be91905b808211156117ba5760008160009055506001016117a2565b5090565b90565b6000813590506117d081612575565b92915050565b600082601f8301126117e757600080fd5b81356117fa6117f582612354565b612327565b9150818183526020840193506020810190508385602084028201111561181f57600080fd5b60005b8381101561184f578161183588826118d7565b845260208401935060208301925050600181019050611822565b5050505092915050565b6000813590506118688161258c565b92915050565b60008135905061187d816125a3565b92915050565b600082601f83011261189457600080fd5b81356118a76118a28261237c565b612327565b915080825260208301602083018583830111156118c357600080fd5b6118ce838284612522565b50505092915050565b6000813590506118e6816125ba565b92915050565b6000813590506118fb816125d1565b92915050565b600081359050611910816125e8565b92915050565b60006020828403121561192857600080fd5b6000611936848285016117c1565b91505092915050565b60006020828403121561195157600080fd5b600082013567ffffffffffffffff81111561196b57600080fd5b611977848285016117d6565b91505092915050565b600080600080600080600060e0888a03121561199b57600080fd5b60006119a98a828b01611859565b97505060206119ba8a828b01611859565b96505060406119cb8a828b016118ec565b95505060606119dc8a828b016118ec565b94505060806119ed8a828b0161186e565b93505060a06119fe8a828b0161186e565b92505060c0611a0f8a828b0161186e565b91505092959891949750929550565b600060208284031215611a3057600080fd5b6000611a3e848285016118d7565b91505092915050565b60008060008060808587031215611a5d57600080fd5b6000611a6b878288016118d7565b9450506020611a7c878288016118d7565b9350506040611a8d87828801611901565b925050606085013567ffffffffffffffff811115611aaa57600080fd5b611ab687828801611883565b91505092959194509250565b6000611ace8383611b22565b60208301905092915050565b6000611ae68383611cb8565b60208301905092915050565b6000611afe8383611cd6565b60208301905092915050565b6000611b168383611f18565b60208301905092915050565b611b2b816124b3565b82525050565b611b3a816124b3565b82525050565b6000611b4b826123e8565b611b55818561245e565b9350611b60836123a8565b8060005b83811015611b91578151611b788882611ac2565b9750611b838361242a565b925050600181019050611b64565b5085935050505092915050565b6000611ba9826123f3565b611bb3818561246f565b9350611bbe836123b8565b8060005b83811015611bef578151611bd68882611ada565b9750611be183612437565b925050600181019050611bc2565b5085935050505092915050565b6000611c07826123fe565b611c118185612480565b9350611c1c836123c8565b8060005b83811015611c4d578151611c348882611af2565b9750611c3f83612444565b925050600181019050611c20565b5085935050505092915050565b6000611c6582612409565b611c6f8185612491565b9350611c7a836123d8565b8060005b83811015611cab578151611c928882611b0a565b9750611c9d83612451565b925050600181019050611c7e565b5085935050505092915050565b611cc1816124c5565b82525050565b611cd0816124c5565b82525050565b611cdf816124d1565b82525050565b611cee816124d1565b82525050565b6000611cff8261241f565b611d0981856124a2565b9350611d19818560208601612531565b611d2281612564565b840191505092915050565b6000611d3882612414565b611d4281856124a2565b9350611d52818560208601612531565b611d5b81612564565b840191505092915050565b6000611d736025836124a2565b91507f4d617820726567697374657265642070656f706c6520666f722074686973204860008301527f6f7573652e0000000000000000000000000000000000000000000000000000006020830152604082019050919050565b6000611dd9602e836124a2565b91507f5468657265206973206e6f20686f757365207265676973746572656420666f7260008301527f207468697320616464726573732e0000000000000000000000000000000000006020830152604082019050919050565b6000611e3f602c836124a2565b91507f5468697320616464726573732068617320616c7265616479207265676973746560008301527f726564206120686f7573652e00000000000000000000000000000000000000006020830152604082019050919050565b6000611ea5601c836124a2565b91507f496e76616c696420706572736f6e204944207265717565737465642e000000006000830152602082019050919050565b6000611ee56013836124a2565b91507f496e76616c696420737461746520636f64652e000000000000000000000000006000830152602082019050919050565b611f21816124fb565b82525050565b611f30816124fb565b82525050565b611f3f81612505565b82525050565b611f4e81612515565b82525050565b6000602082019050611f696000830184611b31565b92915050565b60006020820190508181036000830152611f898184611b40565b905092915050565b60006040820190508181036000830152611fab8185611bfc565b90508181036020830152611fbf8184611bfc565b90509392505050565b600060c0820190508181036000830152611fe28189611c5a565b90508181036020830152611ff68188611b9e565b9050818103604083015261200a8187611b9e565b9050818103606083015261201e8186611c5a565b905081810360808301526120328185611c5a565b905081810360a08301526120468184611bfc565b9050979650505050505050565b600060e082019050612068600083018a611cc7565b6120756020830189611b31565b6120826040830188611cc7565b61208f6060830187611cc7565b61209c6080830186611f36565b6120a960a0830185611f36565b6120b660c0830184611ce5565b98975050505050505050565b6000610140820190506120d8600083018d611cc7565b6120e5602083018c611f27565b6120f2604083018b611b31565b6120ff606083018a611cc7565b61210c6080830189611cc7565b61211960a0830188611f36565b61212660c0830187611f36565b61213360e0830186611ce5565b612141610100830185611ce5565b61214f610120830184611ce5565b9b9a5050505050505050505050565b600060e082019050612173600083018a611cc7565b6121806020830189611f27565b61218d6040830188611f27565b61219a6060830187611f27565b81810360808301526121ac8186611cf4565b90506121bb60a0830185611f45565b81810360c08301526121cd8184611c5a565b905098975050505050505050565b600060c0820190506121f06000830189611cc7565b6121fd6020830188611f27565b61220a6040830187611f27565b6122176060830186611f27565b81810360808301526122298185611d2d565b905061223860a0830184611f45565b979650505050505050565b60006040820190506122586000830185611ce5565b6122656020830184611ce5565b9392505050565b6000602082019050818103600083015261228581611d66565b9050919050565b600060208201905081810360008301526122a581611dcc565b9050919050565b600060208201905081810360008301526122c581611e32565b9050919050565b600060208201905081810360008301526122e581611e98565b9050919050565b6000602082019050818103600083015261230581611ed8565b9050919050565b60006020820190506123216000830184611f27565b92915050565b6000604051905081810181811067ffffffffffffffff8211171561234a57600080fd5b8060405250919050565b600067ffffffffffffffff82111561236b57600080fd5b602082029050602081019050919050565b600067ffffffffffffffff82111561239357600080fd5b601f19601f8301169050602081019050919050565b6000819050602082019050919050565b6000819050602082019050919050565b6000819050602082019050919050565b6000819050602082019050919050565b600081519050919050565b600081519050919050565b600081519050919050565b600081519050919050565b600081519050919050565b600081519050919050565b6000602082019050919050565b6000602082019050919050565b6000602082019050919050565b6000602082019050919050565b600082825260208201905092915050565b600082825260208201905092915050565b600082825260208201905092915050565b600082825260208201905092915050565b600082825260208201905092915050565b60006124be826124db565b9050919050565b60008115159050919050565b6000819050919050565b600073ffffffffffffffffffffffffffffffffffffffff82169050919050565b6000819050919050565b600063ffffffff82169050919050565b600060ff82169050919050565b82818337600083830152505050565b60005b8381101561254f578082015181840152602081019050612534565b8381111561255e576000848401525b50505050565b6000601f19601f8301169050919050565b61257e816124b3565b811461258957600080fd5b50565b612595816124c5565b81146125a057600080fd5b50565b6125ac816124d1565b81146125b757600080fd5b50565b6125c3816124fb565b81146125ce57600080fd5b50565b6125da81612505565b81146125e557600080fd5b50565b6125f181612515565b81146125fc57600080fd5b5056fea365627a7a723158204c2089d6a94ac65926f69cdf32b771dc46753c888318048cfe9f386fda4b73046c6578706572696d656e74616cf564736f6c63430005100040",
  "source": "pragma solidity ^0.5.0;\r\npragma experimental ABIEncoderV2;\r\n\r\ncontract Census {\r\n\r\n    // Initialize contract owner\r\n    address public owner;\r\n\r\n    // Global counter for Person struct ID\r\n    uint public personCount;\r\n    // Global counter for House count\r\n    uint public houseCount;\r\n\r\n    // House struct\r\n    struct House {\r\n        bool registered;\r\n        uint id;\r\n        uint maxResidents;\r\n        uint extraResidents;\r\n        string houseType; // House, Apartment, Mobile Home\r\n        uint8 stateCode;\r\n        uint[] residentList;\r\n    }\r\n\r\n    // Person struct\r\n    // NOTE: Params race, liveReason, and relation stored as bytes32\r\n    // because arrays of strings are not supported in web3 and return\r\n    // blank/empty. Array of bytes are used then converted in web3.\r\n    struct Person {\r\n        bool registered;\r\n        uint id; // peopleCount at time of transaction\r\n        address home; // easy tracking on data pulls\r\n        bool isMale;\r\n        bool isHispanic;\r\n        uint32 age;\r\n        uint32 birthDate; // YYYYMMDD\r\n        bytes32 race;\r\n        bytes32 liveReason;\r\n        bytes32 relation;\r\n    }\r\n\r\n    // stores index of 'Houses' struct by address\r\n    mapping(address => House) public houses;\r\n\r\n    mapping(uint256 => address) public houseById;\r\n\r\n    // stores a 'Person' struct as index id\r\n    mapping(uint => Person) public people;\r\n\r\n    event houseAddedEvent (\r\n    uint indexed _maxResidents,\r\n    uint indexed _extraResidents,\r\n    uint8 indexed _stateCode\r\n    );\r\n\r\n    // Initialized at contract creation\r\n    constructor() public {\r\n        // Contract owner\r\n        owner = msg.sender;\r\n        personCount = 0;\r\n        houseCount = 0;\r\n    }\r\n\r\n    function addHouse(uint _maxResidents,\r\n                      uint _extraResidents,\r\n                      uint8 _stateCode,\r\n                      string memory _housetype) public {\r\n        \r\n        // Ensure house is not already registered for address\r\n        require(houses[msg.sender].registered == false, \"This address has already registered a house.\");\r\n\r\n        // Map new House ID\r\n        houseById[houseCount] = msg.sender;\r\n\r\n        // Initialize empty residentList array\r\n        uint[] memory emptyList = new uint[](0);\r\n        \r\n        // Create new house struct\r\n        House memory newhouse = House(true,\r\n                                      houseCount,\r\n                                      _maxResidents,\r\n                                      _extraResidents,\r\n                                      _housetype,\r\n                                      _stateCode,\r\n                                      emptyList);\r\n\r\n        houses[msg.sender] = newhouse;\r\n\r\n        // Increase global house count\r\n        houseCount++;        \r\n\r\n        emit houseAddedEvent(_maxResidents, _extraResidents, _stateCode);\r\n    }\r\n\r\n    function addPerson(bool _ismale,\r\n                       bool _ishispanic,\r\n                       uint32 _age,\r\n                       uint32 _birthdate,\r\n                       bytes32 _race,\r\n                       bytes32 _liveReason,\r\n                       bytes32 _relation) public {\r\n\r\n        House storage currentHouse = houses[msg.sender];\r\n        // Ensure house for address exists before adding\r\n        require(currentHouse.registered == true, \"There is no house registered for this address.\");\r\n        // Require house of address to have resident count within range\r\n        require(currentHouse.residentList.length < currentHouse.maxResidents, \"Max registered people for this House.\");\r\n\r\n        Person memory newPerson =  Person(true,\r\n                                          personCount,\r\n                                          msg.sender,\r\n                                          _ismale,\r\n                                          _ishispanic,\r\n                                          _age,\r\n                                          _birthdate,\r\n                                          _race,\r\n                                          _liveReason,\r\n                                          _relation);\r\n        // Map new person struct\r\n        people[personCount] = newPerson;\r\n\r\n        // Add person ID to house residentList\r\n        houses[msg.sender].residentList.push(personCount);\r\n        \r\n        // Increase global person count (iD)\r\n        personCount++;\r\n    }\r\n\r\n    // Return House struct params\r\n    function getHouse() public view returns (bool,\r\n                                             uint,\r\n                                             uint,\r\n                                             uint,\r\n                                             string memory,\r\n                                             uint8,\r\n                                             uint[] memory) {\r\n        \r\n        House storage thisHouse = houses[msg.sender];\r\n\r\n        bool resiValid = thisHouse.registered;\r\n        uint resiId = thisHouse.id;        \r\n        uint resiNum = thisHouse.maxResidents;\r\n        uint resiAdd = thisHouse.extraResidents;\r\n        string storage houseType = thisHouse.houseType;\r\n        uint8 stateCode = thisHouse.stateCode;\r\n        uint[] memory resiList = thisHouse.residentList;\r\n\r\n        return (resiValid, resiId, resiNum, resiAdd, houseType, stateCode, resiList);\r\n    }\r\n\r\n    // Return Person struct params\r\n    function getPerson(uint index) public view returns (bool,\r\n                                                        address,\r\n                                                        bool,\r\n                                                        bool,\r\n                                                        uint32,\r\n                                                        uint32,\r\n                                                        bytes32) {\r\n        Person storage thisPerson = people[index];\r\n\r\n        bool registered = thisPerson.registered;\r\n        address home = thisPerson.home;\r\n        bool isMale = thisPerson.isMale;\r\n        bool isHispanic = thisPerson.isHispanic;\r\n        uint32 age = thisPerson.age;\r\n        uint32 birthDate = thisPerson.birthDate;\r\n        bytes32 race = thisPerson.race;\r\n\r\n        return (registered, home, isMale, isHispanic, age, birthDate, race);\r\n    }\r\n\r\n    // Return additional Person details to avoid\r\n    // stack overflow when using getPerson() getter\r\n    function getPersonMore(uint index) public view returns (bytes32,\r\n                                                            bytes32) {\r\n        Person storage thisPerson = people[index];\r\n\r\n        bytes32 liveReason = thisPerson.liveReason;\r\n        bytes32 relation = thisPerson.relation;\r\n\r\n        return (liveReason, relation);\r\n    }\r\n\r\n    // TEST FUNCTION\r\n    function getPeople(uint[] memory resiNums) public view returns (uint[] memory,\r\n                                                                    bool[] memory,\r\n                                                                    bool[] memory,\r\n                                                                    uint[] memory,\r\n                                                                    uint[] memory,\r\n                                                                    bytes32[] memory){\r\n\r\n        for (uint i = 0; i < resiNums.length; i++) {\r\n            require(people[resiNums[i]].registered == true, \"Invalid person ID requested.\");\r\n        }\r\n      \r\n        uint[] memory id = new uint[](resiNums.length);\r\n        bool[] memory isMale = new bool[](resiNums.length);\r\n        bool[] memory isHispanic = new bool[](resiNums.length);\r\n        uint[] memory age = new uint[](resiNums.length);\r\n        uint[] memory birthDate = new uint[](resiNums.length);\r\n        bytes32[] memory race = new bytes32[](resiNums.length);\r\n\r\n        for (uint i = 0; i < resiNums.length; i++) {\r\n\r\n            id[i] = people[resiNums[i]].id;\r\n            isMale[i] = people[resiNums[i]].isMale;\r\n            isHispanic[i] = people[resiNums[i]].isHispanic;\r\n            age[i] = people[resiNums[i]].age;\r\n            birthDate[i] = people[resiNums[i]].birthDate;\r\n            race[i] = people[resiNums[i]].race;\r\n        }\r\n        return (id, isMale, isHispanic, age, birthDate, race);\r\n    }\r\n\r\n    // TEST FUNCTION\r\n    function getPeopleMore(uint[] memory resiNums) public view returns (bytes32[] memory,\r\n                                                                        bytes32[] memory){\r\n        \r\n        for (uint i = 0; i < resiNums.length; i++) {\r\n            require(people[resiNums[i]].registered == true, \"Invalid person ID requested.\");\r\n        }\r\n      \r\n        bytes32[] memory liveReason = new bytes32[](resiNums.length);\r\n        bytes32[] memory relation = new bytes32[](resiNums.length);\r\n\r\n        for (uint i = 0; i < resiNums.length; i++) {\r\n\r\n            liveReason[i] = people[resiNums[i]].liveReason;\r\n            relation[i] = people[resiNums[i]].relation;\r\n        }\r\n        return (liveReason, relation);\r\n    }\r\n\r\n    function getStateHouses(uint stateId) public view returns(address[] memory) {\r\n        // Permit states within valid state code range\r\n        require(stateId > 0 && stateId < 52, \"Invalid state code.\");\r\n\r\n        // Initalize address array\r\n        uint validCount = 0;\r\n\r\n        for (uint i = 0; i < houseCount; i++) {\r\n            address houseAddr = houseById[i];\r\n            if (houses[houseAddr].stateCode == stateId) {\r\n                validCount++;\r\n            }\r\n        }\r\n\r\n        address[] memory addressList = new address[](validCount);        \r\n        \r\n        for (uint i = 0; i < validCount; i++) {\r\n            address houseAddr = houseById[i];\r\n            if (houses[houseAddr].stateCode == stateId) {\r\n                addressList[i] = houseById[i];\r\n            }\r\n        }\r\n        return addressList;\r\n    }\r\n}",
  "sourcePath": "C:\\Users\\Jerrbear\\Desktop\\solidity\\census\\contracts\\Census.sol",
  "compiler": {
    "name": "solc",
    "version": "0.5.16+commit.9c3226ce.Emscripten.clang"
  },
  "schemaVersion": "3.0.23",
  "updatedAt": "2020-04-12T01:18:17.678Z",
  "networkType": "ethereum",
  "devdoc": {
    "methods": {}
  },
  "userdoc": {
    "methods": {}
  }
}