{
  "contractName": "Census",
  "abi": [
    {
      "inputs": [],
      "payable": false,
      "stateMutability": "nonpayable",
      "type": "constructor"
    },
    {
      "anonymous": false,
      "inputs": [
        {
          "indexed": true,
          "internalType": "uint256",
          "name": "_maxResidents",
          "type": "uint256"
        },
        {
          "indexed": true,
          "internalType": "uint256",
          "name": "_extraResidents",
          "type": "uint256"
        },
        {
          "indexed": true,
          "internalType": "uint8",
          "name": "_stateCode",
          "type": "uint8"
        }
      ],
      "name": "houseAddedEvent",
      "type": "event"
    },
    {
      "anonymous": false,
      "inputs": [
        {
          "indexed": true,
          "internalType": "uint256",
          "name": "_id",
          "type": "uint256"
        },
        {
          "indexed": true,
          "internalType": "bytes32",
          "name": "_race",
          "type": "bytes32"
        },
        {
          "indexed": true,
          "internalType": "bytes32",
          "name": "_relation",
          "type": "bytes32"
        }
      ],
      "name": "personAddedEvent",
      "type": "event"
    },
    {
      "constant": true,
      "inputs": [
        {
          "internalType": "uint256",
          "name": "",
          "type": "uint256"
        }
      ],
      "name": "houseById",
      "outputs": [
        {
          "internalType": "address",
          "name": "",
          "type": "address"
        }
      ],
      "payable": false,
      "stateMutability": "view",
      "type": "function"
    },
    {
      "constant": true,
      "inputs": [],
      "name": "houseCount",
      "outputs": [
        {
          "internalType": "uint256",
          "name": "",
          "type": "uint256"
        }
      ],
      "payable": false,
      "stateMutability": "view",
      "type": "function"
    },
    {
      "constant": true,
      "inputs": [
        {
          "internalType": "address",
          "name": "",
          "type": "address"
        }
      ],
      "name": "houses",
      "outputs": [
        {
          "internalType": "bool",
          "name": "registered",
          "type": "bool"
        },
        {
          "internalType": "uint256",
          "name": "id",
          "type": "uint256"
        },
        {
          "internalType": "uint256",
          "name": "maxResidents",
          "type": "uint256"
        },
        {
          "internalType": "uint256",
          "name": "extraResidents",
          "type": "uint256"
        },
        {
          "internalType": "string",
          "name": "houseType",
          "type": "string"
        },
        {
          "internalType": "uint8",
          "name": "stateCode",
          "type": "uint8"
        }
      ],
      "payable": false,
      "stateMutability": "view",
      "type": "function"
    },
    {
      "constant": true,
      "inputs": [],
      "name": "owner",
      "outputs": [
        {
          "internalType": "address",
          "name": "",
          "type": "address"
        }
      ],
      "payable": false,
      "stateMutability": "view",
      "type": "function"
    },
    {
      "constant": true,
      "inputs": [
        {
          "internalType": "uint256",
          "name": "",
          "type": "uint256"
        }
      ],
      "name": "people",
      "outputs": [
        {
          "internalType": "bool",
          "name": "registered",
          "type": "bool"
        },
        {
          "internalType": "uint256",
          "name": "id",
          "type": "uint256"
        },
        {
          "internalType": "address",
          "name": "home",
          "type": "address"
        },
        {
          "internalType": "bool",
          "name": "isMale",
          "type": "bool"
        },
        {
          "internalType": "bool",
          "name": "isHispanic",
          "type": "bool"
        },
        {
          "internalType": "uint32",
          "name": "age",
          "type": "uint32"
        },
        {
          "internalType": "uint32",
          "name": "birthDate",
          "type": "uint32"
        },
        {
          "internalType": "bytes32",
          "name": "race",
          "type": "bytes32"
        },
        {
          "internalType": "bytes32",
          "name": "liveReason",
          "type": "bytes32"
        },
        {
          "internalType": "bytes32",
          "name": "relation",
          "type": "bytes32"
        }
      ],
      "payable": false,
      "stateMutability": "view",
      "type": "function"
    },
    {
      "constant": true,
      "inputs": [],
      "name": "personCount",
      "outputs": [
        {
          "internalType": "uint256",
          "name": "",
          "type": "uint256"
        }
      ],
      "payable": false,
      "stateMutability": "view",
      "type": "function"
    },
    {
      "constant": false,
      "inputs": [
        {
          "internalType": "uint256",
          "name": "_maxResidents",
          "type": "uint256"
        },
        {
          "internalType": "uint256",
          "name": "_extraResidents",
          "type": "uint256"
        },
        {
          "internalType": "uint8",
          "name": "_stateCode",
          "type": "uint8"
        },
        {
          "internalType": "string",
          "name": "_housetype",
          "type": "string"
        }
      ],
      "name": "addHouse",
      "outputs": [],
      "payable": false,
      "stateMutability": "nonpayable",
      "type": "function"
    },
    {
      "constant": false,
      "inputs": [
        {
          "internalType": "bool",
          "name": "_ismale",
          "type": "bool"
        },
        {
          "internalType": "bool",
          "name": "_ishispanic",
          "type": "bool"
        },
        {
          "internalType": "uint32",
          "name": "_age",
          "type": "uint32"
        },
        {
          "internalType": "uint32",
          "name": "_birthdate",
          "type": "uint32"
        },
        {
          "internalType": "bytes32",
          "name": "_race",
          "type": "bytes32"
        },
        {
          "internalType": "bytes32",
          "name": "_liveReason",
          "type": "bytes32"
        },
        {
          "internalType": "bytes32",
          "name": "_relation",
          "type": "bytes32"
        }
      ],
      "name": "addPerson",
      "outputs": [],
      "payable": false,
      "stateMutability": "nonpayable",
      "type": "function"
    },
    {
      "constant": true,
      "inputs": [
        {
          "internalType": "address",
          "name": "_addr",
          "type": "address"
        }
      ],
      "name": "getHouse",
      "outputs": [
        {
          "internalType": "bool",
          "name": "",
          "type": "bool"
        },
        {
          "internalType": "uint256",
          "name": "",
          "type": "uint256"
        },
        {
          "internalType": "uint256",
          "name": "",
          "type": "uint256"
        },
        {
          "internalType": "uint256",
          "name": "",
          "type": "uint256"
        },
        {
          "internalType": "string",
          "name": "",
          "type": "string"
        },
        {
          "internalType": "uint8",
          "name": "",
          "type": "uint8"
        },
        {
          "internalType": "uint256[]",
          "name": "",
          "type": "uint256[]"
        }
      ],
      "payable": false,
      "stateMutability": "view",
      "type": "function"
    },
    {
      "constant": true,
      "inputs": [
        {
          "internalType": "uint256",
          "name": "index",
          "type": "uint256"
        }
      ],
      "name": "getPerson",
      "outputs": [
        {
          "internalType": "bool",
          "name": "",
          "type": "bool"
        },
        {
          "internalType": "address",
          "name": "",
          "type": "address"
        },
        {
          "internalType": "bool",
          "name": "",
          "type": "bool"
        },
        {
          "internalType": "bool",
          "name": "",
          "type": "bool"
        },
        {
          "internalType": "uint32",
          "name": "",
          "type": "uint32"
        },
        {
          "internalType": "uint32",
          "name": "",
          "type": "uint32"
        },
        {
          "internalType": "bytes32",
          "name": "",
          "type": "bytes32"
        }
      ],
      "payable": false,
      "stateMutability": "view",
      "type": "function"
    },
    {
      "constant": true,
      "inputs": [
        {
          "internalType": "uint256",
          "name": "index",
          "type": "uint256"
        }
      ],
      "name": "getPersonMore",
      "outputs": [
        {
          "internalType": "bytes32",
          "name": "",
          "type": "bytes32"
        },
        {
          "internalType": "bytes32",
          "name": "",
          "type": "bytes32"
        }
      ],
      "payable": false,
      "stateMutability": "view",
      "type": "function"
    },
    {
      "constant": true,
      "inputs": [
        {
          "internalType": "uint256[]",
          "name": "resiNums",
          "type": "uint256[]"
        }
      ],
      "name": "getPeople",
      "outputs": [
        {
          "internalType": "uint256[]",
          "name": "",
          "type": "uint256[]"
        },
        {
          "internalType": "bool[]",
          "name": "",
          "type": "bool[]"
        },
        {
          "internalType": "bool[]",
          "name": "",
          "type": "bool[]"
        },
        {
          "internalType": "uint256[]",
          "name": "",
          "type": "uint256[]"
        },
        {
          "internalType": "uint256[]",
          "name": "",
          "type": "uint256[]"
        },
        {
          "internalType": "bytes32[]",
          "name": "",
          "type": "bytes32[]"
        }
      ],
      "payable": false,
      "stateMutability": "view",
      "type": "function"
    },
    {
      "constant": true,
      "inputs": [
        {
          "internalType": "uint256[]",
          "name": "resiNums",
          "type": "uint256[]"
        }
      ],
      "name": "getPeopleMore",
      "outputs": [
        {
          "internalType": "bytes32[]",
          "name": "",
          "type": "bytes32[]"
        },
        {
          "internalType": "bytes32[]",
          "name": "",
          "type": "bytes32[]"
        }
      ],
      "payable": false,
      "stateMutability": "view",
      "type": "function"
    },
    {
      "constant": true,
      "inputs": [
        {
          "internalType": "uint256",
          "name": "stateId",
          "type": "uint256"
        }
      ],
      "name": "getStateHouses",
      "outputs": [
        {
          "internalType": "address[]",
          "name": "",
          "type": "address[]"
        }
      ],
      "payable": false,
      "stateMutability": "view",
      "type": "function"
    }
  ],
  "bytecode": "0x608060405234801561001057600080fd5b50336000806101000a81548173ffffffffffffffffffffffffffffffffffffffff021916908373ffffffffffffffffffffffffffffffffffffffff16021790555060006001819055506000600281905550612687806100706000396000f3fe608060405234801561001057600080fd5b50600436106100ea5760003560e01c80637abb3d1b1161008c5780639e7a13ad116100665780639e7a13ad1461029a578063bd74f8b1146102d3578063dc10fb3e146102f1578063e84f798b14610322576100ea565b80637abb3d1b1461022b5780638da5cb5b146102605780639101ce8b1461027e576100ea565b80633991737a116100c85780633991737a146101865780636159330f146101bc5780636c7a256f146101f157806378495bf81461020d576100ea565b806302b5a1c0146100ef578063246982c41461011f5780632c3fe92714610155575b600080fd5b61010960048036036101049190810190611a63565b610352565b6040516101169190611fb4565b60405180910390f35b61013960048036036101349190810190611a63565b6105ca565b60405161014c9796959493929190612098565b60405180910390f35b61016f600480360361016a9190810190611984565b6106b9565b60405161017d929190611fd6565b60405180910390f35b6101a0600480360361019b919081019061195b565b61086e565b6040516101b397969594939291906121a3565b60405180910390f35b6101d660048036036101d19190810190611984565b610a27565b6040516101e89695949392919061200d565b60405180910390f35b61020b60048036036102069190810190611a8c565b610e24565b005b6102156110b0565b6040516102229190612351565b60405180910390f35b6102456004803603610240919081019061195b565b6110b6565b60405161025796959493929190612220565b60405180910390f35b6102686111a4565b6040516102759190611f99565b60405180910390f35b610298600480360361029391908101906119c5565b6111c9565b005b6102b460048036036102af9190810190611a63565b611520565b6040516102ca9a99989796959493929190612107565b60405180910390f35b6102db6115db565b6040516102e89190612351565b60405180910390f35b61030b60048036036103069190810190611a63565b6115e1565b604051610319929190612288565b60405180910390f35b61033c60048036036103379190810190611a63565b61161b565b6040516103499190611f99565b60405180910390f35b60606000821180156103645750603482105b6103a3576040517f08c379a000000000000000000000000000000000000000000000000000000000815260040161039a90612331565b60405180910390fd5b600080905060008090505b6002548110156104615760006004600083815260200190815260200160002060009054906101000a900473ffffffffffffffffffffffffffffffffffffffff16905084600360008373ffffffffffffffffffffffffffffffffffffffff1673ffffffffffffffffffffffffffffffffffffffff16815260200190815260200160002060050160009054906101000a900460ff1660ff1614156104535782806001019350505b5080806001019150506103ae565b506060816040519080825280602002602001820160405280156104935781602001602082028038833980820191505090505b50905060008090505b828110156105bf5760006004600083815260200190815260200160002060009054906101000a900473ffffffffffffffffffffffffffffffffffffffff16905085600360008373ffffffffffffffffffffffffffffffffffffffff1673ffffffffffffffffffffffffffffffffffffffff16815260200190815260200160002060050160009054906101000a900460ff1660ff1614156105b1576004600083815260200190815260200160002060009054906101000a900473ffffffffffffffffffffffffffffffffffffffff1683838151811061057657fe5b602002602001019073ffffffffffffffffffffffffffffffffffffffff16908173ffffffffffffffffffffffffffffffffffffffff16815250505b50808060010191505061049c565b508092505050919050565b600080600080600080600080600560008a8152602001908152602001600020905060008160000160009054906101000a900460ff16905060008260020160009054906101000a900473ffffffffffffffffffffffffffffffffffffffff16905060008360020160149054906101000a900460ff16905060008460020160159054906101000a900460ff16905060008560020160169054906101000a900463ffffffff169050600086600201601a9054906101000a900463ffffffff169050600087600301549050868686868686869e509e509e509e509e509e509e505050505050505050919395979092949650565b60608060008090505b83518110156107555760011515600560008684815181106106df57fe5b6020026020010151815260200190815260200160002060000160009054906101000a900460ff16151514610748576040517f08c379a000000000000000000000000000000000000000000000000000000000815260040161073f90612311565b60405180910390fd5b80806001019150506106c2565b50606083516040519080825280602002602001820160405280156107885781602001602082028038833980820191505090505b509050606084516040519080825280602002602001820160405280156107bd5781602001602082028038833980820191505090505b50905060008090505b855181101561086057600560008783815181106107df57fe5b602002602001015181526020019081526020016000206004015483828151811061080557fe5b6020026020010181815250506005600087838151811061082157fe5b602002602001015181526020019081526020016000206005015482828151811061084757fe5b60200260200101818152505080806001019150506107c6565b508181935093505050915091565b6000806000806060600060606000600360008a73ffffffffffffffffffffffffffffffffffffffff1673ffffffffffffffffffffffffffffffffffffffff168152602001908152602001600020905060008160000160009054906101000a900460ff169050600082600101549050600083600201549050600084600301549050600085600401905060008660050160009054906101000a900460ff16905060608760060180548060200260200160405190810160405280929190818152602001828054801561095c57602002820191906000526020600020905b815481526020019060010190808311610948575b5050505050905086868686868686828054600181600116156101000203166002900480601f0160208091040260200160405190810160405280929190818152602001828054600181600116156101000203166002900480156109ff5780601f106109d4576101008083540402835291602001916109ff565b820191906000526020600020905b8154815290600101906020018083116109e257829003601f168201915b505050505092509e509e509e509e509e509e509e505050505050505050919395979092949650565b60608060608060608060008090505b8751811015610ac95760011515600560008a8481518110610a5357fe5b6020026020010151815260200190815260200160002060000160009054906101000a900460ff16151514610abc576040517f08c379a0000000000000000000000000000000000000000000000000000000008152600401610ab390612311565b60405180910390fd5b8080600101915050610a36565b5060608751604051908082528060200260200182016040528015610afc5781602001602082028038833980820191505090505b50905060608851604051908082528060200260200182016040528015610b315781602001602082028038833980820191505090505b50905060608951604051908082528060200260200182016040528015610b665781602001602082028038833980820191505090505b50905060608a51604051908082528060200260200182016040528015610b9b5781602001602082028038833980820191505090505b50905060608b51604051908082528060200260200182016040528015610bd05781602001602082028038833980820191505090505b50905060608c51604051908082528060200260200182016040528015610c055781602001602082028038833980820191505090505b50905060008090505b8d51811015610e0257600560008f8381518110610c2757fe5b6020026020010151815260200190815260200160002060010154878281518110610c4d57fe5b602002602001018181525050600560008f8381518110610c6957fe5b6020026020010151815260200190815260200160002060020160149054906101000a900460ff16868281518110610c9c57fe5b602002602001019015159081151581525050600560008f8381518110610cbe57fe5b6020026020010151815260200190815260200160002060020160159054906101000a900460ff16858281518110610cf157fe5b602002602001019015159081151581525050600560008f8381518110610d1357fe5b6020026020010151815260200190815260200160002060020160169054906101000a900463ffffffff1663ffffffff16848281518110610d4f57fe5b602002602001018181525050600560008f8381518110610d6b57fe5b60200260200101518152602001908152602001600020600201601a9054906101000a900463ffffffff1663ffffffff16838281518110610da757fe5b602002602001018181525050600560008f8381518110610dc357fe5b6020026020010151815260200190815260200160002060030154828281518110610de957fe5b6020026020010181815250508080600101915050610c0e565b508585858585859b509b509b509b509b509b5050505050505091939550919395565b60001515600360003373ffffffffffffffffffffffffffffffffffffffff1673ffffffffffffffffffffffffffffffffffffffff16815260200190815260200160002060000160009054906101000a900460ff16151514610eba576040517f08c379a0000000000000000000000000000000000000000000000000000000008152600401610eb1906122f1565b60405180910390fd5b3360046000600254815260200190815260200160002060006101000a81548173ffffffffffffffffffffffffffffffffffffffff021916908373ffffffffffffffffffffffffffffffffffffffff16021790555060606000604051908082528060200260200182016040528015610f405781602001602082028038833980820191505090505b509050610f4b61164e565b6040518060e0016040528060011515815260200160025481526020018781526020018681526020018481526020018560ff16815260200183815250905080600360003373ffffffffffffffffffffffffffffffffffffffff1673ffffffffffffffffffffffffffffffffffffffff16815260200190815260200160002060008201518160000160006101000a81548160ff0219169083151502179055506020820151816001015560408201518160020155606082015181600301556080820151816004019080519060200190611022929190611690565b5060a08201518160050160006101000a81548160ff021916908360ff16021790555060c0820151816006019080519060200190611060929190611710565b509050506002600081548092919060010191905055508360ff1685877f4187beb212ffea2bb85d98e1038711507ac5fd01fcbcade08a07b5f894bb87bb60405160405180910390a4505050505050565b60015481565b60036020528060005260406000206000915090508060000160009054906101000a900460ff1690806001015490806002015490806003015490806004018054600181600116156101000203166002900480601f0160208091040260200160405190810160405280929190818152602001828054600181600116156101000203166002900480156111875780601f1061115c57610100808354040283529160200191611187565b820191906000526020600020905b81548152906001019060200180831161116a57829003601f168201915b5050505050908060050160009054906101000a900460ff16905086565b6000809054906101000a900473ffffffffffffffffffffffffffffffffffffffff1681565b6000600360003373ffffffffffffffffffffffffffffffffffffffff1673ffffffffffffffffffffffffffffffffffffffff1681526020019081526020016000209050600115158160000160009054906101000a900460ff16151514611264576040517f08c379a000000000000000000000000000000000000000000000000000000000815260040161125b906122d1565b60405180910390fd5b80600201548160060180549050106112b1576040517f08c379a00000000000000000000000000000000000000000000000000000000081526004016112a8906122b1565b60405180910390fd5b6112b961175d565b60405180610140016040528060011515815260200160015481526020013373ffffffffffffffffffffffffffffffffffffffff1681526020018a1515815260200189151581526020018863ffffffff1681526020018763ffffffff1681526020018681526020018581526020018481525090508060056000600154815260200190815260200160002060008201518160000160006101000a81548160ff0219169083151502179055506020820151816001015560408201518160020160006101000a81548173ffffffffffffffffffffffffffffffffffffffff021916908373ffffffffffffffffffffffffffffffffffffffff16021790555060608201518160020160146101000a81548160ff02191690831515021790555060808201518160020160156101000a81548160ff02191690831515021790555060a08201518160020160166101000a81548163ffffffff021916908363ffffffff16021790555060c082015181600201601a6101000a81548163ffffffff021916908363ffffffff16021790555060e0820151816003015561010082015181600401556101208201518160050155905050600360003373ffffffffffffffffffffffffffffffffffffffff1673ffffffffffffffffffffffffffffffffffffffff168152602001908152602001600020600601600154908060018154018082558091505090600182039060005260206000200160009091929091909150555060016000815480929190600101919050555082856001547f41c0bda8ba056e4052cc564807368928cf1fc3d8db90348a0589a7484ddd858e60405160405180910390a4505050505050505050565b60056020528060005260406000206000915090508060000160009054906101000a900460ff16908060010154908060020160009054906101000a900473ffffffffffffffffffffffffffffffffffffffff16908060020160149054906101000a900460ff16908060020160159054906101000a900460ff16908060020160169054906101000a900463ffffffff169080600201601a9054906101000a900463ffffffff1690806003015490806004015490806005015490508a565b60025481565b6000806000600560008581526020019081526020016000209050600081600401549050600082600501549050818194509450505050915091565b60046020528060005260406000206000915054906101000a900473ffffffffffffffffffffffffffffffffffffffff1681565b6040518060e0016040528060001515815260200160008152602001600081526020016000815260200160608152602001600060ff168152602001606081525090565b828054600181600116156101000203166002900490600052602060002090601f016020900481019282601f106116d157805160ff19168380011785556116ff565b828001600101855582156116ff579182015b828111156116fe5782518255916020019190600101906116e3565b5b50905061170c91906117e1565b5090565b82805482825590600052602060002090810192821561174c579160200282015b8281111561174b578251825591602001919060010190611730565b5b50905061175991906117e1565b5090565b60405180610140016040528060001515815260200160008152602001600073ffffffffffffffffffffffffffffffffffffffff168152602001600015158152602001600015158152602001600063ffffffff168152602001600063ffffffff1681526020016000801916815260200160008019168152602001600080191681525090565b61180391905b808211156117ff5760008160009055506001016117e7565b5090565b90565b600081359050611815816125ba565b92915050565b600082601f83011261182c57600080fd5b813561183f61183a82612399565b61236c565b9150818183526020840193506020810190508385602084028201111561186457600080fd5b60005b83811015611894578161187a888261191c565b845260208401935060208301925050600181019050611867565b5050505092915050565b6000813590506118ad816125d1565b92915050565b6000813590506118c2816125e8565b92915050565b600082601f8301126118d957600080fd5b81356118ec6118e7826123c1565b61236c565b9150808252602083016020830185838301111561190857600080fd5b611913838284612567565b50505092915050565b60008135905061192b816125ff565b92915050565b60008135905061194081612616565b92915050565b6000813590506119558161262d565b92915050565b60006020828403121561196d57600080fd5b600061197b84828501611806565b91505092915050565b60006020828403121561199657600080fd5b600082013567ffffffffffffffff8111156119b057600080fd5b6119bc8482850161181b565b91505092915050565b600080600080600080600060e0888a0312156119e057600080fd5b60006119ee8a828b0161189e565b97505060206119ff8a828b0161189e565b9650506040611a108a828b01611931565b9550506060611a218a828b01611931565b9450506080611a328a828b016118b3565b93505060a0611a438a828b016118b3565b92505060c0611a548a828b016118b3565b91505092959891949750929550565b600060208284031215611a7557600080fd5b6000611a838482850161191c565b91505092915050565b60008060008060808587031215611aa257600080fd5b6000611ab08782880161191c565b9450506020611ac18782880161191c565b9350506040611ad287828801611946565b925050606085013567ffffffffffffffff811115611aef57600080fd5b611afb878288016118c8565b91505092959194509250565b6000611b138383611b67565b60208301905092915050565b6000611b2b8383611cfd565b60208301905092915050565b6000611b438383611d1b565b60208301905092915050565b6000611b5b8383611f5d565b60208301905092915050565b611b70816124f8565b82525050565b611b7f816124f8565b82525050565b6000611b908261242d565b611b9a81856124a3565b9350611ba5836123ed565b8060005b83811015611bd6578151611bbd8882611b07565b9750611bc88361246f565b925050600181019050611ba9565b5085935050505092915050565b6000611bee82612438565b611bf881856124b4565b9350611c03836123fd565b8060005b83811015611c34578151611c1b8882611b1f565b9750611c268361247c565b925050600181019050611c07565b5085935050505092915050565b6000611c4c82612443565b611c5681856124c5565b9350611c618361240d565b8060005b83811015611c92578151611c798882611b37565b9750611c8483612489565b925050600181019050611c65565b5085935050505092915050565b6000611caa8261244e565b611cb481856124d6565b9350611cbf8361241d565b8060005b83811015611cf0578151611cd78882611b4f565b9750611ce283612496565b925050600181019050611cc3565b5085935050505092915050565b611d068161250a565b82525050565b611d158161250a565b82525050565b611d2481612516565b82525050565b611d3381612516565b82525050565b6000611d4482612464565b611d4e81856124e7565b9350611d5e818560208601612576565b611d67816125a9565b840191505092915050565b6000611d7d82612459565b611d8781856124e7565b9350611d97818560208601612576565b611da0816125a9565b840191505092915050565b6000611db86025836124e7565b91507f4d617820726567697374657265642070656f706c6520666f722074686973204860008301527f6f7573652e0000000000000000000000000000000000000000000000000000006020830152604082019050919050565b6000611e1e602e836124e7565b91507f5468657265206973206e6f20686f757365207265676973746572656420666f7260008301527f207468697320616464726573732e0000000000000000000000000000000000006020830152604082019050919050565b6000611e84602c836124e7565b91507f5468697320616464726573732068617320616c7265616479207265676973746560008301527f726564206120686f7573652e00000000000000000000000000000000000000006020830152604082019050919050565b6000611eea601c836124e7565b91507f496e76616c696420706572736f6e204944207265717565737465642e000000006000830152602082019050919050565b6000611f2a6013836124e7565b91507f496e76616c696420737461746520636f64652e000000000000000000000000006000830152602082019050919050565b611f6681612540565b82525050565b611f7581612540565b82525050565b611f848161254a565b82525050565b611f938161255a565b82525050565b6000602082019050611fae6000830184611b76565b92915050565b60006020820190508181036000830152611fce8184611b85565b905092915050565b60006040820190508181036000830152611ff08185611c41565b905081810360208301526120048184611c41565b90509392505050565b600060c08201905081810360008301526120278189611c9f565b9050818103602083015261203b8188611be3565b9050818103604083015261204f8187611be3565b905081810360608301526120638186611c9f565b905081810360808301526120778185611c9f565b905081810360a083015261208b8184611c41565b9050979650505050505050565b600060e0820190506120ad600083018a611d0c565b6120ba6020830189611b76565b6120c76040830188611d0c565b6120d46060830187611d0c565b6120e16080830186611f7b565b6120ee60a0830185611f7b565b6120fb60c0830184611d2a565b98975050505050505050565b60006101408201905061211d600083018d611d0c565b61212a602083018c611f6c565b612137604083018b611b76565b612144606083018a611d0c565b6121516080830189611d0c565b61215e60a0830188611f7b565b61216b60c0830187611f7b565b61217860e0830186611d2a565b612186610100830185611d2a565b612194610120830184611d2a565b9b9a5050505050505050505050565b600060e0820190506121b8600083018a611d0c565b6121c56020830189611f6c565b6121d26040830188611f6c565b6121df6060830187611f6c565b81810360808301526121f18186611d39565b905061220060a0830185611f8a565b81810360c08301526122128184611c9f565b905098975050505050505050565b600060c0820190506122356000830189611d0c565b6122426020830188611f6c565b61224f6040830187611f6c565b61225c6060830186611f6c565b818103608083015261226e8185611d72565b905061227d60a0830184611f8a565b979650505050505050565b600060408201905061229d6000830185611d2a565b6122aa6020830184611d2a565b9392505050565b600060208201905081810360008301526122ca81611dab565b9050919050565b600060208201905081810360008301526122ea81611e11565b9050919050565b6000602082019050818103600083015261230a81611e77565b9050919050565b6000602082019050818103600083015261232a81611edd565b9050919050565b6000602082019050818103600083015261234a81611f1d565b9050919050565b60006020820190506123666000830184611f6c565b92915050565b6000604051905081810181811067ffffffffffffffff8211171561238f57600080fd5b8060405250919050565b600067ffffffffffffffff8211156123b057600080fd5b602082029050602081019050919050565b600067ffffffffffffffff8211156123d857600080fd5b601f19601f8301169050602081019050919050565b6000819050602082019050919050565b6000819050602082019050919050565b6000819050602082019050919050565b6000819050602082019050919050565b600081519050919050565b600081519050919050565b600081519050919050565b600081519050919050565b600081519050919050565b600081519050919050565b6000602082019050919050565b6000602082019050919050565b6000602082019050919050565b6000602082019050919050565b600082825260208201905092915050565b600082825260208201905092915050565b600082825260208201905092915050565b600082825260208201905092915050565b600082825260208201905092915050565b600061250382612520565b9050919050565b60008115159050919050565b6000819050919050565b600073ffffffffffffffffffffffffffffffffffffffff82169050919050565b6000819050919050565b600063ffffffff82169050919050565b600060ff82169050919050565b82818337600083830152505050565b60005b83811015612594578082015181840152602081019050612579565b838111156125a3576000848401525b50505050565b6000601f19601f8301169050919050565b6125c3816124f8565b81146125ce57600080fd5b50565b6125da8161250a565b81146125e557600080fd5b50565b6125f181612516565b81146125fc57600080fd5b50565b61260881612540565b811461261357600080fd5b50565b61261f8161254a565b811461262a57600080fd5b50565b6126368161255a565b811461264157600080fd5b5056fea365627a7a723158200ee4f94631a7b62d12281680e80d993d4a200746149193270dc15fafd500dc3e6c6578706572696d656e74616cf564736f6c63430005100040",
  "source": "pragma solidity ^0.5.0;\r\npragma experimental ABIEncoderV2;\r\n\r\ncontract Census {\r\n\r\n    // Initialize contract owner\r\n    address public owner;\r\n\r\n    // Global counter for Person struct ID\r\n    uint public personCount;\r\n    // Global counter for House count\r\n    uint public houseCount;\r\n\r\n    // House struct\r\n    struct House {\r\n        bool registered;\r\n        uint id;\r\n        uint maxResidents;\r\n        uint extraResidents;\r\n        string houseType; // House, Apartment, Mobile Home\r\n        uint8 stateCode;\r\n        uint[] residentList;\r\n    }\r\n\r\n    // Person struct\r\n    // NOTE: Params race, liveReason, and relation stored as bytes32\r\n    // because arrays of strings are not supported in web3 and return\r\n    // blank/empty. Array of bytes are used then converted in web3.\r\n    struct Person {\r\n        bool registered;\r\n        uint id; // peopleCount at time of transaction\r\n        address home; // easy tracking on data pulls\r\n        bool isMale;\r\n        bool isHispanic;\r\n        uint32 age;\r\n        uint32 birthDate; // YYYYMMDD\r\n        bytes32 race;\r\n        bytes32 liveReason;\r\n        bytes32 relation;\r\n    }\r\n\r\n    // stores index of 'Houses' struct by address\r\n    mapping(address => House) public houses;\r\n\r\n    mapping(uint256 => address) public houseById;\r\n\r\n    // stores a 'Person' struct as index id\r\n    mapping(uint => Person) public people;\r\n\r\n    event houseAddedEvent (\r\n    uint indexed _maxResidents,\r\n    uint indexed _extraResidents,\r\n    uint8 indexed _stateCode\r\n    );\r\n\r\n    event personAddedEvent (\r\n    uint indexed _id,\r\n    bytes32 indexed _race,\r\n    bytes32 indexed _relation\r\n    );\r\n\r\n    constructor() public {\r\n        // Contract owner\r\n        owner = msg.sender;\r\n        personCount = 0;\r\n        houseCount = 0;\r\n    }\r\n\r\n    // Add user's House information\r\n    function addHouse(uint _maxResidents,\r\n                      uint _extraResidents,\r\n                      uint8 _stateCode,\r\n                      string memory _housetype) public {\r\n        \r\n        // Ensure house is not already registered for address\r\n        require(houses[msg.sender].registered == false, \"This address has already registered a house.\");\r\n\r\n        // Map new House ID\r\n        houseById[houseCount] = msg.sender;\r\n\r\n        // Initialize empty residentList array\r\n        uint[] memory emptyList = new uint[](0);\r\n        \r\n        // Create new house struct\r\n        House memory newhouse = House(true,\r\n                                      houseCount,\r\n                                      _maxResidents,\r\n                                      _extraResidents,\r\n                                      _housetype,\r\n                                      _stateCode,\r\n                                      emptyList);\r\n\r\n        houses[msg.sender] = newhouse;\r\n\r\n        // Increase global house count\r\n        houseCount++;        \r\n\r\n        emit houseAddedEvent(_maxResidents, _extraResidents, _stateCode);\r\n    }\r\n\r\n    // Add a new Person(resident) to user House\r\n    function addPerson(bool _ismale,\r\n                       bool _ishispanic,\r\n                       uint32 _age,\r\n                       uint32 _birthdate,\r\n                       bytes32 _race,\r\n                       bytes32 _liveReason,\r\n                       bytes32 _relation) public {\r\n\r\n        House storage currentHouse = houses[msg.sender];\r\n        // Ensure house for address exists before adding\r\n        require(currentHouse.registered == true, \"There is no house registered for this address.\");\r\n        // Require house of address to have resident count within range\r\n        require(currentHouse.residentList.length < currentHouse.maxResidents, \"Max registered people for this House.\");\r\n\r\n        Person memory newPerson =  Person(true,\r\n                                          personCount,\r\n                                          msg.sender,\r\n                                          _ismale,\r\n                                          _ishispanic,\r\n                                          _age,\r\n                                          _birthdate,\r\n                                          _race,\r\n                                          _liveReason,\r\n                                          _relation);\r\n        // Map new person struct\r\n        people[personCount] = newPerson;\r\n\r\n        // Add person ID to house residentList\r\n        houses[msg.sender].residentList.push(personCount);\r\n        \r\n        // Increase global person count (iD)\r\n        personCount++;\r\n\r\n        emit personAddedEvent(personCount, _race, _relation);\r\n    }\r\n\r\n    // Return House struct params\r\n    function getHouse(address _addr) public view returns (bool,\r\n                                             uint,\r\n                                             uint,\r\n                                             uint,\r\n                                             string memory,\r\n                                             uint8,\r\n                                             uint[] memory) {\r\n        \r\n        House storage thisHouse = houses[_addr];\r\n\r\n        bool resiValid = thisHouse.registered;\r\n        uint resiId = thisHouse.id;        \r\n        uint resiNum = thisHouse.maxResidents;\r\n        uint resiAdd = thisHouse.extraResidents;\r\n        string storage houseType = thisHouse.houseType;\r\n        uint8 stateCode = thisHouse.stateCode;\r\n        uint[] memory resiList = thisHouse.residentList;\r\n\r\n        return (resiValid, resiId, resiNum, resiAdd, houseType, stateCode, resiList);\r\n    }\r\n\r\n    // Return Person struct params\r\n    function getPerson(uint index) public view returns (bool,\r\n                                                        address,\r\n                                                        bool,\r\n                                                        bool,\r\n                                                        uint32,\r\n                                                        uint32,\r\n                                                        bytes32) {\r\n        Person storage thisPerson = people[index];\r\n\r\n        bool registered = thisPerson.registered;\r\n        address home = thisPerson.home;\r\n        bool isMale = thisPerson.isMale;\r\n        bool isHispanic = thisPerson.isHispanic;\r\n        uint32 age = thisPerson.age;\r\n        uint32 birthDate = thisPerson.birthDate;\r\n        bytes32 race = thisPerson.race;\r\n\r\n        return (registered, home, isMale, isHispanic, age, birthDate, race);\r\n    }\r\n\r\n    // Return additional Person details to avoid\r\n    // stack overflow when using getPerson() getter\r\n    function getPersonMore(uint index) public view returns (bytes32,\r\n                                                            bytes32) {\r\n        Person storage thisPerson = people[index];\r\n\r\n        bytes32 liveReason = thisPerson.liveReason;\r\n        bytes32 relation = thisPerson.relation;\r\n\r\n        return (liveReason, relation);\r\n    }\r\n\r\n    // Return a list of Person struct params\r\n    function getPeople(uint[] memory resiNums) public view returns (uint[] memory,\r\n                                                                    bool[] memory,\r\n                                                                    bool[] memory,\r\n                                                                    uint[] memory,\r\n                                                                    uint[] memory,\r\n                                                                    bytes32[] memory){\r\n\r\n        for (uint i = 0; i < resiNums.length; i++) {\r\n            require(people[resiNums[i]].registered == true, \"Invalid person ID requested.\");\r\n        }\r\n      \r\n        uint[] memory id = new uint[](resiNums.length);\r\n        bool[] memory isMale = new bool[](resiNums.length);\r\n        bool[] memory isHispanic = new bool[](resiNums.length);\r\n        uint[] memory age = new uint[](resiNums.length);\r\n        uint[] memory birthDate = new uint[](resiNums.length);\r\n        bytes32[] memory race = new bytes32[](resiNums.length);\r\n\r\n        for (uint i = 0; i < resiNums.length; i++) {\r\n\r\n            id[i] = people[resiNums[i]].id;\r\n            isMale[i] = people[resiNums[i]].isMale;\r\n            isHispanic[i] = people[resiNums[i]].isHispanic;\r\n            age[i] = people[resiNums[i]].age;\r\n            birthDate[i] = people[resiNums[i]].birthDate;\r\n            race[i] = people[resiNums[i]].race;\r\n        }\r\n        return (id, isMale, isHispanic, age, birthDate, race);\r\n    }\r\n\r\n    // Return additional People list details to avoid\r\n    // stack overflow when using getPeople() getter\r\n    function getPeopleMore(uint[] memory resiNums) public view returns (bytes32[] memory,\r\n                                                                        bytes32[] memory){\r\n        \r\n        for (uint i = 0; i < resiNums.length; i++) {\r\n            require(people[resiNums[i]].registered == true, \"Invalid person ID requested.\");\r\n        }\r\n      \r\n        bytes32[] memory liveReason = new bytes32[](resiNums.length);\r\n        bytes32[] memory relation = new bytes32[](resiNums.length);\r\n\r\n        for (uint i = 0; i < resiNums.length; i++) {\r\n\r\n            liveReason[i] = people[resiNums[i]].liveReason;\r\n            relation[i] = people[resiNums[i]].relation;\r\n        }\r\n        return (liveReason, relation);\r\n    }\r\n\r\n    function getStateHouses(uint stateId) public view returns(address[] memory) {\r\n        // Permit states within valid state code range\r\n        require(stateId > 0 && stateId < 52, \"Invalid state code.\");\r\n\r\n        uint validCount = 0;  // State match counter\r\n\r\n        // Counts all addresses with matching state code\r\n        for (uint i = 0; i < houseCount; i++) {\r\n            address houseAddr = houseById[i];\r\n            if (houses[houseAddr].stateCode == stateId) {\r\n                validCount++;\r\n            }\r\n        }\r\n        // Initialize with validCount as dynamic arrays are not\r\n        // allowed using memory\r\n        address[] memory addressList = new address[](validCount);        \r\n        \r\n        // Populate list of valid addresses\r\n        for (uint i = 0; i < validCount; i++) {\r\n            address houseAddr = houseById[i];\r\n            if (houses[houseAddr].stateCode == stateId) {\r\n                addressList[i] = houseById[i];\r\n            }\r\n        }\r\n        return addressList;\r\n    }\r\n}",
  "sourcePath": "C:\\Users\\Jerrbear\\Desktop\\solidity\\census\\contracts\\Census.sol",
  "compiler": {
    "name": "solc",
    "version": "0.5.16+commit.9c3226ce.Emscripten.clang"
  },
  "schemaVersion": "3.0.23",
  "updatedAt": "2020-04-13T22:29:05.612Z",
  "networkType": "ethereum",
  "devdoc": {
    "methods": {}
  },
  "userdoc": {
    "methods": {}
  }
}