{
  "contractName": "Census",
  "abi": [
    {
      "inputs": [],
      "payable": false,
      "stateMutability": "nonpayable",
      "type": "constructor"
    },
    {
      "anonymous": false,
      "inputs": [
        {
          "indexed": true,
          "internalType": "uint256",
          "name": "_maxResidents",
          "type": "uint256"
        },
        {
          "indexed": true,
          "internalType": "uint256",
          "name": "_extraResidents",
          "type": "uint256"
        },
        {
          "indexed": true,
          "internalType": "uint8",
          "name": "_stateCode",
          "type": "uint8"
        }
      ],
      "name": "houseAddedEvent",
      "type": "event"
    },
    {
      "constant": true,
      "inputs": [],
      "name": "houseCount",
      "outputs": [
        {
          "internalType": "uint256",
          "name": "",
          "type": "uint256"
        }
      ],
      "payable": false,
      "stateMutability": "view",
      "type": "function"
    },
    {
      "constant": true,
      "inputs": [
        {
          "internalType": "address",
          "name": "",
          "type": "address"
        }
      ],
      "name": "houses",
      "outputs": [
        {
          "internalType": "bool",
          "name": "registered",
          "type": "bool"
        },
        {
          "internalType": "uint256",
          "name": "maxResidents",
          "type": "uint256"
        },
        {
          "internalType": "uint256",
          "name": "extraResidents",
          "type": "uint256"
        },
        {
          "internalType": "string",
          "name": "houseType",
          "type": "string"
        },
        {
          "internalType": "uint8",
          "name": "stateCode",
          "type": "uint8"
        }
      ],
      "payable": false,
      "stateMutability": "view",
      "type": "function"
    },
    {
      "constant": true,
      "inputs": [],
      "name": "owner",
      "outputs": [
        {
          "internalType": "address",
          "name": "",
          "type": "address"
        }
      ],
      "payable": false,
      "stateMutability": "view",
      "type": "function"
    },
    {
      "constant": true,
      "inputs": [
        {
          "internalType": "uint256",
          "name": "",
          "type": "uint256"
        }
      ],
      "name": "people",
      "outputs": [
        {
          "internalType": "bool",
          "name": "registered",
          "type": "bool"
        },
        {
          "internalType": "uint256",
          "name": "id",
          "type": "uint256"
        },
        {
          "internalType": "address",
          "name": "home",
          "type": "address"
        },
        {
          "internalType": "bool",
          "name": "isMale",
          "type": "bool"
        },
        {
          "internalType": "bool",
          "name": "isHispanic",
          "type": "bool"
        },
        {
          "internalType": "uint32",
          "name": "age",
          "type": "uint32"
        },
        {
          "internalType": "uint32",
          "name": "birthDate",
          "type": "uint32"
        },
        {
          "internalType": "bytes32",
          "name": "race",
          "type": "bytes32"
        },
        {
          "internalType": "bytes32",
          "name": "liveReason",
          "type": "bytes32"
        },
        {
          "internalType": "bytes32",
          "name": "relation",
          "type": "bytes32"
        }
      ],
      "payable": false,
      "stateMutability": "view",
      "type": "function"
    },
    {
      "constant": true,
      "inputs": [],
      "name": "personCount",
      "outputs": [
        {
          "internalType": "uint256",
          "name": "",
          "type": "uint256"
        }
      ],
      "payable": false,
      "stateMutability": "view",
      "type": "function"
    },
    {
      "constant": false,
      "inputs": [
        {
          "internalType": "uint256",
          "name": "_maxResidents",
          "type": "uint256"
        },
        {
          "internalType": "uint256",
          "name": "_extraResidents",
          "type": "uint256"
        },
        {
          "internalType": "uint8",
          "name": "_stateCode",
          "type": "uint8"
        },
        {
          "internalType": "string",
          "name": "_housetype",
          "type": "string"
        }
      ],
      "name": "addHouse",
      "outputs": [],
      "payable": false,
      "stateMutability": "nonpayable",
      "type": "function"
    },
    {
      "constant": false,
      "inputs": [
        {
          "internalType": "bool",
          "name": "_ismale",
          "type": "bool"
        },
        {
          "internalType": "bool",
          "name": "_ishispanic",
          "type": "bool"
        },
        {
          "internalType": "uint32",
          "name": "_age",
          "type": "uint32"
        },
        {
          "internalType": "uint32",
          "name": "_birthdate",
          "type": "uint32"
        },
        {
          "internalType": "bytes32",
          "name": "_race",
          "type": "bytes32"
        },
        {
          "internalType": "bytes32",
          "name": "_liveReason",
          "type": "bytes32"
        },
        {
          "internalType": "bytes32",
          "name": "_relation",
          "type": "bytes32"
        }
      ],
      "name": "addPerson",
      "outputs": [],
      "payable": false,
      "stateMutability": "nonpayable",
      "type": "function"
    },
    {
      "constant": true,
      "inputs": [],
      "name": "getHouse",
      "outputs": [
        {
          "internalType": "bool",
          "name": "",
          "type": "bool"
        },
        {
          "internalType": "uint256",
          "name": "",
          "type": "uint256"
        },
        {
          "internalType": "uint256",
          "name": "",
          "type": "uint256"
        },
        {
          "internalType": "string",
          "name": "",
          "type": "string"
        },
        {
          "internalType": "uint8",
          "name": "",
          "type": "uint8"
        },
        {
          "internalType": "uint256[]",
          "name": "",
          "type": "uint256[]"
        }
      ],
      "payable": false,
      "stateMutability": "view",
      "type": "function"
    },
    {
      "constant": true,
      "inputs": [
        {
          "internalType": "uint256",
          "name": "index",
          "type": "uint256"
        }
      ],
      "name": "getPerson",
      "outputs": [
        {
          "internalType": "bool",
          "name": "",
          "type": "bool"
        },
        {
          "internalType": "address",
          "name": "",
          "type": "address"
        },
        {
          "internalType": "bool",
          "name": "",
          "type": "bool"
        },
        {
          "internalType": "bool",
          "name": "",
          "type": "bool"
        },
        {
          "internalType": "uint32",
          "name": "",
          "type": "uint32"
        },
        {
          "internalType": "uint32",
          "name": "",
          "type": "uint32"
        },
        {
          "internalType": "bytes32",
          "name": "",
          "type": "bytes32"
        }
      ],
      "payable": false,
      "stateMutability": "view",
      "type": "function"
    },
    {
      "constant": true,
      "inputs": [
        {
          "internalType": "uint256",
          "name": "index",
          "type": "uint256"
        }
      ],
      "name": "getPersonMore",
      "outputs": [
        {
          "internalType": "bytes32",
          "name": "",
          "type": "bytes32"
        },
        {
          "internalType": "bytes32",
          "name": "",
          "type": "bytes32"
        }
      ],
      "payable": false,
      "stateMutability": "view",
      "type": "function"
    },
    {
      "constant": true,
      "inputs": [
        {
          "internalType": "uint256[]",
          "name": "resiNums",
          "type": "uint256[]"
        }
      ],
      "name": "getPeople",
      "outputs": [
        {
          "internalType": "uint256[]",
          "name": "",
          "type": "uint256[]"
        },
        {
          "internalType": "bool[]",
          "name": "",
          "type": "bool[]"
        },
        {
          "internalType": "bool[]",
          "name": "",
          "type": "bool[]"
        },
        {
          "internalType": "uint256[]",
          "name": "",
          "type": "uint256[]"
        },
        {
          "internalType": "uint256[]",
          "name": "",
          "type": "uint256[]"
        },
        {
          "internalType": "bytes32[]",
          "name": "",
          "type": "bytes32[]"
        }
      ],
      "payable": false,
      "stateMutability": "view",
      "type": "function"
    },
    {
      "constant": true,
      "inputs": [
        {
          "internalType": "uint256[]",
          "name": "resiNums",
          "type": "uint256[]"
        }
      ],
      "name": "getPeopleMore",
      "outputs": [
        {
          "internalType": "bytes32[]",
          "name": "",
          "type": "bytes32[]"
        },
        {
          "internalType": "bytes32[]",
          "name": "",
          "type": "bytes32[]"
        }
      ],
      "payable": false,
      "stateMutability": "view",
      "type": "function"
    }
  ],
  "bytecode": "0x608060405234801561001057600080fd5b50336000806101000a81548173ffffffffffffffffffffffffffffffffffffffff021916908373ffffffffffffffffffffffffffffffffffffffff16021790555060006001819055506000600281905550612121806100706000396000f3fe608060405234801561001057600080fd5b50600436106100b45760003560e01c80637abb3d1b116100715780637abb3d1b146101b25780638da5cb5b146101e65780639101ce8b146102045780639e7a13ad14610220578063bd74f8b114610259578063dc10fb3e14610277576100b4565b806304e2064f146100b9578063246982c4146100dc5780632c3fe927146101125780636159330f146101435780636c7a256f1461017857806378495bf814610194575b600080fd5b6100c16102a8565b6040516100d396959493929190611cb2565b60405180910390f35b6100f660048036036100f19190810190611659565b610450565b6040516101099796959493929190611ba7565b60405180910390f35b61012c6004803603610127919081019061157a565b61053f565b60405161013a929190611ae5565b60405180910390f35b61015d6004803603610158919081019061157a565b6106f4565b60405161016f96959493929190611b1c565b60405180910390f35b610192600480360361018d9190810190611682565b610af1565b005b61019c610d17565b6040516101a99190611e24565b60405180910390f35b6101cc60048036036101c79190810190611551565b610d1d565b6040516101dd959493929190611d21565b60405180910390f35b6101ee610e05565b6040516101fb9190611aca565b60405180910390f35b61021e600480360361021991908101906115bb565b610e2a565b005b61023a60048036036102359190810190611659565b611150565b6040516102509a99989796959493929190611c16565b60405180910390f35b61026161120b565b60405161026e9190611e24565b60405180910390f35b610291600480360361028c9190810190611659565b611211565b60405161029f929190611d7b565b60405180910390f35b60008060006060600060606000600360003373ffffffffffffffffffffffffffffffffffffffff1673ffffffffffffffffffffffffffffffffffffffff168152602001908152602001600020905060008160000160009054906101000a900460ff169050600082600101549050600083600201549050600084600301905060008560040160009054906101000a900460ff16905060608660050180548060200260200160405190810160405280929190818152602001828054801561038c57602002820191906000526020600020905b815481526020019060010190808311610378575b50505050509050858585858585828054600181600116156101000203166002900480601f01602080910402602001604051908101604052809291908181526020018280546001816001161561010002031660029004801561042e5780601f106104035761010080835404028352916020019161042e565b820191906000526020600020905b81548152906001019060200180831161041157829003601f168201915b505050505092509c509c509c509c509c509c5050505050505050909192939495565b600080600080600080600080600460008a8152602001908152602001600020905060008160000160009054906101000a900460ff16905060008260020160009054906101000a900473ffffffffffffffffffffffffffffffffffffffff16905060008360020160149054906101000a900460ff16905060008460020160159054906101000a900460ff16905060008560020160169054906101000a900463ffffffff169050600086600201601a9054906101000a900463ffffffff169050600087600301549050868686868686869e509e509e509e509e509e509e505050505050505050919395979092949650565b60608060008090505b83518110156105db57600115156004600086848151811061056557fe5b6020026020010151815260200190815260200160002060000160009054906101000a900460ff161515146105ce576040517f08c379a00000000000000000000000000000000000000000000000000000000081526004016105c590611e04565b60405180910390fd5b8080600101915050610548565b506060835160405190808252806020026020018201604052801561060e5781602001602082028038833980820191505090505b509050606084516040519080825280602002602001820160405280156106435781602001602082028038833980820191505090505b50905060008090505b85518110156106e6576004600087838151811061066557fe5b602002602001015181526020019081526020016000206004015483828151811061068b57fe5b602002602001018181525050600460008783815181106106a757fe5b60200260200101518152602001908152602001600020600501548282815181106106cd57fe5b602002602001018181525050808060010191505061064c565b508181935093505050915091565b60608060608060608060008090505b87518110156107965760011515600460008a848151811061072057fe5b6020026020010151815260200190815260200160002060000160009054906101000a900460ff16151514610789576040517f08c379a000000000000000000000000000000000000000000000000000000000815260040161078090611e04565b60405180910390fd5b8080600101915050610703565b50606087516040519080825280602002602001820160405280156107c95781602001602082028038833980820191505090505b509050606088516040519080825280602002602001820160405280156107fe5781602001602082028038833980820191505090505b509050606089516040519080825280602002602001820160405280156108335781602001602082028038833980820191505090505b50905060608a516040519080825280602002602001820160405280156108685781602001602082028038833980820191505090505b50905060608b5160405190808252806020026020018201604052801561089d5781602001602082028038833980820191505090505b50905060608c516040519080825280602002602001820160405280156108d25781602001602082028038833980820191505090505b50905060008090505b8d51811015610acf57600460008f83815181106108f457fe5b602002602001015181526020019081526020016000206001015487828151811061091a57fe5b602002602001018181525050600460008f838151811061093657fe5b6020026020010151815260200190815260200160002060020160149054906101000a900460ff1686828151811061096957fe5b602002602001019015159081151581525050600460008f838151811061098b57fe5b6020026020010151815260200190815260200160002060020160159054906101000a900460ff168582815181106109be57fe5b602002602001019015159081151581525050600460008f83815181106109e057fe5b6020026020010151815260200190815260200160002060020160169054906101000a900463ffffffff1663ffffffff16848281518110610a1c57fe5b602002602001018181525050600460008f8381518110610a3857fe5b60200260200101518152602001908152602001600020600201601a9054906101000a900463ffffffff1663ffffffff16838281518110610a7457fe5b602002602001018181525050600460008f8381518110610a9057fe5b6020026020010151815260200190815260200160002060030154828281518110610ab657fe5b60200260200101818152505080806001019150506108db565b508585858585859b509b509b509b509b509b5050505050505091939550919395565b60001515600360003373ffffffffffffffffffffffffffffffffffffffff1673ffffffffffffffffffffffffffffffffffffffff16815260200190815260200160002060000160009054906101000a900460ff16151514610b87576040517f08c379a0000000000000000000000000000000000000000000000000000000008152600401610b7e90611de4565b60405180910390fd5b60606000604051908082528060200260200182016040528015610bb95781602001602082028038833980820191505090505b509050610bc461124b565b6040518060c001604052806001151581526020018781526020018681526020018481526020018560ff16815260200183815250905080600360003373ffffffffffffffffffffffffffffffffffffffff1673ffffffffffffffffffffffffffffffffffffffff16815260200190815260200160002060008201518160000160006101000a81548160ff02191690831515021790555060208201518160010155604082015181600201556060820151816003019080519060200190610c89929190611286565b5060808201518160040160006101000a81548160ff021916908360ff16021790555060a0820151816005019080519060200190610cc7929190611306565b509050506002600081548092919060010191905055508360ff1685877f4187beb212ffea2bb85d98e1038711507ac5fd01fcbcade08a07b5f894bb87bb60405160405180910390a4505050505050565b60015481565b60036020528060005260406000206000915090508060000160009054906101000a900460ff1690806001015490806002015490806003018054600181600116156101000203166002900480601f016020809104026020016040519081016040528092919081815260200182805460018160011615610100020316600290048015610de85780601f10610dbd57610100808354040283529160200191610de8565b820191906000526020600020905b815481529060010190602001808311610dcb57829003601f168201915b5050505050908060040160009054906101000a900460ff16905085565b6000809054906101000a900473ffffffffffffffffffffffffffffffffffffffff1681565b6000600360003373ffffffffffffffffffffffffffffffffffffffff1673ffffffffffffffffffffffffffffffffffffffff1681526020019081526020016000209050600115158160000160009054906101000a900460ff16151514610ec5576040517f08c379a0000000000000000000000000000000000000000000000000000000008152600401610ebc90611dc4565b60405180910390fd5b8060010154816005018054905010610f12576040517f08c379a0000000000000000000000000000000000000000000000000000000008152600401610f0990611da4565b60405180910390fd5b610f1a611353565b60405180610140016040528060011515815260200160015481526020013373ffffffffffffffffffffffffffffffffffffffff1681526020018a1515815260200189151581526020018863ffffffff1681526020018763ffffffff1681526020018681526020018581526020018481525090508060046000600154815260200190815260200160002060008201518160000160006101000a81548160ff0219169083151502179055506020820151816001015560408201518160020160006101000a81548173ffffffffffffffffffffffffffffffffffffffff021916908373ffffffffffffffffffffffffffffffffffffffff16021790555060608201518160020160146101000a81548160ff02191690831515021790555060808201518160020160156101000a81548160ff02191690831515021790555060a08201518160020160166101000a81548163ffffffff021916908363ffffffff16021790555060c082015181600201601a6101000a81548163ffffffff021916908363ffffffff16021790555060e0820151816003015561010082015181600401556101208201518160050155905050600360003373ffffffffffffffffffffffffffffffffffffffff1673ffffffffffffffffffffffffffffffffffffffff1681526020019081526020016000206005016001549080600181540180825580915050906001820390600052602060002001600090919290919091505550600160008154809291906001019190505550505050505050505050565b60046020528060005260406000206000915090508060000160009054906101000a900460ff16908060010154908060020160009054906101000a900473ffffffffffffffffffffffffffffffffffffffff16908060020160149054906101000a900460ff16908060020160159054906101000a900460ff16908060020160169054906101000a900463ffffffff169080600201601a9054906101000a900463ffffffff1690806003015490806004015490806005015490508a565b60025481565b6000806000600460008581526020019081526020016000209050600081600401549050600082600501549050818194509450505050915091565b6040518060c00160405280600015158152602001600081526020016000815260200160608152602001600060ff168152602001606081525090565b828054600181600116156101000203166002900490600052602060002090601f016020900481019282601f106112c757805160ff19168380011785556112f5565b828001600101855582156112f5579182015b828111156112f45782518255916020019190600101906112d9565b5b50905061130291906113d7565b5090565b828054828255906000526020600020908101928215611342579160200282015b82811115611341578251825591602001919060010190611326565b5b50905061134f91906113d7565b5090565b60405180610140016040528060001515815260200160008152602001600073ffffffffffffffffffffffffffffffffffffffff168152602001600015158152602001600015158152602001600063ffffffff168152602001600063ffffffff1681526020016000801916815260200160008019168152602001600080191681525090565b6113f991905b808211156113f55760008160009055506001016113dd565b5090565b90565b60008135905061140b81612054565b92915050565b600082601f83011261142257600080fd5b813561143561143082611e6c565b611e3f565b9150818183526020840193506020810190508385602084028201111561145a57600080fd5b60005b8381101561148a57816114708882611512565b84526020840193506020830192505060018101905061145d565b5050505092915050565b6000813590506114a38161206b565b92915050565b6000813590506114b881612082565b92915050565b600082601f8301126114cf57600080fd5b81356114e26114dd82611e94565b611e3f565b915080825260208301602083018583830111156114fe57600080fd5b611509838284612001565b50505092915050565b60008135905061152181612099565b92915050565b600081359050611536816120b0565b92915050565b60008135905061154b816120c7565b92915050565b60006020828403121561156357600080fd5b6000611571848285016113fc565b91505092915050565b60006020828403121561158c57600080fd5b600082013567ffffffffffffffff8111156115a657600080fd5b6115b284828501611411565b91505092915050565b600080600080600080600060e0888a0312156115d657600080fd5b60006115e48a828b01611494565b97505060206115f58a828b01611494565b96505060406116068a828b01611527565b95505060606116178a828b01611527565b94505060806116288a828b016114a9565b93505060a06116398a828b016114a9565b92505060c061164a8a828b016114a9565b91505092959891949750929550565b60006020828403121561166b57600080fd5b600061167984828501611512565b91505092915050565b6000806000806080858703121561169857600080fd5b60006116a687828801611512565b94505060206116b787828801611512565b93505060406116c88782880161153c565b925050606085013567ffffffffffffffff8111156116e557600080fd5b6116f1878288016114be565b91505092959194509250565b6000611709838361186e565b60208301905092915050565b6000611721838361188c565b60208301905092915050565b60006117398383611a8e565b60208301905092915050565b61174e81611f92565b82525050565b600061175f82611ef0565b6117698185611f4e565b935061177483611ec0565b8060005b838110156117a557815161178c88826116fd565b975061179783611f27565b925050600181019050611778565b5085935050505092915050565b60006117bd82611efb565b6117c78185611f5f565b93506117d283611ed0565b8060005b838110156118035781516117ea8882611715565b97506117f583611f34565b9250506001810190506117d6565b5085935050505092915050565b600061181b82611f06565b6118258185611f70565b935061183083611ee0565b8060005b83811015611861578151611848888261172d565b975061185383611f41565b925050600181019050611834565b5085935050505092915050565b61187781611fa4565b82525050565b61188681611fa4565b82525050565b61189581611fb0565b82525050565b6118a481611fb0565b82525050565b60006118b582611f1c565b6118bf8185611f81565b93506118cf818560208601612010565b6118d881612043565b840191505092915050565b60006118ee82611f11565b6118f88185611f81565b9350611908818560208601612010565b61191181612043565b840191505092915050565b6000611929602583611f81565b91507f4d617820726567697374657265642070656f706c6520666f722074686973204860008301527f6f7573652e0000000000000000000000000000000000000000000000000000006020830152604082019050919050565b600061198f602e83611f81565b91507f5468657265206973206e6f20686f757365207265676973746572656420666f7260008301527f207468697320616464726573732e0000000000000000000000000000000000006020830152604082019050919050565b60006119f5602c83611f81565b91507f5468697320616464726573732068617320616c7265616479207265676973746560008301527f726564206120686f7573652e00000000000000000000000000000000000000006020830152604082019050919050565b6000611a5b601c83611f81565b91507f496e76616c696420706572736f6e204944207265717565737465642e000000006000830152602082019050919050565b611a9781611fda565b82525050565b611aa681611fda565b82525050565b611ab581611fe4565b82525050565b611ac481611ff4565b82525050565b6000602082019050611adf6000830184611745565b92915050565b60006040820190508181036000830152611aff81856117b2565b90508181036020830152611b1381846117b2565b90509392505050565b600060c0820190508181036000830152611b368189611810565b90508181036020830152611b4a8188611754565b90508181036040830152611b5e8187611754565b90508181036060830152611b728186611810565b90508181036080830152611b868185611810565b905081810360a0830152611b9a81846117b2565b9050979650505050505050565b600060e082019050611bbc600083018a61187d565b611bc96020830189611745565b611bd6604083018861187d565b611be3606083018761187d565b611bf06080830186611aac565b611bfd60a0830185611aac565b611c0a60c083018461189b565b98975050505050505050565b600061014082019050611c2c600083018d61187d565b611c39602083018c611a9d565b611c46604083018b611745565b611c53606083018a61187d565b611c60608083018961187d565b611c6d60a0830188611aac565b611c7a60c0830187611aac565b611c8760e083018661189b565b611c9561010083018561189b565b611ca361012083018461189b565b9b9a5050505050505050505050565b600060c082019050611cc7600083018961187d565b611cd46020830188611a9d565b611ce16040830187611a9d565b8181036060830152611cf381866118aa565b9050611d026080830185611abb565b81810360a0830152611d148184611810565b9050979650505050505050565b600060a082019050611d36600083018861187d565b611d436020830187611a9d565b611d506040830186611a9d565b8181036060830152611d6281856118e3565b9050611d716080830184611abb565b9695505050505050565b6000604082019050611d90600083018561189b565b611d9d602083018461189b565b9392505050565b60006020820190508181036000830152611dbd8161191c565b9050919050565b60006020820190508181036000830152611ddd81611982565b9050919050565b60006020820190508181036000830152611dfd816119e8565b9050919050565b60006020820190508181036000830152611e1d81611a4e565b9050919050565b6000602082019050611e396000830184611a9d565b92915050565b6000604051905081810181811067ffffffffffffffff82111715611e6257600080fd5b8060405250919050565b600067ffffffffffffffff821115611e8357600080fd5b602082029050602081019050919050565b600067ffffffffffffffff821115611eab57600080fd5b601f19601f8301169050602081019050919050565b6000819050602082019050919050565b6000819050602082019050919050565b6000819050602082019050919050565b600081519050919050565b600081519050919050565b600081519050919050565b600081519050919050565b600081519050919050565b6000602082019050919050565b6000602082019050919050565b6000602082019050919050565b600082825260208201905092915050565b600082825260208201905092915050565b600082825260208201905092915050565b600082825260208201905092915050565b6000611f9d82611fba565b9050919050565b60008115159050919050565b6000819050919050565b600073ffffffffffffffffffffffffffffffffffffffff82169050919050565b6000819050919050565b600063ffffffff82169050919050565b600060ff82169050919050565b82818337600083830152505050565b60005b8381101561202e578082015181840152602081019050612013565b8381111561203d576000848401525b50505050565b6000601f19601f8301169050919050565b61205d81611f92565b811461206857600080fd5b50565b61207481611fa4565b811461207f57600080fd5b50565b61208b81611fb0565b811461209657600080fd5b50565b6120a281611fda565b81146120ad57600080fd5b50565b6120b981611fe4565b81146120c457600080fd5b50565b6120d081611ff4565b81146120db57600080fd5b5056fea365627a7a7231582094a87618a4596e3e72ac42473c18efc2103950ae43548b822addb63ae86b54016c6578706572696d656e74616cf564736f6c63430005100040",
  "source": "pragma solidity ^0.5.0;\r\npragma experimental ABIEncoderV2;\r\n\r\ncontract Census {\r\n    \r\n    // ORACLE VERIFICATION: etc etc.\r\n\r\n    // Initialize contract owner\r\n    address public owner;\r\n\r\n    // Global counter for Person struct ID\r\n    uint public personCount;\r\n    // Global counter for House count\r\n    uint public houseCount;\r\n\r\n    // House struct\r\n    struct House {\r\n        bool registered;\r\n        uint maxResidents;\r\n        uint extraResidents;\r\n        string houseType; // House, Apartment, Mobile Home\r\n        uint8 stateCode;\r\n        uint[] residentList;\r\n    }\r\n\r\n    // Person struct\r\n    // NOTE: Params race, liveReason, and relation stored as bytes32\r\n    // because arrays of strings are not supported in web3 and return\r\n    // blank/empty. Array of bytes are used then converted in web3.\r\n    struct Person {\r\n        bool registered;\r\n        uint id; // peopleCount at time of transaction\r\n        address home; // easy tracking on data pulls\r\n        bool isMale;\r\n        bool isHispanic;\r\n        uint32 age;\r\n        uint32 birthDate; // YYYYMMDD\r\n        bytes32 race;\r\n        bytes32 liveReason;\r\n        bytes32 relation;\r\n    }\r\n    \r\n    // stores index of 'Houses' struct by address\r\n    mapping(address => House) public houses;\r\n\r\n    // stores a 'Person' struct as index id\r\n    mapping(uint => Person) public people;\r\n\r\n    event houseAddedEvent (\r\n    uint indexed _maxResidents,\r\n    uint indexed _extraResidents,\r\n    uint8 indexed _stateCode\r\n    );\r\n\r\n    // Initialized at contract creation\r\n    constructor() public {\r\n        // Contract owner\r\n        owner = msg.sender;\r\n        personCount = 0;\r\n        houseCount = 0;\r\n    }\r\n\r\n    function addHouse(uint _maxResidents,\r\n                      uint _extraResidents,\r\n                      uint8 _stateCode,\r\n                      string memory _housetype) public {\r\n        \r\n        // Ensure house is not already registered for address\r\n        require(houses[msg.sender].registered == false, \"This address has already registered a house.\");\r\n\r\n        // Initialize empty residentList array\r\n        uint[] memory emptyList = new uint[](0);\r\n        \r\n        // Create new house struct\r\n        House memory newhouse = House(true,\r\n                                      _maxResidents,\r\n                                      _extraResidents,\r\n                                      _housetype,\r\n                                      _stateCode,\r\n                                      emptyList);\r\n\r\n        houses[msg.sender] = newhouse;\r\n\r\n        // Increase global house count\r\n        houseCount++;\r\n\r\n        emit houseAddedEvent(_maxResidents, _extraResidents, _stateCode);\r\n    }\r\n\r\n    function addPerson(bool _ismale,\r\n                       bool _ishispanic,\r\n                       uint32 _age,\r\n                       uint32 _birthdate,\r\n                       bytes32 _race,\r\n                       bytes32 _liveReason,\r\n                       bytes32 _relation) public {\r\n\r\n        House storage currentHouse = houses[msg.sender];\r\n        // Ensure house for address exists before adding\r\n        require(currentHouse.registered == true, \"There is no house registered for this address.\");\r\n        // Require house of address to have resident count within range\r\n        require(currentHouse.residentList.length < currentHouse.maxResidents, \"Max registered people for this House.\");\r\n\r\n        Person memory newPerson =  Person(true,\r\n                                          personCount,\r\n                                          msg.sender,\r\n                                          _ismale,\r\n                                          _ishispanic,\r\n                                          _age,\r\n                                          _birthdate,\r\n                                          _race,\r\n                                          _liveReason,\r\n                                          _relation);\r\n        // Map new person struct\r\n        people[personCount] = newPerson;\r\n\r\n        // Add person ID to house residentList\r\n        houses[msg.sender].residentList.push(personCount);\r\n        \r\n        // Increase global person count (iD)\r\n        personCount++;\r\n    }\r\n\r\n    // Return House struct params\r\n    function getHouse() public view returns (bool,\r\n                                             uint,\r\n                                             uint,\r\n                                             string memory,\r\n                                             uint8,\r\n                                             uint[] memory) {\r\n        \r\n        House storage thisHouse = houses[msg.sender];\r\n\r\n        bool resiValid = thisHouse.registered;\r\n        uint resiNum = thisHouse.maxResidents;\r\n        uint resiAdd = thisHouse.extraResidents;\r\n        string storage houseType = thisHouse.houseType;\r\n        uint8 stateCode = thisHouse.stateCode;\r\n        uint[] memory resiList = thisHouse.residentList;\r\n\r\n        return (resiValid, resiNum, resiAdd, houseType, stateCode, resiList);\r\n    }\r\n\r\n    // Return Person struct params\r\n    function getPerson(uint index) public view returns (bool,\r\n                                                        address,\r\n                                                        bool,\r\n                                                        bool,\r\n                                                        uint32,\r\n                                                        uint32,\r\n                                                        bytes32) {\r\n        Person storage thisPerson = people[index];\r\n\r\n        bool registered = thisPerson.registered;\r\n        address home = thisPerson.home;\r\n        bool isMale = thisPerson.isMale;\r\n        bool isHispanic = thisPerson.isHispanic;\r\n        uint32 age = thisPerson.age;\r\n        uint32 birthDate = thisPerson.birthDate;\r\n        bytes32 race = thisPerson.race;\r\n\r\n        return (registered, home, isMale, isHispanic, age, birthDate, race);\r\n    }\r\n\r\n    // Return additional Person details to avoid\r\n    // stack overflow when using getPerson() getter\r\n    function getPersonMore(uint index) public view returns (bytes32,\r\n                                                            bytes32) {\r\n        Person storage thisPerson = people[index];\r\n\r\n        bytes32 liveReason = thisPerson.liveReason;\r\n        bytes32 relation = thisPerson.relation;\r\n\r\n        return (liveReason, relation);\r\n    }\r\n\r\n    // TEST FUNCTION\r\n    function getPeople(uint[] memory resiNums) public view returns (uint[] memory,\r\n                                                                    bool[] memory,\r\n                                                                    bool[] memory,\r\n                                                                    uint[] memory,\r\n                                                                    uint[] memory,\r\n                                                                    bytes32[] memory){\r\n\r\n        for (uint i = 0; i < resiNums.length; i++) {\r\n            require(people[resiNums[i]].registered == true, \"Invalid person ID requested.\");\r\n        }\r\n      \r\n        uint[] memory id = new uint[](resiNums.length);\r\n        bool[] memory isMale = new bool[](resiNums.length);\r\n        bool[] memory isHispanic = new bool[](resiNums.length);\r\n        uint[] memory age = new uint[](resiNums.length);\r\n        uint[] memory birthDate = new uint[](resiNums.length);\r\n        bytes32[] memory race = new bytes32[](resiNums.length);\r\n\r\n        for (uint i = 0; i < resiNums.length; i++) {\r\n\r\n            id[i] = people[resiNums[i]].id;\r\n            isMale[i] = people[resiNums[i]].isMale;\r\n            isHispanic[i] = people[resiNums[i]].isHispanic;\r\n            age[i] = people[resiNums[i]].age;\r\n            birthDate[i] = people[resiNums[i]].birthDate;\r\n            race[i] = people[resiNums[i]].race;\r\n        }\r\n        return (id, isMale, isHispanic, age, birthDate, race);\r\n    }\r\n\r\n    // TEST FUNCTION\r\n    function getPeopleMore(uint[] memory resiNums) public view returns (bytes32[] memory,\r\n                                                                        bytes32[] memory){\r\n        \r\n        for (uint i = 0; i < resiNums.length; i++) {\r\n            require(people[resiNums[i]].registered == true, \"Invalid person ID requested.\");\r\n        }\r\n      \r\n        bytes32[] memory liveReason = new bytes32[](resiNums.length);\r\n        bytes32[] memory relation = new bytes32[](resiNums.length);\r\n\r\n        for (uint i = 0; i < resiNums.length; i++) {\r\n\r\n            liveReason[i] = people[resiNums[i]].liveReason;\r\n            relation[i] = people[resiNums[i]].relation;\r\n        }\r\n        return (liveReason, relation);\r\n    }\r\n}",
  "sourcePath": "C:\\Users\\Jerrbear\\Desktop\\solidity\\census\\contracts\\Census.sol",
  "compiler": {
    "name": "solc",
    "version": "0.5.16+commit.9c3226ce.Emscripten.clang"
  },
  "schemaVersion": "3.0.23",
  "updatedAt": "2020-04-09T23:33:32.826Z",
  "networkType": "ethereum",
  "devdoc": {
    "methods": {}
  },
  "userdoc": {
    "methods": {}
  }
}