{
  "contractName": "Census",
  "abi": [
    {
      "inputs": [],
      "payable": false,
      "stateMutability": "nonpayable",
      "type": "constructor"
    },
    {
      "anonymous": false,
      "inputs": [
        {
          "indexed": true,
          "internalType": "uint256",
          "name": "_maxResidents",
          "type": "uint256"
        },
        {
          "indexed": true,
          "internalType": "uint256",
          "name": "_extraResidents",
          "type": "uint256"
        },
        {
          "indexed": true,
          "internalType": "uint8",
          "name": "_stateCode",
          "type": "uint8"
        }
      ],
      "name": "houseAddedEvent",
      "type": "event"
    },
    {
      "constant": true,
      "inputs": [],
      "name": "houseCount",
      "outputs": [
        {
          "internalType": "uint256",
          "name": "",
          "type": "uint256"
        }
      ],
      "payable": false,
      "stateMutability": "view",
      "type": "function"
    },
    {
      "constant": true,
      "inputs": [
        {
          "internalType": "address",
          "name": "",
          "type": "address"
        }
      ],
      "name": "houses",
      "outputs": [
        {
          "internalType": "bool",
          "name": "registered",
          "type": "bool"
        },
        {
          "internalType": "uint256",
          "name": "id",
          "type": "uint256"
        },
        {
          "internalType": "uint256",
          "name": "maxResidents",
          "type": "uint256"
        },
        {
          "internalType": "uint256",
          "name": "extraResidents",
          "type": "uint256"
        },
        {
          "internalType": "string",
          "name": "houseType",
          "type": "string"
        },
        {
          "internalType": "uint8",
          "name": "stateCode",
          "type": "uint8"
        }
      ],
      "payable": false,
      "stateMutability": "view",
      "type": "function"
    },
    {
      "constant": true,
      "inputs": [],
      "name": "owner",
      "outputs": [
        {
          "internalType": "address",
          "name": "",
          "type": "address"
        }
      ],
      "payable": false,
      "stateMutability": "view",
      "type": "function"
    },
    {
      "constant": true,
      "inputs": [
        {
          "internalType": "uint256",
          "name": "",
          "type": "uint256"
        }
      ],
      "name": "people",
      "outputs": [
        {
          "internalType": "bool",
          "name": "registered",
          "type": "bool"
        },
        {
          "internalType": "uint256",
          "name": "id",
          "type": "uint256"
        },
        {
          "internalType": "address",
          "name": "home",
          "type": "address"
        },
        {
          "internalType": "bool",
          "name": "isMale",
          "type": "bool"
        },
        {
          "internalType": "bool",
          "name": "isHispanic",
          "type": "bool"
        },
        {
          "internalType": "uint32",
          "name": "age",
          "type": "uint32"
        },
        {
          "internalType": "uint32",
          "name": "birthDate",
          "type": "uint32"
        },
        {
          "internalType": "bytes32",
          "name": "race",
          "type": "bytes32"
        },
        {
          "internalType": "bytes32",
          "name": "liveReason",
          "type": "bytes32"
        },
        {
          "internalType": "bytes32",
          "name": "relation",
          "type": "bytes32"
        }
      ],
      "payable": false,
      "stateMutability": "view",
      "type": "function"
    },
    {
      "constant": true,
      "inputs": [],
      "name": "personCount",
      "outputs": [
        {
          "internalType": "uint256",
          "name": "",
          "type": "uint256"
        }
      ],
      "payable": false,
      "stateMutability": "view",
      "type": "function"
    },
    {
      "constant": false,
      "inputs": [
        {
          "internalType": "uint256",
          "name": "_maxResidents",
          "type": "uint256"
        },
        {
          "internalType": "uint256",
          "name": "_extraResidents",
          "type": "uint256"
        },
        {
          "internalType": "uint8",
          "name": "_stateCode",
          "type": "uint8"
        },
        {
          "internalType": "string",
          "name": "_housetype",
          "type": "string"
        }
      ],
      "name": "addHouse",
      "outputs": [],
      "payable": false,
      "stateMutability": "nonpayable",
      "type": "function"
    },
    {
      "constant": false,
      "inputs": [
        {
          "internalType": "bool",
          "name": "_ismale",
          "type": "bool"
        },
        {
          "internalType": "bool",
          "name": "_ishispanic",
          "type": "bool"
        },
        {
          "internalType": "uint32",
          "name": "_age",
          "type": "uint32"
        },
        {
          "internalType": "uint32",
          "name": "_birthdate",
          "type": "uint32"
        },
        {
          "internalType": "bytes32",
          "name": "_race",
          "type": "bytes32"
        },
        {
          "internalType": "bytes32",
          "name": "_liveReason",
          "type": "bytes32"
        },
        {
          "internalType": "bytes32",
          "name": "_relation",
          "type": "bytes32"
        }
      ],
      "name": "addPerson",
      "outputs": [],
      "payable": false,
      "stateMutability": "nonpayable",
      "type": "function"
    },
    {
      "constant": true,
      "inputs": [],
      "name": "getHouse",
      "outputs": [
        {
          "internalType": "bool",
          "name": "",
          "type": "bool"
        },
        {
          "internalType": "uint256",
          "name": "",
          "type": "uint256"
        },
        {
          "internalType": "uint256",
          "name": "",
          "type": "uint256"
        },
        {
          "internalType": "uint256",
          "name": "",
          "type": "uint256"
        },
        {
          "internalType": "string",
          "name": "",
          "type": "string"
        },
        {
          "internalType": "uint8",
          "name": "",
          "type": "uint8"
        },
        {
          "internalType": "uint256[]",
          "name": "",
          "type": "uint256[]"
        }
      ],
      "payable": false,
      "stateMutability": "view",
      "type": "function"
    },
    {
      "constant": true,
      "inputs": [
        {
          "internalType": "uint256",
          "name": "index",
          "type": "uint256"
        }
      ],
      "name": "getPerson",
      "outputs": [
        {
          "internalType": "bool",
          "name": "",
          "type": "bool"
        },
        {
          "internalType": "address",
          "name": "",
          "type": "address"
        },
        {
          "internalType": "bool",
          "name": "",
          "type": "bool"
        },
        {
          "internalType": "bool",
          "name": "",
          "type": "bool"
        },
        {
          "internalType": "uint32",
          "name": "",
          "type": "uint32"
        },
        {
          "internalType": "uint32",
          "name": "",
          "type": "uint32"
        },
        {
          "internalType": "bytes32",
          "name": "",
          "type": "bytes32"
        }
      ],
      "payable": false,
      "stateMutability": "view",
      "type": "function"
    },
    {
      "constant": true,
      "inputs": [
        {
          "internalType": "uint256",
          "name": "index",
          "type": "uint256"
        }
      ],
      "name": "getPersonMore",
      "outputs": [
        {
          "internalType": "bytes32",
          "name": "",
          "type": "bytes32"
        },
        {
          "internalType": "bytes32",
          "name": "",
          "type": "bytes32"
        }
      ],
      "payable": false,
      "stateMutability": "view",
      "type": "function"
    },
    {
      "constant": true,
      "inputs": [
        {
          "internalType": "uint256[]",
          "name": "resiNums",
          "type": "uint256[]"
        }
      ],
      "name": "getPeople",
      "outputs": [
        {
          "internalType": "uint256[]",
          "name": "",
          "type": "uint256[]"
        },
        {
          "internalType": "bool[]",
          "name": "",
          "type": "bool[]"
        },
        {
          "internalType": "bool[]",
          "name": "",
          "type": "bool[]"
        },
        {
          "internalType": "uint256[]",
          "name": "",
          "type": "uint256[]"
        },
        {
          "internalType": "uint256[]",
          "name": "",
          "type": "uint256[]"
        },
        {
          "internalType": "bytes32[]",
          "name": "",
          "type": "bytes32[]"
        }
      ],
      "payable": false,
      "stateMutability": "view",
      "type": "function"
    },
    {
      "constant": true,
      "inputs": [
        {
          "internalType": "uint256[]",
          "name": "resiNums",
          "type": "uint256[]"
        }
      ],
      "name": "getPeopleMore",
      "outputs": [
        {
          "internalType": "bytes32[]",
          "name": "",
          "type": "bytes32[]"
        },
        {
          "internalType": "bytes32[]",
          "name": "",
          "type": "bytes32[]"
        }
      ],
      "payable": false,
      "stateMutability": "view",
      "type": "function"
    }
  ],
  "bytecode": "0x608060405234801561001057600080fd5b50336000806101000a81548173ffffffffffffffffffffffffffffffffffffffff021916908373ffffffffffffffffffffffffffffffffffffffff1602179055506000600181905550600060028190555061216d806100706000396000f3fe608060405234801561001057600080fd5b50600436106100b45760003560e01c80637abb3d1b116100715780637abb3d1b146101b35780638da5cb5b146101e85780639101ce8b146102065780639e7a13ad14610222578063bd74f8b11461025b578063dc10fb3e14610279576100b4565b806304e2064f146100b9578063246982c4146100dd5780632c3fe927146101135780636159330f146101445780636c7a256f1461017957806378495bf814610195575b600080fd5b6100c16102aa565b6040516100d49796959493929190611ce2565b60405180910390f35b6100f760048036036100f29190810190611689565b610461565b60405161010a9796959493929190611bd7565b60405180910390f35b61012d600480360361012891908101906115aa565b610550565b60405161013b929190611b15565b60405180910390f35b61015e600480360361015991908101906115aa565b610705565b60405161017096959493929190611b4c565b60405180910390f35b610193600480360361018e91908101906116b2565b610b02565b005b61019d610d3a565b6040516101aa9190611e70565b60405180910390f35b6101cd60048036036101c89190810190611581565b610d40565b6040516101df96959493929190611d5f565b60405180910390f35b6101f0610e2e565b6040516101fd9190611afa565b60405180910390f35b610220600480360361021b91908101906115eb565b610e53565b005b61023c60048036036102379190810190611689565b611179565b6040516102529a99989796959493929190611c46565b60405180910390f35b610263611234565b6040516102709190611e70565b60405180910390f35b610293600480360361028e9190810190611689565b61123a565b6040516102a1929190611dc7565b60405180910390f35b6000806000806060600060606000600360003373ffffffffffffffffffffffffffffffffffffffff1673ffffffffffffffffffffffffffffffffffffffff168152602001908152602001600020905060008160000160009054906101000a900460ff169050600082600101549050600083600201549050600084600301549050600085600401905060008660050160009054906101000a900460ff16905060608760060180548060200260200160405190810160405280929190818152602001828054801561039857602002820191906000526020600020905b815481526020019060010190808311610384575b5050505050905086868686868686828054600181600116156101000203166002900480601f01602080910402602001604051908101604052809291908181526020018280546001816001161561010002031660029004801561043b5780601f106104105761010080835404028352916020019161043b565b820191906000526020600020905b81548152906001019060200180831161041e57829003601f168201915b505050505092509e509e509e509e509e509e509e50505050505050505090919293949596565b600080600080600080600080600460008a8152602001908152602001600020905060008160000160009054906101000a900460ff16905060008260020160009054906101000a900473ffffffffffffffffffffffffffffffffffffffff16905060008360020160149054906101000a900460ff16905060008460020160159054906101000a900460ff16905060008560020160169054906101000a900463ffffffff169050600086600201601a9054906101000a900463ffffffff169050600087600301549050868686868686869e509e509e509e509e509e509e505050505050505050919395979092949650565b60608060008090505b83518110156105ec57600115156004600086848151811061057657fe5b6020026020010151815260200190815260200160002060000160009054906101000a900460ff161515146105df576040517f08c379a00000000000000000000000000000000000000000000000000000000081526004016105d690611e50565b60405180910390fd5b8080600101915050610559565b506060835160405190808252806020026020018201604052801561061f5781602001602082028038833980820191505090505b509050606084516040519080825280602002602001820160405280156106545781602001602082028038833980820191505090505b50905060008090505b85518110156106f7576004600087838151811061067657fe5b602002602001015181526020019081526020016000206004015483828151811061069c57fe5b602002602001018181525050600460008783815181106106b857fe5b60200260200101518152602001908152602001600020600501548282815181106106de57fe5b602002602001018181525050808060010191505061065d565b508181935093505050915091565b60608060608060608060008090505b87518110156107a75760011515600460008a848151811061073157fe5b6020026020010151815260200190815260200160002060000160009054906101000a900460ff1615151461079a576040517f08c379a000000000000000000000000000000000000000000000000000000000815260040161079190611e50565b60405180910390fd5b8080600101915050610714565b50606087516040519080825280602002602001820160405280156107da5781602001602082028038833980820191505090505b5090506060885160405190808252806020026020018201604052801561080f5781602001602082028038833980820191505090505b509050606089516040519080825280602002602001820160405280156108445781602001602082028038833980820191505090505b50905060608a516040519080825280602002602001820160405280156108795781602001602082028038833980820191505090505b50905060608b516040519080825280602002602001820160405280156108ae5781602001602082028038833980820191505090505b50905060608c516040519080825280602002602001820160405280156108e35781602001602082028038833980820191505090505b50905060008090505b8d51811015610ae057600460008f838151811061090557fe5b602002602001015181526020019081526020016000206001015487828151811061092b57fe5b602002602001018181525050600460008f838151811061094757fe5b6020026020010151815260200190815260200160002060020160149054906101000a900460ff1686828151811061097a57fe5b602002602001019015159081151581525050600460008f838151811061099c57fe5b6020026020010151815260200190815260200160002060020160159054906101000a900460ff168582815181106109cf57fe5b602002602001019015159081151581525050600460008f83815181106109f157fe5b6020026020010151815260200190815260200160002060020160169054906101000a900463ffffffff1663ffffffff16848281518110610a2d57fe5b602002602001018181525050600460008f8381518110610a4957fe5b60200260200101518152602001908152602001600020600201601a9054906101000a900463ffffffff1663ffffffff16838281518110610a8557fe5b602002602001018181525050600460008f8381518110610aa157fe5b6020026020010151815260200190815260200160002060030154828281518110610ac757fe5b60200260200101818152505080806001019150506108ec565b508585858585859b509b509b509b509b509b5050505050505091939550919395565b60001515600360003373ffffffffffffffffffffffffffffffffffffffff1673ffffffffffffffffffffffffffffffffffffffff16815260200190815260200160002060000160009054906101000a900460ff16151514610b98576040517f08c379a0000000000000000000000000000000000000000000000000000000008152600401610b8f90611e30565b60405180910390fd5b60026000815480929190600101919050555060606000604051908082528060200260200182016040528015610bdc5781602001602082028038833980820191505090505b509050610be7611274565b6040518060e0016040528060011515815260200160025481526020018781526020018681526020018481526020018560ff16815260200183815250905080600360003373ffffffffffffffffffffffffffffffffffffffff1673ffffffffffffffffffffffffffffffffffffffff16815260200190815260200160002060008201518160000160006101000a81548160ff0219169083151502179055506020820151816001015560408201518160020155606082015181600301556080820151816004019080519060200190610cbe9291906112b6565b5060a08201518160050160006101000a81548160ff021916908360ff16021790555060c0820151816006019080519060200190610cfc929190611336565b509050508360ff1685877f4187beb212ffea2bb85d98e1038711507ac5fd01fcbcade08a07b5f894bb87bb60405160405180910390a4505050505050565b60015481565b60036020528060005260406000206000915090508060000160009054906101000a900460ff1690806001015490806002015490806003015490806004018054600181600116156101000203166002900480601f016020809104026020016040519081016040528092919081815260200182805460018160011615610100020316600290048015610e115780601f10610de657610100808354040283529160200191610e11565b820191906000526020600020905b815481529060010190602001808311610df457829003601f168201915b5050505050908060050160009054906101000a900460ff16905086565b6000809054906101000a900473ffffffffffffffffffffffffffffffffffffffff1681565b6000600360003373ffffffffffffffffffffffffffffffffffffffff1673ffffffffffffffffffffffffffffffffffffffff1681526020019081526020016000209050600115158160000160009054906101000a900460ff16151514610eee576040517f08c379a0000000000000000000000000000000000000000000000000000000008152600401610ee590611e10565b60405180910390fd5b8060020154816006018054905010610f3b576040517f08c379a0000000000000000000000000000000000000000000000000000000008152600401610f3290611df0565b60405180910390fd5b610f43611383565b60405180610140016040528060011515815260200160015481526020013373ffffffffffffffffffffffffffffffffffffffff1681526020018a1515815260200189151581526020018863ffffffff1681526020018763ffffffff1681526020018681526020018581526020018481525090508060046000600154815260200190815260200160002060008201518160000160006101000a81548160ff0219169083151502179055506020820151816001015560408201518160020160006101000a81548173ffffffffffffffffffffffffffffffffffffffff021916908373ffffffffffffffffffffffffffffffffffffffff16021790555060608201518160020160146101000a81548160ff02191690831515021790555060808201518160020160156101000a81548160ff02191690831515021790555060a08201518160020160166101000a81548163ffffffff021916908363ffffffff16021790555060c082015181600201601a6101000a81548163ffffffff021916908363ffffffff16021790555060e0820151816003015561010082015181600401556101208201518160050155905050600360003373ffffffffffffffffffffffffffffffffffffffff1673ffffffffffffffffffffffffffffffffffffffff1681526020019081526020016000206006016001549080600181540180825580915050906001820390600052602060002001600090919290919091505550600160008154809291906001019190505550505050505050505050565b60046020528060005260406000206000915090508060000160009054906101000a900460ff16908060010154908060020160009054906101000a900473ffffffffffffffffffffffffffffffffffffffff16908060020160149054906101000a900460ff16908060020160159054906101000a900460ff16908060020160169054906101000a900463ffffffff169080600201601a9054906101000a900463ffffffff1690806003015490806004015490806005015490508a565b60025481565b6000806000600460008581526020019081526020016000209050600081600401549050600082600501549050818194509450505050915091565b6040518060e0016040528060001515815260200160008152602001600081526020016000815260200160608152602001600060ff168152602001606081525090565b828054600181600116156101000203166002900490600052602060002090601f016020900481019282601f106112f757805160ff1916838001178555611325565b82800160010185558215611325579182015b82811115611324578251825591602001919060010190611309565b5b5090506113329190611407565b5090565b828054828255906000526020600020908101928215611372579160200282015b82811115611371578251825591602001919060010190611356565b5b50905061137f9190611407565b5090565b60405180610140016040528060001515815260200160008152602001600073ffffffffffffffffffffffffffffffffffffffff168152602001600015158152602001600015158152602001600063ffffffff168152602001600063ffffffff1681526020016000801916815260200160008019168152602001600080191681525090565b61142991905b8082111561142557600081600090555060010161140d565b5090565b90565b60008135905061143b816120a0565b92915050565b600082601f83011261145257600080fd5b813561146561146082611eb8565b611e8b565b9150818183526020840193506020810190508385602084028201111561148a57600080fd5b60005b838110156114ba57816114a08882611542565b84526020840193506020830192505060018101905061148d565b5050505092915050565b6000813590506114d3816120b7565b92915050565b6000813590506114e8816120ce565b92915050565b600082601f8301126114ff57600080fd5b813561151261150d82611ee0565b611e8b565b9150808252602083016020830185838301111561152e57600080fd5b61153983828461204d565b50505092915050565b600081359050611551816120e5565b92915050565b600081359050611566816120fc565b92915050565b60008135905061157b81612113565b92915050565b60006020828403121561159357600080fd5b60006115a18482850161142c565b91505092915050565b6000602082840312156115bc57600080fd5b600082013567ffffffffffffffff8111156115d657600080fd5b6115e284828501611441565b91505092915050565b600080600080600080600060e0888a03121561160657600080fd5b60006116148a828b016114c4565b97505060206116258a828b016114c4565b96505060406116368a828b01611557565b95505060606116478a828b01611557565b94505060806116588a828b016114d9565b93505060a06116698a828b016114d9565b92505060c061167a8a828b016114d9565b91505092959891949750929550565b60006020828403121561169b57600080fd5b60006116a984828501611542565b91505092915050565b600080600080608085870312156116c857600080fd5b60006116d687828801611542565b94505060206116e787828801611542565b93505060406116f88782880161156c565b925050606085013567ffffffffffffffff81111561171557600080fd5b611721878288016114ee565b91505092959194509250565b6000611739838361189e565b60208301905092915050565b600061175183836118bc565b60208301905092915050565b60006117698383611abe565b60208301905092915050565b61177e81611fde565b82525050565b600061178f82611f3c565b6117998185611f9a565b93506117a483611f0c565b8060005b838110156117d55781516117bc888261172d565b97506117c783611f73565b9250506001810190506117a8565b5085935050505092915050565b60006117ed82611f47565b6117f78185611fab565b935061180283611f1c565b8060005b8381101561183357815161181a8882611745565b975061182583611f80565b925050600181019050611806565b5085935050505092915050565b600061184b82611f52565b6118558185611fbc565b935061186083611f2c565b8060005b83811015611891578151611878888261175d565b975061188383611f8d565b925050600181019050611864565b5085935050505092915050565b6118a781611ff0565b82525050565b6118b681611ff0565b82525050565b6118c581611ffc565b82525050565b6118d481611ffc565b82525050565b60006118e582611f68565b6118ef8185611fcd565b93506118ff81856020860161205c565b6119088161208f565b840191505092915050565b600061191e82611f5d565b6119288185611fcd565b935061193881856020860161205c565b6119418161208f565b840191505092915050565b6000611959602583611fcd565b91507f4d617820726567697374657265642070656f706c6520666f722074686973204860008301527f6f7573652e0000000000000000000000000000000000000000000000000000006020830152604082019050919050565b60006119bf602e83611fcd565b91507f5468657265206973206e6f20686f757365207265676973746572656420666f7260008301527f207468697320616464726573732e0000000000000000000000000000000000006020830152604082019050919050565b6000611a25602c83611fcd565b91507f5468697320616464726573732068617320616c7265616479207265676973746560008301527f726564206120686f7573652e00000000000000000000000000000000000000006020830152604082019050919050565b6000611a8b601c83611fcd565b91507f496e76616c696420706572736f6e204944207265717565737465642e000000006000830152602082019050919050565b611ac781612026565b82525050565b611ad681612026565b82525050565b611ae581612030565b82525050565b611af481612040565b82525050565b6000602082019050611b0f6000830184611775565b92915050565b60006040820190508181036000830152611b2f81856117e2565b90508181036020830152611b4381846117e2565b90509392505050565b600060c0820190508181036000830152611b668189611840565b90508181036020830152611b7a8188611784565b90508181036040830152611b8e8187611784565b90508181036060830152611ba28186611840565b90508181036080830152611bb68185611840565b905081810360a0830152611bca81846117e2565b9050979650505050505050565b600060e082019050611bec600083018a6118ad565b611bf96020830189611775565b611c0660408301886118ad565b611c1360608301876118ad565b611c206080830186611adc565b611c2d60a0830185611adc565b611c3a60c08301846118cb565b98975050505050505050565b600061014082019050611c5c600083018d6118ad565b611c69602083018c611acd565b611c76604083018b611775565b611c83606083018a6118ad565b611c9060808301896118ad565b611c9d60a0830188611adc565b611caa60c0830187611adc565b611cb760e08301866118cb565b611cc56101008301856118cb565b611cd36101208301846118cb565b9b9a5050505050505050505050565b600060e082019050611cf7600083018a6118ad565b611d046020830189611acd565b611d116040830188611acd565b611d1e6060830187611acd565b8181036080830152611d3081866118da565b9050611d3f60a0830185611aeb565b81810360c0830152611d518184611840565b905098975050505050505050565b600060c082019050611d7460008301896118ad565b611d816020830188611acd565b611d8e6040830187611acd565b611d9b6060830186611acd565b8181036080830152611dad8185611913565b9050611dbc60a0830184611aeb565b979650505050505050565b6000604082019050611ddc60008301856118cb565b611de960208301846118cb565b9392505050565b60006020820190508181036000830152611e098161194c565b9050919050565b60006020820190508181036000830152611e29816119b2565b9050919050565b60006020820190508181036000830152611e4981611a18565b9050919050565b60006020820190508181036000830152611e6981611a7e565b9050919050565b6000602082019050611e856000830184611acd565b92915050565b6000604051905081810181811067ffffffffffffffff82111715611eae57600080fd5b8060405250919050565b600067ffffffffffffffff821115611ecf57600080fd5b602082029050602081019050919050565b600067ffffffffffffffff821115611ef757600080fd5b601f19601f8301169050602081019050919050565b6000819050602082019050919050565b6000819050602082019050919050565b6000819050602082019050919050565b600081519050919050565b600081519050919050565b600081519050919050565b600081519050919050565b600081519050919050565b6000602082019050919050565b6000602082019050919050565b6000602082019050919050565b600082825260208201905092915050565b600082825260208201905092915050565b600082825260208201905092915050565b600082825260208201905092915050565b6000611fe982612006565b9050919050565b60008115159050919050565b6000819050919050565b600073ffffffffffffffffffffffffffffffffffffffff82169050919050565b6000819050919050565b600063ffffffff82169050919050565b600060ff82169050919050565b82818337600083830152505050565b60005b8381101561207a57808201518184015260208101905061205f565b83811115612089576000848401525b50505050565b6000601f19601f8301169050919050565b6120a981611fde565b81146120b457600080fd5b50565b6120c081611ff0565b81146120cb57600080fd5b50565b6120d781611ffc565b81146120e257600080fd5b50565b6120ee81612026565b81146120f957600080fd5b50565b61210581612030565b811461211057600080fd5b50565b61211c81612040565b811461212757600080fd5b5056fea365627a7a72315820b347061e3f0c25ec4c9cb5bcd0a3979f0a4d6ab77f48f253f8c52579b620b4296c6578706572696d656e74616cf564736f6c63430005100040",
  "source": "pragma solidity ^0.5.0;\r\npragma experimental ABIEncoderV2;\r\n\r\ncontract Census {\r\n\r\n    // Initialize contract owner\r\n    address public owner;\r\n\r\n    // Global counter for Person struct ID\r\n    uint public personCount;\r\n    // Global counter for House count\r\n    uint public houseCount;\r\n\r\n    // House struct\r\n    struct House {\r\n        bool registered;\r\n        uint id;\r\n        uint maxResidents;\r\n        uint extraResidents;\r\n        string houseType; // House, Apartment, Mobile Home\r\n        uint8 stateCode;\r\n        uint[] residentList;\r\n    }\r\n\r\n    // Person struct\r\n    // NOTE: Params race, liveReason, and relation stored as bytes32\r\n    // because arrays of strings are not supported in web3 and return\r\n    // blank/empty. Array of bytes are used then converted in web3.\r\n    struct Person {\r\n        bool registered;\r\n        uint id; // peopleCount at time of transaction\r\n        address home; // easy tracking on data pulls\r\n        bool isMale;\r\n        bool isHispanic;\r\n        uint32 age;\r\n        uint32 birthDate; // YYYYMMDD\r\n        bytes32 race;\r\n        bytes32 liveReason;\r\n        bytes32 relation;\r\n    }\r\n    \r\n    // stores index of 'Houses' struct by address\r\n    mapping(address => House) public houses;\r\n\r\n    // stores a 'Person' struct as index id\r\n    mapping(uint => Person) public people;\r\n\r\n    event houseAddedEvent (\r\n    uint indexed _maxResidents,\r\n    uint indexed _extraResidents,\r\n    uint8 indexed _stateCode\r\n    );\r\n\r\n    // Initialized at contract creation\r\n    constructor() public {\r\n        // Contract owner\r\n        owner = msg.sender;\r\n        personCount = 0;\r\n        houseCount = 0;\r\n    }\r\n\r\n    function addHouse(uint _maxResidents,\r\n                      uint _extraResidents,\r\n                      uint8 _stateCode,\r\n                      string memory _housetype) public {\r\n        \r\n        // Ensure house is not already registered for address\r\n        require(houses[msg.sender].registered == false, \"This address has already registered a house.\");\r\n\r\n        // Increase global house count\r\n        houseCount++;\r\n\r\n        // Initialize empty residentList array\r\n        uint[] memory emptyList = new uint[](0);\r\n        \r\n        // Create new house struct\r\n        House memory newhouse = House(true,\r\n                                      houseCount,\r\n                                      _maxResidents,\r\n                                      _extraResidents,\r\n                                      _housetype,\r\n                                      _stateCode,\r\n                                      emptyList);\r\n\r\n        houses[msg.sender] = newhouse;\r\n\r\n        emit houseAddedEvent(_maxResidents, _extraResidents, _stateCode);\r\n    }\r\n\r\n    function addPerson(bool _ismale,\r\n                       bool _ishispanic,\r\n                       uint32 _age,\r\n                       uint32 _birthdate,\r\n                       bytes32 _race,\r\n                       bytes32 _liveReason,\r\n                       bytes32 _relation) public {\r\n\r\n        House storage currentHouse = houses[msg.sender];\r\n        // Ensure house for address exists before adding\r\n        require(currentHouse.registered == true, \"There is no house registered for this address.\");\r\n        // Require house of address to have resident count within range\r\n        require(currentHouse.residentList.length < currentHouse.maxResidents, \"Max registered people for this House.\");\r\n\r\n        Person memory newPerson =  Person(true,\r\n                                          personCount,\r\n                                          msg.sender,\r\n                                          _ismale,\r\n                                          _ishispanic,\r\n                                          _age,\r\n                                          _birthdate,\r\n                                          _race,\r\n                                          _liveReason,\r\n                                          _relation);\r\n        // Map new person struct\r\n        people[personCount] = newPerson;\r\n\r\n        // Add person ID to house residentList\r\n        houses[msg.sender].residentList.push(personCount);\r\n        \r\n        // Increase global person count (iD)\r\n        personCount++;\r\n    }\r\n\r\n    // Return House struct params\r\n    function getHouse() public view returns (bool,\r\n                                             uint,\r\n                                             uint,\r\n                                             uint,\r\n                                             string memory,\r\n                                             uint8,\r\n                                             uint[] memory) {\r\n        \r\n        House storage thisHouse = houses[msg.sender];\r\n\r\n        bool resiValid = thisHouse.registered;\r\n        uint resiId = thisHouse.id;        \r\n        uint resiNum = thisHouse.maxResidents;\r\n        uint resiAdd = thisHouse.extraResidents;\r\n        string storage houseType = thisHouse.houseType;\r\n        uint8 stateCode = thisHouse.stateCode;\r\n        uint[] memory resiList = thisHouse.residentList;\r\n\r\n        return (resiValid, resiId, resiNum, resiAdd, houseType, stateCode, resiList);\r\n    }\r\n\r\n    // Return Person struct params\r\n    function getPerson(uint index) public view returns (bool,\r\n                                                        address,\r\n                                                        bool,\r\n                                                        bool,\r\n                                                        uint32,\r\n                                                        uint32,\r\n                                                        bytes32) {\r\n        Person storage thisPerson = people[index];\r\n\r\n        bool registered = thisPerson.registered;\r\n        address home = thisPerson.home;\r\n        bool isMale = thisPerson.isMale;\r\n        bool isHispanic = thisPerson.isHispanic;\r\n        uint32 age = thisPerson.age;\r\n        uint32 birthDate = thisPerson.birthDate;\r\n        bytes32 race = thisPerson.race;\r\n\r\n        return (registered, home, isMale, isHispanic, age, birthDate, race);\r\n    }\r\n\r\n    // Return additional Person details to avoid\r\n    // stack overflow when using getPerson() getter\r\n    function getPersonMore(uint index) public view returns (bytes32,\r\n                                                            bytes32) {\r\n        Person storage thisPerson = people[index];\r\n\r\n        bytes32 liveReason = thisPerson.liveReason;\r\n        bytes32 relation = thisPerson.relation;\r\n\r\n        return (liveReason, relation);\r\n    }\r\n\r\n    // TEST FUNCTION\r\n    function getPeople(uint[] memory resiNums) public view returns (uint[] memory,\r\n                                                                    bool[] memory,\r\n                                                                    bool[] memory,\r\n                                                                    uint[] memory,\r\n                                                                    uint[] memory,\r\n                                                                    bytes32[] memory){\r\n\r\n        for (uint i = 0; i < resiNums.length; i++) {\r\n            require(people[resiNums[i]].registered == true, \"Invalid person ID requested.\");\r\n        }\r\n      \r\n        uint[] memory id = new uint[](resiNums.length);\r\n        bool[] memory isMale = new bool[](resiNums.length);\r\n        bool[] memory isHispanic = new bool[](resiNums.length);\r\n        uint[] memory age = new uint[](resiNums.length);\r\n        uint[] memory birthDate = new uint[](resiNums.length);\r\n        bytes32[] memory race = new bytes32[](resiNums.length);\r\n\r\n        for (uint i = 0; i < resiNums.length; i++) {\r\n\r\n            id[i] = people[resiNums[i]].id;\r\n            isMale[i] = people[resiNums[i]].isMale;\r\n            isHispanic[i] = people[resiNums[i]].isHispanic;\r\n            age[i] = people[resiNums[i]].age;\r\n            birthDate[i] = people[resiNums[i]].birthDate;\r\n            race[i] = people[resiNums[i]].race;\r\n        }\r\n        return (id, isMale, isHispanic, age, birthDate, race);\r\n    }\r\n\r\n    // TEST FUNCTION\r\n    function getPeopleMore(uint[] memory resiNums) public view returns (bytes32[] memory,\r\n                                                                        bytes32[] memory){\r\n        \r\n        for (uint i = 0; i < resiNums.length; i++) {\r\n            require(people[resiNums[i]].registered == true, \"Invalid person ID requested.\");\r\n        }\r\n      \r\n        bytes32[] memory liveReason = new bytes32[](resiNums.length);\r\n        bytes32[] memory relation = new bytes32[](resiNums.length);\r\n\r\n        for (uint i = 0; i < resiNums.length; i++) {\r\n\r\n            liveReason[i] = people[resiNums[i]].liveReason;\r\n            relation[i] = people[resiNums[i]].relation;\r\n        }\r\n        return (liveReason, relation);\r\n    }\r\n}",
  "sourcePath": "C:\\Users\\Jerrbear\\Desktop\\solidity\\census\\contracts\\Census.sol",
  "compiler": {
    "name": "solc",
    "version": "0.5.16+commit.9c3226ce.Emscripten.clang"
  },
  "schemaVersion": "3.0.23",
  "updatedAt": "2020-04-11T23:56:09.267Z",
  "networkType": "ethereum",
  "devdoc": {
    "methods": {}
  },
  "userdoc": {
    "methods": {}
  }
}