{
  "contractName": "Census",
  "abi": [
    {
      "inputs": [],
      "payable": false,
      "stateMutability": "nonpayable",
      "type": "constructor"
    },
    {
      "anonymous": false,
      "inputs": [
        {
          "indexed": true,
          "internalType": "uint256",
          "name": "_maxResidents",
          "type": "uint256"
        },
        {
          "indexed": true,
          "internalType": "uint256",
          "name": "_extraResidents",
          "type": "uint256"
        }
      ],
      "name": "houseAddedEvent",
      "type": "event"
    },
    {
      "constant": true,
      "inputs": [],
      "name": "houseCount",
      "outputs": [
        {
          "internalType": "uint256",
          "name": "",
          "type": "uint256"
        }
      ],
      "payable": false,
      "stateMutability": "view",
      "type": "function"
    },
    {
      "constant": true,
      "inputs": [
        {
          "internalType": "address",
          "name": "",
          "type": "address"
        }
      ],
      "name": "houses",
      "outputs": [
        {
          "internalType": "bool",
          "name": "registered",
          "type": "bool"
        },
        {
          "internalType": "uint256",
          "name": "maxResidents",
          "type": "uint256"
        },
        {
          "internalType": "uint256",
          "name": "extraResidents",
          "type": "uint256"
        },
        {
          "internalType": "string",
          "name": "houseType",
          "type": "string"
        }
      ],
      "payable": false,
      "stateMutability": "view",
      "type": "function"
    },
    {
      "constant": true,
      "inputs": [],
      "name": "owner",
      "outputs": [
        {
          "internalType": "address",
          "name": "",
          "type": "address"
        }
      ],
      "payable": false,
      "stateMutability": "view",
      "type": "function"
    },
    {
      "constant": true,
      "inputs": [
        {
          "internalType": "uint256",
          "name": "",
          "type": "uint256"
        }
      ],
      "name": "people",
      "outputs": [
        {
          "internalType": "bool",
          "name": "registered",
          "type": "bool"
        },
        {
          "internalType": "uint256",
          "name": "id",
          "type": "uint256"
        },
        {
          "internalType": "address",
          "name": "home",
          "type": "address"
        },
        {
          "internalType": "bool",
          "name": "isMale",
          "type": "bool"
        },
        {
          "internalType": "bool",
          "name": "isHispanic",
          "type": "bool"
        },
        {
          "internalType": "uint256",
          "name": "age",
          "type": "uint256"
        },
        {
          "internalType": "uint256",
          "name": "birthDate",
          "type": "uint256"
        },
        {
          "internalType": "string",
          "name": "race",
          "type": "string"
        }
      ],
      "payable": false,
      "stateMutability": "view",
      "type": "function"
    },
    {
      "constant": true,
      "inputs": [],
      "name": "personCount",
      "outputs": [
        {
          "internalType": "uint256",
          "name": "",
          "type": "uint256"
        }
      ],
      "payable": false,
      "stateMutability": "view",
      "type": "function"
    },
    {
      "constant": false,
      "inputs": [
        {
          "internalType": "uint256",
          "name": "_maxResidents",
          "type": "uint256"
        },
        {
          "internalType": "uint256",
          "name": "_extraResidents",
          "type": "uint256"
        },
        {
          "internalType": "string",
          "name": "_housetype",
          "type": "string"
        }
      ],
      "name": "addHouse",
      "outputs": [],
      "payable": false,
      "stateMutability": "nonpayable",
      "type": "function"
    },
    {
      "constant": false,
      "inputs": [
        {
          "internalType": "bool",
          "name": "_ismale",
          "type": "bool"
        },
        {
          "internalType": "bool",
          "name": "_ishispanic",
          "type": "bool"
        },
        {
          "internalType": "uint256",
          "name": "_age",
          "type": "uint256"
        },
        {
          "internalType": "uint256",
          "name": "_birthdate",
          "type": "uint256"
        },
        {
          "internalType": "string",
          "name": "_race",
          "type": "string"
        }
      ],
      "name": "addPerson",
      "outputs": [],
      "payable": false,
      "stateMutability": "nonpayable",
      "type": "function"
    },
    {
      "constant": true,
      "inputs": [
        {
          "internalType": "uint256",
          "name": "_index",
          "type": "uint256"
        }
      ],
      "name": "getResident",
      "outputs": [
        {
          "components": [
            {
              "internalType": "bool",
              "name": "registered",
              "type": "bool"
            },
            {
              "internalType": "uint256",
              "name": "id",
              "type": "uint256"
            },
            {
              "internalType": "address",
              "name": "home",
              "type": "address"
            },
            {
              "internalType": "bool",
              "name": "isMale",
              "type": "bool"
            },
            {
              "internalType": "bool",
              "name": "isHispanic",
              "type": "bool"
            },
            {
              "internalType": "uint256",
              "name": "age",
              "type": "uint256"
            },
            {
              "internalType": "uint256",
              "name": "birthDate",
              "type": "uint256"
            },
            {
              "internalType": "string",
              "name": "race",
              "type": "string"
            }
          ],
          "internalType": "struct Census.Person",
          "name": "ppls",
          "type": "tuple"
        }
      ],
      "payable": false,
      "stateMutability": "view",
      "type": "function"
    },
    {
      "constant": true,
      "inputs": [],
      "name": "getHouse",
      "outputs": [
        {
          "internalType": "uint256",
          "name": "x",
          "type": "uint256"
        },
        {
          "internalType": "uint256",
          "name": "y",
          "type": "uint256"
        },
        {
          "internalType": "uint256[]",
          "name": "z",
          "type": "uint256[]"
        }
      ],
      "payable": false,
      "stateMutability": "view",
      "type": "function"
    },
    {
      "constant": true,
      "inputs": [],
      "name": "getHouseCount",
      "outputs": [
        {
          "internalType": "uint256",
          "name": "x",
          "type": "uint256"
        }
      ],
      "payable": false,
      "stateMutability": "view",
      "type": "function"
    },
    {
      "constant": true,
      "inputs": [],
      "name": "getArr",
      "outputs": [
        {
          "components": [
            {
              "internalType": "bool",
              "name": "registered",
              "type": "bool"
            },
            {
              "internalType": "uint256",
              "name": "maxResidents",
              "type": "uint256"
            },
            {
              "internalType": "uint256",
              "name": "extraResidents",
              "type": "uint256"
            },
            {
              "internalType": "string",
              "name": "houseType",
              "type": "string"
            },
            {
              "internalType": "uint256[]",
              "name": "residentList",
              "type": "uint256[]"
            }
          ],
          "internalType": "struct Census.House",
          "name": "h",
          "type": "tuple"
        }
      ],
      "payable": false,
      "stateMutability": "view",
      "type": "function"
    }
  ],
  "bytecode": "0x608060405234801561001057600080fd5b50336000806101000a81548173ffffffffffffffffffffffffffffffffffffffff021916908373ffffffffffffffffffffffffffffffffffffffff1602179055506000600181905550600060028190555061186d806100706000396000f3fe608060405234801561001057600080fd5b50600436106100a95760003560e01c80639e7a13ad116100715780639e7a13ad1461015b578063bd74f8b114610192578063dd82ce03146101b0578063e2b0966c146101e0578063f885fe4f146101fc578063fb8cbced14610218576100a9565b806304e2064f146100ae578063607bd671146100ce57806378495bf8146100ec5780637abb3d1b1461010a5780638da5cb5b1461013d575b600080fd5b6100b6610236565b6040516100c593929190611614565b60405180910390f35b6100d66102f9565b6040516100e391906115f9565b60405180910390f35b6100f4610303565b60405161010191906115f9565b60405180910390f35b610124600480360361011f9190810190610f22565b610309565b6040516101349493929190611509565b60405180910390f35b6101456103de565b6040516101529190611469565b60405180910390f35b61017560048036036101709190810190610fda565b610403565b604051610189989796959493929190611484565b60405180910390f35b61019a61052a565b6040516101a791906115f9565b60405180910390f35b6101ca60048036036101c59190810190610fda565b610530565b6040516101d791906115d7565b60405180910390f35b6101fa60048036036101f59190810190611003565b6106c5565b005b61021660048036036102119190810190610f4b565b6108bc565b005b610220610b8b565b60405161022d91906115b5565b60405180910390f35b60008060606000600360003373ffffffffffffffffffffffffffffffffffffffff1673ffffffffffffffffffffffffffffffffffffffff16815260200190815260200160002090506000816001015490506000826001015490506060836004018054806020026020016040519081016040528092919081815260200182805480156102e057602002820191906000526020600020905b8154815260200190600101908083116102cc575b5050505050905082828296509650965050505050909192565b6000600254905090565b60015481565b60036020528060005260406000206000915090508060000160009054906101000a900460ff1690806001015490806002015490806003018054600181600116156101000203166002900480601f0160208091040260200160405190810160405280929190818152602001828054600181600116156101000203166002900480156103d45780601f106103a9576101008083540402835291602001916103d4565b820191906000526020600020905b8154815290600101906020018083116103b757829003601f168201915b5050505050905084565b6000809054906101000a900473ffffffffffffffffffffffffffffffffffffffff1681565b60046020528060005260406000206000915090508060000160009054906101000a900460ff16908060010154908060020160009054906101000a900473ffffffffffffffffffffffffffffffffffffffff16908060020160149054906101000a900460ff16908060020160159054906101000a900460ff1690806003015490806004015490806005018054600181600116156101000203166002900480601f0160208091040260200160405190810160405280929190818152602001828054600181600116156101000203166002900480156105205780601f106104f557610100808354040283529160200191610520565b820191906000526020600020905b81548152906001019060200180831161050357829003601f168201915b5050505050905088565b60025481565b610538610d0b565b60046000838152602001908152602001600020604051806101000160405290816000820160009054906101000a900460ff16151515158152602001600182015481526020016002820160009054906101000a900473ffffffffffffffffffffffffffffffffffffffff1673ffffffffffffffffffffffffffffffffffffffff1673ffffffffffffffffffffffffffffffffffffffff1681526020016002820160149054906101000a900460ff161515151581526020016002820160159054906101000a900460ff161515151581526020016003820154815260200160048201548152602001600582018054600181600116156101000203166002900480601f0160208091040260200160405190810160405280929190818152602001828054600181600116156101000203166002900480156106b55780601f1061068a576101008083540402835291602001916106b5565b820191906000526020600020905b81548152906001019060200180831161069857829003601f168201915b5050505050815250509050919050565b60001515600360003373ffffffffffffffffffffffffffffffffffffffff1673ffffffffffffffffffffffffffffffffffffffff16815260200190815260200160002060000160009054906101000a900460ff1615151461075b576040517f08c379a000000000000000000000000000000000000000000000000000000000815260040161075290611595565b60405180910390fd5b6060600060405190808252806020026020018201604052801561078d5781602001602082028038833980820191505090505b509050610798610d6c565b6040518060a0016040528060011515815260200186815260200185815260200184815260200183815250905080600360003373ffffffffffffffffffffffffffffffffffffffff1673ffffffffffffffffffffffffffffffffffffffff16815260200190815260200160002060008201518160000160006101000a81548160ff02191690831515021790555060208201518160010155604082015181600201556060820151816003019080519060200190610854929190610d9d565b506080820151816004019080519060200190610871929190610e1d565b5090505060026000815480929190600101919050555083857feafa008c7b375315bec76e1ba9016f5147021cdf64820f3034a07feecd10751660405160405180910390a35050505050565b6000600360003373ffffffffffffffffffffffffffffffffffffffff1673ffffffffffffffffffffffffffffffffffffffff1681526020019081526020016000209050600115158160000160009054906101000a900460ff16151514610957576040517f08c379a000000000000000000000000000000000000000000000000000000000815260040161094e90611575565b60405180910390fd5b80600101548160040180549050106109a4576040517f08c379a000000000000000000000000000000000000000000000000000000000815260040161099b90611555565b60405180910390fd5b6109ac610d0b565b60405180610100016040528060011515815260200160015481526020013373ffffffffffffffffffffffffffffffffffffffff168152602001881515815260200187151581526020018681526020018581526020018481525090508060046000600154815260200190815260200160002060008201518160000160006101000a81548160ff0219169083151502179055506020820151816001015560408201518160020160006101000a81548173ffffffffffffffffffffffffffffffffffffffff021916908373ffffffffffffffffffffffffffffffffffffffff16021790555060608201518160020160146101000a81548160ff02191690831515021790555060808201518160020160156101000a81548160ff02191690831515021790555060a0820151816003015560c0820151816004015560e0820151816005019080519060200190610afe929190610d9d565b50905050600360003373ffffffffffffffffffffffffffffffffffffffff1673ffffffffffffffffffffffffffffffffffffffff168152602001908152602001600020600401600154908060018154018082558091505090600182039060005260206000200160009091929091909150555060016000815480929190600101919050555050505050505050565b610b93610d6c565b600360003373ffffffffffffffffffffffffffffffffffffffff1673ffffffffffffffffffffffffffffffffffffffff1681526020019081526020016000206040518060a00160405290816000820160009054906101000a900460ff161515151581526020016001820154815260200160028201548152602001600382018054600181600116156101000203166002900480601f016020809104026020016040519081016040528092919081815260200182805460018160011615610100020316600290048015610ca55780601f10610c7a57610100808354040283529160200191610ca5565b820191906000526020600020905b815481529060010190602001808311610c8857829003601f168201915b5050505050815260200160048201805480602002602001604051908101604052809291908181526020018280548015610cfd57602002820191906000526020600020905b815481526020019060010190808311610ce9575b505050505081525050905090565b60405180610100016040528060001515815260200160008152602001600073ffffffffffffffffffffffffffffffffffffffff1681526020016000151581526020016000151581526020016000815260200160008152602001606081525090565b6040518060a00160405280600015158152602001600081526020016000815260200160608152602001606081525090565b828054600181600116156101000203166002900490600052602060002090601f016020900481019282601f10610dde57805160ff1916838001178555610e0c565b82800160010185558215610e0c579182015b82811115610e0b578251825591602001919060010190610df0565b5b509050610e199190610e6a565b5090565b828054828255906000526020600020908101928215610e59579160200282015b82811115610e58578251825591602001919060010190610e3d565b5b509050610e669190610e6a565b5090565b610e8c91905b80821115610e88576000816000905550600101610e70565b5090565b90565b600081359050610e9e816117e5565b92915050565b600081359050610eb3816117fc565b92915050565b600082601f830112610eca57600080fd5b8135610edd610ed88261167f565b611652565b91508082526020830160208301858383011115610ef957600080fd5b610f04838284611792565b50505092915050565b600081359050610f1c81611813565b92915050565b600060208284031215610f3457600080fd5b6000610f4284828501610e8f565b91505092915050565b600080600080600060a08688031215610f6357600080fd5b6000610f7188828901610ea4565b9550506020610f8288828901610ea4565b9450506040610f9388828901610f0d565b9350506060610fa488828901610f0d565b925050608086013567ffffffffffffffff811115610fc157600080fd5b610fcd88828901610eb9565b9150509295509295909350565b600060208284031215610fec57600080fd5b6000610ffa84828501610f0d565b91505092915050565b60008060006060848603121561101857600080fd5b600061102686828701610f0d565b935050602061103786828701610f0d565b925050604084013567ffffffffffffffff81111561105457600080fd5b61106086828701610eb9565b9150509250925092565b6000611076838361144b565b60208301905092915050565b61108b8161174a565b82525050565b61109a8161174a565b82525050565b60006110ab826116d6565b6110b58185611717565b93506110c0836116bb565b8060005b838110156110f15781516110d8888261106a565b97506110e3836116f9565b9250506001810190506110c4565b5085935050505092915050565b6000611109826116cb565b6111138185611706565b935061111e836116ab565b8060005b8381101561114f578151611136888261106a565b9750611141836116ec565b925050600181019050611122565b5085935050505092915050565b6111658161175c565b82525050565b6111748161175c565b82525050565b6000611185826116e1565b61118f8185611728565b935061119f8185602086016117a1565b6111a8816117d4565b840191505092915050565b60006111be826116e1565b6111c88185611739565b93506111d88185602086016117a1565b6111e1816117d4565b840191505092915050565b60006111f9602583611739565b91507f4d617820726567697374657265642070656f706c6520666f722074686973204860008301527f6f7573652e0000000000000000000000000000000000000000000000000000006020830152604082019050919050565b600061125f602e83611739565b91507f5468657265206973206e6f20686f757365207265676973746572656420666f7260008301527f207468697320616464726573732e0000000000000000000000000000000000006020830152604082019050919050565b60006112c5602c83611739565b91507f5468697320616464726573732068617320616c7265616479207265676973746560008301527f726564206120686f7573652e00000000000000000000000000000000000000006020830152604082019050919050565b600060a083016000830151611336600086018261115c565b506020830151611349602086018261144b565b50604083015161135c604086018261144b565b5060608301518482036060860152611374828261117a565b9150506080830151848203608086015261138e82826110fe565b9150508091505092915050565b6000610100830160008301516113b4600086018261115c565b5060208301516113c7602086018261144b565b5060408301516113da6040860182611082565b5060608301516113ed606086018261115c565b506080830151611400608086018261115c565b5060a083015161141360a086018261144b565b5060c083015161142660c086018261144b565b5060e083015184820360e086015261143e828261117a565b9150508091505092915050565b61145481611788565b82525050565b61146381611788565b82525050565b600060208201905061147e6000830184611091565b92915050565b60006101008201905061149a600083018b61116b565b6114a7602083018a61145a565b6114b46040830189611091565b6114c1606083018861116b565b6114ce608083018761116b565b6114db60a083018661145a565b6114e860c083018561145a565b81810360e08301526114fa81846111b3565b90509998505050505050505050565b600060808201905061151e600083018761116b565b61152b602083018661145a565b611538604083018561145a565b818103606083015261154a81846111b3565b905095945050505050565b6000602082019050818103600083015261156e816111ec565b9050919050565b6000602082019050818103600083015261158e81611252565b9050919050565b600060208201905081810360008301526115ae816112b8565b9050919050565b600060208201905081810360008301526115cf818461131e565b905092915050565b600060208201905081810360008301526115f1818461139b565b905092915050565b600060208201905061160e600083018461145a565b92915050565b6000606082019050611629600083018661145a565b611636602083018561145a565b818103604083015261164881846110a0565b9050949350505050565b6000604051905081810181811067ffffffffffffffff8211171561167557600080fd5b8060405250919050565b600067ffffffffffffffff82111561169657600080fd5b601f19601f8301169050602081019050919050565b6000819050602082019050919050565b6000819050602082019050919050565b600081519050919050565b600081519050919050565b600081519050919050565b6000602082019050919050565b6000602082019050919050565b600082825260208201905092915050565b600082825260208201905092915050565b600082825260208201905092915050565b600082825260208201905092915050565b600061175582611768565b9050919050565b60008115159050919050565b600073ffffffffffffffffffffffffffffffffffffffff82169050919050565b6000819050919050565b82818337600083830152505050565b60005b838110156117bf5780820151818401526020810190506117a4565b838111156117ce576000848401525b50505050565b6000601f19601f8301169050919050565b6117ee8161174a565b81146117f957600080fd5b50565b6118058161175c565b811461181057600080fd5b50565b61181c81611788565b811461182757600080fd5b5056fea365627a7a723158200b7df1e12ebcbd72619e34e4181e9b6fb1479f88c038dd2a95dbcc603d5c44f86c6578706572696d656e74616cf564736f6c63430005100040",
  "source": "pragma solidity ^0.5.0;\r\npragma experimental ABIEncoderV2;\r\n\r\ncontract Census {\r\n    \r\n    // ORACLE: MASTER ADDRESS FILE\r\n    // a token is created for every address on file\r\n    // this token is used as a one-time verification\r\n    // verifyToken function will verify token is valid\r\n    // once verified, will grant address permission to\r\n    // complete Census.\r\n    // Number of tokens generated will coincide with total\r\n    // verified address and token cannot be traced to address\r\n    \r\n    \r\n    // Initialize contract owner\r\n    address public owner;\r\n\r\n    // Global counter for Person struct ID\r\n    uint public personCount;\r\n    // Global counter for House count\r\n    uint public houseCount;\r\n\r\n    // House struct\r\n    struct House {\r\n        bool registered;\r\n        uint maxResidents;\r\n        uint extraResidents;\r\n        string houseType; // House, Apartment, Mobile Home\r\n        uint[] residentList;\r\n    }\r\n\r\n    // Person struct\r\n    struct Person {\r\n        bool registered;\r\n        uint id; // peopleCount\r\n        address home; // msg.sender NECESSARY? (home can be assumed from address of transaction)\r\n        bool isMale;\r\n        bool isHispanic;\r\n        uint age;\r\n        uint birthDate; // MMDDYYYY\r\n        string race;\r\n    }\r\n    \r\n\r\n    // stores index of 'Houses' struct by address\r\n    mapping(address => House) public houses;\r\n\r\n    // stores a 'Person' struct as index id\r\n    mapping(uint => Person) public people;\r\n\r\n    event houseAddedEvent (\r\n    uint indexed _maxResidents,\r\n    uint indexed _extraResidents\r\n    );\r\n\r\n    // Initialized at contract creation\r\n    constructor() public {\r\n        // Contract owner\r\n        owner = msg.sender;\r\n        personCount = 0;\r\n        houseCount = 0;\r\n    }\r\n\r\n    // function verifyTokenOracle(bytes32 _key) private returns (bool) {\r\n        \r\n    // }\r\n\r\n    function addHouse(uint _maxResidents, uint _extraResidents, string memory _housetype) public {\r\n        \r\n        // Ensure house is not already registered for address\r\n        require(houses[msg.sender].registered == false, \"This address has already registered a house.\");\r\n\r\n        // Initialize empty residentList array\r\n        uint[] memory emptyList = new uint[](0);\r\n        \r\n        // Create new house struct\r\n        House memory newhouse = House(true, _maxResidents, _extraResidents, _housetype, emptyList);\r\n\r\n        houses[msg.sender] = newhouse;\r\n\r\n        // Increase global house count\r\n        houseCount++;\r\n\r\n        emit houseAddedEvent(_maxResidents, _extraResidents);\r\n    }\r\n\r\n\r\n    function addPerson(bool _ismale, bool _ishispanic, uint _age, uint _birthdate, string memory _race) public {\r\n\r\n        House storage currentHouse = houses[msg.sender];\r\n\r\n        // Ensure house for address exists before adding\r\n        require(currentHouse.registered == true, \"There is no house registered for this address.\");\r\n        \r\n        // Require house of address to have resident count within range\r\n        require(currentHouse.residentList.length < currentHouse.maxResidents, \"Max registered people for this House.\");\r\n\r\n        Person memory newPerson =  Person(true, personCount, msg.sender, _ismale, _ishispanic, _age, _birthdate, _race);\r\n        people[personCount] = newPerson;\r\n\r\n        // Add person ID to house residentList\r\n        houses[msg.sender].residentList.push(personCount);\r\n        \r\n        // Increase global person count (iD)\r\n        personCount++;\r\n    }\r\n    \r\n    function getResident(uint _index) public view returns (Person memory ppls) {\r\n        return people[_index];\r\n    }\r\n\r\n    function getHouse() public view returns (uint x, uint y, uint[] memory z) {\r\n        \r\n        House storage thisHouse = houses[msg.sender];\r\n\r\n        uint resiNum = thisHouse.maxResidents;\r\n        uint resiAdd = thisHouse.maxResidents;          \r\n        uint[] memory resiList = thisHouse.residentList;\r\n\r\n        return (resiNum, resiAdd, resiList);\r\n    }\r\n\r\n    function getHouseCount() public view returns(uint x) {\r\n        return (houseCount);\r\n    }\r\n\r\n    function getArr() public view returns(House memory h) {\r\n        return houses[msg.sender];\r\n    }\r\n\r\n    // // DEBUG TEST STUFF\r\n    // function returnBool(uint number) public view returns (bool) {\r\n    //     if (number > 9000) {\r\n    //         return true;\r\n    //     }\r\n    //     else {\r\n    //         return false;\r\n    //     }\r\n    // }\r\n\r\n    // function returnOver9000(uint number) public view returns (bool) {\r\n    //     if (returnBool(number) == true) {\r\n    //         return true;\r\n    //     }\r\n    //     else {\r\n    //         return false;\r\n    //     }\r\n    // }\r\n}",
  "sourcePath": "C:\\Users\\Jerrbear\\Desktop\\solidity\\census\\contracts\\Census.sol",
  "compiler": {
    "name": "solc",
    "version": "0.5.16+commit.9c3226ce.Emscripten.clang"
  },
  "schemaVersion": "3.0.23",
  "updatedAt": "2020-03-18T14:07:00.501Z",
  "devdoc": {
    "methods": {}
  },
  "userdoc": {
    "methods": {}
  }
}