{
  "contractName": "Census",
  "abi": [
    {
      "inputs": [],
      "payable": false,
      "stateMutability": "nonpayable",
      "type": "constructor"
    },
    {
      "anonymous": false,
      "inputs": [
        {
          "indexed": true,
          "internalType": "uint256",
          "name": "_maxResidents",
          "type": "uint256"
        },
        {
          "indexed": true,
          "internalType": "uint256",
          "name": "_extraResidents",
          "type": "uint256"
        },
        {
          "indexed": true,
          "internalType": "string",
          "name": "_housetype",
          "type": "string"
        }
      ],
      "name": "houseAddedEvent",
      "type": "event"
    },
    {
      "constant": true,
      "inputs": [],
      "name": "houseCount",
      "outputs": [
        {
          "internalType": "uint256",
          "name": "",
          "type": "uint256"
        }
      ],
      "payable": false,
      "stateMutability": "view",
      "type": "function"
    },
    {
      "constant": true,
      "inputs": [
        {
          "internalType": "address",
          "name": "",
          "type": "address"
        }
      ],
      "name": "houses",
      "outputs": [
        {
          "internalType": "bool",
          "name": "registered",
          "type": "bool"
        },
        {
          "internalType": "uint256",
          "name": "maxResidents",
          "type": "uint256"
        },
        {
          "internalType": "uint256",
          "name": "extraResidents",
          "type": "uint256"
        },
        {
          "internalType": "string",
          "name": "houseType",
          "type": "string"
        }
      ],
      "payable": false,
      "stateMutability": "view",
      "type": "function"
    },
    {
      "constant": true,
      "inputs": [],
      "name": "owner",
      "outputs": [
        {
          "internalType": "address",
          "name": "",
          "type": "address"
        }
      ],
      "payable": false,
      "stateMutability": "view",
      "type": "function"
    },
    {
      "constant": true,
      "inputs": [
        {
          "internalType": "uint256",
          "name": "",
          "type": "uint256"
        }
      ],
      "name": "people",
      "outputs": [
        {
          "internalType": "bool",
          "name": "registered",
          "type": "bool"
        },
        {
          "internalType": "uint256",
          "name": "id",
          "type": "uint256"
        },
        {
          "internalType": "address",
          "name": "home",
          "type": "address"
        },
        {
          "internalType": "bool",
          "name": "isMale",
          "type": "bool"
        },
        {
          "internalType": "bool",
          "name": "isHispanic",
          "type": "bool"
        },
        {
          "internalType": "uint256",
          "name": "age",
          "type": "uint256"
        },
        {
          "internalType": "uint256",
          "name": "birthDate",
          "type": "uint256"
        },
        {
          "internalType": "string",
          "name": "race",
          "type": "string"
        }
      ],
      "payable": false,
      "stateMutability": "view",
      "type": "function"
    },
    {
      "constant": true,
      "inputs": [],
      "name": "personCount",
      "outputs": [
        {
          "internalType": "uint256",
          "name": "",
          "type": "uint256"
        }
      ],
      "payable": false,
      "stateMutability": "view",
      "type": "function"
    },
    {
      "constant": false,
      "inputs": [
        {
          "internalType": "uint256",
          "name": "_maxResidents",
          "type": "uint256"
        },
        {
          "internalType": "uint256",
          "name": "_extraResidents",
          "type": "uint256"
        },
        {
          "internalType": "string",
          "name": "_housetype",
          "type": "string"
        }
      ],
      "name": "addHouse",
      "outputs": [],
      "payable": false,
      "stateMutability": "nonpayable",
      "type": "function"
    },
    {
      "constant": false,
      "inputs": [
        {
          "internalType": "bool",
          "name": "_ismale",
          "type": "bool"
        },
        {
          "internalType": "bool",
          "name": "_ishispanic",
          "type": "bool"
        },
        {
          "internalType": "uint256",
          "name": "_age",
          "type": "uint256"
        },
        {
          "internalType": "uint256",
          "name": "_birthdate",
          "type": "uint256"
        },
        {
          "internalType": "string",
          "name": "_race",
          "type": "string"
        }
      ],
      "name": "addPerson",
      "outputs": [],
      "payable": false,
      "stateMutability": "nonpayable",
      "type": "function"
    },
    {
      "constant": true,
      "inputs": [
        {
          "internalType": "uint256",
          "name": "_index",
          "type": "uint256"
        }
      ],
      "name": "getResident",
      "outputs": [
        {
          "components": [
            {
              "internalType": "bool",
              "name": "registered",
              "type": "bool"
            },
            {
              "internalType": "uint256",
              "name": "id",
              "type": "uint256"
            },
            {
              "internalType": "address",
              "name": "home",
              "type": "address"
            },
            {
              "internalType": "bool",
              "name": "isMale",
              "type": "bool"
            },
            {
              "internalType": "bool",
              "name": "isHispanic",
              "type": "bool"
            },
            {
              "internalType": "uint256",
              "name": "age",
              "type": "uint256"
            },
            {
              "internalType": "uint256",
              "name": "birthDate",
              "type": "uint256"
            },
            {
              "internalType": "string",
              "name": "race",
              "type": "string"
            }
          ],
          "internalType": "struct Census.Person",
          "name": "ppls",
          "type": "tuple"
        }
      ],
      "payable": false,
      "stateMutability": "view",
      "type": "function"
    },
    {
      "constant": true,
      "inputs": [],
      "name": "getResidentList",
      "outputs": [
        {
          "internalType": "uint256",
          "name": "num",
          "type": "uint256"
        }
      ],
      "payable": false,
      "stateMutability": "view",
      "type": "function"
    }
  ],
  "bytecode": "0x608060405234801561001057600080fd5b50336000806101000a81548173ffffffffffffffffffffffffffffffffffffffff021916908373ffffffffffffffffffffffffffffffffffffffff1602179055506000600181905550600060028190555061147d806100706000396000f3fe608060405234801561001057600080fd5b50600436106100935760003560e01c80639e7a13ad116100665780639e7a13ad14610125578063bd74f8b11461015c578063dd82ce031461017a578063e2b0966c146101aa578063f885fe4f146101c657610093565b80636e5ddf581461009857806378495bf8146100b65780637abb3d1b146100d45780638da5cb5b14610107575b600080fd5b6100a06101e2565b6040516100ad91906112a3565b60405180910390f35b6100be610242565b6040516100cb91906112a3565b60405180910390f35b6100ee60048036036100e99190810190610cf7565b610248565b6040516100fe94939291906111d5565b60405180910390f35b61010f61031d565b60405161011c9190611135565b60405180910390f35b61013f600480360361013a9190810190610daf565b610342565b604051610153989796959493929190611150565b60405180910390f35b610164610469565b60405161017191906112a3565b60405180910390f35b610194600480360361018f9190810190610daf565b61046f565b6040516101a19190611281565b60405180910390f35b6101c460048036036101bf9190810190610dd8565b610604565b005b6101e060048036036101db9190810190610d20565b610811565b005b6000600360003373ffffffffffffffffffffffffffffffffffffffff1673ffffffffffffffffffffffffffffffffffffffff16815260200190815260200160002060040160018154811061023257fe5b9060005260206000200154905090565b60015481565b60036020528060005260406000206000915090508060000160009054906101000a900460ff1690806001015490806002015490806003018054600181600116156101000203166002900480601f0160208091040260200160405190810160405280929190818152602001828054600181600116156101000203166002900480156103135780601f106102e857610100808354040283529160200191610313565b820191906000526020600020905b8154815290600101906020018083116102f657829003601f168201915b5050505050905084565b6000809054906101000a900473ffffffffffffffffffffffffffffffffffffffff1681565b60046020528060005260406000206000915090508060000160009054906101000a900460ff16908060010154908060020160009054906101000a900473ffffffffffffffffffffffffffffffffffffffff16908060020160149054906101000a900460ff16908060020160159054906101000a900460ff1690806003015490806004015490806005018054600181600116156101000203166002900480601f01602080910402602001604051908101604052809291908181526020018280546001816001161561010002031660029004801561045f5780601f106104345761010080835404028352916020019161045f565b820191906000526020600020905b81548152906001019060200180831161044257829003601f168201915b5050505050905088565b60025481565b610477610ae0565b60046000838152602001908152602001600020604051806101000160405290816000820160009054906101000a900460ff16151515158152602001600182015481526020016002820160009054906101000a900473ffffffffffffffffffffffffffffffffffffffff1673ffffffffffffffffffffffffffffffffffffffff1673ffffffffffffffffffffffffffffffffffffffff1681526020016002820160149054906101000a900460ff161515151581526020016002820160159054906101000a900460ff161515151581526020016003820154815260200160048201548152602001600582018054600181600116156101000203166002900480601f0160208091040260200160405190810160405280929190818152602001828054600181600116156101000203166002900480156105f45780601f106105c9576101008083540402835291602001916105f4565b820191906000526020600020905b8154815290600101906020018083116105d757829003601f168201915b5050505050815250509050919050565b60001515600360003373ffffffffffffffffffffffffffffffffffffffff1673ffffffffffffffffffffffffffffffffffffffff16815260200190815260200160002060000160009054906101000a900460ff1615151461069a576040517f08c379a000000000000000000000000000000000000000000000000000000000815260040161069190611261565b60405180910390fd5b606060006040519080825280602002602001820160405280156106cc5781602001602082028038833980820191505090505b5090506106d7610b41565b6040518060a0016040528060011515815260200186815260200185815260200184815260200183815250905080600360003373ffffffffffffffffffffffffffffffffffffffff1673ffffffffffffffffffffffffffffffffffffffff16815260200190815260200160002060008201518160000160006101000a81548160ff02191690831515021790555060208201518160010155604082015181600201556060820151816003019080519060200190610793929190610b72565b5060808201518160040190805190602001906107b0929190610bf2565b50905050600260008154809291906001019190505550826040516107d4919061111e565b604051809103902084867fa5c5b3c988959385ca81b0d504f29a0dd245b898621b0a53b037e1d8cf36607f60405160405180910390a45050505050565b6000600360003373ffffffffffffffffffffffffffffffffffffffff1673ffffffffffffffffffffffffffffffffffffffff1681526020019081526020016000209050600115158160000160009054906101000a900460ff161515146108ac576040517f08c379a00000000000000000000000000000000000000000000000000000000081526004016108a390611241565b60405180910390fd5b80600101548160040180549050106108f9576040517f08c379a00000000000000000000000000000000000000000000000000000000081526004016108f090611221565b60405180910390fd5b610901610ae0565b60405180610100016040528060011515815260200160015481526020013373ffffffffffffffffffffffffffffffffffffffff168152602001881515815260200187151581526020018681526020018581526020018481525090508060046000600154815260200190815260200160002060008201518160000160006101000a81548160ff0219169083151502179055506020820151816001015560408201518160020160006101000a81548173ffffffffffffffffffffffffffffffffffffffff021916908373ffffffffffffffffffffffffffffffffffffffff16021790555060608201518160020160146101000a81548160ff02191690831515021790555060808201518160020160156101000a81548160ff02191690831515021790555060a0820151816003015560c0820151816004015560e0820151816005019080519060200190610a53929190610b72565b50905050600360003373ffffffffffffffffffffffffffffffffffffffff1673ffffffffffffffffffffffffffffffffffffffff168152602001908152602001600020600401600154908060018154018082558091505090600182039060005260206000200160009091929091909150555060016000815480929190600101919050555050505050505050565b60405180610100016040528060001515815260200160008152602001600073ffffffffffffffffffffffffffffffffffffffff1681526020016000151581526020016000151581526020016000815260200160008152602001606081525090565b6040518060a00160405280600015158152602001600081526020016000815260200160608152602001606081525090565b828054600181600116156101000203166002900490600052602060002090601f016020900481019282601f10610bb357805160ff1916838001178555610be1565b82800160010185558215610be1579182015b82811115610be0578251825591602001919060010190610bc5565b5b509050610bee9190610c3f565b5090565b828054828255906000526020600020908101928215610c2e579160200282015b82811115610c2d578251825591602001919060010190610c12565b5b509050610c3b9190610c3f565b5090565b610c6191905b80821115610c5d576000816000905550600101610c45565b5090565b90565b600081359050610c73816113f5565b92915050565b600081359050610c888161140c565b92915050565b600082601f830112610c9f57600080fd5b8135610cb2610cad826112eb565b6112be565b91508082526020830160208301858383011115610cce57600080fd5b610cd98382846113a2565b50505092915050565b600081359050610cf181611423565b92915050565b600060208284031215610d0957600080fd5b6000610d1784828501610c64565b91505092915050565b600080600080600060a08688031215610d3857600080fd5b6000610d4688828901610c79565b9550506020610d5788828901610c79565b9450506040610d6888828901610ce2565b9350506060610d7988828901610ce2565b925050608086013567ffffffffffffffff811115610d9657600080fd5b610da288828901610c8e565b9150509295509295909350565b600060208284031215610dc157600080fd5b6000610dcf84828501610ce2565b91505092915050565b600080600060608486031215610ded57600080fd5b6000610dfb86828701610ce2565b9350506020610e0c86828701610ce2565b925050604084013567ffffffffffffffff811115610e2957600080fd5b610e3586828701610c8e565b9150509250925092565b610e488161135a565b82525050565b610e578161135a565b82525050565b610e668161136c565b82525050565b610e758161136c565b82525050565b6000610e8682611322565b610e90818561134f565b9350610ea08185602086016113b1565b80840191505092915050565b6000610eb782611317565b610ec1818561132d565b9350610ed18185602086016113b1565b610eda816113e4565b840191505092915050565b6000610ef082611317565b610efa818561133e565b9350610f0a8185602086016113b1565b610f13816113e4565b840191505092915050565b6000610f2b60258361133e565b91507f4d617820726567697374657265642070656f706c6520666f722074686973204860008301527f6f7573652e0000000000000000000000000000000000000000000000000000006020830152604082019050919050565b6000610f91602e8361133e565b91507f5468657265206973206e6f20686f757365207265676973746572656420666f7260008301527f207468697320616464726573732e0000000000000000000000000000000000006020830152604082019050919050565b6000610ff7602c8361133e565b91507f5468697320616464726573732068617320616c7265616479207265676973746560008301527f726564206120686f7573652e00000000000000000000000000000000000000006020830152604082019050919050565b6000610100830160008301516110696000860182610e5d565b50602083015161107c6020860182611100565b50604083015161108f6040860182610e3f565b5060608301516110a26060860182610e5d565b5060808301516110b56080860182610e5d565b5060a08301516110c860a0860182611100565b5060c08301516110db60c0860182611100565b5060e083015184820360e08601526110f38282610eac565b9150508091505092915050565b61110981611398565b82525050565b61111881611398565b82525050565b600061112a8284610e7b565b915081905092915050565b600060208201905061114a6000830184610e4e565b92915050565b600061010082019050611166600083018b610e6c565b611173602083018a61110f565b6111806040830189610e4e565b61118d6060830188610e6c565b61119a6080830187610e6c565b6111a760a083018661110f565b6111b460c083018561110f565b81810360e08301526111c68184610ee5565b90509998505050505050505050565b60006080820190506111ea6000830187610e6c565b6111f7602083018661110f565b611204604083018561110f565b81810360608301526112168184610ee5565b905095945050505050565b6000602082019050818103600083015261123a81610f1e565b9050919050565b6000602082019050818103600083015261125a81610f84565b9050919050565b6000602082019050818103600083015261127a81610fea565b9050919050565b6000602082019050818103600083015261129b8184611050565b905092915050565b60006020820190506112b8600083018461110f565b92915050565b6000604051905081810181811067ffffffffffffffff821117156112e157600080fd5b8060405250919050565b600067ffffffffffffffff82111561130257600080fd5b601f19601f8301169050602081019050919050565b600081519050919050565b600081519050919050565b600082825260208201905092915050565b600082825260208201905092915050565b600081905092915050565b600061136582611378565b9050919050565b60008115159050919050565b600073ffffffffffffffffffffffffffffffffffffffff82169050919050565b6000819050919050565b82818337600083830152505050565b60005b838110156113cf5780820151818401526020810190506113b4565b838111156113de576000848401525b50505050565b6000601f19601f8301169050919050565b6113fe8161135a565b811461140957600080fd5b50565b6114158161136c565b811461142057600080fd5b50565b61142c81611398565b811461143757600080fd5b5056fea365627a7a723158209eb1be8b1d39d836628ee0b6ef4a8079c4ffc7b5b923a89ef17daccf04fce1806c6578706572696d656e74616cf564736f6c63430005100040",
  "source": "pragma solidity ^0.5.0;\r\npragma experimental ABIEncoderV2;\r\n\r\ncontract Census {\r\n    \r\n    // ORACLE: MASTER ADDRESS FILE\r\n    // a token is created for every address on file\r\n    // this token is used as a one-time verification\r\n    // verifyToken function will verify token is valid\r\n    // once verified, will grant address permission to\r\n    // complete Census.\r\n    // Number of tokens generated will coincide with total\r\n    // verified address and token cannot be traced to address\r\n    \r\n    \r\n    // Initialize contract owner\r\n    address public owner;\r\n\r\n    // Global counter for Person struct ID\r\n    uint public personCount;\r\n    // Global counter for House count\r\n    uint public houseCount;\r\n\r\n\r\n    // House struct\r\n    struct House {\r\n        bool registered;\r\n        uint maxResidents;\r\n        uint extraResidents;\r\n        string houseType; // House, Apartment, Mobile Home\r\n        uint[] residentList;\r\n    }\r\n\r\n    // Person struct\r\n    struct Person {\r\n        bool registered;\r\n        uint id; // peopleCount\r\n        address home; // msg.sender NECESSARY? (home can be assumed from address of transaction)\r\n        bool isMale;\r\n        bool isHispanic;\r\n        uint age;\r\n        uint birthDate; // MMDDYYYY\r\n        string race;\r\n    }\r\n    \r\n\r\n    // stores index of 'Houses' struct by address\r\n    mapping(address => House) public houses;\r\n\r\n    // stores a 'Person' struct as index id\r\n    mapping(uint => Person) public people;\r\n\r\n    event houseAddedEvent (\r\n    uint indexed _maxResidents,\r\n    uint indexed _extraResidents,\r\n    string indexed _housetype\r\n    );\r\n\r\n    // Initialized at contract creation\r\n    constructor() public {\r\n        // Contract owner\r\n        owner = msg.sender;\r\n        personCount = 0;\r\n        houseCount = 0;\r\n    }\r\n\r\n    function verifyTokenOracle(bytes32 _key) private returns (bool) {\r\n        \r\n    }\r\n\r\n    function addHouse(uint _maxResidents, uint _extraResidents, string memory _housetype) public {\r\n        \r\n        // Ensure house is not already registered for address\r\n        require(houses[msg.sender].registered == false, \"This address has already registered a house.\");\r\n\r\n        // Initialize empty residentList array\r\n        uint[] memory emptyList = new uint[](0);\r\n        \r\n        // Create new house struct\r\n        House memory newhouse = House(true, _maxResidents, _extraResidents, _housetype, emptyList);\r\n\r\n        houses[msg.sender] = newhouse;\r\n\r\n        // Increase global house count\r\n        houseCount++;\r\n\r\n        emit houseAddedEvent(_maxResidents, _extraResidents, _housetype);\r\n    }\r\n\r\n\r\n    function addPerson(bool _ismale, bool _ishispanic, uint _age, uint _birthdate, string memory _race) public {\r\n\r\n        House storage currentHouse = houses[msg.sender];\r\n\r\n        // Ensure house for address exists before adding\r\n        require(currentHouse.registered == true, \"There is no house registered for this address.\");\r\n        \r\n        // Require house of address to have resident count within range\r\n        require(currentHouse.residentList.length < currentHouse.maxResidents, \"Max registered people for this House.\");\r\n\r\n        Person memory newPerson =  Person(true, personCount, msg.sender, _ismale, _ishispanic, _age, _birthdate, _race);\r\n        people[personCount] = newPerson;\r\n\r\n        // Add person ID to house residentList\r\n        houses[msg.sender].residentList.push(personCount);\r\n        \r\n        // Increase global person count (iD)\r\n        personCount++;\r\n    }\r\n    \r\n    function getResident(uint _index) public view returns (Person memory ppls) {\r\n        return people[_index];\r\n    }\r\n\r\n    function getResidentList() public view returns (uint num) {\r\n        \r\n        return houses[msg.sender].residentList[1];\r\n    }\r\n\r\n    // / / DEBUG TEST STUFF\r\n    // function returnBool(uint number) public view returns (bool) {\r\n    //     if (number > 9000) {\r\n    //         return true;\r\n    //     }\r\n    //     else {\r\n    //         return false;\r\n    //     }\r\n    // }\r\n\r\n    // function returnOver9000(uint number) public view returns (bool) {\r\n    //     if (returnBool(number) == true) {\r\n    //         return true;\r\n    //     }\r\n    //     else {\r\n    //         return false;\r\n    //     }\r\n    // }\r\n}",
  "sourcePath": "C:\\Users\\Jerrbear\\Desktop\\solidity\\census\\contracts\\Census.sol",
  "compiler": {
    "name": "solc",
    "version": "0.5.16+commit.9c3226ce.Emscripten.clang"
  },
  "schemaVersion": "3.0.23",
  "updatedAt": "2020-03-17T23:47:37.593Z",
  "devdoc": {
    "methods": {}
  },
  "userdoc": {
    "methods": {}
  }
}