{
  "contractName": "Census",
  "abi": [
    {
      "inputs": [],
      "payable": false,
      "stateMutability": "nonpayable",
      "type": "constructor"
    },
    {
      "anonymous": false,
      "inputs": [
        {
          "indexed": true,
          "internalType": "uint256",
          "name": "_maxResidents",
          "type": "uint256"
        },
        {
          "indexed": true,
          "internalType": "uint256",
          "name": "_extraResidents",
          "type": "uint256"
        },
        {
          "indexed": true,
          "internalType": "string",
          "name": "_housetype",
          "type": "string"
        }
      ],
      "name": "houseAddedEvent",
      "type": "event"
    },
    {
      "constant": true,
      "inputs": [],
      "name": "houseCount",
      "outputs": [
        {
          "internalType": "uint256",
          "name": "",
          "type": "uint256"
        }
      ],
      "payable": false,
      "stateMutability": "view",
      "type": "function"
    },
    {
      "constant": true,
      "inputs": [
        {
          "internalType": "address",
          "name": "",
          "type": "address"
        }
      ],
      "name": "houses",
      "outputs": [
        {
          "internalType": "bool",
          "name": "registered",
          "type": "bool"
        },
        {
          "internalType": "uint256",
          "name": "maxResidents",
          "type": "uint256"
        },
        {
          "internalType": "uint256",
          "name": "extraResidents",
          "type": "uint256"
        },
        {
          "internalType": "string",
          "name": "houseType",
          "type": "string"
        }
      ],
      "payable": false,
      "stateMutability": "view",
      "type": "function"
    },
    {
      "constant": true,
      "inputs": [],
      "name": "owner",
      "outputs": [
        {
          "internalType": "address",
          "name": "",
          "type": "address"
        }
      ],
      "payable": false,
      "stateMutability": "view",
      "type": "function"
    },
    {
      "constant": true,
      "inputs": [
        {
          "internalType": "uint256",
          "name": "",
          "type": "uint256"
        }
      ],
      "name": "people",
      "outputs": [
        {
          "internalType": "bool",
          "name": "registered",
          "type": "bool"
        },
        {
          "internalType": "uint256",
          "name": "id",
          "type": "uint256"
        },
        {
          "internalType": "address",
          "name": "home",
          "type": "address"
        },
        {
          "internalType": "bool",
          "name": "isMale",
          "type": "bool"
        },
        {
          "internalType": "bool",
          "name": "isHispanic",
          "type": "bool"
        },
        {
          "internalType": "uint256",
          "name": "age",
          "type": "uint256"
        },
        {
          "internalType": "uint256",
          "name": "birthDate",
          "type": "uint256"
        },
        {
          "internalType": "string",
          "name": "race",
          "type": "string"
        }
      ],
      "payable": false,
      "stateMutability": "view",
      "type": "function"
    },
    {
      "constant": true,
      "inputs": [],
      "name": "personCount",
      "outputs": [
        {
          "internalType": "uint256",
          "name": "",
          "type": "uint256"
        }
      ],
      "payable": false,
      "stateMutability": "view",
      "type": "function"
    },
    {
      "constant": false,
      "inputs": [
        {
          "internalType": "uint256",
          "name": "_maxResidents",
          "type": "uint256"
        },
        {
          "internalType": "uint256",
          "name": "_extraResidents",
          "type": "uint256"
        },
        {
          "internalType": "string",
          "name": "_housetype",
          "type": "string"
        }
      ],
      "name": "addHouse",
      "outputs": [],
      "payable": false,
      "stateMutability": "nonpayable",
      "type": "function"
    },
    {
      "constant": false,
      "inputs": [
        {
          "internalType": "bool",
          "name": "_ismale",
          "type": "bool"
        },
        {
          "internalType": "bool",
          "name": "_ishispanic",
          "type": "bool"
        },
        {
          "internalType": "uint256",
          "name": "_age",
          "type": "uint256"
        },
        {
          "internalType": "uint256",
          "name": "_birthdate",
          "type": "uint256"
        },
        {
          "internalType": "string",
          "name": "_race",
          "type": "string"
        }
      ],
      "name": "addPerson",
      "outputs": [],
      "payable": false,
      "stateMutability": "nonpayable",
      "type": "function"
    },
    {
      "constant": true,
      "inputs": [
        {
          "internalType": "uint256",
          "name": "_index",
          "type": "uint256"
        }
      ],
      "name": "getResident",
      "outputs": [
        {
          "components": [
            {
              "internalType": "bool",
              "name": "registered",
              "type": "bool"
            },
            {
              "internalType": "uint256",
              "name": "id",
              "type": "uint256"
            },
            {
              "internalType": "address",
              "name": "home",
              "type": "address"
            },
            {
              "internalType": "bool",
              "name": "isMale",
              "type": "bool"
            },
            {
              "internalType": "bool",
              "name": "isHispanic",
              "type": "bool"
            },
            {
              "internalType": "uint256",
              "name": "age",
              "type": "uint256"
            },
            {
              "internalType": "uint256",
              "name": "birthDate",
              "type": "uint256"
            },
            {
              "internalType": "string",
              "name": "race",
              "type": "string"
            }
          ],
          "internalType": "struct Census.Person",
          "name": "ppls",
          "type": "tuple"
        }
      ],
      "payable": false,
      "stateMutability": "view",
      "type": "function"
    },
    {
      "constant": true,
      "inputs": [],
      "name": "getMyArray",
      "outputs": [
        {
          "internalType": "int256[5]",
          "name": "",
          "type": "int256[5]"
        }
      ],
      "payable": false,
      "stateMutability": "view",
      "type": "function"
    }
  ],
  "bytecode": "0x60806040523480156200001157600080fd5b5033600560006101000a81548173ffffffffffffffffffffffffffffffffffffffff021916908373ffffffffffffffffffffffffffffffffffffffff160217905550600060068190555060006007819055506040518060a001604052806000815260200160018152602001600281526020016003815260200160048152506000906005620000a1929190620000a8565b5062000115565b8260058101928215620000da579160200282015b82811115620000d9578251825591602001919060010190620000bc565b5b509050620000e99190620000ed565b5090565b6200011291905b808211156200010e576000816000905550600101620000f4565b5090565b90565b61155b80620001256000396000f3fe608060405234801561001057600080fd5b50600436106100935760003560e01c80639e7a13ad116100665780639e7a13ad14610125578063bd74f8b11461015c578063dd82ce031461017a578063e2b0966c146101aa578063f885fe4f146101c657610093565b80634e43600e1461009857806378495bf8146100b65780637abb3d1b146100d45780638da5cb5b14610107575b600080fd5b6100a06101e2565b6040516100ad91906111dc565b60405180910390f35b6100be61022d565b6040516100cb919061134a565b60405180910390f35b6100ee60048036036100e99190810190610d05565b610233565b6040516100fe949392919061127c565b60405180910390f35b61010f610308565b60405161011c91906111c1565b60405180910390f35b61013f600480360361013a9190810190610dbd565b61032e565b6040516101539897969594939291906111f7565b60405180910390f35b610164610455565b604051610171919061134a565b60405180910390f35b610194600480360361018f9190810190610dbd565b61045b565b6040516101a19190611328565b60405180910390f35b6101c460048036036101bf9190810190610de6565b6105f0565b005b6101e060048036036101db9190810190610d2e565b6107fd565b005b6101ea610acc565b6000600580602002604051908101604052809291908260058015610223576020028201915b81548152602001906001019080831161020f575b5050505050905090565b60065481565b60086020528060005260406000206000915090508060000160009054906101000a900460ff1690806001015490806002015490806003018054600181600116156101000203166002900480601f0160208091040260200160405190810160405280929190818152602001828054600181600116156101000203166002900480156102fe5780601f106102d3576101008083540402835291602001916102fe565b820191906000526020600020905b8154815290600101906020018083116102e157829003601f168201915b5050505050905084565b600560009054906101000a900473ffffffffffffffffffffffffffffffffffffffff1681565b60096020528060005260406000206000915090508060000160009054906101000a900460ff16908060010154908060020160009054906101000a900473ffffffffffffffffffffffffffffffffffffffff16908060020160149054906101000a900460ff16908060020160159054906101000a900460ff1690806003015490806004015490806005018054600181600116156101000203166002900480601f01602080910402602001604051908101604052809291908181526020018280546001816001161561010002031660029004801561044b5780601f106104205761010080835404028352916020019161044b565b820191906000526020600020905b81548152906001019060200180831161042e57829003601f168201915b5050505050905088565b60075481565b610463610aee565b60096000838152602001908152602001600020604051806101000160405290816000820160009054906101000a900460ff16151515158152602001600182015481526020016002820160009054906101000a900473ffffffffffffffffffffffffffffffffffffffff1673ffffffffffffffffffffffffffffffffffffffff1673ffffffffffffffffffffffffffffffffffffffff1681526020016002820160149054906101000a900460ff161515151581526020016002820160159054906101000a900460ff161515151581526020016003820154815260200160048201548152602001600582018054600181600116156101000203166002900480601f0160208091040260200160405190810160405280929190818152602001828054600181600116156101000203166002900480156105e05780601f106105b5576101008083540402835291602001916105e0565b820191906000526020600020905b8154815290600101906020018083116105c357829003601f168201915b5050505050815250509050919050565b60001515600860003373ffffffffffffffffffffffffffffffffffffffff1673ffffffffffffffffffffffffffffffffffffffff16815260200190815260200160002060000160009054906101000a900460ff16151514610686576040517f08c379a000000000000000000000000000000000000000000000000000000000815260040161067d90611308565b60405180910390fd5b606060006040519080825280602002602001820160405280156106b85781602001602082028038833980820191505090505b5090506106c3610b4f565b6040518060a0016040528060011515815260200186815260200185815260200184815260200183815250905080600860003373ffffffffffffffffffffffffffffffffffffffff1673ffffffffffffffffffffffffffffffffffffffff16815260200190815260200160002060008201518160000160006101000a81548160ff0219169083151502179055506020820151816001015560408201518160020155606082015181600301908051906020019061077f929190610b80565b50608082015181600401908051906020019061079c929190610c00565b50905050600760008154809291906001019190505550826040516107c091906111aa565b604051809103902084867fa5c5b3c988959385ca81b0d504f29a0dd245b898621b0a53b037e1d8cf36607f60405160405180910390a45050505050565b6000600860003373ffffffffffffffffffffffffffffffffffffffff1673ffffffffffffffffffffffffffffffffffffffff1681526020019081526020016000209050600115158160000160009054906101000a900460ff16151514610898576040517f08c379a000000000000000000000000000000000000000000000000000000000815260040161088f906112e8565b60405180910390fd5b80600101548160040180549050106108e5576040517f08c379a00000000000000000000000000000000000000000000000000000000081526004016108dc906112c8565b60405180910390fd5b6108ed610aee565b60405180610100016040528060011515815260200160065481526020013373ffffffffffffffffffffffffffffffffffffffff168152602001881515815260200187151581526020018681526020018581526020018481525090508060096000600654815260200190815260200160002060008201518160000160006101000a81548160ff0219169083151502179055506020820151816001015560408201518160020160006101000a81548173ffffffffffffffffffffffffffffffffffffffff021916908373ffffffffffffffffffffffffffffffffffffffff16021790555060608201518160020160146101000a81548160ff02191690831515021790555060808201518160020160156101000a81548160ff02191690831515021790555060a0820151816003015560c0820151816004015560e0820151816005019080519060200190610a3f929190610b80565b50905050600860003373ffffffffffffffffffffffffffffffffffffffff1673ffffffffffffffffffffffffffffffffffffffff168152602001908152602001600020600401600654908060018154018082558091505090600182039060005260206000200160009091929091909150555060066000815480929190600101919050555050505050505050565b6040518060a00160405280600590602082028038833980820191505090505090565b60405180610100016040528060001515815260200160008152602001600073ffffffffffffffffffffffffffffffffffffffff1681526020016000151581526020016000151581526020016000815260200160008152602001606081525090565b6040518060a00160405280600015158152602001600081526020016000815260200160608152602001606081525090565b828054600181600116156101000203166002900490600052602060002090601f016020900481019282601f10610bc157805160ff1916838001178555610bef565b82800160010185558215610bef579182015b82811115610bee578251825591602001919060010190610bd3565b5b509050610bfc9190610c4d565b5090565b828054828255906000526020600020908101928215610c3c579160200282015b82811115610c3b578251825591602001919060010190610c20565b5b509050610c499190610c4d565b5090565b610c6f91905b80821115610c6b576000816000905550600101610c53565b5090565b90565b600081359050610c81816114d3565b92915050565b600081359050610c96816114ea565b92915050565b600082601f830112610cad57600080fd5b8135610cc0610cbb82611392565b611365565b91508082526020830160208301858383011115610cdc57600080fd5b610ce7838284611480565b50505092915050565b600081359050610cff81611501565b92915050565b600060208284031215610d1757600080fd5b6000610d2584828501610c72565b91505092915050565b600080600080600060a08688031215610d4657600080fd5b6000610d5488828901610c87565b9550506020610d6588828901610c87565b9450506040610d7688828901610cf0565b9350506060610d8788828901610cf0565b925050608086013567ffffffffffffffff811115610da457600080fd5b610db088828901610c9c565b9150509295509295909350565b600060208284031215610dcf57600080fd5b6000610ddd84828501610cf0565b91505092915050565b600080600060608486031215610dfb57600080fd5b6000610e0986828701610cf0565b9350506020610e1a86828701610cf0565b925050604084013567ffffffffffffffff811115610e3757600080fd5b610e4386828701610c9c565b9150509250925092565b6000610e598383610ef8565b60208301905092915050565b610e6e8161142e565b82525050565b610e7d8161142e565b82525050565b610e8c816113c8565b610e9681846113f6565b9250610ea1826113be565b8060005b83811015610ed2578151610eb98782610e4d565b9650610ec4836113e9565b925050600181019050610ea5565b505050505050565b610ee381611440565b82525050565b610ef281611440565b82525050565b610f018161144c565b82525050565b6000610f12826113de565b610f1c8185611423565b9350610f2c81856020860161148f565b80840191505092915050565b6000610f43826113d3565b610f4d8185611401565b9350610f5d81856020860161148f565b610f66816114c2565b840191505092915050565b6000610f7c826113d3565b610f868185611412565b9350610f9681856020860161148f565b610f9f816114c2565b840191505092915050565b6000610fb7602583611412565b91507f4d617820726567697374657265642070656f706c6520666f722074686973204860008301527f6f7573652e0000000000000000000000000000000000000000000000000000006020830152604082019050919050565b600061101d602e83611412565b91507f5468657265206973206e6f20686f757365207265676973746572656420666f7260008301527f207468697320616464726573732e0000000000000000000000000000000000006020830152604082019050919050565b6000611083602c83611412565b91507f5468697320616464726573732068617320616c7265616479207265676973746560008301527f726564206120686f7573652e00000000000000000000000000000000000000006020830152604082019050919050565b6000610100830160008301516110f56000860182610eda565b506020830151611108602086018261118c565b50604083015161111b6040860182610e65565b50606083015161112e6060860182610eda565b5060808301516111416080860182610eda565b5060a083015161115460a086018261118c565b5060c083015161116760c086018261118c565b5060e083015184820360e086015261117f8282610f38565b9150508091505092915050565b61119581611476565b82525050565b6111a481611476565b82525050565b60006111b68284610f07565b915081905092915050565b60006020820190506111d66000830184610e74565b92915050565b600060a0820190506111f16000830184610e83565b92915050565b60006101008201905061120d600083018b610ee9565b61121a602083018a61119b565b6112276040830189610e74565b6112346060830188610ee9565b6112416080830187610ee9565b61124e60a083018661119b565b61125b60c083018561119b565b81810360e083015261126d8184610f71565b90509998505050505050505050565b60006080820190506112916000830187610ee9565b61129e602083018661119b565b6112ab604083018561119b565b81810360608301526112bd8184610f71565b905095945050505050565b600060208201905081810360008301526112e181610faa565b9050919050565b6000602082019050818103600083015261130181611010565b9050919050565b6000602082019050818103600083015261132181611076565b9050919050565b6000602082019050818103600083015261134281846110dc565b905092915050565b600060208201905061135f600083018461119b565b92915050565b6000604051905081810181811067ffffffffffffffff8211171561138857600080fd5b8060405250919050565b600067ffffffffffffffff8211156113a957600080fd5b601f19601f8301169050602081019050919050565b6000819050919050565b600060059050919050565b600081519050919050565b600081519050919050565b6000602082019050919050565b600081905092915050565b600082825260208201905092915050565b600082825260208201905092915050565b600081905092915050565b600061143982611456565b9050919050565b60008115159050919050565b6000819050919050565b600073ffffffffffffffffffffffffffffffffffffffff82169050919050565b6000819050919050565b82818337600083830152505050565b60005b838110156114ad578082015181840152602081019050611492565b838111156114bc576000848401525b50505050565b6000601f19601f8301169050919050565b6114dc8161142e565b81146114e757600080fd5b50565b6114f381611440565b81146114fe57600080fd5b50565b61150a81611476565b811461151557600080fd5b5056fea365627a7a72315820fd60c10d52753a4b3dfffa4d507838d0ca5e45c598ff3213749ebe8c5663ee4d6c6578706572696d656e74616cf564736f6c63430005100040",
  "source": "pragma solidity ^0.5.0;\r\npragma experimental ABIEncoderV2;\r\n\r\ncontract Census {\r\n    \r\n    // ORACLE: MASTER ADDRESS FILE\r\n    // a token is created for every address on file\r\n    // this token is used as a one-time verification\r\n    // verifyToken function will verify token is valid\r\n    // once verified, will grant address permission to\r\n    // complete Census.\r\n    // Number of tokens generated will coincide with total\r\n    // verified address and token cannot be traced to address\r\n\r\n    int[5] myArray;\r\n    \r\n    // Initialize contract owner\r\n    address public owner;\r\n\r\n    // Global counter for Person struct ID\r\n    uint public personCount;\r\n    // Global counter for House count\r\n    uint public houseCount;\r\n\r\n\r\n    // House struct\r\n    struct House {\r\n        bool registered;\r\n        uint maxResidents;\r\n        uint extraResidents;\r\n        string houseType; // House, Apartment, Mobile Home\r\n        uint[] residentList;\r\n    }\r\n\r\n    // Person struct\r\n    struct Person {\r\n        bool registered;\r\n        uint id; // peopleCount\r\n        address home; // msg.sender NECESSARY? (home can be assumed from address of transaction)\r\n        bool isMale;\r\n        bool isHispanic;\r\n        uint age;\r\n        uint birthDate; // MMDDYYYY\r\n        string race;\r\n    }\r\n    \r\n\r\n    // stores index of 'Houses' struct by address\r\n    mapping(address => House) public houses;\r\n\r\n    // stores a 'Person' struct as index id\r\n    mapping(uint => Person) public people;\r\n\r\n    event houseAddedEvent (\r\n    uint indexed _maxResidents,\r\n    uint indexed _extraResidents,\r\n    string indexed _housetype\r\n    );\r\n\r\n    // Initialized at contract creation\r\n    constructor() public {\r\n        // Contract owner\r\n        owner = msg.sender;\r\n        personCount = 0;\r\n        houseCount = 0;\r\n        myArray = [int(0),1,2,3,4];\r\n    }\r\n\r\n    function verifyTokenOracle(bytes32 _key) private returns (bool) {\r\n        \r\n    }\r\n\r\n    function addHouse(uint _maxResidents, uint _extraResidents, string memory _housetype) public {\r\n        \r\n        // Ensure house is not already registered for address\r\n        require(houses[msg.sender].registered == false, \"This address has already registered a house.\");\r\n\r\n        // Initialize empty residentList array\r\n        uint[] memory emptyList = new uint[](0);\r\n        \r\n        // Create new house struct\r\n        House memory newhouse = House(true, _maxResidents, _extraResidents, _housetype, emptyList);\r\n\r\n        houses[msg.sender] = newhouse;\r\n\r\n        // Increase global house count\r\n        houseCount++;\r\n\r\n        emit houseAddedEvent(_maxResidents, _extraResidents, _housetype);\r\n    }\r\n\r\n\r\n    function addPerson(bool _ismale, bool _ishispanic, uint _age, uint _birthdate, string memory _race) public {\r\n\r\n        House storage currentHouse = houses[msg.sender];\r\n\r\n        // Ensure house for address exists before adding\r\n        require(currentHouse.registered == true, \"There is no house registered for this address.\");\r\n        \r\n        // Require house of address to have resident count within range\r\n        require(currentHouse.residentList.length < currentHouse.maxResidents, \"Max registered people for this House.\");\r\n\r\n        Person memory newPerson =  Person(true, personCount, msg.sender, _ismale, _ishispanic, _age, _birthdate, _race);\r\n        people[personCount] = newPerson;\r\n\r\n        // Add person ID to house residentList\r\n        houses[msg.sender].residentList.push(personCount);\r\n        \r\n        // Increase global person count (iD)\r\n        personCount++;\r\n    }\r\n    \r\n    function getResident(uint _index) public view returns (Person memory ppls) {\r\n        return people[_index];\r\n    }\r\n\r\n    function getMyArray() public view returns(int[5] memory){\r\n        return myArray;\r\n    }\r\n    // / / DEBUG TEST STUFF\r\n    // function returnBool(uint number) public view returns (bool) {\r\n    //     if (number > 9000) {\r\n    //         return true;\r\n    //     }\r\n    //     else {\r\n    //         return false;\r\n    //     }\r\n    // }\r\n\r\n    // function returnOver9000(uint number) public view returns (bool) {\r\n    //     if (returnBool(number) == true) {\r\n    //         return true;\r\n    //     }\r\n    //     else {\r\n    //         return false;\r\n    //     }\r\n    // }\r\n}",
  "sourcePath": "C:\\Users\\Jerrbear\\Desktop\\solidity\\census\\contracts\\Census.sol",
  "compiler": {
    "name": "solc",
    "version": "0.5.16+commit.9c3226ce.Emscripten.clang"
  },
  "schemaVersion": "3.0.23",
  "updatedAt": "2020-03-18T03:10:33.677Z",
  "networkType": "ethereum",
  "devdoc": {
    "methods": {}
  },
  "userdoc": {
    "methods": {}
  }
}