{
  "contractName": "Census",
  "abi": [
    {
      "inputs": [],
      "payable": false,
      "stateMutability": "nonpayable",
      "type": "constructor"
    },
    {
      "anonymous": false,
      "inputs": [
        {
          "indexed": true,
          "internalType": "uint256",
          "name": "_maxResidents",
          "type": "uint256"
        },
        {
          "indexed": true,
          "internalType": "uint256",
          "name": "_extraResidents",
          "type": "uint256"
        }
      ],
      "name": "houseAddedEvent",
      "type": "event"
    },
    {
      "constant": true,
      "inputs": [],
      "name": "houseCount",
      "outputs": [
        {
          "internalType": "uint256",
          "name": "",
          "type": "uint256"
        }
      ],
      "payable": false,
      "stateMutability": "view",
      "type": "function"
    },
    {
      "constant": true,
      "inputs": [
        {
          "internalType": "address",
          "name": "",
          "type": "address"
        }
      ],
      "name": "houses",
      "outputs": [
        {
          "internalType": "bool",
          "name": "registered",
          "type": "bool"
        },
        {
          "internalType": "uint256",
          "name": "maxResidents",
          "type": "uint256"
        },
        {
          "internalType": "uint256",
          "name": "extraResidents",
          "type": "uint256"
        },
        {
          "internalType": "string",
          "name": "houseType",
          "type": "string"
        }
      ],
      "payable": false,
      "stateMutability": "view",
      "type": "function"
    },
    {
      "constant": true,
      "inputs": [],
      "name": "owner",
      "outputs": [
        {
          "internalType": "address",
          "name": "",
          "type": "address"
        }
      ],
      "payable": false,
      "stateMutability": "view",
      "type": "function"
    },
    {
      "constant": true,
      "inputs": [
        {
          "internalType": "uint256",
          "name": "",
          "type": "uint256"
        }
      ],
      "name": "people",
      "outputs": [
        {
          "internalType": "bool",
          "name": "registered",
          "type": "bool"
        },
        {
          "internalType": "uint256",
          "name": "id",
          "type": "uint256"
        },
        {
          "internalType": "address",
          "name": "home",
          "type": "address"
        },
        {
          "internalType": "bool",
          "name": "isMale",
          "type": "bool"
        },
        {
          "internalType": "bool",
          "name": "isHispanic",
          "type": "bool"
        },
        {
          "internalType": "uint256",
          "name": "age",
          "type": "uint256"
        },
        {
          "internalType": "uint256",
          "name": "birthDate",
          "type": "uint256"
        },
        {
          "internalType": "string",
          "name": "race",
          "type": "string"
        }
      ],
      "payable": false,
      "stateMutability": "view",
      "type": "function"
    },
    {
      "constant": true,
      "inputs": [],
      "name": "personCount",
      "outputs": [
        {
          "internalType": "uint256",
          "name": "",
          "type": "uint256"
        }
      ],
      "payable": false,
      "stateMutability": "view",
      "type": "function"
    },
    {
      "constant": false,
      "inputs": [
        {
          "internalType": "uint256",
          "name": "_maxResidents",
          "type": "uint256"
        },
        {
          "internalType": "uint256",
          "name": "_extraResidents",
          "type": "uint256"
        },
        {
          "internalType": "string",
          "name": "_housetype",
          "type": "string"
        }
      ],
      "name": "addHouse",
      "outputs": [],
      "payable": false,
      "stateMutability": "nonpayable",
      "type": "function"
    },
    {
      "constant": false,
      "inputs": [
        {
          "internalType": "bool",
          "name": "_ismale",
          "type": "bool"
        },
        {
          "internalType": "bool",
          "name": "_ishispanic",
          "type": "bool"
        },
        {
          "internalType": "uint256",
          "name": "_age",
          "type": "uint256"
        },
        {
          "internalType": "uint256",
          "name": "_birthdate",
          "type": "uint256"
        },
        {
          "internalType": "string",
          "name": "_race",
          "type": "string"
        }
      ],
      "name": "addPerson",
      "outputs": [],
      "payable": false,
      "stateMutability": "nonpayable",
      "type": "function"
    },
    {
      "constant": true,
      "inputs": [
        {
          "internalType": "uint256",
          "name": "_index",
          "type": "uint256"
        }
      ],
      "name": "getResident",
      "outputs": [
        {
          "components": [
            {
              "internalType": "bool",
              "name": "registered",
              "type": "bool"
            },
            {
              "internalType": "uint256",
              "name": "id",
              "type": "uint256"
            },
            {
              "internalType": "address",
              "name": "home",
              "type": "address"
            },
            {
              "internalType": "bool",
              "name": "isMale",
              "type": "bool"
            },
            {
              "internalType": "bool",
              "name": "isHispanic",
              "type": "bool"
            },
            {
              "internalType": "uint256",
              "name": "age",
              "type": "uint256"
            },
            {
              "internalType": "uint256",
              "name": "birthDate",
              "type": "uint256"
            },
            {
              "internalType": "string",
              "name": "race",
              "type": "string"
            }
          ],
          "internalType": "struct Census.Person",
          "name": "ppls",
          "type": "tuple"
        }
      ],
      "payable": false,
      "stateMutability": "view",
      "type": "function"
    },
    {
      "constant": true,
      "inputs": [],
      "name": "getHouse",
      "outputs": [
        {
          "internalType": "bool",
          "name": "a",
          "type": "bool"
        },
        {
          "internalType": "uint256",
          "name": "b",
          "type": "uint256"
        },
        {
          "internalType": "uint256",
          "name": "c",
          "type": "uint256"
        },
        {
          "internalType": "string",
          "name": "d",
          "type": "string"
        },
        {
          "internalType": "uint256[]",
          "name": "e",
          "type": "uint256[]"
        }
      ],
      "payable": false,
      "stateMutability": "view",
      "type": "function"
    },
    {
      "constant": true,
      "inputs": [],
      "name": "getHouseCount",
      "outputs": [
        {
          "internalType": "uint256",
          "name": "x",
          "type": "uint256"
        }
      ],
      "payable": false,
      "stateMutability": "view",
      "type": "function"
    },
    {
      "constant": true,
      "inputs": [],
      "name": "getArr",
      "outputs": [
        {
          "components": [
            {
              "internalType": "bool",
              "name": "registered",
              "type": "bool"
            },
            {
              "internalType": "uint256",
              "name": "maxResidents",
              "type": "uint256"
            },
            {
              "internalType": "uint256",
              "name": "extraResidents",
              "type": "uint256"
            },
            {
              "internalType": "string",
              "name": "houseType",
              "type": "string"
            },
            {
              "internalType": "uint256[]",
              "name": "residentList",
              "type": "uint256[]"
            }
          ],
          "internalType": "struct Census.House",
          "name": "h",
          "type": "tuple"
        }
      ],
      "payable": false,
      "stateMutability": "view",
      "type": "function"
    }
  ],
  "bytecode": "0x608060405234801561001057600080fd5b50336000806101000a81548173ffffffffffffffffffffffffffffffffffffffff021916908373ffffffffffffffffffffffffffffffffffffffff1602179055506000600181905550600060028190555061199d806100706000396000f3fe608060405234801561001057600080fd5b50600436106100a95760003560e01c80639e7a13ad116100715780639e7a13ad1461015d578063bd74f8b114610194578063dd82ce03146101b2578063e2b0966c146101e2578063f885fe4f146101fe578063fb8cbced1461021a576100a9565b806304e2064f146100ae578063607bd671146100d057806378495bf8146100ee5780637abb3d1b1461010c5780638da5cb5b1461013f575b600080fd5b6100b6610238565b6040516100c7959493929190611657565b60405180910390f35b6100d86103c2565b6040516100e5919061175c565b60405180910390f35b6100f66103cc565b604051610103919061175c565b60405180910390f35b61012660048036036101219190810190610feb565b6103d2565b604051610136949392919061160b565b60405180910390f35b6101476104a7565b604051610154919061156b565b60405180910390f35b610177600480360361017291908101906110a3565b6104cc565b60405161018b989796959493929190611586565b60405180910390f35b61019c6105f3565b6040516101a9919061175c565b60405180910390f35b6101cc60048036036101c791908101906110a3565b6105f9565b6040516101d9919061173a565b60405180910390f35b6101fc60048036036101f791908101906110cc565b61078e565b005b61021860048036036102139190810190611014565b610985565b005b610222610c54565b60405161022f9190611718565b60405180910390f35b60008060006060806000600360003373ffffffffffffffffffffffffffffffffffffffff1673ffffffffffffffffffffffffffffffffffffffff168152602001908152602001600020905060008160000160009054906101000a900460ff169050600082600101549050600083600101549050600084600301905060608560040180548060200260200160405190810160405280929190818152602001828054801561030357602002820191906000526020600020905b8154815260200190600101908083116102ef575b505050505090508484848484818054600181600116156101000203166002900480601f0160208091040260200160405190810160405280929190818152602001828054600181600116156101000203166002900480156103a45780601f10610379576101008083540402835291602001916103a4565b820191906000526020600020905b81548152906001019060200180831161038757829003601f168201915b505050505091509a509a509a509a509a505050505050509091929394565b6000600254905090565b60015481565b60036020528060005260406000206000915090508060000160009054906101000a900460ff1690806001015490806002015490806003018054600181600116156101000203166002900480601f01602080910402602001604051908101604052809291908181526020018280546001816001161561010002031660029004801561049d5780601f106104725761010080835404028352916020019161049d565b820191906000526020600020905b81548152906001019060200180831161048057829003601f168201915b5050505050905084565b6000809054906101000a900473ffffffffffffffffffffffffffffffffffffffff1681565b60046020528060005260406000206000915090508060000160009054906101000a900460ff16908060010154908060020160009054906101000a900473ffffffffffffffffffffffffffffffffffffffff16908060020160149054906101000a900460ff16908060020160159054906101000a900460ff1690806003015490806004015490806005018054600181600116156101000203166002900480601f0160208091040260200160405190810160405280929190818152602001828054600181600116156101000203166002900480156105e95780601f106105be576101008083540402835291602001916105e9565b820191906000526020600020905b8154815290600101906020018083116105cc57829003601f168201915b5050505050905088565b60025481565b610601610dd4565b60046000838152602001908152602001600020604051806101000160405290816000820160009054906101000a900460ff16151515158152602001600182015481526020016002820160009054906101000a900473ffffffffffffffffffffffffffffffffffffffff1673ffffffffffffffffffffffffffffffffffffffff1673ffffffffffffffffffffffffffffffffffffffff1681526020016002820160149054906101000a900460ff161515151581526020016002820160159054906101000a900460ff161515151581526020016003820154815260200160048201548152602001600582018054600181600116156101000203166002900480601f01602080910402602001604051908101604052809291908181526020018280546001816001161561010002031660029004801561077e5780601f106107535761010080835404028352916020019161077e565b820191906000526020600020905b81548152906001019060200180831161076157829003601f168201915b5050505050815250509050919050565b60001515600360003373ffffffffffffffffffffffffffffffffffffffff1673ffffffffffffffffffffffffffffffffffffffff16815260200190815260200160002060000160009054906101000a900460ff16151514610824576040517f08c379a000000000000000000000000000000000000000000000000000000000815260040161081b906116f8565b60405180910390fd5b606060006040519080825280602002602001820160405280156108565781602001602082028038833980820191505090505b509050610861610e35565b6040518060a0016040528060011515815260200186815260200185815260200184815260200183815250905080600360003373ffffffffffffffffffffffffffffffffffffffff1673ffffffffffffffffffffffffffffffffffffffff16815260200190815260200160002060008201518160000160006101000a81548160ff0219169083151502179055506020820151816001015560408201518160020155606082015181600301908051906020019061091d929190610e66565b50608082015181600401908051906020019061093a929190610ee6565b5090505060026000815480929190600101919050555083857feafa008c7b375315bec76e1ba9016f5147021cdf64820f3034a07feecd10751660405160405180910390a35050505050565b6000600360003373ffffffffffffffffffffffffffffffffffffffff1673ffffffffffffffffffffffffffffffffffffffff1681526020019081526020016000209050600115158160000160009054906101000a900460ff16151514610a20576040517f08c379a0000000000000000000000000000000000000000000000000000000008152600401610a17906116d8565b60405180910390fd5b8060010154816004018054905010610a6d576040517f08c379a0000000000000000000000000000000000000000000000000000000008152600401610a64906116b8565b60405180910390fd5b610a75610dd4565b60405180610100016040528060011515815260200160015481526020013373ffffffffffffffffffffffffffffffffffffffff168152602001881515815260200187151581526020018681526020018581526020018481525090508060046000600154815260200190815260200160002060008201518160000160006101000a81548160ff0219169083151502179055506020820151816001015560408201518160020160006101000a81548173ffffffffffffffffffffffffffffffffffffffff021916908373ffffffffffffffffffffffffffffffffffffffff16021790555060608201518160020160146101000a81548160ff02191690831515021790555060808201518160020160156101000a81548160ff02191690831515021790555060a0820151816003015560c0820151816004015560e0820151816005019080519060200190610bc7929190610e66565b50905050600360003373ffffffffffffffffffffffffffffffffffffffff1673ffffffffffffffffffffffffffffffffffffffff168152602001908152602001600020600401600154908060018154018082558091505090600182039060005260206000200160009091929091909150555060016000815480929190600101919050555050505050505050565b610c5c610e35565b600360003373ffffffffffffffffffffffffffffffffffffffff1673ffffffffffffffffffffffffffffffffffffffff1681526020019081526020016000206040518060a00160405290816000820160009054906101000a900460ff161515151581526020016001820154815260200160028201548152602001600382018054600181600116156101000203166002900480601f016020809104026020016040519081016040528092919081815260200182805460018160011615610100020316600290048015610d6e5780601f10610d4357610100808354040283529160200191610d6e565b820191906000526020600020905b815481529060010190602001808311610d5157829003601f168201915b5050505050815260200160048201805480602002602001604051908101604052809291908181526020018280548015610dc657602002820191906000526020600020905b815481526020019060010190808311610db2575b505050505081525050905090565b60405180610100016040528060001515815260200160008152602001600073ffffffffffffffffffffffffffffffffffffffff1681526020016000151581526020016000151581526020016000815260200160008152602001606081525090565b6040518060a00160405280600015158152602001600081526020016000815260200160608152602001606081525090565b828054600181600116156101000203166002900490600052602060002090601f016020900481019282601f10610ea757805160ff1916838001178555610ed5565b82800160010185558215610ed5579182015b82811115610ed4578251825591602001919060010190610eb9565b5b509050610ee29190610f33565b5090565b828054828255906000526020600020908101928215610f22579160200282015b82811115610f21578251825591602001919060010190610f06565b5b509050610f2f9190610f33565b5090565b610f5591905b80821115610f51576000816000905550600101610f39565b5090565b90565b600081359050610f6781611915565b92915050565b600081359050610f7c8161192c565b92915050565b600082601f830112610f9357600080fd5b8135610fa6610fa1826117a4565b611777565b91508082526020830160208301858383011115610fc257600080fd5b610fcd8382846118c2565b50505092915050565b600081359050610fe581611943565b92915050565b600060208284031215610ffd57600080fd5b600061100b84828501610f58565b91505092915050565b600080600080600060a0868803121561102c57600080fd5b600061103a88828901610f6d565b955050602061104b88828901610f6d565b945050604061105c88828901610fd6565b935050606061106d88828901610fd6565b925050608086013567ffffffffffffffff81111561108a57600080fd5b61109688828901610f82565b9150509295509295909350565b6000602082840312156110b557600080fd5b60006110c384828501610fd6565b91505092915050565b6000806000606084860312156110e157600080fd5b60006110ef86828701610fd6565b935050602061110086828701610fd6565b925050604084013567ffffffffffffffff81111561111d57600080fd5b61112986828701610f82565b9150509250925092565b600061113f838361154d565b60208301905092915050565b6111548161187a565b82525050565b6111638161187a565b82525050565b6000611174826117fb565b61117e8185611847565b9350611189836117e0565b8060005b838110156111ba5781516111a18882611133565b97506111ac83611829565b92505060018101905061118d565b5085935050505092915050565b60006111d2826117f0565b6111dc8185611836565b93506111e7836117d0565b8060005b838110156112185781516111ff8882611133565b975061120a8361181c565b9250506001810190506111eb565b5085935050505092915050565b61122e8161188c565b82525050565b61123d8161188c565b82525050565b600061124e82611811565b6112588185611869565b93506112688185602086016118d1565b61127181611904565b840191505092915050565b600061128782611806565b6112918185611858565b93506112a18185602086016118d1565b6112aa81611904565b840191505092915050565b60006112c082611806565b6112ca8185611869565b93506112da8185602086016118d1565b6112e381611904565b840191505092915050565b60006112fb602583611869565b91507f4d617820726567697374657265642070656f706c6520666f722074686973204860008301527f6f7573652e0000000000000000000000000000000000000000000000000000006020830152604082019050919050565b6000611361602e83611869565b91507f5468657265206973206e6f20686f757365207265676973746572656420666f7260008301527f207468697320616464726573732e0000000000000000000000000000000000006020830152604082019050919050565b60006113c7602c83611869565b91507f5468697320616464726573732068617320616c7265616479207265676973746560008301527f726564206120686f7573652e00000000000000000000000000000000000000006020830152604082019050919050565b600060a0830160008301516114386000860182611225565b50602083015161144b602086018261154d565b50604083015161145e604086018261154d565b5060608301518482036060860152611476828261127c565b9150506080830151848203608086015261149082826111c7565b9150508091505092915050565b6000610100830160008301516114b66000860182611225565b5060208301516114c9602086018261154d565b5060408301516114dc604086018261114b565b5060608301516114ef6060860182611225565b5060808301516115026080860182611225565b5060a083015161151560a086018261154d565b5060c083015161152860c086018261154d565b5060e083015184820360e0860152611540828261127c565b9150508091505092915050565b611556816118b8565b82525050565b611565816118b8565b82525050565b6000602082019050611580600083018461115a565b92915050565b60006101008201905061159c600083018b611234565b6115a9602083018a61155c565b6115b6604083018961115a565b6115c36060830188611234565b6115d06080830187611234565b6115dd60a083018661155c565b6115ea60c083018561155c565b81810360e08301526115fc81846112b5565b90509998505050505050505050565b60006080820190506116206000830187611234565b61162d602083018661155c565b61163a604083018561155c565b818103606083015261164c81846112b5565b905095945050505050565b600060a08201905061166c6000830188611234565b611679602083018761155c565b611686604083018661155c565b81810360608301526116988185611243565b905081810360808301526116ac8184611169565b90509695505050505050565b600060208201905081810360008301526116d1816112ee565b9050919050565b600060208201905081810360008301526116f181611354565b9050919050565b60006020820190508181036000830152611711816113ba565b9050919050565b600060208201905081810360008301526117328184611420565b905092915050565b60006020820190508181036000830152611754818461149d565b905092915050565b6000602082019050611771600083018461155c565b92915050565b6000604051905081810181811067ffffffffffffffff8211171561179a57600080fd5b8060405250919050565b600067ffffffffffffffff8211156117bb57600080fd5b601f19601f8301169050602081019050919050565b6000819050602082019050919050565b6000819050602082019050919050565b600081519050919050565b600081519050919050565b600081519050919050565b600081519050919050565b6000602082019050919050565b6000602082019050919050565b600082825260208201905092915050565b600082825260208201905092915050565b600082825260208201905092915050565b600082825260208201905092915050565b600061188582611898565b9050919050565b60008115159050919050565b600073ffffffffffffffffffffffffffffffffffffffff82169050919050565b6000819050919050565b82818337600083830152505050565b60005b838110156118ef5780820151818401526020810190506118d4565b838111156118fe576000848401525b50505050565b6000601f19601f8301169050919050565b61191e8161187a565b811461192957600080fd5b50565b6119358161188c565b811461194057600080fd5b50565b61194c816118b8565b811461195757600080fd5b5056fea365627a7a72315820e36c5b06dfc875d17d643f1af518657cc504042bd5eb1630811a7b32cb015e636c6578706572696d656e74616cf564736f6c63430005100040",
  "source": "pragma solidity ^0.5.0;\r\npragma experimental ABIEncoderV2;\r\n\r\ncontract Census {\r\n    \r\n    // ORACLE: MASTER ADDRESS FILE\r\n    // a token is created for every address on file\r\n    // this token is used as a one-time verification\r\n    // verifyToken function will verify token is valid\r\n    // once verified, will grant address permission to\r\n    // complete Census.\r\n    // Number of tokens generated will coincide with total\r\n    // verified address and token cannot be traced to address\r\n    \r\n    \r\n    // Initialize contract owner\r\n    address public owner;\r\n\r\n    // Global counter for Person struct ID\r\n    uint public personCount;\r\n    // Global counter for House count\r\n    uint public houseCount;\r\n\r\n    // House struct\r\n    struct House {\r\n        bool registered;\r\n        uint maxResidents;\r\n        uint extraResidents;\r\n        string houseType; // House, Apartment, Mobile Home\r\n        uint[] residentList;\r\n    }\r\n\r\n    // Person struct\r\n    struct Person {\r\n        bool registered;\r\n        uint id; // peopleCount\r\n        address home; // msg.sender NECESSARY? (home can be assumed from address of transaction)\r\n        bool isMale;\r\n        bool isHispanic;\r\n        uint age;\r\n        uint birthDate; // MMDDYYYY\r\n        string race;\r\n    }\r\n    \r\n\r\n    // stores index of 'Houses' struct by address\r\n    mapping(address => House) public houses;\r\n\r\n    // stores a 'Person' struct as index id\r\n    mapping(uint => Person) public people;\r\n\r\n    event houseAddedEvent (\r\n    uint indexed _maxResidents,\r\n    uint indexed _extraResidents\r\n    );\r\n\r\n    // Initialized at contract creation\r\n    constructor() public {\r\n        // Contract owner\r\n        owner = msg.sender;\r\n        personCount = 0;\r\n        houseCount = 0;\r\n    }\r\n\r\n    // function verifyTokenOracle(bytes32 _key) private returns (bool) {\r\n        \r\n    // }\r\n\r\n    function addHouse(uint _maxResidents, uint _extraResidents, string memory _housetype) public {\r\n        \r\n        // Ensure house is not already registered for address\r\n        require(houses[msg.sender].registered == false, \"This address has already registered a house.\");\r\n\r\n        // Initialize empty residentList array\r\n        uint[] memory emptyList = new uint[](0);\r\n        \r\n        // Create new house struct\r\n        House memory newhouse = House(true, _maxResidents, _extraResidents, _housetype, emptyList);\r\n\r\n        houses[msg.sender] = newhouse;\r\n\r\n        // Increase global house count\r\n        houseCount++;\r\n\r\n        emit houseAddedEvent(_maxResidents, _extraResidents);\r\n    }\r\n\r\n\r\n    function addPerson(bool _ismale, bool _ishispanic, uint _age, uint _birthdate, string memory _race) public {\r\n\r\n        House storage currentHouse = houses[msg.sender];\r\n\r\n        // Ensure house for address exists before adding\r\n        require(currentHouse.registered == true, \"There is no house registered for this address.\");\r\n        \r\n        // Require house of address to have resident count within range\r\n        require(currentHouse.residentList.length < currentHouse.maxResidents, \"Max registered people for this House.\");\r\n\r\n        Person memory newPerson =  Person(true, personCount, msg.sender, _ismale, _ishispanic, _age, _birthdate, _race);\r\n        people[personCount] = newPerson;\r\n\r\n        // Add person ID to house residentList\r\n        houses[msg.sender].residentList.push(personCount);\r\n        \r\n        // Increase global person count (iD)\r\n        personCount++;\r\n    }\r\n    \r\n    function getResident(uint _index) public view returns (Person memory ppls) {\r\n        return people[_index];\r\n    }\r\n\r\n    function getHouse() public view returns (bool a, uint b, uint c, string memory d, uint[] memory e) {\r\n        \r\n        House storage thisHouse = houses[msg.sender];\r\n\r\n        bool resiValid = thisHouse.registered;\r\n        uint resiNum = thisHouse.maxResidents;\r\n        uint resiAdd = thisHouse.maxResidents;\r\n        string storage houseType = thisHouse.houseType;\r\n        uint[] memory resiList = thisHouse.residentList;\r\n\r\n        return (resiValid, resiNum, resiAdd, houseType, resiList);\r\n    }\r\n\r\n    function getHouseCount() public view returns(uint x) {\r\n        return (houseCount);\r\n    }\r\n\r\n    function getArr() public view returns(House memory h) {\r\n        return houses[msg.sender];\r\n    }\r\n\r\n    // // DEBUG TEST STUFF\r\n    // function returnBool(uint number) public view returns (bool) {\r\n    //     if (number > 9000) {\r\n    //         return true;\r\n    //     }\r\n    //     else {\r\n    //         return false;\r\n    //     }\r\n    // }\r\n\r\n    // function returnOver9000(uint number) public view returns (bool) {\r\n    //     if (returnBool(number) == true) {\r\n    //         return true;\r\n    //     }\r\n    //     else {\r\n    //         return false;\r\n    //     }\r\n    // }\r\n}",
  "sourcePath": "C:\\Users\\Jerrbear\\Desktop\\solidity\\census\\contracts\\Census.sol",
  "compiler": {
    "name": "solc",
    "version": "0.5.16+commit.9c3226ce.Emscripten.clang"
  },
  "schemaVersion": "3.0.23",
  "updatedAt": "2020-03-18T16:49:38.221Z",
  "networkType": "ethereum",
  "devdoc": {
    "methods": {}
  },
  "userdoc": {
    "methods": {}
  }
}