{
  "contractName": "Census",
  "abi": [
    {
      "inputs": [],
      "payable": false,
      "stateMutability": "nonpayable",
      "type": "constructor"
    },
    {
      "anonymous": false,
      "inputs": [
        {
          "indexed": true,
          "internalType": "uint256",
          "name": "_maxResidents",
          "type": "uint256"
        },
        {
          "indexed": true,
          "internalType": "uint256",
          "name": "_extraResidents",
          "type": "uint256"
        },
        {
          "indexed": true,
          "internalType": "string",
          "name": "_housetype",
          "type": "string"
        }
      ],
      "name": "houseAddedEvent",
      "type": "event"
    },
    {
      "constant": true,
      "inputs": [],
      "name": "houseCount",
      "outputs": [
        {
          "internalType": "uint256",
          "name": "",
          "type": "uint256"
        }
      ],
      "payable": false,
      "stateMutability": "view",
      "type": "function"
    },
    {
      "constant": true,
      "inputs": [
        {
          "internalType": "address",
          "name": "",
          "type": "address"
        }
      ],
      "name": "houses",
      "outputs": [
        {
          "internalType": "bool",
          "name": "registered",
          "type": "bool"
        },
        {
          "internalType": "uint256",
          "name": "maxResidents",
          "type": "uint256"
        },
        {
          "internalType": "uint256",
          "name": "extraResidents",
          "type": "uint256"
        },
        {
          "internalType": "string",
          "name": "houseType",
          "type": "string"
        }
      ],
      "payable": false,
      "stateMutability": "view",
      "type": "function"
    },
    {
      "constant": true,
      "inputs": [],
      "name": "owner",
      "outputs": [
        {
          "internalType": "address",
          "name": "",
          "type": "address"
        }
      ],
      "payable": false,
      "stateMutability": "view",
      "type": "function"
    },
    {
      "constant": true,
      "inputs": [
        {
          "internalType": "uint256",
          "name": "",
          "type": "uint256"
        }
      ],
      "name": "people",
      "outputs": [
        {
          "internalType": "bool",
          "name": "registered",
          "type": "bool"
        },
        {
          "internalType": "uint256",
          "name": "id",
          "type": "uint256"
        },
        {
          "internalType": "address",
          "name": "home",
          "type": "address"
        },
        {
          "internalType": "bool",
          "name": "isMale",
          "type": "bool"
        },
        {
          "internalType": "bool",
          "name": "isHispanic",
          "type": "bool"
        },
        {
          "internalType": "uint256",
          "name": "age",
          "type": "uint256"
        },
        {
          "internalType": "uint256",
          "name": "birthDate",
          "type": "uint256"
        },
        {
          "internalType": "string",
          "name": "race",
          "type": "string"
        }
      ],
      "payable": false,
      "stateMutability": "view",
      "type": "function"
    },
    {
      "constant": true,
      "inputs": [],
      "name": "personCount",
      "outputs": [
        {
          "internalType": "uint256",
          "name": "",
          "type": "uint256"
        }
      ],
      "payable": false,
      "stateMutability": "view",
      "type": "function"
    },
    {
      "constant": false,
      "inputs": [
        {
          "internalType": "uint256",
          "name": "_maxResidents",
          "type": "uint256"
        },
        {
          "internalType": "uint256",
          "name": "_extraResidents",
          "type": "uint256"
        },
        {
          "internalType": "string",
          "name": "_housetype",
          "type": "string"
        }
      ],
      "name": "addHouse",
      "outputs": [],
      "payable": false,
      "stateMutability": "nonpayable",
      "type": "function"
    },
    {
      "constant": false,
      "inputs": [
        {
          "internalType": "bool",
          "name": "_ismale",
          "type": "bool"
        },
        {
          "internalType": "bool",
          "name": "_ishispanic",
          "type": "bool"
        },
        {
          "internalType": "uint256",
          "name": "_age",
          "type": "uint256"
        },
        {
          "internalType": "uint256",
          "name": "_birthdate",
          "type": "uint256"
        },
        {
          "internalType": "string",
          "name": "_race",
          "type": "string"
        }
      ],
      "name": "addPerson",
      "outputs": [],
      "payable": false,
      "stateMutability": "nonpayable",
      "type": "function"
    },
    {
      "constant": true,
      "inputs": [
        {
          "internalType": "uint256",
          "name": "_index",
          "type": "uint256"
        }
      ],
      "name": "getResident",
      "outputs": [
        {
          "components": [
            {
              "internalType": "bool",
              "name": "registered",
              "type": "bool"
            },
            {
              "internalType": "uint256",
              "name": "id",
              "type": "uint256"
            },
            {
              "internalType": "address",
              "name": "home",
              "type": "address"
            },
            {
              "internalType": "bool",
              "name": "isMale",
              "type": "bool"
            },
            {
              "internalType": "bool",
              "name": "isHispanic",
              "type": "bool"
            },
            {
              "internalType": "uint256",
              "name": "age",
              "type": "uint256"
            },
            {
              "internalType": "uint256",
              "name": "birthDate",
              "type": "uint256"
            },
            {
              "internalType": "string",
              "name": "race",
              "type": "string"
            }
          ],
          "internalType": "struct Census.Person",
          "name": "ppls",
          "type": "tuple"
        }
      ],
      "payable": false,
      "stateMutability": "view",
      "type": "function"
    },
    {
      "constant": true,
      "inputs": [],
      "name": "getHouse",
      "outputs": [
        {
          "components": [
            {
              "internalType": "bool",
              "name": "registered",
              "type": "bool"
            },
            {
              "internalType": "uint256",
              "name": "maxResidents",
              "type": "uint256"
            },
            {
              "internalType": "uint256",
              "name": "extraResidents",
              "type": "uint256"
            },
            {
              "internalType": "string",
              "name": "houseType",
              "type": "string"
            },
            {
              "internalType": "uint256[]",
              "name": "residentList",
              "type": "uint256[]"
            }
          ],
          "internalType": "struct Census.House",
          "name": "hizzy",
          "type": "tuple"
        }
      ],
      "payable": false,
      "stateMutability": "view",
      "type": "function"
    }
  ],
  "bytecode": "0x608060405234801561001057600080fd5b50336000806101000a81548173ffffffffffffffffffffffffffffffffffffffff021916908373ffffffffffffffffffffffffffffffffffffffff160217905550600060018190555060006002819055506116eb806100706000396000f3fe608060405234801561001057600080fd5b50600436106100935760003560e01c80639e7a13ad116100665780639e7a13ad14610125578063bd74f8b11461015c578063dd82ce031461017a578063e2b0966c146101aa578063f885fe4f146101c657610093565b806304e2064f1461009857806378495bf8146100b65780637abb3d1b146100d45780638da5cb5b14610107575b600080fd5b6100a06101e2565b6040516100ad9190611494565b60405180910390f35b6100be610362565b6040516100cb91906114d8565b60405180910390f35b6100ee60048036036100e99190810190610e17565b610368565b6040516100fe94939291906113e8565b60405180910390f35b61010f61043d565b60405161011c9190611348565b60405180910390f35b61013f600480360361013a9190810190610ecf565b610462565b604051610153989796959493929190611363565b60405180910390f35b610164610589565b60405161017191906114d8565b60405180910390f35b610194600480360361018f9190810190610ecf565b61058f565b6040516101a191906114b6565b60405180910390f35b6101c460048036036101bf9190810190610ef8565b610724565b005b6101e060048036036101db9190810190610e40565b610931565b005b6101ea610c00565b600360003373ffffffffffffffffffffffffffffffffffffffff1673ffffffffffffffffffffffffffffffffffffffff1681526020019081526020016000206040518060a00160405290816000820160009054906101000a900460ff161515151581526020016001820154815260200160028201548152602001600382018054600181600116156101000203166002900480601f0160208091040260200160405190810160405280929190818152602001828054600181600116156101000203166002900480156102fc5780601f106102d1576101008083540402835291602001916102fc565b820191906000526020600020905b8154815290600101906020018083116102df57829003601f168201915b505050505081526020016004820180548060200260200160405190810160405280929190818152602001828054801561035457602002820191906000526020600020905b815481526020019060010190808311610340575b505050505081525050905090565b60015481565b60036020528060005260406000206000915090508060000160009054906101000a900460ff1690806001015490806002015490806003018054600181600116156101000203166002900480601f0160208091040260200160405190810160405280929190818152602001828054600181600116156101000203166002900480156104335780601f1061040857610100808354040283529160200191610433565b820191906000526020600020905b81548152906001019060200180831161041657829003601f168201915b5050505050905084565b6000809054906101000a900473ffffffffffffffffffffffffffffffffffffffff1681565b60046020528060005260406000206000915090508060000160009054906101000a900460ff16908060010154908060020160009054906101000a900473ffffffffffffffffffffffffffffffffffffffff16908060020160149054906101000a900460ff16908060020160159054906101000a900460ff1690806003015490806004015490806005018054600181600116156101000203166002900480601f01602080910402602001604051908101604052809291908181526020018280546001816001161561010002031660029004801561057f5780601f106105545761010080835404028352916020019161057f565b820191906000526020600020905b81548152906001019060200180831161056257829003601f168201915b5050505050905088565b60025481565b610597610c31565b60046000838152602001908152602001600020604051806101000160405290816000820160009054906101000a900460ff16151515158152602001600182015481526020016002820160009054906101000a900473ffffffffffffffffffffffffffffffffffffffff1673ffffffffffffffffffffffffffffffffffffffff1673ffffffffffffffffffffffffffffffffffffffff1681526020016002820160149054906101000a900460ff161515151581526020016002820160159054906101000a900460ff161515151581526020016003820154815260200160048201548152602001600582018054600181600116156101000203166002900480601f0160208091040260200160405190810160405280929190818152602001828054600181600116156101000203166002900480156107145780601f106106e957610100808354040283529160200191610714565b820191906000526020600020905b8154815290600101906020018083116106f757829003601f168201915b5050505050815250509050919050565b60001515600360003373ffffffffffffffffffffffffffffffffffffffff1673ffffffffffffffffffffffffffffffffffffffff16815260200190815260200160002060000160009054906101000a900460ff161515146107ba576040517f08c379a00000000000000000000000000000000000000000000000000000000081526004016107b190611474565b60405180910390fd5b606060006040519080825280602002602001820160405280156107ec5781602001602082028038833980820191505090505b5090506107f7610c00565b6040518060a0016040528060011515815260200186815260200185815260200184815260200183815250905080600360003373ffffffffffffffffffffffffffffffffffffffff1673ffffffffffffffffffffffffffffffffffffffff16815260200190815260200160002060008201518160000160006101000a81548160ff021916908315150217905550602082015181600101556040820151816002015560608201518160030190805190602001906108b3929190610c92565b5060808201518160040190805190602001906108d0929190610d12565b50905050600260008154809291906001019190505550826040516108f49190611331565b604051809103902084867fa5c5b3c988959385ca81b0d504f29a0dd245b898621b0a53b037e1d8cf36607f60405160405180910390a45050505050565b6000600360003373ffffffffffffffffffffffffffffffffffffffff1673ffffffffffffffffffffffffffffffffffffffff1681526020019081526020016000209050600115158160000160009054906101000a900460ff161515146109cc576040517f08c379a00000000000000000000000000000000000000000000000000000000081526004016109c390611454565b60405180910390fd5b8060010154816004018054905010610a19576040517f08c379a0000000000000000000000000000000000000000000000000000000008152600401610a1090611434565b60405180910390fd5b610a21610c31565b60405180610100016040528060011515815260200160015481526020013373ffffffffffffffffffffffffffffffffffffffff168152602001881515815260200187151581526020018681526020018581526020018481525090508060046000600154815260200190815260200160002060008201518160000160006101000a81548160ff0219169083151502179055506020820151816001015560408201518160020160006101000a81548173ffffffffffffffffffffffffffffffffffffffff021916908373ffffffffffffffffffffffffffffffffffffffff16021790555060608201518160020160146101000a81548160ff02191690831515021790555060808201518160020160156101000a81548160ff02191690831515021790555060a0820151816003015560c0820151816004015560e0820151816005019080519060200190610b73929190610c92565b50905050600360003373ffffffffffffffffffffffffffffffffffffffff1673ffffffffffffffffffffffffffffffffffffffff168152602001908152602001600020600401600154908060018154018082558091505090600182039060005260206000200160009091929091909150555060016000815480929190600101919050555050505050505050565b6040518060a00160405280600015158152602001600081526020016000815260200160608152602001606081525090565b60405180610100016040528060001515815260200160008152602001600073ffffffffffffffffffffffffffffffffffffffff1681526020016000151581526020016000151581526020016000815260200160008152602001606081525090565b828054600181600116156101000203166002900490600052602060002090601f016020900481019282601f10610cd357805160ff1916838001178555610d01565b82800160010185558215610d01579182015b82811115610d00578251825591602001919060010190610ce5565b5b509050610d0e9190610d5f565b5090565b828054828255906000526020600020908101928215610d4e579160200282015b82811115610d4d578251825591602001919060010190610d32565b5b509050610d5b9190610d5f565b5090565b610d8191905b80821115610d7d576000816000905550600101610d65565b5090565b90565b600081359050610d9381611663565b92915050565b600081359050610da88161167a565b92915050565b600082601f830112610dbf57600080fd5b8135610dd2610dcd82611520565b6114f3565b91508082526020830160208301858383011115610dee57600080fd5b610df9838284611610565b50505092915050565b600081359050610e1181611691565b92915050565b600060208284031215610e2957600080fd5b6000610e3784828501610d84565b91505092915050565b600080600080600060a08688031215610e5857600080fd5b6000610e6688828901610d99565b9550506020610e7788828901610d99565b9450506040610e8888828901610e02565b9350506060610e9988828901610e02565b925050608086013567ffffffffffffffff811115610eb657600080fd5b610ec288828901610dae565b9150509295509295909350565b600060208284031215610ee157600080fd5b6000610eef84828501610e02565b91505092915050565b600080600060608486031215610f0d57600080fd5b6000610f1b86828701610e02565b9350506020610f2c86828701610e02565b925050604084013567ffffffffffffffff811115610f4957600080fd5b610f5586828701610dae565b9150509250925092565b6000610f6b8383611313565b60208301905092915050565b610f80816115c8565b82525050565b610f8f816115c8565b82525050565b6000610fa08261155c565b610faa818561158a565b9350610fb58361154c565b8060005b83811015610fe6578151610fcd8882610f5f565b9750610fd88361157d565b925050600181019050610fb9565b5085935050505092915050565b610ffc816115da565b82525050565b61100b816115da565b82525050565b600061101c82611572565b61102681856115bd565b935061103681856020860161161f565b80840191505092915050565b600061104d82611567565b611057818561159b565b935061106781856020860161161f565b61107081611652565b840191505092915050565b600061108682611567565b61109081856115ac565b93506110a081856020860161161f565b6110a981611652565b840191505092915050565b60006110c16025836115ac565b91507f4d617820726567697374657265642070656f706c6520666f722074686973204860008301527f6f7573652e0000000000000000000000000000000000000000000000000000006020830152604082019050919050565b6000611127602e836115ac565b91507f5468657265206973206e6f20686f757365207265676973746572656420666f7260008301527f207468697320616464726573732e0000000000000000000000000000000000006020830152604082019050919050565b600061118d602c836115ac565b91507f5468697320616464726573732068617320616c7265616479207265676973746560008301527f726564206120686f7573652e00000000000000000000000000000000000000006020830152604082019050919050565b600060a0830160008301516111fe6000860182610ff3565b5060208301516112116020860182611313565b5060408301516112246040860182611313565b506060830151848203606086015261123c8282611042565b915050608083015184820360808601526112568282610f95565b9150508091505092915050565b60006101008301600083015161127c6000860182610ff3565b50602083015161128f6020860182611313565b5060408301516112a26040860182610f77565b5060608301516112b56060860182610ff3565b5060808301516112c86080860182610ff3565b5060a08301516112db60a0860182611313565b5060c08301516112ee60c0860182611313565b5060e083015184820360e08601526113068282611042565b9150508091505092915050565b61131c81611606565b82525050565b61132b81611606565b82525050565b600061133d8284611011565b915081905092915050565b600060208201905061135d6000830184610f86565b92915050565b600061010082019050611379600083018b611002565b611386602083018a611322565b6113936040830189610f86565b6113a06060830188611002565b6113ad6080830187611002565b6113ba60a0830186611322565b6113c760c0830185611322565b81810360e08301526113d9818461107b565b90509998505050505050505050565b60006080820190506113fd6000830187611002565b61140a6020830186611322565b6114176040830185611322565b8181036060830152611429818461107b565b905095945050505050565b6000602082019050818103600083015261144d816110b4565b9050919050565b6000602082019050818103600083015261146d8161111a565b9050919050565b6000602082019050818103600083015261148d81611180565b9050919050565b600060208201905081810360008301526114ae81846111e6565b905092915050565b600060208201905081810360008301526114d08184611263565b905092915050565b60006020820190506114ed6000830184611322565b92915050565b6000604051905081810181811067ffffffffffffffff8211171561151657600080fd5b8060405250919050565b600067ffffffffffffffff82111561153757600080fd5b601f19601f8301169050602081019050919050565b6000819050602082019050919050565b600081519050919050565b600081519050919050565b600081519050919050565b6000602082019050919050565b600082825260208201905092915050565b600082825260208201905092915050565b600082825260208201905092915050565b600081905092915050565b60006115d3826115e6565b9050919050565b60008115159050919050565b600073ffffffffffffffffffffffffffffffffffffffff82169050919050565b6000819050919050565b82818337600083830152505050565b60005b8381101561163d578082015181840152602081019050611622565b8381111561164c576000848401525b50505050565b6000601f19601f8301169050919050565b61166c816115c8565b811461167757600080fd5b50565b611683816115da565b811461168e57600080fd5b50565b61169a81611606565b81146116a557600080fd5b5056fea365627a7a72315820652d3d67841c69e06c9dd39a1434bab08512a9e9690e1dacef9ade5dee3d83446c6578706572696d656e74616cf564736f6c63430005100040",
  "source": "pragma solidity ^0.5.0;\r\npragma experimental ABIEncoderV2;\r\n\r\ncontract Census {\r\n    \r\n    // ORACLE: MASTER ADDRESS FILE\r\n    // a token is created for every address on file\r\n    // this token is used as a one-time verification\r\n    // verifyToken function will verify token is valid\r\n    // once verified, will grant address permission to\r\n    // complete Census.\r\n    // Number of tokens generated will coincide with total\r\n    // verified address and token cannot be traced to address\r\n    \r\n    \r\n    // Initialize contract owner\r\n    address public owner;\r\n\r\n    // Global counter for Person struct ID\r\n    uint public personCount;\r\n    // Global counter for House count\r\n    uint public houseCount;\r\n\r\n\r\n    // House struct\r\n    struct House {\r\n        bool registered;\r\n        uint maxResidents;\r\n        uint extraResidents;\r\n        string houseType; // House, Apartment, Mobile Home\r\n        uint[] residentList;\r\n    }\r\n\r\n    // Person struct\r\n    struct Person {\r\n        bool registered;\r\n        uint id; // peopleCount\r\n        address home; // msg.sender NECESSARY? (home can be assumed from address of transaction)\r\n        bool isMale;\r\n        bool isHispanic;\r\n        uint age;\r\n        uint birthDate; // MMDDYYYY\r\n        string race;\r\n    }\r\n    \r\n\r\n    // stores index of 'Houses' struct by address\r\n    mapping(address => House) public houses;\r\n\r\n    // stores a 'Person' struct as index id\r\n    mapping(uint => Person) public people;\r\n\r\n    event houseAddedEvent (\r\n    uint indexed _maxResidents,\r\n    uint indexed _extraResidents,\r\n    string indexed _housetype\r\n    );\r\n\r\n    // Initialized at contract creation\r\n    constructor() public {\r\n        // Contract owner\r\n        owner = msg.sender;\r\n        personCount = 0;\r\n        houseCount = 0;\r\n    }\r\n\r\n    function verifyTokenOracle(bytes32 _key) private returns (bool) {\r\n        \r\n    }\r\n\r\n    function addHouse(uint _maxResidents, uint _extraResidents, string memory _housetype) public {\r\n        \r\n        // Ensure house is not already registered for address\r\n        require(houses[msg.sender].registered == false, \"This address has already registered a house.\");\r\n\r\n        // Initialize empty residentList array\r\n        uint[] memory emptyList = new uint[](0);\r\n        \r\n        // Create new house struct\r\n        House memory newhouse = House(true, _maxResidents, _extraResidents, _housetype, emptyList);\r\n\r\n        houses[msg.sender] = newhouse;\r\n\r\n        // Increase global house count\r\n        houseCount++;\r\n\r\n        emit houseAddedEvent(_maxResidents, _extraResidents, _housetype);\r\n    }\r\n\r\n\r\n    function addPerson(bool _ismale, bool _ishispanic, uint _age, uint _birthdate, string memory _race) public {\r\n\r\n        House storage currentHouse = houses[msg.sender];\r\n\r\n        // Ensure house for address exists before adding\r\n        require(currentHouse.registered == true, \"There is no house registered for this address.\");\r\n        \r\n        // Require house of address to have resident count within range\r\n        require(currentHouse.residentList.length < currentHouse.maxResidents, \"Max registered people for this House.\");\r\n\r\n        Person memory newPerson =  Person(true, personCount, msg.sender, _ismale, _ishispanic, _age, _birthdate, _race);\r\n        people[personCount] = newPerson;\r\n\r\n        // Add person ID to house residentList\r\n        houses[msg.sender].residentList.push(personCount);\r\n        \r\n        // Increase global person count (iD)\r\n        personCount++;\r\n    }\r\n    \r\n    function getResident(uint _index) public view returns (Person memory ppls) {\r\n        return people[_index];\r\n    }\r\n\r\n    function getHouse() public view returns (House memory hizzy) {\r\n        return houses[msg.sender];\r\n    }\r\n\r\n    // // DEBUG TEST STUFF\r\n    // function returnBool(uint number) public view returns (bool) {\r\n    //     if (number > 9000) {\r\n    //         return true;\r\n    //     }\r\n    //     else {\r\n    //         return false;\r\n    //     }\r\n    // }\r\n\r\n    // function returnOver9000(uint number) public view returns (bool) {\r\n    //     if (returnBool(number) == true) {\r\n    //         return true;\r\n    //     }\r\n    //     else {\r\n    //         return false;\r\n    //     }\r\n    // }\r\n}",
  "sourcePath": "C:\\Users\\Jerrbear\\Desktop\\solidity\\censusdapp\\contracts\\Census.sol",
  "compiler": {
    "name": "solc",
    "version": "0.5.16+commit.9c3226ce.Emscripten.clang"
  },
  "schemaVersion": "3.0.23",
  "updatedAt": "2020-03-17T01:09:11.236Z",
  "devdoc": {
    "methods": {}
  },
  "userdoc": {
    "methods": {}
  }
}