{
  "contractName": "Census",
  "abi": [
    {
      "inputs": [],
      "payable": false,
      "stateMutability": "nonpayable",
      "type": "constructor"
    },
    {
      "anonymous": false,
      "inputs": [
        {
          "indexed": true,
          "internalType": "uint256",
          "name": "_maxResidents",
          "type": "uint256"
        },
        {
          "indexed": true,
          "internalType": "uint256",
          "name": "_extraResidents",
          "type": "uint256"
        }
      ],
      "name": "houseAddedEvent",
      "type": "event"
    },
    {
      "constant": true,
      "inputs": [],
      "name": "houseCount",
      "outputs": [
        {
          "internalType": "uint256",
          "name": "",
          "type": "uint256"
        }
      ],
      "payable": false,
      "stateMutability": "view",
      "type": "function"
    },
    {
      "constant": true,
      "inputs": [
        {
          "internalType": "address",
          "name": "",
          "type": "address"
        }
      ],
      "name": "houses",
      "outputs": [
        {
          "internalType": "bool",
          "name": "registered",
          "type": "bool"
        },
        {
          "internalType": "uint256",
          "name": "maxResidents",
          "type": "uint256"
        },
        {
          "internalType": "uint256",
          "name": "extraResidents",
          "type": "uint256"
        },
        {
          "internalType": "string",
          "name": "houseType",
          "type": "string"
        }
      ],
      "payable": false,
      "stateMutability": "view",
      "type": "function"
    },
    {
      "constant": true,
      "inputs": [],
      "name": "owner",
      "outputs": [
        {
          "internalType": "address",
          "name": "",
          "type": "address"
        }
      ],
      "payable": false,
      "stateMutability": "view",
      "type": "function"
    },
    {
      "constant": true,
      "inputs": [
        {
          "internalType": "uint256",
          "name": "",
          "type": "uint256"
        }
      ],
      "name": "people",
      "outputs": [
        {
          "internalType": "bool",
          "name": "registered",
          "type": "bool"
        },
        {
          "internalType": "uint256",
          "name": "id",
          "type": "uint256"
        },
        {
          "internalType": "address",
          "name": "home",
          "type": "address"
        },
        {
          "internalType": "bool",
          "name": "isMale",
          "type": "bool"
        },
        {
          "internalType": "bool",
          "name": "isHispanic",
          "type": "bool"
        },
        {
          "internalType": "uint32",
          "name": "age",
          "type": "uint32"
        },
        {
          "internalType": "uint32",
          "name": "birthDate",
          "type": "uint32"
        },
        {
          "internalType": "bytes32",
          "name": "race",
          "type": "bytes32"
        },
        {
          "internalType": "bytes32",
          "name": "liveReason",
          "type": "bytes32"
        },
        {
          "internalType": "bytes32",
          "name": "relation",
          "type": "bytes32"
        }
      ],
      "payable": false,
      "stateMutability": "view",
      "type": "function"
    },
    {
      "constant": true,
      "inputs": [],
      "name": "personCount",
      "outputs": [
        {
          "internalType": "uint256",
          "name": "",
          "type": "uint256"
        }
      ],
      "payable": false,
      "stateMutability": "view",
      "type": "function"
    },
    {
      "constant": false,
      "inputs": [
        {
          "internalType": "uint256",
          "name": "_maxResidents",
          "type": "uint256"
        },
        {
          "internalType": "uint256",
          "name": "_extraResidents",
          "type": "uint256"
        },
        {
          "internalType": "string",
          "name": "_housetype",
          "type": "string"
        }
      ],
      "name": "addHouse",
      "outputs": [],
      "payable": false,
      "stateMutability": "nonpayable",
      "type": "function"
    },
    {
      "constant": false,
      "inputs": [
        {
          "internalType": "bool",
          "name": "_ismale",
          "type": "bool"
        },
        {
          "internalType": "bool",
          "name": "_ishispanic",
          "type": "bool"
        },
        {
          "internalType": "uint32",
          "name": "_age",
          "type": "uint32"
        },
        {
          "internalType": "uint32",
          "name": "_birthdate",
          "type": "uint32"
        },
        {
          "internalType": "bytes32",
          "name": "_race",
          "type": "bytes32"
        },
        {
          "internalType": "bytes32",
          "name": "_liveReason",
          "type": "bytes32"
        },
        {
          "internalType": "bytes32",
          "name": "_relation",
          "type": "bytes32"
        }
      ],
      "name": "addPerson",
      "outputs": [],
      "payable": false,
      "stateMutability": "nonpayable",
      "type": "function"
    },
    {
      "constant": true,
      "inputs": [],
      "name": "getHouse",
      "outputs": [
        {
          "internalType": "bool",
          "name": "",
          "type": "bool"
        },
        {
          "internalType": "uint256",
          "name": "",
          "type": "uint256"
        },
        {
          "internalType": "uint256",
          "name": "",
          "type": "uint256"
        },
        {
          "internalType": "string",
          "name": "",
          "type": "string"
        },
        {
          "internalType": "uint256[]",
          "name": "",
          "type": "uint256[]"
        }
      ],
      "payable": false,
      "stateMutability": "view",
      "type": "function"
    },
    {
      "constant": true,
      "inputs": [
        {
          "internalType": "uint256",
          "name": "index",
          "type": "uint256"
        }
      ],
      "name": "getPerson",
      "outputs": [
        {
          "internalType": "bool",
          "name": "",
          "type": "bool"
        },
        {
          "internalType": "address",
          "name": "",
          "type": "address"
        },
        {
          "internalType": "bool",
          "name": "",
          "type": "bool"
        },
        {
          "internalType": "bool",
          "name": "",
          "type": "bool"
        },
        {
          "internalType": "uint32",
          "name": "",
          "type": "uint32"
        },
        {
          "internalType": "uint32",
          "name": "",
          "type": "uint32"
        },
        {
          "internalType": "bytes32",
          "name": "",
          "type": "bytes32"
        }
      ],
      "payable": false,
      "stateMutability": "view",
      "type": "function"
    },
    {
      "constant": true,
      "inputs": [
        {
          "internalType": "uint256",
          "name": "index",
          "type": "uint256"
        }
      ],
      "name": "getPersonMore",
      "outputs": [
        {
          "internalType": "bytes32",
          "name": "",
          "type": "bytes32"
        },
        {
          "internalType": "bytes32",
          "name": "",
          "type": "bytes32"
        }
      ],
      "payable": false,
      "stateMutability": "view",
      "type": "function"
    },
    {
      "constant": true,
      "inputs": [
        {
          "internalType": "uint256[]",
          "name": "resiNums",
          "type": "uint256[]"
        }
      ],
      "name": "getPeople",
      "outputs": [
        {
          "internalType": "bool[]",
          "name": "",
          "type": "bool[]"
        },
        {
          "internalType": "bool[]",
          "name": "",
          "type": "bool[]"
        },
        {
          "internalType": "bool[]",
          "name": "",
          "type": "bool[]"
        },
        {
          "internalType": "uint256[]",
          "name": "",
          "type": "uint256[]"
        },
        {
          "internalType": "uint256[]",
          "name": "",
          "type": "uint256[]"
        },
        {
          "internalType": "bytes32[]",
          "name": "",
          "type": "bytes32[]"
        }
      ],
      "payable": false,
      "stateMutability": "view",
      "type": "function"
    },
    {
      "constant": true,
      "inputs": [
        {
          "internalType": "uint256[]",
          "name": "resiNums",
          "type": "uint256[]"
        }
      ],
      "name": "getPeopleMore",
      "outputs": [
        {
          "internalType": "bytes32[]",
          "name": "",
          "type": "bytes32[]"
        },
        {
          "internalType": "bytes32[]",
          "name": "",
          "type": "bytes32[]"
        }
      ],
      "payable": false,
      "stateMutability": "view",
      "type": "function"
    }
  ],
  "bytecode": "0x608060405234801561001057600080fd5b50336000806101000a81548173ffffffffffffffffffffffffffffffffffffffff021916908373ffffffffffffffffffffffffffffffffffffffff16021790555060006001819055506000600281905550612050806100706000396000f3fe608060405234801561001057600080fd5b50600436106100b45760003560e01c80638da5cb5b116100715780638da5cb5b146101c85780639101ce8b146101e65780639e7a13ad14610202578063bd74f8b11461023b578063dc10fb3e14610259578063e2b0966c1461028a576100b4565b806304e2064f146100b9578063246982c4146100db5780632c3fe927146101115780636159330f1461014257806378495bf8146101775780637abb3d1b14610195575b600080fd5b6100c16102a6565b6040516100d2959493929190611c6d565b60405180910390f35b6100f560048036036100f091908101906115eb565b610430565b6040516101089796959493929190611b16565b60405180910390f35b61012b6004803603610126919081019061150c565b61051f565b604051610139929190611adf565b60405180910390f35b61015c6004803603610157919081019061150c565b6106d4565b60405161016e96959493929190611a54565b60405180910390f35b61017f610ae4565b60405161018c9190611d77565b60405180910390f35b6101af60048036036101aa91908101906114e3565b610aea565b6040516101bf9493929190611c21565b60405180910390f35b6101d0610bbf565b6040516101dd9190611a39565b60405180910390f35b61020060048036036101fb919081019061154d565b610be4565b005b61021c600480360361021791908101906115eb565b610f0a565b6040516102329a99989796959493929190611b85565b60405180910390f35b610243610fc5565b6040516102509190611d77565b60405180910390f35b610273600480360361026e91908101906115eb565b610fcb565b604051610281929190611cce565b60405180910390f35b6102a4600480360361029f9190810190611614565b611005565b005b60008060006060806000600360003373ffffffffffffffffffffffffffffffffffffffff1673ffffffffffffffffffffffffffffffffffffffff168152602001908152602001600020905060008160000160009054906101000a900460ff169050600082600101549050600083600201549050600084600301905060608560040180548060200260200160405190810160405280929190818152602001828054801561037157602002820191906000526020600020905b81548152602001906001019080831161035d575b505050505090508484848484818054600181600116156101000203166002900480601f0160208091040260200160405190810160405280929190818152602001828054600181600116156101000203166002900480156104125780601f106103e757610100808354040283529160200191610412565b820191906000526020600020905b8154815290600101906020018083116103f557829003601f168201915b505050505091509a509a509a509a509a505050505050509091929394565b600080600080600080600080600460008a8152602001908152602001600020905060008160000160009054906101000a900460ff16905060008260020160009054906101000a900473ffffffffffffffffffffffffffffffffffffffff16905060008360020160149054906101000a900460ff16905060008460020160159054906101000a900460ff16905060008560020160169054906101000a900463ffffffff169050600086600201601a9054906101000a900463ffffffff169050600087600301549050868686868686869e509e509e509e509e509e509e505050505050505050919395979092949650565b60608060008090505b83518110156105bb57600115156004600086848151811061054557fe5b6020026020010151815260200190815260200160002060000160009054906101000a900460ff161515146105ae576040517f08c379a00000000000000000000000000000000000000000000000000000000081526004016105a590611d57565b60405180910390fd5b8080600101915050610528565b50606083516040519080825280602002602001820160405280156105ee5781602001602082028038833980820191505090505b509050606084516040519080825280602002602001820160405280156106235781602001602082028038833980820191505090505b50905060008090505b85518110156106c6576004600087838151811061064557fe5b602002602001015181526020019081526020016000206004015483828151811061066b57fe5b6020026020010181815250506004600087838151811061068757fe5b60200260200101518152602001908152602001600020600501548282815181106106ad57fe5b602002602001018181525050808060010191505061062c565b508181935093505050915091565b60608060608060608060008090505b87518110156107765760011515600460008a848151811061070057fe5b6020026020010151815260200190815260200160002060000160009054906101000a900460ff16151514610769576040517f08c379a000000000000000000000000000000000000000000000000000000000815260040161076090611d57565b60405180910390fd5b80806001019150506106e3565b50606087516040519080825280602002602001820160405280156107a95781602001602082028038833980820191505090505b509050606088516040519080825280602002602001820160405280156107de5781602001602082028038833980820191505090505b509050606089516040519080825280602002602001820160405280156108135781602001602082028038833980820191505090505b50905060608a516040519080825280602002602001820160405280156108485781602001602082028038833980820191505090505b50905060608b5160405190808252806020026020018201604052801561087d5781602001602082028038833980820191505090505b50905060608c516040519080825280602002602001820160405280156108b25781602001602082028038833980820191505090505b50905060008090505b8d51811015610ac257600460008f83815181106108d457fe5b6020026020010151815260200190815260200160002060000160009054906101000a900460ff1687828151811061090757fe5b602002602001019015159081151581525050600460008f838151811061092957fe5b6020026020010151815260200190815260200160002060020160149054906101000a900460ff1686828151811061095c57fe5b602002602001019015159081151581525050600460008f838151811061097e57fe5b6020026020010151815260200190815260200160002060020160159054906101000a900460ff168582815181106109b157fe5b602002602001019015159081151581525050600460008f83815181106109d357fe5b6020026020010151815260200190815260200160002060020160169054906101000a900463ffffffff1663ffffffff16848281518110610a0f57fe5b602002602001018181525050600460008f8381518110610a2b57fe5b60200260200101518152602001908152602001600020600201601a9054906101000a900463ffffffff1663ffffffff16838281518110610a6757fe5b602002602001018181525050600460008f8381518110610a8357fe5b6020026020010151815260200190815260200160002060030154828281518110610aa957fe5b60200260200101818152505080806001019150506108bb565b508585858585859b509b509b509b509b509b5050505050505091939550919395565b60015481565b60036020528060005260406000206000915090508060000160009054906101000a900460ff1690806001015490806002015490806003018054600181600116156101000203166002900480601f016020809104026020016040519081016040528092919081815260200182805460018160011615610100020316600290048015610bb55780601f10610b8a57610100808354040283529160200191610bb5565b820191906000526020600020905b815481529060010190602001808311610b9857829003601f168201915b5050505050905084565b6000809054906101000a900473ffffffffffffffffffffffffffffffffffffffff1681565b6000600360003373ffffffffffffffffffffffffffffffffffffffff1673ffffffffffffffffffffffffffffffffffffffff1681526020019081526020016000209050600115158160000160009054906101000a900460ff16151514610c7f576040517f08c379a0000000000000000000000000000000000000000000000000000000008152600401610c7690611d17565b60405180910390fd5b8060010154816004018054905010610ccc576040517f08c379a0000000000000000000000000000000000000000000000000000000008152600401610cc390611cf7565b60405180910390fd5b610cd46111fc565b60405180610140016040528060011515815260200160015481526020013373ffffffffffffffffffffffffffffffffffffffff1681526020018a1515815260200189151581526020018863ffffffff1681526020018763ffffffff1681526020018681526020018581526020018481525090508060046000600154815260200190815260200160002060008201518160000160006101000a81548160ff0219169083151502179055506020820151816001015560408201518160020160006101000a81548173ffffffffffffffffffffffffffffffffffffffff021916908373ffffffffffffffffffffffffffffffffffffffff16021790555060608201518160020160146101000a81548160ff02191690831515021790555060808201518160020160156101000a81548160ff02191690831515021790555060a08201518160020160166101000a81548163ffffffff021916908363ffffffff16021790555060c082015181600201601a6101000a81548163ffffffff021916908363ffffffff16021790555060e0820151816003015561010082015181600401556101208201518160050155905050600360003373ffffffffffffffffffffffffffffffffffffffff1673ffffffffffffffffffffffffffffffffffffffff1681526020019081526020016000206004016001549080600181540180825580915050906001820390600052602060002001600090919290919091505550600160008154809291906001019190505550505050505050505050565b60046020528060005260406000206000915090508060000160009054906101000a900460ff16908060010154908060020160009054906101000a900473ffffffffffffffffffffffffffffffffffffffff16908060020160149054906101000a900460ff16908060020160159054906101000a900460ff16908060020160169054906101000a900463ffffffff169080600201601a9054906101000a900463ffffffff1690806003015490806004015490806005015490508a565b60025481565b6000806000600460008581526020019081526020016000209050600081600401549050600082600501549050818194509450505050915091565b60001515600360003373ffffffffffffffffffffffffffffffffffffffff1673ffffffffffffffffffffffffffffffffffffffff16815260200190815260200160002060000160009054906101000a900460ff1615151461109b576040517f08c379a000000000000000000000000000000000000000000000000000000000815260040161109290611d37565b60405180910390fd5b606060006040519080825280602002602001820160405280156110cd5781602001602082028038833980820191505090505b5090506110d8611280565b6040518060a0016040528060011515815260200186815260200185815260200184815260200183815250905080600360003373ffffffffffffffffffffffffffffffffffffffff1673ffffffffffffffffffffffffffffffffffffffff16815260200190815260200160002060008201518160000160006101000a81548160ff021916908315150217905550602082015181600101556040820151816002015560608201518160030190805190602001906111949291906112b1565b5060808201518160040190805190602001906111b1929190611331565b5090505060026000815480929190600101919050555083857feafa008c7b375315bec76e1ba9016f5147021cdf64820f3034a07feecd10751660405160405180910390a35050505050565b60405180610140016040528060001515815260200160008152602001600073ffffffffffffffffffffffffffffffffffffffff168152602001600015158152602001600015158152602001600063ffffffff168152602001600063ffffffff1681526020016000801916815260200160008019168152602001600080191681525090565b6040518060a00160405280600015158152602001600081526020016000815260200160608152602001606081525090565b828054600181600116156101000203166002900490600052602060002090601f016020900481019282601f106112f257805160ff1916838001178555611320565b82800160010185558215611320579182015b8281111561131f578251825591602001919060010190611304565b5b50905061132d919061137e565b5090565b82805482825590600052602060002090810192821561136d579160200282015b8281111561136c578251825591602001919060010190611351565b5b50905061137a919061137e565b5090565b6113a091905b8082111561139c576000816000905550600101611384565b5090565b90565b6000813590506113b281611f9a565b92915050565b600082601f8301126113c957600080fd5b81356113dc6113d782611dbf565b611d92565b9150818183526020840193506020810190508385602084028201111561140157600080fd5b60005b83811015611431578161141788826114b9565b845260208401935060208301925050600181019050611404565b5050505092915050565b60008135905061144a81611fb1565b92915050565b60008135905061145f81611fc8565b92915050565b600082601f83011261147657600080fd5b813561148961148482611de7565b611d92565b915080825260208301602083018583830111156114a557600080fd5b6114b0838284611f47565b50505092915050565b6000813590506114c881611fdf565b92915050565b6000813590506114dd81611ff6565b92915050565b6000602082840312156114f557600080fd5b6000611503848285016113a3565b91505092915050565b60006020828403121561151e57600080fd5b600082013567ffffffffffffffff81111561153857600080fd5b611544848285016113b8565b91505092915050565b600080600080600080600060e0888a03121561156857600080fd5b60006115768a828b0161143b565b97505060206115878a828b0161143b565b96505060406115988a828b016114ce565b95505060606115a98a828b016114ce565b94505060806115ba8a828b01611450565b93505060a06115cb8a828b01611450565b92505060c06115dc8a828b01611450565b91505092959891949750929550565b6000602082840312156115fd57600080fd5b600061160b848285016114b9565b91505092915050565b60008060006060848603121561162957600080fd5b6000611637868287016114b9565b9350506020611648868287016114b9565b925050604084013567ffffffffffffffff81111561166557600080fd5b61167186828701611465565b9150509250925092565b600061168783836117ec565b60208301905092915050565b600061169f838361180a565b60208301905092915050565b60006116b78383611a0c565b60208301905092915050565b6116cc81611ee5565b82525050565b60006116dd82611e43565b6116e78185611ea1565b93506116f283611e13565b8060005b8381101561172357815161170a888261167b565b975061171583611e7a565b9250506001810190506116f6565b5085935050505092915050565b600061173b82611e4e565b6117458185611eb2565b935061175083611e23565b8060005b838110156117815781516117688882611693565b975061177383611e87565b925050600181019050611754565b5085935050505092915050565b600061179982611e59565b6117a38185611ec3565b93506117ae83611e33565b8060005b838110156117df5781516117c688826116ab565b97506117d183611e94565b9250506001810190506117b2565b5085935050505092915050565b6117f581611ef7565b82525050565b61180481611ef7565b82525050565b61181381611f03565b82525050565b61182281611f03565b82525050565b600061183382611e6f565b61183d8185611ed4565b935061184d818560208601611f56565b61185681611f89565b840191505092915050565b600061186c82611e64565b6118768185611ed4565b9350611886818560208601611f56565b61188f81611f89565b840191505092915050565b60006118a7602583611ed4565b91507f4d617820726567697374657265642070656f706c6520666f722074686973204860008301527f6f7573652e0000000000000000000000000000000000000000000000000000006020830152604082019050919050565b600061190d602e83611ed4565b91507f5468657265206973206e6f20686f757365207265676973746572656420666f7260008301527f207468697320616464726573732e0000000000000000000000000000000000006020830152604082019050919050565b6000611973602c83611ed4565b91507f5468697320616464726573732068617320616c7265616479207265676973746560008301527f726564206120686f7573652e00000000000000000000000000000000000000006020830152604082019050919050565b60006119d9601c83611ed4565b91507f496e76616c696420706572736f6e204944207265717565737465642e000000006000830152602082019050919050565b611a1581611f2d565b82525050565b611a2481611f2d565b82525050565b611a3381611f37565b82525050565b6000602082019050611a4e60008301846116c3565b92915050565b600060c0820190508181036000830152611a6e81896116d2565b90508181036020830152611a8281886116d2565b90508181036040830152611a9681876116d2565b90508181036060830152611aaa818661178e565b90508181036080830152611abe818561178e565b905081810360a0830152611ad28184611730565b9050979650505050505050565b60006040820190508181036000830152611af98185611730565b90508181036020830152611b0d8184611730565b90509392505050565b600060e082019050611b2b600083018a6117fb565b611b3860208301896116c3565b611b4560408301886117fb565b611b5260608301876117fb565b611b5f6080830186611a2a565b611b6c60a0830185611a2a565b611b7960c0830184611819565b98975050505050505050565b600061014082019050611b9b600083018d6117fb565b611ba8602083018c611a1b565b611bb5604083018b6116c3565b611bc2606083018a6117fb565b611bcf60808301896117fb565b611bdc60a0830188611a2a565b611be960c0830187611a2a565b611bf660e0830186611819565b611c04610100830185611819565b611c12610120830184611819565b9b9a5050505050505050505050565b6000608082019050611c3660008301876117fb565b611c436020830186611a1b565b611c506040830185611a1b565b8181036060830152611c628184611861565b905095945050505050565b600060a082019050611c8260008301886117fb565b611c8f6020830187611a1b565b611c9c6040830186611a1b565b8181036060830152611cae8185611828565b90508181036080830152611cc2818461178e565b90509695505050505050565b6000604082019050611ce36000830185611819565b611cf06020830184611819565b9392505050565b60006020820190508181036000830152611d108161189a565b9050919050565b60006020820190508181036000830152611d3081611900565b9050919050565b60006020820190508181036000830152611d5081611966565b9050919050565b60006020820190508181036000830152611d70816119cc565b9050919050565b6000602082019050611d8c6000830184611a1b565b92915050565b6000604051905081810181811067ffffffffffffffff82111715611db557600080fd5b8060405250919050565b600067ffffffffffffffff821115611dd657600080fd5b602082029050602081019050919050565b600067ffffffffffffffff821115611dfe57600080fd5b601f19601f8301169050602081019050919050565b6000819050602082019050919050565b6000819050602082019050919050565b6000819050602082019050919050565b600081519050919050565b600081519050919050565b600081519050919050565b600081519050919050565b600081519050919050565b6000602082019050919050565b6000602082019050919050565b6000602082019050919050565b600082825260208201905092915050565b600082825260208201905092915050565b600082825260208201905092915050565b600082825260208201905092915050565b6000611ef082611f0d565b9050919050565b60008115159050919050565b6000819050919050565b600073ffffffffffffffffffffffffffffffffffffffff82169050919050565b6000819050919050565b600063ffffffff82169050919050565b82818337600083830152505050565b60005b83811015611f74578082015181840152602081019050611f59565b83811115611f83576000848401525b50505050565b6000601f19601f8301169050919050565b611fa381611ee5565b8114611fae57600080fd5b50565b611fba81611ef7565b8114611fc557600080fd5b50565b611fd181611f03565b8114611fdc57600080fd5b50565b611fe881611f2d565b8114611ff357600080fd5b50565b611fff81611f37565b811461200a57600080fd5b5056fea365627a7a72315820a15ffc735751d718a13b8ef6f0c8be8a4581c51af9f256d5d98301557013044a6c6578706572696d656e74616cf564736f6c63430005100040",
  "source": "pragma solidity ^0.5.0;\r\npragma experimental ABIEncoderV2;\r\n\r\ncontract Census {\r\n    \r\n    // ORACLE: MASTER ADDRESS FILE\r\n    // a token is created for every address on file\r\n    // this token is used as a one-time verification\r\n    // verifyToken function will verify token is valid\r\n    // once verified, will grant address permission to\r\n    // complete Census.\r\n    // Number of tokens generated will coincide with total\r\n    // verified address and token cannot be traced to address\r\n    \r\n    \r\n    // Initialize contract owner\r\n    address public owner;\r\n\r\n    // Global counter for Person struct ID\r\n    uint public personCount;\r\n    // Global counter for House count\r\n    uint public houseCount;\r\n\r\n    // House struct\r\n    struct House {\r\n        bool registered;\r\n        uint maxResidents;\r\n        uint extraResidents;\r\n        string houseType; // House, Apartment, Mobile Home\r\n        uint[] residentList;\r\n    }\r\n\r\n    // Person struct\r\n    struct Person {\r\n        bool registered;\r\n        uint id; // peopleCount at time of transaction\r\n        address home; // easy tracking on data pulls\r\n        bool isMale;\r\n        bool isHispanic;\r\n        uint32 age;\r\n        uint32 birthDate; // YYYYMMDD\r\n        bytes32 race;\r\n        bytes32 liveReason;\r\n        bytes32 relation;\r\n    }\r\n    \r\n\r\n    // stores index of 'Houses' struct by address\r\n    mapping(address => House) public houses;\r\n\r\n    // stores a 'Person' struct as index id\r\n    mapping(uint => Person) public people;\r\n\r\n    event houseAddedEvent (\r\n    uint indexed _maxResidents,\r\n    uint indexed _extraResidents\r\n    );\r\n\r\n    // Initialized at contract creation\r\n    constructor() public {\r\n        // Contract owner\r\n        owner = msg.sender;\r\n        personCount = 0;\r\n        houseCount = 0;\r\n    }\r\n\r\n    // function verifyTokenOracle(bytes32 _key) private returns (bool) {\r\n        \r\n    // }\r\n\r\n    function addHouse(uint _maxResidents, uint _extraResidents, string memory _housetype) public {\r\n        \r\n        // Ensure house is not already registered for address\r\n        require(houses[msg.sender].registered == false, \"This address has already registered a house.\");\r\n\r\n        // Initialize empty residentList array\r\n        uint[] memory emptyList = new uint[](0);\r\n        \r\n        // Create new house struct\r\n        House memory newhouse = House(true, _maxResidents, _extraResidents, _housetype, emptyList);\r\n\r\n        houses[msg.sender] = newhouse;\r\n\r\n        // Increase global house count\r\n        houseCount++;\r\n\r\n        emit houseAddedEvent(_maxResidents, _extraResidents);\r\n    }\r\n\r\n    function addPerson(bool _ismale,\r\n                       bool _ishispanic,\r\n                       uint32 _age,\r\n                       uint32 _birthdate,\r\n                       bytes32 _race,\r\n                       bytes32 _liveReason,\r\n                       bytes32 _relation) public {\r\n\r\n        House storage currentHouse = houses[msg.sender];\r\n        // Ensure house for address exists before adding\r\n        require(currentHouse.registered == true, \"There is no house registered for this address.\");\r\n        // Require house of address to have resident count within range\r\n        require(currentHouse.residentList.length < currentHouse.maxResidents, \"Max registered people for this House.\");\r\n\r\n        Person memory newPerson =  Person(true,\r\n                                          personCount,\r\n                                          msg.sender,\r\n                                          _ismale,\r\n                                          _ishispanic,\r\n                                          _age,\r\n                                          _birthdate,\r\n                                          _race,\r\n                                          _liveReason,\r\n                                          _relation);\r\n        // Map new person struct\r\n        people[personCount] = newPerson;\r\n\r\n        // Add person ID to house residentList\r\n        houses[msg.sender].residentList.push(personCount);\r\n        \r\n        // Increase global person count (iD)\r\n        personCount++;\r\n    }\r\n\r\n    // Return House struct params\r\n    function getHouse() public view returns (bool, uint, uint, string memory, uint[] memory) {\r\n        \r\n        House storage thisHouse = houses[msg.sender];\r\n\r\n        bool resiValid = thisHouse.registered;\r\n        uint resiNum = thisHouse.maxResidents;\r\n        uint resiAdd = thisHouse.extraResidents;\r\n        string storage houseType = thisHouse.houseType;\r\n        uint[] memory resiList = thisHouse.residentList;\r\n\r\n        return (resiValid, resiNum, resiAdd, houseType, resiList);\r\n    }\r\n\r\n    // Return Person struct params\r\n    function getPerson(uint index) public view returns (bool,\r\n                                                        address,\r\n                                                        bool,\r\n                                                        bool,\r\n                                                        uint32,\r\n                                                        uint32,\r\n                                                        bytes32) {\r\n        Person storage thisPerson = people[index];\r\n\r\n        bool registered = thisPerson.registered;\r\n        address home = thisPerson.home;\r\n        bool isMale = thisPerson.isMale;\r\n        bool isHispanic = thisPerson.isHispanic;\r\n        uint32 age = thisPerson.age;\r\n        uint32 birthDate = thisPerson.birthDate;\r\n        bytes32 race = thisPerson.race;\r\n\r\n        return (registered, home, isMale, isHispanic, age, birthDate, race);\r\n    }\r\n\r\n    // Return additional Person details to avoid\r\n    // stack overflow when using getPerson() getter\r\n    function getPersonMore(uint index) public view returns (bytes32,\r\n                                                            bytes32) {\r\n        Person storage thisPerson = people[index];\r\n\r\n        bytes32 liveReason = thisPerson.liveReason;\r\n        bytes32 relation = thisPerson.relation;\r\n\r\n        return (liveReason, relation);\r\n    }\r\n\r\n    // TEST FUNCTION\r\n    function getPeople(uint[] memory resiNums) public view returns (bool[] memory,\r\n                                                                    bool[] memory,\r\n                                                                    bool[] memory,\r\n                                                                    uint[] memory,\r\n                                                                    uint[] memory,\r\n                                                                    bytes32[] memory){\r\n\r\n        for (uint i = 0; i < resiNums.length; i++) {\r\n            require(people[resiNums[i]].registered == true, \"Invalid person ID requested.\");\r\n        }\r\n      \r\n        bool[] memory registered = new bool[](resiNums.length);\r\n        bool[] memory isMale = new bool[](resiNums.length);\r\n        bool[] memory isHispanic = new bool[](resiNums.length);\r\n        uint[] memory age = new uint[](resiNums.length);\r\n        uint[] memory birthDate = new uint[](resiNums.length);\r\n        bytes32[] memory race = new bytes32[](resiNums.length);\r\n\r\n        for (uint i = 0; i < resiNums.length; i++) {\r\n\r\n            registered[i] = people[resiNums[i]].registered;\r\n            isMale[i] = people[resiNums[i]].isMale;\r\n            isHispanic[i] = people[resiNums[i]].isHispanic;\r\n            age[i] = people[resiNums[i]].age;\r\n            birthDate[i] = people[resiNums[i]].birthDate;\r\n            race[i] = people[resiNums[i]].race;\r\n        }\r\n        return (registered, isMale, isHispanic, age, birthDate, race);\r\n    }\r\n\r\n    // TEST FUNCTION\r\n    function getPeopleMore(uint[] memory resiNums) public view returns (bytes32[] memory,\r\n                                                                        bytes32[] memory){\r\n        \r\n        for (uint i = 0; i < resiNums.length; i++) {\r\n            require(people[resiNums[i]].registered == true, \"Invalid person ID requested.\");\r\n        }\r\n      \r\n        bytes32[] memory liveReason = new bytes32[](resiNums.length);\r\n        bytes32[] memory relation = new bytes32[](resiNums.length);\r\n\r\n        for (uint i = 0; i < resiNums.length; i++) {\r\n\r\n            liveReason[i] = people[resiNums[i]].liveReason;\r\n            relation[i] = people[resiNums[i]].relation;\r\n        }\r\n        return (liveReason, relation);\r\n    }\r\n}",
  "sourcePath": "C:\\Users\\Jerrbear\\Desktop\\solidity\\census\\contracts\\Census.sol",
  "compiler": {
    "name": "solc",
    "version": "0.5.16+commit.9c3226ce.Emscripten.clang"
  },
  "schemaVersion": "3.0.23",
  "updatedAt": "2020-04-02T00:41:36.109Z",
  "networkType": "ethereum",
  "devdoc": {
    "methods": {}
  },
  "userdoc": {
    "methods": {}
  }
}