{
  "contractName": "Census",
  "abi": [
    {
      "inputs": [],
      "payable": false,
      "stateMutability": "nonpayable",
      "type": "constructor"
    },
    {
      "anonymous": false,
      "inputs": [
        {
          "indexed": true,
          "internalType": "uint256",
          "name": "_maxResidents",
          "type": "uint256"
        },
        {
          "indexed": true,
          "internalType": "uint256",
          "name": "_extraResidents",
          "type": "uint256"
        },
        {
          "indexed": true,
          "internalType": "string",
          "name": "_housetype",
          "type": "string"
        }
      ],
      "name": "houseAddedEvent",
      "type": "event"
    },
    {
      "constant": true,
      "inputs": [],
      "name": "houseCount",
      "outputs": [
        {
          "internalType": "uint256",
          "name": "",
          "type": "uint256"
        }
      ],
      "payable": false,
      "stateMutability": "view",
      "type": "function"
    },
    {
      "constant": true,
      "inputs": [
        {
          "internalType": "address",
          "name": "",
          "type": "address"
        }
      ],
      "name": "houses",
      "outputs": [
        {
          "internalType": "bool",
          "name": "registered",
          "type": "bool"
        },
        {
          "internalType": "uint256",
          "name": "maxResidents",
          "type": "uint256"
        },
        {
          "internalType": "uint256",
          "name": "extraResidents",
          "type": "uint256"
        },
        {
          "internalType": "string",
          "name": "houseType",
          "type": "string"
        }
      ],
      "payable": false,
      "stateMutability": "view",
      "type": "function"
    },
    {
      "constant": true,
      "inputs": [],
      "name": "owner",
      "outputs": [
        {
          "internalType": "address",
          "name": "",
          "type": "address"
        }
      ],
      "payable": false,
      "stateMutability": "view",
      "type": "function"
    },
    {
      "constant": true,
      "inputs": [
        {
          "internalType": "uint256",
          "name": "",
          "type": "uint256"
        }
      ],
      "name": "people",
      "outputs": [
        {
          "internalType": "bool",
          "name": "registered",
          "type": "bool"
        },
        {
          "internalType": "uint256",
          "name": "id",
          "type": "uint256"
        },
        {
          "internalType": "address",
          "name": "home",
          "type": "address"
        },
        {
          "internalType": "bool",
          "name": "isMale",
          "type": "bool"
        },
        {
          "internalType": "bool",
          "name": "isHispanic",
          "type": "bool"
        },
        {
          "internalType": "uint256",
          "name": "age",
          "type": "uint256"
        },
        {
          "internalType": "uint256",
          "name": "birthDate",
          "type": "uint256"
        },
        {
          "internalType": "string",
          "name": "race",
          "type": "string"
        }
      ],
      "payable": false,
      "stateMutability": "view",
      "type": "function"
    },
    {
      "constant": true,
      "inputs": [],
      "name": "personCount",
      "outputs": [
        {
          "internalType": "uint256",
          "name": "",
          "type": "uint256"
        }
      ],
      "payable": false,
      "stateMutability": "view",
      "type": "function"
    },
    {
      "constant": false,
      "inputs": [
        {
          "internalType": "uint256",
          "name": "_maxResidents",
          "type": "uint256"
        },
        {
          "internalType": "uint256",
          "name": "_extraResidents",
          "type": "uint256"
        },
        {
          "internalType": "string",
          "name": "_housetype",
          "type": "string"
        }
      ],
      "name": "addHouse",
      "outputs": [],
      "payable": false,
      "stateMutability": "nonpayable",
      "type": "function"
    },
    {
      "constant": false,
      "inputs": [
        {
          "internalType": "bool",
          "name": "_ismale",
          "type": "bool"
        },
        {
          "internalType": "bool",
          "name": "_ishispanic",
          "type": "bool"
        },
        {
          "internalType": "uint256",
          "name": "_age",
          "type": "uint256"
        },
        {
          "internalType": "uint256",
          "name": "_birthdate",
          "type": "uint256"
        },
        {
          "internalType": "string",
          "name": "_race",
          "type": "string"
        }
      ],
      "name": "addPerson",
      "outputs": [],
      "payable": false,
      "stateMutability": "nonpayable",
      "type": "function"
    },
    {
      "constant": true,
      "inputs": [
        {
          "internalType": "uint256",
          "name": "_index",
          "type": "uint256"
        }
      ],
      "name": "getResident",
      "outputs": [
        {
          "components": [
            {
              "internalType": "bool",
              "name": "registered",
              "type": "bool"
            },
            {
              "internalType": "uint256",
              "name": "id",
              "type": "uint256"
            },
            {
              "internalType": "address",
              "name": "home",
              "type": "address"
            },
            {
              "internalType": "bool",
              "name": "isMale",
              "type": "bool"
            },
            {
              "internalType": "bool",
              "name": "isHispanic",
              "type": "bool"
            },
            {
              "internalType": "uint256",
              "name": "age",
              "type": "uint256"
            },
            {
              "internalType": "uint256",
              "name": "birthDate",
              "type": "uint256"
            },
            {
              "internalType": "string",
              "name": "race",
              "type": "string"
            }
          ],
          "internalType": "struct Census.Person",
          "name": "ppls",
          "type": "tuple"
        }
      ],
      "payable": false,
      "stateMutability": "view",
      "type": "function"
    },
    {
      "constant": true,
      "inputs": [],
      "name": "getHouse",
      "outputs": [
        {
          "internalType": "uint256",
          "name": "x",
          "type": "uint256"
        },
        {
          "internalType": "uint256",
          "name": "y",
          "type": "uint256"
        },
        {
          "internalType": "uint256[]",
          "name": "z",
          "type": "uint256[]"
        }
      ],
      "payable": false,
      "stateMutability": "view",
      "type": "function"
    },
    {
      "constant": true,
      "inputs": [],
      "name": "getHouseCount",
      "outputs": [
        {
          "internalType": "uint256",
          "name": "x",
          "type": "uint256"
        }
      ],
      "payable": false,
      "stateMutability": "view",
      "type": "function"
    }
  ],
  "bytecode": "0x608060405234801561001057600080fd5b50336000806101000a81548173ffffffffffffffffffffffffffffffffffffffff021916908373ffffffffffffffffffffffffffffffffffffffff16021790555060006001819055506000600281905550611602806100706000396000f3fe608060405234801561001057600080fd5b506004361061009e5760003560e01c80639e7a13ad116100665780639e7a13ad14610150578063bd74f8b114610187578063dd82ce03146101a5578063e2b0966c146101d5578063f885fe4f146101f15761009e565b806304e2064f146100a3578063607bd671146100c357806378495bf8146100e15780637abb3d1b146100ff5780638da5cb5b14610132575b600080fd5b6100ab61020d565b6040516100ba939291906113cc565b60405180910390f35b6100cb6102d0565b6040516100d891906113b1565b60405180910390f35b6100e96102da565b6040516100f691906113b1565b60405180910390f35b61011960048036036101149190810190610d8f565b6102e0565b60405161012994939291906112e3565b60405180910390f35b61013a6103b5565b6040516101479190611243565b60405180910390f35b61016a60048036036101659190810190610e47565b6103da565b60405161017e98979695949392919061125e565b60405180910390f35b61018f610501565b60405161019c91906113b1565b60405180910390f35b6101bf60048036036101ba9190810190610e47565b610507565b6040516101cc919061138f565b60405180910390f35b6101ef60048036036101ea9190810190610e70565b61069c565b005b61020b60048036036102069190810190610db8565b6108a9565b005b60008060606000600360003373ffffffffffffffffffffffffffffffffffffffff1673ffffffffffffffffffffffffffffffffffffffff16815260200190815260200160002090506000816001015490506000826001015490506060836004018054806020026020016040519081016040528092919081815260200182805480156102b757602002820191906000526020600020905b8154815260200190600101908083116102a3575b5050505050905082828296509650965050505050909192565b6000600254905090565b60015481565b60036020528060005260406000206000915090508060000160009054906101000a900460ff1690806001015490806002015490806003018054600181600116156101000203166002900480601f0160208091040260200160405190810160405280929190818152602001828054600181600116156101000203166002900480156103ab5780601f10610380576101008083540402835291602001916103ab565b820191906000526020600020905b81548152906001019060200180831161038e57829003601f168201915b5050505050905084565b6000809054906101000a900473ffffffffffffffffffffffffffffffffffffffff1681565b60046020528060005260406000206000915090508060000160009054906101000a900460ff16908060010154908060020160009054906101000a900473ffffffffffffffffffffffffffffffffffffffff16908060020160149054906101000a900460ff16908060020160159054906101000a900460ff1690806003015490806004015490806005018054600181600116156101000203166002900480601f0160208091040260200160405190810160405280929190818152602001828054600181600116156101000203166002900480156104f75780601f106104cc576101008083540402835291602001916104f7565b820191906000526020600020905b8154815290600101906020018083116104da57829003601f168201915b5050505050905088565b60025481565b61050f610b78565b60046000838152602001908152602001600020604051806101000160405290816000820160009054906101000a900460ff16151515158152602001600182015481526020016002820160009054906101000a900473ffffffffffffffffffffffffffffffffffffffff1673ffffffffffffffffffffffffffffffffffffffff1673ffffffffffffffffffffffffffffffffffffffff1681526020016002820160149054906101000a900460ff161515151581526020016002820160159054906101000a900460ff161515151581526020016003820154815260200160048201548152602001600582018054600181600116156101000203166002900480601f01602080910402602001604051908101604052809291908181526020018280546001816001161561010002031660029004801561068c5780601f106106615761010080835404028352916020019161068c565b820191906000526020600020905b81548152906001019060200180831161066f57829003601f168201915b5050505050815250509050919050565b60001515600360003373ffffffffffffffffffffffffffffffffffffffff1673ffffffffffffffffffffffffffffffffffffffff16815260200190815260200160002060000160009054906101000a900460ff16151514610732576040517f08c379a00000000000000000000000000000000000000000000000000000000081526004016107299061136f565b60405180910390fd5b606060006040519080825280602002602001820160405280156107645781602001602082028038833980820191505090505b50905061076f610bd9565b6040518060a0016040528060011515815260200186815260200185815260200184815260200183815250905080600360003373ffffffffffffffffffffffffffffffffffffffff1673ffffffffffffffffffffffffffffffffffffffff16815260200190815260200160002060008201518160000160006101000a81548160ff0219169083151502179055506020820151816001015560408201518160020155606082015181600301908051906020019061082b929190610c0a565b506080820151816004019080519060200190610848929190610c8a565b509050506002600081548092919060010191905055508260405161086c919061122c565b604051809103902084867fa5c5b3c988959385ca81b0d504f29a0dd245b898621b0a53b037e1d8cf36607f60405160405180910390a45050505050565b6000600360003373ffffffffffffffffffffffffffffffffffffffff1673ffffffffffffffffffffffffffffffffffffffff1681526020019081526020016000209050600115158160000160009054906101000a900460ff16151514610944576040517f08c379a000000000000000000000000000000000000000000000000000000000815260040161093b9061134f565b60405180910390fd5b8060010154816004018054905010610991576040517f08c379a00000000000000000000000000000000000000000000000000000000081526004016109889061132f565b60405180910390fd5b610999610b78565b60405180610100016040528060011515815260200160015481526020013373ffffffffffffffffffffffffffffffffffffffff168152602001881515815260200187151581526020018681526020018581526020018481525090508060046000600154815260200190815260200160002060008201518160000160006101000a81548160ff0219169083151502179055506020820151816001015560408201518160020160006101000a81548173ffffffffffffffffffffffffffffffffffffffff021916908373ffffffffffffffffffffffffffffffffffffffff16021790555060608201518160020160146101000a81548160ff02191690831515021790555060808201518160020160156101000a81548160ff02191690831515021790555060a0820151816003015560c0820151816004015560e0820151816005019080519060200190610aeb929190610c0a565b50905050600360003373ffffffffffffffffffffffffffffffffffffffff1673ffffffffffffffffffffffffffffffffffffffff168152602001908152602001600020600401600154908060018154018082558091505090600182039060005260206000200160009091929091909150555060016000815480929190600101919050555050505050505050565b60405180610100016040528060001515815260200160008152602001600073ffffffffffffffffffffffffffffffffffffffff1681526020016000151581526020016000151581526020016000815260200160008152602001606081525090565b6040518060a00160405280600015158152602001600081526020016000815260200160608152602001606081525090565b828054600181600116156101000203166002900490600052602060002090601f016020900481019282601f10610c4b57805160ff1916838001178555610c79565b82800160010185558215610c79579182015b82811115610c78578251825591602001919060010190610c5d565b5b509050610c869190610cd7565b5090565b828054828255906000526020600020908101928215610cc6579160200282015b82811115610cc5578251825591602001919060010190610caa565b5b509050610cd39190610cd7565b5090565b610cf991905b80821115610cf5576000816000905550600101610cdd565b5090565b90565b600081359050610d0b8161157a565b92915050565b600081359050610d2081611591565b92915050565b600082601f830112610d3757600080fd5b8135610d4a610d4582611437565b61140a565b91508082526020830160208301858383011115610d6657600080fd5b610d71838284611527565b50505092915050565b600081359050610d89816115a8565b92915050565b600060208284031215610da157600080fd5b6000610daf84828501610cfc565b91505092915050565b600080600080600060a08688031215610dd057600080fd5b6000610dde88828901610d11565b9550506020610def88828901610d11565b9450506040610e0088828901610d7a565b9350506060610e1188828901610d7a565b925050608086013567ffffffffffffffff811115610e2e57600080fd5b610e3a88828901610d26565b9150509295509295909350565b600060208284031215610e5957600080fd5b6000610e6784828501610d7a565b91505092915050565b600080600060608486031215610e8557600080fd5b6000610e9386828701610d7a565b9350506020610ea486828701610d7a565b925050604084013567ffffffffffffffff811115610ec157600080fd5b610ecd86828701610d26565b9150509250925092565b6000610ee3838361120e565b60208301905092915050565b610ef8816114df565b82525050565b610f07816114df565b82525050565b6000610f1882611473565b610f2281856114a1565b9350610f2d83611463565b8060005b83811015610f5e578151610f458882610ed7565b9750610f5083611494565b925050600181019050610f31565b5085935050505092915050565b610f74816114f1565b82525050565b610f83816114f1565b82525050565b6000610f9482611489565b610f9e81856114d4565b9350610fae818560208601611536565b80840191505092915050565b6000610fc58261147e565b610fcf81856114b2565b9350610fdf818560208601611536565b610fe881611569565b840191505092915050565b6000610ffe8261147e565b61100881856114c3565b9350611018818560208601611536565b61102181611569565b840191505092915050565b60006110396025836114c3565b91507f4d617820726567697374657265642070656f706c6520666f722074686973204860008301527f6f7573652e0000000000000000000000000000000000000000000000000000006020830152604082019050919050565b600061109f602e836114c3565b91507f5468657265206973206e6f20686f757365207265676973746572656420666f7260008301527f207468697320616464726573732e0000000000000000000000000000000000006020830152604082019050919050565b6000611105602c836114c3565b91507f5468697320616464726573732068617320616c7265616479207265676973746560008301527f726564206120686f7573652e00000000000000000000000000000000000000006020830152604082019050919050565b6000610100830160008301516111776000860182610f6b565b50602083015161118a602086018261120e565b50604083015161119d6040860182610eef565b5060608301516111b06060860182610f6b565b5060808301516111c36080860182610f6b565b5060a08301516111d660a086018261120e565b5060c08301516111e960c086018261120e565b5060e083015184820360e08601526112018282610fba565b9150508091505092915050565b6112178161151d565b82525050565b6112268161151d565b82525050565b60006112388284610f89565b915081905092915050565b60006020820190506112586000830184610efe565b92915050565b600061010082019050611274600083018b610f7a565b611281602083018a61121d565b61128e6040830189610efe565b61129b6060830188610f7a565b6112a86080830187610f7a565b6112b560a083018661121d565b6112c260c083018561121d565b81810360e08301526112d48184610ff3565b90509998505050505050505050565b60006080820190506112f86000830187610f7a565b611305602083018661121d565b611312604083018561121d565b81810360608301526113248184610ff3565b905095945050505050565b600060208201905081810360008301526113488161102c565b9050919050565b6000602082019050818103600083015261136881611092565b9050919050565b60006020820190508181036000830152611388816110f8565b9050919050565b600060208201905081810360008301526113a9818461115e565b905092915050565b60006020820190506113c6600083018461121d565b92915050565b60006060820190506113e1600083018661121d565b6113ee602083018561121d565b81810360408301526114008184610f0d565b9050949350505050565b6000604051905081810181811067ffffffffffffffff8211171561142d57600080fd5b8060405250919050565b600067ffffffffffffffff82111561144e57600080fd5b601f19601f8301169050602081019050919050565b6000819050602082019050919050565b600081519050919050565b600081519050919050565b600081519050919050565b6000602082019050919050565b600082825260208201905092915050565b600082825260208201905092915050565b600082825260208201905092915050565b600081905092915050565b60006114ea826114fd565b9050919050565b60008115159050919050565b600073ffffffffffffffffffffffffffffffffffffffff82169050919050565b6000819050919050565b82818337600083830152505050565b60005b83811015611554578082015181840152602081019050611539565b83811115611563576000848401525b50505050565b6000601f19601f8301169050919050565b611583816114df565b811461158e57600080fd5b50565b61159a816114f1565b81146115a557600080fd5b50565b6115b18161151d565b81146115bc57600080fd5b5056fea365627a7a72315820fc56b518281a80aaf5f3b6c88e2441284a7a862e6a173d187921345e55ec42d56c6578706572696d656e74616cf564736f6c63430005100040",
  "source": "pragma solidity ^0.5.0;\r\npragma experimental ABIEncoderV2;\r\n\r\ncontract Census {\r\n    \r\n    // ORACLE: MASTER ADDRESS FILE\r\n    // a token is created for every address on file\r\n    // this token is used as a one-time verification\r\n    // verifyToken function will verify token is valid\r\n    // once verified, will grant address permission to\r\n    // complete Census.\r\n    // Number of tokens generated will coincide with total\r\n    // verified address and token cannot be traced to address\r\n    \r\n    \r\n    // Initialize contract owner\r\n    address public owner;\r\n\r\n    // Global counter for Person struct ID\r\n    uint public personCount;\r\n    // Global counter for House count\r\n    uint public houseCount;\r\n\r\n    // House struct\r\n    struct House {\r\n        bool registered;\r\n        uint maxResidents;\r\n        uint extraResidents;\r\n        string houseType; // House, Apartment, Mobile Home\r\n        uint[] residentList;\r\n    }\r\n\r\n    // Person struct\r\n    struct Person {\r\n        bool registered;\r\n        uint id; // peopleCount\r\n        address home; // msg.sender NECESSARY? (home can be assumed from address of transaction)\r\n        bool isMale;\r\n        bool isHispanic;\r\n        uint age;\r\n        uint birthDate; // MMDDYYYY\r\n        string race;\r\n    }\r\n    \r\n\r\n    // stores index of 'Houses' struct by address\r\n    mapping(address => House) public houses;\r\n\r\n    // stores a 'Person' struct as index id\r\n    mapping(uint => Person) public people;\r\n\r\n    event houseAddedEvent (\r\n    uint indexed _maxResidents,\r\n    uint indexed _extraResidents,\r\n    string indexed _housetype\r\n    );\r\n\r\n    // Initialized at contract creation\r\n    constructor() public {\r\n        // Contract owner\r\n        owner = msg.sender;\r\n        personCount = 0;\r\n        houseCount = 0;\r\n    }\r\n\r\n    function verifyTokenOracle(bytes32 _key) private returns (bool) {\r\n        \r\n    }\r\n\r\n    function addHouse(uint _maxResidents, uint _extraResidents, string memory _housetype) public {\r\n        \r\n        // Ensure house is not already registered for address\r\n        require(houses[msg.sender].registered == false, \"This address has already registered a house.\");\r\n\r\n        // Initialize empty residentList array\r\n        uint[] memory emptyList = new uint[](0);\r\n        \r\n        // Create new house struct\r\n        House memory newhouse = House(true, _maxResidents, _extraResidents, _housetype, emptyList);\r\n\r\n        houses[msg.sender] = newhouse;\r\n\r\n        // Increase global house count\r\n        houseCount++;\r\n\r\n        emit houseAddedEvent(_maxResidents, _extraResidents, _housetype);\r\n    }\r\n\r\n\r\n    function addPerson(bool _ismale, bool _ishispanic, uint _age, uint _birthdate, string memory _race) public {\r\n\r\n        House storage currentHouse = houses[msg.sender];\r\n\r\n        // Ensure house for address exists before adding\r\n        require(currentHouse.registered == true, \"There is no house registered for this address.\");\r\n        \r\n        // Require house of address to have resident count within range\r\n        require(currentHouse.residentList.length < currentHouse.maxResidents, \"Max registered people for this House.\");\r\n\r\n        Person memory newPerson =  Person(true, personCount, msg.sender, _ismale, _ishispanic, _age, _birthdate, _race);\r\n        people[personCount] = newPerson;\r\n\r\n        // Add person ID to house residentList\r\n        houses[msg.sender].residentList.push(personCount);\r\n        \r\n        // Increase global person count (iD)\r\n        personCount++;\r\n    }\r\n    \r\n    function getResident(uint _index) public view returns (Person memory ppls) {\r\n        return people[_index];\r\n    }\r\n\r\n    function getHouse() public view returns (uint x, uint y, uint[] memory z) {\r\n        \r\n        House storage thisHouse = houses[msg.sender];\r\n\r\n        uint resiNum = thisHouse.maxResidents;\r\n        uint resiAdd = thisHouse.maxResidents;          \r\n        uint[] memory resiList = thisHouse.residentList;\r\n\r\n        return (resiNum, resiAdd, resiList);\r\n    }\r\n\r\n    function getHouseCount() public view returns(uint x) {\r\n        return (houseCount);\r\n    }\r\n\r\n    // // DEBUG TEST STUFF\r\n    // function returnBool(uint number) public view returns (bool) {\r\n    //     if (number > 9000) {\r\n    //         return true;\r\n    //     }\r\n    //     else {\r\n    //         return false;\r\n    //     }\r\n    // }\r\n\r\n    // function returnOver9000(uint number) public view returns (bool) {\r\n    //     if (returnBool(number) == true) {\r\n    //         return true;\r\n    //     }\r\n    //     else {\r\n    //         return false;\r\n    //     }\r\n    // }\r\n}",
  "sourcePath": "C:\\Users\\Jerrbear\\Desktop\\solidity\\census\\contracts\\Census.sol",
  "compiler": {
    "name": "solc",
    "version": "0.5.16+commit.9c3226ce.Emscripten.clang"
  },
  "schemaVersion": "3.0.23",
  "updatedAt": "2020-03-17T19:05:57.249Z",
  "devdoc": {
    "methods": {}
  },
  "userdoc": {
    "methods": {}
  }
}