{
  "contractName": "Oracle",
  "abi": [
    {
      "inputs": [],
      "payable": false,
      "stateMutability": "nonpayable",
      "type": "constructor"
    },
    {
      "constant": true,
      "inputs": [],
      "name": "totalKeys",
      "outputs": [
        {
          "internalType": "uint256",
          "name": "",
          "type": "uint256"
        }
      ],
      "payable": false,
      "stateMutability": "view",
      "type": "function"
    },
    {
      "constant": true,
      "inputs": [
        {
          "internalType": "address",
          "name": "_key",
          "type": "address"
        }
      ],
      "name": "validateKey",
      "outputs": [
        {
          "internalType": "bool",
          "name": "",
          "type": "bool"
        }
      ],
      "payable": false,
      "stateMutability": "view",
      "type": "function"
    },
    {
      "constant": false,
      "inputs": [
        {
          "internalType": "address",
          "name": "_address",
          "type": "address"
        },
        {
          "internalType": "bytes32",
          "name": "signedHash",
          "type": "bytes32"
        }
      ],
      "name": "keyGen",
      "outputs": [],
      "payable": false,
      "stateMutability": "nonpayable",
      "type": "function"
    },
    {
      "constant": true,
      "inputs": [
        {
          "internalType": "address",
          "name": "_address",
          "type": "address"
        }
      ],
      "name": "getKeyHash",
      "outputs": [
        {
          "internalType": "bytes32",
          "name": "_signedHash",
          "type": "bytes32"
        }
      ],
      "payable": false,
      "stateMutability": "view",
      "type": "function"
    },
    {
      "constant": true,
      "inputs": [
        {
          "internalType": "address",
          "name": "_keyID",
          "type": "address"
        }
      ],
      "name": "getKeyValidity",
      "outputs": [
        {
          "internalType": "bool",
          "name": "",
          "type": "bool"
        }
      ],
      "payable": false,
      "stateMutability": "view",
      "type": "function"
    }
  ],
  "bytecode": "0x608060405234801561001057600080fd5b50600080819055506105fa806100276000396000f3fe608060405234801561001057600080fd5b50600436106100575760003560e01c8063346511481461005c5780634412f343146100b8578063488bdabc14610114578063982481a614610132578063bcfadffe1461018a575b600080fd5b61009e6004803603602081101561007257600080fd5b81019080803573ffffffffffffffffffffffffffffffffffffffff1690602001909291905050506101d8565b604051808215151515815260200191505060405180910390f35b6100fa600480360360208110156100ce57600080fd5b81019080803573ffffffffffffffffffffffffffffffffffffffff169060200190929190505050610285565b604051808215151515815260200191505060405180910390f35b61011c610475565b6040518082815260200191505060405180910390f35b6101746004803603602081101561014857600080fd5b81019080803573ffffffffffffffffffffffffffffffffffffffff16906020019092919050505061047b565b6040518082815260200191505060405180910390f35b6101d6600480360360408110156101a057600080fd5b81019080803573ffffffffffffffffffffffffffffffffffffffff16906020019092919080359060200190929190505050610528565b005b60006101e2610596565b600160008473ffffffffffffffffffffffffffffffffffffffff1673ffffffffffffffffffffffffffffffffffffffff1681526020019081526020016000206040518060800160405290816000820160009054906101000a900460ff161515151581526020016000820160019054906101000a900460ff161515151581526020016001820154815260200160028201548152505090508060000151915050919050565b600060011515600160008473ffffffffffffffffffffffffffffffffffffffff1673ffffffffffffffffffffffffffffffffffffffff16815260200190815260200160002060000160009054906101000a900460ff16151514610350576040517f08c379a000000000000000000000000000000000000000000000000000000000815260040180806020018281038252600c8152602001807f496e76616c6964206b65792e000000000000000000000000000000000000000081525060200191505060405180910390fd5b60001515600160008473ffffffffffffffffffffffffffffffffffffffff1673ffffffffffffffffffffffffffffffffffffffff16815260200190815260200160002060000160019054906101000a900460ff16151514610419576040517f08c379a000000000000000000000000000000000000000000000000000000000815260040180806020018281038252601d8152602001807f4b65792068617320616c7265616479206265656e20636c61696d65642e00000081525060200191505060405180910390fd5b60011515600160008473ffffffffffffffffffffffffffffffffffffffff1673ffffffffffffffffffffffffffffffffffffffff16815260200190815260200160002060000160019054906101000a9050505060019050919050565b60005481565b6000610485610596565b600160008473ffffffffffffffffffffffffffffffffffffffff1673ffffffffffffffffffffffffffffffffffffffff1681526020019081526020016000206040518060800160405290816000820160009054906101000a900460ff161515151581526020016000820160019054906101000a900460ff161515151581526020016001820154815260200160028201548152505090508060600151915050919050565b6000600160008473ffffffffffffffffffffffffffffffffffffffff1673ffffffffffffffffffffffffffffffffffffffff168152602001908152602001600020905081816002018190555060018160000160006101000a81548160ff021916908315150217905550505050565b60405180608001604052806000151581526020016000151581526020016000815260200160008019168152509056fea265627a7a723158207df719110244b76572f75fc10fa23cd45814dcbd79dcaa536258b6fb135608f864736f6c63430005100032",
  "source": "\r\n// Oracle to verify tokens\r\npragma solidity ^0.5.0;\r\n\r\ncontract Oracle {\r\n\r\n    // Assumed from projected U.S. households for 2020\r\n    // to be 333,546,000\r\n    uint public totalKeys;\r\n\r\n    struct Key {\r\n        bool valid;\r\n        bool claimed;\r\n        uint id;\r\n        bytes32 signedHash;\r\n    }\r\n\r\n    mapping(address => Key) keys;\r\n\r\n    constructor() public {\r\n        totalKeys = 0;\r\n        // Generate keys here\r\n    }\r\n\r\n    // Key validity check\r\n    function validateKey(address _key) public view returns(bool) {\r\n        require(keys[_key].valid == true, \"Invalid key.\");\r\n        require(keys[_key].claimed == false, \"Key has already been claimed.\");\r\n        keys[_key].claimed == true;\r\n        return true;\r\n    }\r\n    \r\n    function keyGen(address _address, bytes32 signedHash) public {\r\n        Key storage newKey = keys[_address];\r\n        newKey.signedHash = signedHash;\r\n        newKey.valid = true;\r\n    }\r\n    \r\n    function getKeyHash(address _address) public view returns(bytes32 _signedHash) {\r\n        Key memory newKey = keys[_address];\r\n        return newKey.signedHash;\r\n    }\r\n    function getKeyValidity(address _keyID) public view returns(bool) {\r\n        Key memory targetKey = keys[_keyID];\r\n        return targetKey.valid;\r\n    }\r\n}\r\n",
  "sourcePath": "C:\\Users\\Jerrbear\\Desktop\\solidity\\census\\contracts\\Oracle.sol",
  "compiler": {
    "name": "solc",
    "version": "0.5.16+commit.9c3226ce.Emscripten.clang"
  },
  "schemaVersion": "3.0.23",
  "updatedAt": "2020-03-27T15:37:44.134Z",
  "networkType": "ethereum",
  "devdoc": {
    "methods": {}
  },
  "userdoc": {
    "methods": {}
  }
}