{
  "contractName": "Oracle",
  "abi": [
    {
      "inputs": [],
      "payable": false,
      "stateMutability": "nonpayable",
      "type": "constructor"
    },
    {
      "constant": true,
      "inputs": [],
      "name": "maxKeys",
      "outputs": [
        {
          "internalType": "uint256",
          "name": "",
          "type": "uint256"
        }
      ],
      "payable": false,
      "stateMutability": "view",
      "type": "function"
    },
    {
      "constant": true,
      "inputs": [],
      "name": "totalKeys",
      "outputs": [
        {
          "internalType": "uint256",
          "name": "",
          "type": "uint256"
        }
      ],
      "payable": false,
      "stateMutability": "view",
      "type": "function"
    },
    {
      "constant": false,
      "inputs": [
        {
          "internalType": "uint256",
          "name": "_limit",
          "type": "uint256"
        }
      ],
      "name": "setKeyLimit",
      "outputs": [],
      "payable": false,
      "stateMutability": "nonpayable",
      "type": "function"
    },
    {
      "constant": false,
      "inputs": [
        {
          "internalType": "address",
          "name": "_address",
          "type": "address"
        },
        {
          "internalType": "bytes32",
          "name": "signedHash",
          "type": "bytes32"
        }
      ],
      "name": "keyGen",
      "outputs": [],
      "payable": false,
      "stateMutability": "nonpayable",
      "type": "function"
    },
    {
      "constant": true,
      "inputs": [
        {
          "internalType": "address",
          "name": "_keyID",
          "type": "address"
        }
      ],
      "name": "keyVerify",
      "outputs": [
        {
          "internalType": "bool",
          "name": "_keyValidity",
          "type": "bool"
        }
      ],
      "payable": false,
      "stateMutability": "view",
      "type": "function"
    },
    {
      "constant": true,
      "inputs": [
        {
          "internalType": "address",
          "name": "_address",
          "type": "address"
        }
      ],
      "name": "getKeyHash",
      "outputs": [
        {
          "internalType": "bytes32",
          "name": "_signedHash",
          "type": "bytes32"
        }
      ],
      "payable": false,
      "stateMutability": "view",
      "type": "function"
    }
  ],
  "bytecode": "0x608060405234801561001057600080fd5b50336000806101000a81548173ffffffffffffffffffffffffffffffffffffffff021916908373ffffffffffffffffffffffffffffffffffffffff16021790555060006001819055506064600281905550610673806100706000396000f3fe608060405234801561001057600080fd5b50600436106100625760003560e01c8063488bdabc14610067578063982481a614610085578063ba2abebe146100dd578063bafa710814610139578063bcfadffe14610157578063f9bdbdc0146101a5575b600080fd5b61006f6101d3565b6040518082815260200191505060405180910390f35b6100c76004803603602081101561009b57600080fd5b81019080803573ffffffffffffffffffffffffffffffffffffffff1690602001909291905050506101d9565b6040518082815260200191505060405180910390f35b61011f600480360360208110156100f357600080fd5b81019080803573ffffffffffffffffffffffffffffffffffffffff169060200190929190505050610286565b604051808215151515815260200191505060405180910390f35b610141610333565b6040518082815260200191505060405180910390f35b6101a36004803603604081101561016d57600080fd5b81019080803573ffffffffffffffffffffffffffffffffffffffff16906020019092919080359060200190929190505050610339565b005b6101d1600480360360208110156101bb57600080fd5b810190808035906020019092919050505061048e565b005b60015481565b60006101e3610597565b600360008473ffffffffffffffffffffffffffffffffffffffff1673ffffffffffffffffffffffffffffffffffffffff1681526020019081526020016000206040518060800160405290816000820160009054906101000a900460ff161515151581526020016000820160019054906101000a900460ff161515151581526020016001820154815260200160028201548152505090508060600151915050919050565b6000610290610597565b600360008473ffffffffffffffffffffffffffffffffffffffff1673ffffffffffffffffffffffffffffffffffffffff1681526020019081526020016000206040518060800160405290816000820160009054906101000a900460ff161515151581526020016000820160019054906101000a900460ff161515151581526020016001820154815260200160028201548152505090508060000151915050919050565b60025481565b600060025411610394576040517f08c379a000000000000000000000000000000000000000000000000000000000815260040180806020018281038252602d815260200180610612602d913960400191505060405180910390fd5b600254600154111561040e576040517f08c379a00000000000000000000000000000000000000000000000000000000081526004018080602001828103825260158152602001807f4d6178696d756d206b65797320726561636865642e000000000000000000000081525060200191505060405180910390fd5b6000600360008473ffffffffffffffffffffffffffffffffffffffff1673ffffffffffffffffffffffffffffffffffffffff168152602001908152602001600020905081816002018190555060018160000160006101000a81548160ff021916908315150217905550600160008154809291906001019190505550505050565b6000809054906101000a900473ffffffffffffffffffffffffffffffffffffffff1673ffffffffffffffffffffffffffffffffffffffff163373ffffffffffffffffffffffffffffffffffffffff1614610533576040517f08c379a00000000000000000000000000000000000000000000000000000000081526004018080602001828103825260278152602001806105eb6027913960400191505060405180910390fd5b600254811161058d576040517f08c379a00000000000000000000000000000000000000000000000000000000081526004018080602001828103825260248152602001806105c76024913960400191505060405180910390fd5b8060028190555050565b60405180608001604052806000151581526020016000151581526020016000815260200160008019168152509056fe596f752063616e206f6e6c7920696e637265617365206d61784b657973206c696d69742e4f6e6c792074686520636f6e74726163742063726561746f722063616e2073657420746869732e43616e6e6f7420637265617465206b65792e204e6f206b6579206c696d697420736574206279206f776e65722ea265627a7a723158205b539ad9e6e9da9dc1f4a30819cf0830d589a5a136ebd1cdfdd913bb44aeaa2964736f6c63430005100032",
  "source": "\r\n// Oracle to verify tokens\r\npragma solidity ^0.5.0;\r\n\r\ncontract Oracle {\r\n\r\n    // Projected U.S. households for 2020\r\n    // to be 333,546,000. Total keys tracked to add more\r\n    // visibility of census participation status to\r\n    // the public during census submit timeframe.\r\n\r\n    address owner;\r\n\r\n    uint public totalKeys;\r\n    uint public maxKeys;\r\n\r\n    struct Key {\r\n        bool valid;\r\n        bool claimed;\r\n        uint id;\r\n        bytes32 signedHash;\r\n    }\r\n\r\n    // Mapped address is an address derived from a private key\r\n    // and is NOT an address directly derivable to the address\r\n    // of the key's owner.\r\n    mapping(address => Key) keys;\r\n\r\n    constructor() public {\r\n        owner = msg.sender;\r\n        totalKeys = 0;\r\n        maxKeys = 100; // 100 for DEBUG.\r\n    }\r\n\r\n    // Set (new) key limit\r\n    function setKeyLimit(uint _limit) public {\r\n        // Restrict usage to owner\r\n        require(msg.sender == owner, \"Only the contract creator can set this.\");\r\n        // Only allow limit increase\r\n        require(_limit > maxKeys, \"You can only increase maxKeys limit.\");\r\n        // Assign new limit\r\n        maxKeys = _limit;\r\n    }\r\n\r\n    // Generates a new key\r\n    // NOTE: Function intended to be owner-only. Left public for project\r\n    // demonstration purposes as keys are meant to be generated and then\r\n    // distributed to Census users.\r\n    function keyGen(address _address, bytes32 signedHash) public {\r\n        // Ensures key limit established and\r\n        // prevents creation when limit reached\r\n        require(maxKeys > 0, \"Cannot create key. No key limit set by owner.\");\r\n        require(totalKeys <= maxKeys, \"Maximum keys reached.\");\r\n\r\n        Key storage newKey = keys[_address];\r\n        newKey.signedHash = signedHash;\r\n        newKey.valid = true;\r\n        totalKeys++;\r\n    }\r\n\r\n    // Return key validity status\r\n    function keyVerify(address _keyID) public view returns(bool _keyValidity) {\r\n        Key memory targetKey = keys[_keyID];\r\n        return targetKey.valid;\r\n    }\r\n    \r\n    // Returns key's hash-string\r\n    // NOTE: Trivial. For debug purposes only.\r\n    function getKeyHash(address _address) public view returns(bytes32 _signedHash) {\r\n        Key memory newKey = keys[_address];\r\n        return newKey.signedHash;\r\n    }\r\n}\r\n",
  "sourcePath": "C:\\Users\\Jerrbear\\Desktop\\solidity\\census\\contracts\\Oracle.sol",
  "compiler": {
    "name": "solc",
    "version": "0.5.16+commit.9c3226ce.Emscripten.clang"
  },
  "schemaVersion": "3.0.23",
  "updatedAt": "2020-04-13T22:29:05.619Z",
  "networkType": "ethereum",
  "devdoc": {
    "methods": {}
  },
  "userdoc": {
    "methods": {}
  }
}