{
  "contractName": "Oracle",
  "abi": [
    {
      "inputs": [],
      "payable": false,
      "stateMutability": "nonpayable",
      "type": "constructor"
    },
    {
      "constant": true,
      "inputs": [],
      "name": "totalKeys",
      "outputs": [
        {
          "internalType": "uint256",
          "name": "",
          "type": "uint256"
        }
      ],
      "payable": false,
      "stateMutability": "view",
      "type": "function"
    },
    {
      "constant": false,
      "inputs": [],
      "name": "random",
      "outputs": [
        {
          "internalType": "uint256",
          "name": "",
          "type": "uint256"
        }
      ],
      "payable": false,
      "stateMutability": "nonpayable",
      "type": "function"
    },
    {
      "constant": false,
      "inputs": [],
      "name": "getHash",
      "outputs": [
        {
          "internalType": "bytes32",
          "name": "",
          "type": "bytes32"
        }
      ],
      "payable": false,
      "stateMutability": "nonpayable",
      "type": "function"
    },
    {
      "constant": false,
      "inputs": [],
      "name": "createKey",
      "outputs": [
        {
          "internalType": "bytes32",
          "name": "_newkey",
          "type": "bytes32"
        }
      ],
      "payable": false,
      "stateMutability": "nonpayable",
      "type": "function"
    },
    {
      "constant": true,
      "inputs": [
        {
          "internalType": "bytes32",
          "name": "_key",
          "type": "bytes32"
        }
      ],
      "name": "validateKey",
      "outputs": [
        {
          "internalType": "bool",
          "name": "",
          "type": "bool"
        }
      ],
      "payable": false,
      "stateMutability": "view",
      "type": "function"
    }
  ],
  "bytecode": "0x6080604052600060015534801561001557600080fd5b50600080819055506104348061002c6000396000f3fe608060405234801561001057600080fd5b50600436106100575760003560e01c80630cb935bd1461005c578063488bdabc1461007a5780635c7c49c9146100985780635ec01e4d146100de578063d13319c4146100fc575b600080fd5b61006461011a565b6040518082815260200191505060405180910390f35b610082610174565b6040518082815260200191505060405180910390f35b6100c4600480360360208110156100ae57600080fd5b810190808035906020019092919050505061017a565b604051808215151515815260200191505060405180910390f35b6100e66102e6565b6040518082815260200191505060405180910390f35b610104610329565b6040518082815260200191505060405180910390f35b600080610125610329565b9050600060026000838152602001908152602001600020905060018160000160006101000a81548160ff0219169083151502179055506000808154809291906001019190505550819250505090565b60005481565b6000600115156002600084815260200190815260200160002060000160009054906101000a900460ff16151514610219576040517f08c379a000000000000000000000000000000000000000000000000000000000815260040180806020018281038252600c8152602001807f496e76616c6964206b65792e000000000000000000000000000000000000000081525060200191505060405180910390fd5b600015156002600084815260200190815260200160002060000160019054906101000a900460ff161515146102b6576040517f08c379a000000000000000000000000000000000000000000000000000000000815260040180806020018281038252601d8152602001807f4b65792068617320616c7265616479206265656e20636c61696d65642e00000081525060200191505060405180910390fd5b600115156002600084815260200190815260200160002060000160019054906101000a9050505060019050919050565b600060018060008282540192505081905550600154604051602001808281526020019150506040516020818303038152906040528051906020012060001c905090565b6000806103346102e6565b90506000600282604051602001808281526020019150506040516020818303038152906040526040518082805190602001908083835b6020831061038d578051825260208201915060208101905060208303925061036a565b6001836020036101000a038019825116818451168082178552505050505050905001915050602060405180830381855afa1580156103cf573d6000803e3d6000fd5b5050506040513d60208110156103e457600080fd5b8101908080519060200190929190505050905080925050509056fea265627a7a72315820be5fad43c415086c8be37492f2e8ea84743eccb66b7f1c5f6fa6ba03eaf1dfbc64736f6c63430005100032",
  "source": "\r\n// Assumes the following:\r\n\r\n// Total 'addresses' or valid 'residencies' is stored accurately\r\n// by institution (e.g., government)\r\n\r\n// Key(serial) distributor does not keep record of address\r\n// key was sent to\r\n\r\n\r\n// NOTES:\r\n\r\n// validateKey() is 'public view' as spamming to find a valid key\r\n// for sha3 address is not a feasbile attack with current technology\r\n\r\n// Keyunction made public since key (if spammed)\r\n\r\n// Total addresses = total keys to be minted\r\n\r\n// Map serialized key to integer of array of length 'total addresses'\r\n\r\n// function to validate key was not used\r\n\r\n// returns true bool and marks key as used.\r\n\r\n// DESIGN: Consider two global variables\r\n    // keys used\r\n    // keys max\r\n    // map uint from array of keys[] to serial\r\n    // increased keyused count\r\n\r\n// Sum.deployed().then(function(instance) { sum = instance; });\r\n\r\n\r\n// TODO: Consider events and emit\r\n// Go over private and public\r\n\r\n// Oracle to verify tokens\r\npragma solidity ^0.5.0;\r\n\r\ncontract Oracle {\r\n\r\n    // Assumed from projected U.S. households for 2020\r\n    // to be 333,546,000\r\n    uint public totalKeys;\r\n    \r\n    // Nonce to provide added RNG\r\n    // Kept separate from totalKeys to\r\n    // prevent correlation with nonce\r\n    uint private nonce = 0;\r\n\r\n    struct Key {\r\n        bool valid;\r\n        bool claimed;\r\n        uint id;\r\n    }\r\n\r\n    mapping(bytes32 => Key) keys;\r\n\r\n    constructor() public {\r\n        totalKeys = 0;\r\n        // Generate keys here\r\n    }\r\n\r\n    // Generates random number using nonce\r\n    function random() public returns(uint) {\r\n        nonce += 1;\r\n        return uint(keccak256(abi.encodePacked(nonce)));\r\n    }\r\n\r\n    // Generates key using random number as param\r\n    function getHash() public returns (bytes32) {\r\n        uint randomNumber = random();\r\n        bytes32 hash = sha256(abi.encodePacked(randomNumber));\r\n        return hash;\r\n    }\r\n\r\n    // Generate key and valid its mapped struct\r\n    function createKey() public returns(bytes32 _newkey) {\r\n        bytes32 hash = getHash(); // get key hash\r\n        Key storage newKey = keys[hash]; // get storage mapped Key\r\n        newKey.valid = true; // make key(struct) valid\r\n        totalKeys++;  // Increase total count\r\n        newKey.id == totalKeys;  // Add key ID to struct\r\n        return hash;\r\n    }\r\n\r\n    // Key validity check\r\n    function validateKey(bytes32 _key) public view returns(bool) {\r\n        require(keys[_key].valid == true, \"Invalid key.\");\r\n        require(keys[_key].claimed == false, \"Key has already been claimed.\");\r\n        keys[_key].claimed == true;\r\n        return true;\r\n    }\r\n}",
  "sourcePath": "C:\\Users\\Jerrbear\\Desktop\\solidity\\census\\contracts\\Oracle.sol",
  "compiler": {
    "name": "solc",
    "version": "0.5.16+commit.9c3226ce.Emscripten.clang"
  },
  "schemaVersion": "3.0.23",
  "updatedAt": "2020-03-22T19:57:03.707Z",
  "devdoc": {
    "methods": {}
  },
  "userdoc": {
    "methods": {}
  }
}