{
  "contractName": "Random",
  "abi": [
    {
      "inputs": [],
      "payable": false,
      "stateMutability": "nonpayable",
      "type": "constructor"
    },
    {
      "constant": true,
      "inputs": [],
      "name": "totalKeys",
      "outputs": [
        {
          "internalType": "uint256",
          "name": "",
          "type": "uint256"
        }
      ],
      "payable": false,
      "stateMutability": "view",
      "type": "function"
    },
    {
      "constant": false,
      "inputs": [],
      "name": "random",
      "outputs": [
        {
          "internalType": "uint256",
          "name": "",
          "type": "uint256"
        }
      ],
      "payable": false,
      "stateMutability": "nonpayable",
      "type": "function"
    },
    {
      "constant": false,
      "inputs": [],
      "name": "getHash",
      "outputs": [
        {
          "internalType": "bytes32",
          "name": "",
          "type": "bytes32"
        }
      ],
      "payable": false,
      "stateMutability": "nonpayable",
      "type": "function"
    }
  ],
  "bytecode": "0x6080604052600060015534801561001557600080fd5b50600080819055506101f48061002c6000396000f3fe608060405234801561001057600080fd5b50600436106100415760003560e01c8063488bdabc146100465780635ec01e4d14610064578063d13319c414610082575b600080fd5b61004e6100a0565b6040518082815260200191505060405180910390f35b61006c6100a6565b6040518082815260200191505060405180910390f35b61008a6100e9565b6040518082815260200191505060405180910390f35b60005481565b600060018060008282540192505081905550600154604051602001808281526020019150506040516020818303038152906040528051906020012060001c905090565b6000806100f46100a6565b90506000600282604051602001808281526020019150506040516020818303038152906040526040518082805190602001908083835b6020831061014d578051825260208201915060208101905060208303925061012a565b6001836020036101000a038019825116818451168082178552505050505050905001915050602060405180830381855afa15801561018f573d6000803e3d6000fd5b5050506040513d60208110156101a457600080fd5b8101908080519060200190929190505050905080925050509056fea265627a7a72315820ca214f0f4901e80466b343d129679b6d0533547a57506e664830de8217a8f54264736f6c63430005100032",
  "source": "\r\n// Assumes total 'addresses' or valid 'residencies' \r\n// is stored accurately by institution (e.g., government)\r\n\r\n// Total addresses = total keys to be minted\r\n\r\n// Map serialized key to integer of array of length 'total addresses'\r\n\r\n// function to validate key was not used\r\n\r\n// returns true bool and marks key as used.\r\n\r\n// DESIGN: Consider two global variables\r\n\t// keys used\r\n\t// keys max\r\n\t// map uint from array of keys[] to serial\r\n\t// increased keyused count\r\n\r\n\r\n\r\n// Oracle to verify tokens\r\npragma solidity ^0.5.0;\r\n\r\ncontract Random {\r\n\r\n\t// Assumed from projected U.S. households for 2020\r\n\t// to be 333,546,000\r\n    uint public totalKeys;\r\n    \r\n    // Nonce to provide added RNG\r\n    // Kept separate from totalKeys to\r\n    // prevent correlation with nonce\r\n    uint private nonce = 0;\r\n\r\n    struct Key {\r\n    \tbool valid;\r\n    \tbool claimed;\r\n    \tuint id;\r\n    }\r\n\r\n    mapping(bytes32 => Key) keys;\r\n\r\n    constructor() public {\r\n    \ttotalKeys = 0;\r\n    \t// Generate keys here\r\n    }\r\n\r\n    // Generates random number using nonce\r\n    function random() public returns(uint) {\r\n\r\n        nonce += 1;\r\n\r\n        return uint(keccak256(abi.encodePacked(nonce)));\r\n    }\r\n\r\n    // Generates key using random number as param\r\n    function getHash() public returns (bytes32) {\r\n\r\n    \tuint randomNumber = random();\r\n        bytes32 hash = sha256(abi.encodePacked(randomNumber));\r\n\r\n    \treturn hash;\r\n    }\r\n\r\n    // Generate key and valid its mapped struct\r\n    function createKey() private {\r\n\r\n    \tbytes32 hash = getHash(); // get key hash\r\n    \tkeys[hash].valid == true; // Initialize key struct\r\n    \ttotalKeys++;  // Increase total count\r\n    \tkeys[hash].id == totalKeys;  // Add key ID to struct\r\n\r\n    }\r\n\r\n    function validateKey(bytes32 _key) private view returns(bool) {\r\n    \trequire(keys[_key].valid == true, \"Invalid key.\");\r\n    \trequire(keys[_key].claimed == false, \"Key has already been claimed.\");\r\n\r\n   \t\tkeys[_key].claimed == true;\r\n\r\n   \t\treturn true;\r\n   \t\t// TODO: Should this be an EMIT event?\r\n    }\r\n}",
  "sourcePath": "C:\\Users\\Jerrbear\\Desktop\\solidity\\census\\contracts\\Oracle.sol",
  "compiler": {
    "name": "solc",
    "version": "0.5.16+commit.9c3226ce.Emscripten.clang"
  },
  "schemaVersion": "3.0.23",
  "updatedAt": "2020-03-20T14:52:31.666Z",
  "devdoc": {
    "methods": {}
  },
  "userdoc": {
    "methods": {}
  }
}